{
  "contractName": "API",
  "abi": [
    {
      "inputs": [
        {
          "name": "_database",
          "type": "address"
        }
      ],
      "payable": false,
      "stateMutability": "nonpayable",
      "type": "constructor"
    },
    {
      "constant": true,
      "inputs": [
        {
          "name": "_name",
          "type": "string"
        }
      ],
      "name": "getContract",
      "outputs": [
        {
          "name": "",
          "type": "address"
        }
      ],
      "payable": false,
      "stateMutability": "view",
      "type": "function"
    },
    {
      "constant": true,
      "inputs": [
        {
          "name": "_key",
          "type": "bytes32"
        }
      ],
      "name": "getAddr",
      "outputs": [
        {
          "name": "",
          "type": "address"
        }
      ],
      "payable": false,
      "stateMutability": "view",
      "type": "function"
    },
    {
      "constant": true,
      "inputs": [
        {
          "name": "_key",
          "type": "bytes32"
        }
      ],
      "name": "getUint",
      "outputs": [
        {
          "name": "",
          "type": "uint256"
        }
      ],
      "payable": false,
      "stateMutability": "view",
      "type": "function"
    },
    {
      "constant": true,
      "inputs": [
        {
          "name": "_a",
          "type": "string"
        },
        {
          "name": "_b",
          "type": "bytes32"
        }
      ],
      "name": "hashSB",
      "outputs": [
        {
          "name": "",
          "type": "bytes32"
        }
      ],
      "payable": false,
      "stateMutability": "pure",
      "type": "function"
    },
    {
      "constant": true,
      "inputs": [
        {
          "name": "_functionString",
          "type": "string"
        }
      ],
      "name": "getMethodID",
      "outputs": [
        {
          "name": "",
          "type": "bytes4"
        }
      ],
      "payable": false,
      "stateMutability": "pure",
      "type": "function"
    },
    {
      "constant": true,
      "inputs": [
        {
          "name": "_assetAddress",
          "type": "address"
        }
      ],
      "name": "getAssetFundingToken",
      "outputs": [
        {
          "name": "",
          "type": "address"
        }
      ],
      "payable": false,
      "stateMutability": "view",
      "type": "function"
    },
    {
      "constant": true,
      "inputs": [
        {
          "name": "_assetAddress",
          "type": "address"
        }
      ],
      "name": "getAssetROI",
      "outputs": [
        {
          "name": "",
          "type": "uint256"
        }
      ],
      "payable": false,
      "stateMutability": "view",
      "type": "function"
    },
    {
      "constant": true,
      "inputs": [
        {
          "name": "_assetAddress",
          "type": "address"
        }
      ],
      "name": "getCrowdsaleGoal",
      "outputs": [
        {
          "name": "",
          "type": "uint256"
        }
      ],
      "payable": false,
      "stateMutability": "view",
      "type": "function"
    },
    {
      "constant": true,
      "inputs": [
        {
          "name": "_assetAddress",
          "type": "address"
        }
      ],
      "name": "getCrowdsaleDeadline",
      "outputs": [
        {
          "name": "",
          "type": "uint256"
        }
      ],
      "payable": false,
      "stateMutability": "view",
      "type": "function"
    },
    {
      "constant": true,
      "inputs": [
        {
          "name": "_assetAddress",
          "type": "address"
        }
      ],
      "name": "crowdsaleFinalized",
      "outputs": [
        {
          "name": "",
          "type": "bool"
        }
      ],
      "payable": false,
      "stateMutability": "view",
      "type": "function"
    },
    {
      "constant": true,
      "inputs": [
        {
          "name": "_assetAddress",
          "type": "address"
        }
      ],
      "name": "crowdsalePaid",
      "outputs": [
        {
          "name": "",
          "type": "bool"
        }
      ],
      "payable": false,
      "stateMutability": "view",
      "type": "function"
    },
    {
      "constant": true,
      "inputs": [
        {
          "name": "_assetAddress",
          "type": "address"
        }
      ],
      "name": "crowdsaleFailed",
      "outputs": [
        {
          "name": "",
          "type": "bool"
        }
      ],
      "payable": false,
      "stateMutability": "view",
      "type": "function"
    },
    {
      "constant": true,
      "inputs": [
        {
          "name": "_assetAddress",
          "type": "address"
        }
      ],
      "name": "getAssetManager",
      "outputs": [
        {
          "name": "",
          "type": "address"
        }
      ],
      "payable": false,
      "stateMutability": "view",
      "type": "function"
    },
    {
      "constant": true,
      "inputs": [
        {
          "name": "_assetAddress",
          "type": "address"
        }
      ],
      "name": "getAssetManagerFee",
      "outputs": [
        {
          "name": "",
          "type": "uint256"
        }
      ],
      "payable": false,
      "stateMutability": "view",
      "type": "function"
    },
    {
      "constant": true,
      "inputs": [
        {
          "name": "_assetAddress",
          "type": "address"
        }
      ],
      "name": "getAssetPlatformFee",
      "outputs": [
        {
          "name": "",
          "type": "uint256"
        }
      ],
      "payable": false,
      "stateMutability": "view",
      "type": "function"
    },
    {
      "constant": true,
      "inputs": [
        {
          "name": "_assetAddress",
          "type": "address"
        },
        {
          "name": "_manager",
          "type": "address"
        }
      ],
      "name": "getAssetManagerEscrowID",
      "outputs": [
        {
          "name": "",
          "type": "bytes32"
        }
      ],
      "payable": false,
      "stateMutability": "pure",
      "type": "function"
    },
    {
      "constant": true,
      "inputs": [
        {
          "name": "_managerEscrowID",
          "type": "bytes32"
        }
      ],
      "name": "getAssetManagerEscrow",
      "outputs": [
        {
          "name": "",
          "type": "uint256"
        }
      ],
      "payable": false,
      "stateMutability": "view",
      "type": "function"
    },
    {
      "constant": true,
      "inputs": [
        {
          "name": "_managerEscrowID",
          "type": "bytes32"
        }
      ],
      "name": "getAssetManagerEscrowRemaining",
      "outputs": [
        {
          "name": "",
          "type": "uint256"
        }
      ],
      "payable": false,
      "stateMutability": "view",
      "type": "function"
    },
    {
      "constant": true,
      "inputs": [
        {
          "name": "_managerEscrowID",
          "type": "bytes32"
        }
      ],
      "name": "getAssetManagerEscrowRedeemed",
      "outputs": [
        {
          "name": "",
          "type": "uint256"
        }
      ],
      "payable": false,
      "stateMutability": "view",
      "type": "function"
    },
    {
      "constant": true,
      "inputs": [
        {
          "name": "_assetAddress",
          "type": "address"
        }
      ],
      "name": "getAssetModelID",
      "outputs": [
        {
          "name": "",
          "type": "bytes32"
        }
      ],
      "payable": false,
      "stateMutability": "view",
      "type": "function"
    },
    {
      "constant": true,
      "inputs": [
        {
          "name": "_assetAddress",
          "type": "address"
        }
      ],
      "name": "getAssetOperator",
      "outputs": [
        {
          "name": "",
          "type": "address"
        }
      ],
      "payable": false,
      "stateMutability": "view",
      "type": "function"
    },
    {
      "constant": true,
      "inputs": [
        {
          "name": "_operatorURI",
          "type": "string"
        }
      ],
      "name": "generateOperatorID",
      "outputs": [
        {
          "name": "",
          "type": "bytes32"
        }
      ],
      "payable": false,
      "stateMutability": "pure",
      "type": "function"
    },
    {
      "constant": true,
      "inputs": [
        {
          "name": "_operatorAddress",
          "type": "address"
        }
      ],
      "name": "getOperatorID",
      "outputs": [
        {
          "name": "",
          "type": "bytes32"
        }
      ],
      "payable": false,
      "stateMutability": "view",
      "type": "function"
    },
    {
      "constant": true,
      "inputs": [
        {
          "name": "_operatorID",
          "type": "bytes32"
        }
      ],
      "name": "getOperatorAddress",
      "outputs": [
        {
          "name": "",
          "type": "address"
        }
      ],
      "payable": false,
      "stateMutability": "view",
      "type": "function"
    },
    {
      "constant": true,
      "inputs": [
        {
          "name": "_operatorID",
          "type": "bytes32"
        }
      ],
      "name": "getOperatorIPFS",
      "outputs": [
        {
          "name": "",
          "type": "string"
        }
      ],
      "payable": false,
      "stateMutability": "view",
      "type": "function"
    },
    {
      "constant": true,
      "inputs": [
        {
          "name": "_modelURI",
          "type": "string"
        },
        {
          "name": "_operatorID",
          "type": "bytes32"
        }
      ],
      "name": "generateModelID",
      "outputs": [
        {
          "name": "",
          "type": "bytes32"
        }
      ],
      "payable": false,
      "stateMutability": "pure",
      "type": "function"
    },
    {
      "constant": true,
      "inputs": [
        {
          "name": "_modelID",
          "type": "bytes32"
        }
      ],
      "name": "getModelOperator",
      "outputs": [
        {
          "name": "",
          "type": "address"
        }
      ],
      "payable": false,
      "stateMutability": "view",
      "type": "function"
    },
    {
      "constant": true,
      "inputs": [
        {
          "name": "_modelID",
          "type": "bytes32"
        }
      ],
      "name": "getModelIPFS",
      "outputs": [
        {
          "name": "",
          "type": "string"
        }
      ],
      "payable": false,
      "stateMutability": "view",
      "type": "function"
    },
    {
      "constant": true,
      "inputs": [
        {
          "name": "_manager",
          "type": "address"
        }
      ],
      "name": "getManagerAssetCount",
      "outputs": [
        {
          "name": "",
          "type": "uint256"
        }
      ],
      "payable": false,
      "stateMutability": "view",
      "type": "function"
    },
    {
      "constant": true,
      "inputs": [
        {
          "name": "_manager",
          "type": "address"
        }
      ],
      "name": "getCollateralLevel",
      "outputs": [
        {
          "name": "",
          "type": "uint256"
        }
      ],
      "payable": false,
      "stateMutability": "view",
      "type": "function"
    },
    {
      "constant": true,
      "inputs": [],
      "name": "getPlatformToken",
      "outputs": [
        {
          "name": "",
          "type": "address"
        }
      ],
      "payable": false,
      "stateMutability": "view",
      "type": "function"
    },
    {
      "constant": true,
      "inputs": [],
      "name": "getPlatformTokenFactory",
      "outputs": [
        {
          "name": "",
          "type": "address"
        }
      ],
      "payable": false,
      "stateMutability": "view",
      "type": "function"
    },
    {
      "constant": true,
      "inputs": [],
      "name": "getPlatformFee",
      "outputs": [
        {
          "name": "",
          "type": "uint256"
        }
      ],
      "payable": false,
      "stateMutability": "view",
      "type": "function"
    },
    {
      "constant": true,
      "inputs": [],
      "name": "getPlatformPercentage",
      "outputs": [
        {
          "name": "",
          "type": "uint256"
        }
      ],
      "payable": false,
      "stateMutability": "view",
      "type": "function"
    },
    {
      "constant": true,
      "inputs": [],
      "name": "getPlatformAssetsWallet",
      "outputs": [
        {
          "name": "",
          "type": "address"
        }
      ],
      "payable": false,
      "stateMutability": "view",
      "type": "function"
    },
    {
      "constant": true,
      "inputs": [],
      "name": "getPlatformFundsWallet",
      "outputs": [
        {
          "name": "",
          "type": "address"
        }
      ],
      "payable": false,
      "stateMutability": "view",
      "type": "function"
    },
    {
      "constant": true,
      "inputs": [
        {
          "name": "_contractName",
          "type": "string"
        }
      ],
      "name": "getContractAddress",
      "outputs": [
        {
          "name": "",
          "type": "address"
        }
      ],
      "payable": false,
      "stateMutability": "view",
      "type": "function"
    },
    {
      "constant": true,
      "inputs": [
        {
          "name": "_contract",
          "type": "address"
        }
      ],
      "name": "contractPaused",
      "outputs": [
        {
          "name": "",
          "type": "bool"
        }
      ],
      "payable": false,
      "stateMutability": "view",
      "type": "function"
    },
    {
      "constant": true,
      "inputs": [
        {
          "name": "_account",
          "type": "address"
        }
      ],
      "name": "contractOwner",
      "outputs": [
        {
          "name": "",
          "type": "bool"
        }
      ],
      "payable": false,
      "stateMutability": "view",
      "type": "function"
    }
  ],
  "bytecode": "0x608060405234801561001057600080fd5b506040516020806122e5833981016040525160008054600160a060020a03909216600160a060020a0319909216919091179055612293806100526000396000f3006080604052600436106101c95763ffffffff60e060020a6000350416630109fb8281146101ce57806304433bbc14610203578063058734931461027857806306b895b1146103055780630b98956a146103265780630ebaad4614610347578063111c83fb1461037a5780631e2fc8cb1461038f57806320fe416e146103a45780632fb1c86a146103c557806335817773146103e6578063424f33a81461043f57806343fcb255146104cd5780634ca9d624146105285780634ccee9b6146105495780634e5dc870146105615780635152b14c146105ba5780635a48b46b146105db5780635f05532f146105fc5780636ea8bc101461061d57806371802cb314610632578063756224c6146106535780637bd2ea1c146106745780637e251d571461068c5780638429ae96146106a457806391f0d322146106c557806397f68e49146107205780639a8a301f146107385780639d3ca1eb146107505780639ed374f714610771578063a52f2ccf14610786578063aad01c961461079e578063ac1312c1146107c5578063bd02d0f5146107da578063cb2fb17b146107f2578063e097ec0a14610807578063f0e6e6d514610828578063fb68bb7214610849578063ff002b9f14610861575b600080fd5b3480156101da57600080fd5b506101ef600160a060020a0360043516610882565b604080519115158252519081900360200190f35b34801561020f57600080fd5b506040805160206004803580820135601f810184900484028501840190955284845261025c9436949293602493928401919081908401838280828437509497506109a59650505050505050565b60408051600160a060020a039092168252519081900360200190f35b34801561028457600080fd5b50610290600435610b11565b6040805160208082528351818301528351919283929083019185019080838360005b838110156102ca5781810151838201526020016102b2565b50505050905090810190601f1680156102f75780820380516001836020036101000a031916815260200191505b509250505060405180910390f35b34801561031157600080fd5b5061025c600160a060020a0360043516610c90565b34801561033257600080fd5b5061025c600160a060020a0360043516610cd1565b34801561035357600080fd5b50610368600160a060020a0360043516610d68565b60408051918252519081900360200190f35b34801561038657600080fd5b50610368610df8565b34801561039b57600080fd5b5061025c610e7b565b3480156103b057600080fd5b50610368600160a060020a0360043516610efe565b3480156103d157600080fd5b506101ef600160a060020a0360043516611009565b3480156103f257600080fd5b506040805160206004803580820135601f810184900484028501840190955284845261025c9436949293602493928401919081908401838280828437509497506110a09650505050505050565b34801561044b57600080fd5b506040805160206004803580820135601f81018490048402850184019095528484526104989436949293602493928401919081908401838280828437509497506111769650505050505050565b604080517fffffffff000000000000000000000000000000000000000000000000000000009092168252519081900360200190f35b3480156104d957600080fd5b506040805160206004803580820135601f810184900484028501840190955284845261036894369492936024939284019190819084018382808284375094975050933594506112409350505050565b34801561053457600080fd5b506101ef600160a060020a0360043516611345565b34801561055557600080fd5b5061025c6004356113d5565b34801561056d57600080fd5b506040805160206004803580820135601f810184900484028501840190955284845261036894369492936024939284019190819084018382808284375094975061143c9650505050505050565b3480156105c657600080fd5b506101ef600160a060020a0360043516611530565b3480156105e757600080fd5b50610368600160a060020a03600435166115c7565b34801561060857600080fd5b506101ef600160a060020a036004351661165e565b34801561062957600080fd5b50610368611683565b34801561063e57600080fd5b50610368600160a060020a0360043516611706565b34801561065f57600080fd5b50610368600160a060020a0360043516611796565b34801561068057600080fd5b5061029060043561182d565b34801561069857600080fd5b506103686004356118b8565b3480156106b057600080fd5b50610368600160a060020a0360043516611942565b3480156106d157600080fd5b506040805160206004803580820135601f810184900484028501840190955284845261036894369492936024939284019190819084018382808284375094975050933594506119d99350505050565b34801561072c57600080fd5b5061025c600435611a6e565b34801561074457600080fd5b50610368600435611af9565b34801561075c57600080fd5b5061025c600160a060020a0360043516611b2c565b34801561077d57600080fd5b5061025c611b45565b34801561079257600080fd5b50610368600435611bc8565b3480156107aa57600080fd5b50610368600160a060020a0360043581169060243516611c53565b3480156107d157600080fd5b5061025c611cdc565b3480156107e657600080fd5b50610368600435611d5f565b3480156107fe57600080fd5b5061025c611dc6565b34801561081357600080fd5b50610368600160a060020a0360043516611e49565b34801561083457600080fd5b50610368600160a060020a0360043516611ee0565b34801561085557600080fd5b5061025c60043561211d565b34801561086d57600080fd5b50610368600160a060020a03600435166121a8565b60008054604080517f63726f776473616c652e66696e616c697a656400000000000000000000000000602080830191909152600160a060020a03868116606060020a026033840152835180840360270181526047909301938490528251941693633b7bfda093918291908401908083835b602083106109125780518252601f1990920191602091820191016108f3565b51815160209384036101000a60001901801990921691161790526040805192909401829003822063ffffffff881660e060020a0283526004830152925160248083019650939450929083900301905081600087803b15801561097357600080fd5b505af1158015610987573d6000803e3d6000fd5b505050506040513d602081101561099d57600080fd5b505192915050565b600080546040517f636f6e7472616374000000000000000000000000000000000000000000000000602080830191825285518594600160a060020a0316936304f49a3a9388939092602890920191908401908083835b60208310610a1a5780518252601f1990920191602091820191016109fb565b6001836020036101000a0380198251168184511680821785525050505050509050019150506040516020818303038152906040526040518082805190602001908083835b60208310610a7d5780518252601f199092019160209182019101610a5e565b51815160209384036101000a60001901801990921691161790526040805192909401829003822063ffffffff881660e060020a0283526004830152925160248083019650939450929083900301905081600087803b158015610ade57600080fd5b505af1158015610af2573d6000803e3d6000fd5b505050506040513d6020811015610b0857600080fd5b50519392505050565b600054604080517f6d6f64656c2e6970667300000000000000000000000000000000000000000000602080830191909152602a80830186905283518084039091018152604a909201928390528151606094600160a060020a0316936335f7ff639392909182918401908083835b60208310610b9d5780518252601f199092019160209182019101610b7e565b5181516020939093036101000a60001901801990911692169190911790526040805191909301819003812063ffffffff871660e060020a0282526004820152915160248084019550600094509092839003019050818387803b158015610c0257600080fd5b505af1158015610c16573d6000803e3d6000fd5b505050506040513d6000823e601f3d908101601f191682016040526020811015610c3f57600080fd5b810190808051640100000000811115610c5757600080fd5b82016020810184811115610c6a57600080fd5b8151640100000000811182820187101715610c8457600080fd5b50909695505050505050565b60008082600160a060020a0316634ece90a86040518163ffffffff1660e060020a028152600401602060405180830381600087803b158015610ade57600080fd5b60008054604080517f61737365742e6d616e6167657200000000000000000000000000000000000000602080830191909152606060020a600160a060020a0387811691909102602d840152835160218185030181526041909301938490528251869591909116936304f49a3a93929091829184019080838360208310610a7d5780518252601f199092019160209182019101610a5e565b60008054604080517f63726f776473616c652e646561646c696e650000000000000000000000000000602080830191909152600160a060020a03868116606060020a02603284015283518084036026018152604690930193849052825194169363a855d4ce939182918482019181908490849083106109125780518252601f1990920191602091820191016108f3565b60008054604080517f706c6174666f726d2e70657263656e74616765000000000000000000000000006020808301919091528251808303601301815260339092019283905281518594600160a060020a03169363a855d4ce939290918291840190808383602083106109125780518252601f1990920191602091820191016108f3565b60008054604080517f706c6174666f726d2e77616c6c65742e617373657473000000000000000000006020808301919091528251808303601601815260369092019283905281518594600160a060020a0316936304f49a3a939290918291840190808383602083106109125780518252601f1990920191602091820191016108f3565b60008082905080600160a060020a03166318160ddd6040518163ffffffff1660e060020a028152600401602060405180830381600087803b158015610f4257600080fd5b505af1158015610f56573d6000803e3d6000fd5b505050506040513d6020811015610f6c57600080fd5b5051604080517f2ba1b3a10000000000000000000000000000000000000000000000000000000081529051600160a060020a03841691632ba1b3a19160048083019260209291908290030181600087803b158015610fc957600080fd5b505af1158015610fdd573d6000803e3d6000fd5b505050506040513d6020811015610ff357600080fd5b505160640281151561100157fe5b049392505050565b60008054604080517f7061757365640000000000000000000000000000000000000000000000000000602080830191909152606060020a600160a060020a038781169190910260268401528351601a818503018152603a90930193849052825186959190911693633b7bfda093929091829184019080838360208310610a7d5780518252601f199092019160209182019101610a5e565b600080546040517f636f6e747261637400000000000000000000000000000000000000000000000060208083019182528551600160a060020a03909416936304f49a3a93879392602890910191908401908083835b602083106111145780518252601f1990920191602091820191016110f5565b6001836020036101000a038019825116818451168082178552505050505050905001915050604051602081830303815290604052604051808280519060200190808383602083106109125780518252601f1990920191602091820191016108f3565b6000816040516020018082805190602001908083835b602083106111ab5780518252601f19909201916020918201910161118c565b6001836020036101000a0380198251168184511680821785525050505050509050019150506040516020818303038152906040526040518082805190602001908083835b6020831061120e5780518252601f1990920191602091820191016111ef565b5181516020939093036101000a6000190180199091169216919091179052604051920182900390912095945050505050565b600080828460405160200180807f6d6f64656c2e6964000000000000000000000000000000000000000000000000815250600801836000191660001916815260200182805190602001908083835b602083106112ad5780518252601f19909201916020918201910161128e565b6001836020036101000a038019825116818451168082178552505050505050905001925050506040516020818303038152906040526040518082805190602001908083835b602083106113115780518252601f1990920191602091820191016112f2565b5181516020939093036101000a60001901801990911692169190911790526040519201829003909120979650505050505050565b60008054604080517f63726f776473616c652e70616964000000000000000000000000000000000000602080830191909152600160a060020a03868116606060020a02602e840152835180840360220181526042909301938490528251941693633b7bfda0939182918482019181908490849083106109125780518252601f1990920191602091820191016108f3565b60008054604080517f04f49a3a000000000000000000000000000000000000000000000000000000008152600481018590529051600160a060020a03909216916304f49a3a9160248082019260209290919082900301818787803b15801561097357600080fd5b6000808260405160200180807f6f70657261746f722e7572690000000000000000000000000000000000000000815250600c0182805190602001908083835b6020831061149a5780518252601f19909201916020918201910161147b565b6001836020036101000a0380198251168184511680821785525050505050509050019150506040516020818303038152906040526040518082805190602001908083835b602083106114fd5780518252601f1990920191602091820191016114de565b5181516020939093036101000a600019018019909116921691909117905260405192018290039091209695505050505050565b60008054604080517f6f776e6572000000000000000000000000000000000000000000000000000000602080830191909152606060020a600160a060020a0387811691909102602584015283516019818503018152603990930193849052825186959190911693633b7bfda093929091829184019080838360208310610a7d5780518252601f199092019160209182019101610a5e565b60008054604080517f6f70657261746f72000000000000000000000000000000000000000000000000602080830191909152606060020a600160a060020a038781169190910260288401528351601c818503018152603c9093019384905282518695919091169363031578af93929091829184019080838360208310610a7d5780518252601f199092019160209182019101610a5e565b600061166982610d68565b4211801561167d575061167b82610882565b155b92915050565b60008054604080517f706c6174666f726d2e66656500000000000000000000000000000000000000006020808301919091528251808303600c018152602c9092019283905281518594600160a060020a03169363a855d4ce939290918291840190808383602083106109125780518252601f1990920191602091820191016108f3565b60008054604080517f6d616e616765722e617373657473000000000000000000000000000000000000602080830191909152600160a060020a03868116606060020a02602e84015283518084036022018152604290930193849052825194169363a855d4ce939182918482019181908490849083106109125780518252601f1990920191602091820191016108f3565b60008054604080517f61737365742e6d616e61676572546f6b656e7300000000000000000000000000602080830191909152606060020a600160a060020a038781169190910260338401528351602781850301815260479093019384905282518695919091169363a855d4ce93929091829184019080838360208310610a7d5780518252601f199092019160209182019101610a5e565b600054604080517f6f70657261746f722e6970667300000000000000000000000000000000000000602080830191909152602d80830186905283518084039091018152604d909201928390528151606094600160a060020a0316936335f7ff6393929091829184019080838360208310610b9d5780518252601f199092019160209182019101610b7e565b60008054604080517f61737365742e657363726f770000000000000000000000000000000000000000602080830191909152602c80830187905283518084039091018152604c909201928390528151600160a060020a039094169363a855d4ce9391829190840190808383602083106109125780518252601f1990920191602091820191016108f3565b60008054604080517f63726f776473616c652e676f616c000000000000000000000000000000000000602080830191909152606060020a600160a060020a0387811691909102602e8401528351602281850301815260429093019384905282518695919091169363a855d4ce93929091829184019080838360208310610a7d5780518252601f199092019160209182019101610a5e565b600082826040516020018083805190602001908083835b60208310611a0f5780518252601f1990920191602091820191016119f0565b51815160209384036101000a60001901801990921691161790529201938452506040805180850381529382019081905283519394509283925090840190808383602083106114fd5780518252601f1990920191602091820191016114de565b60008054604080517f6d6f64656c2e6f70657261746f72000000000000000000000000000000000000602080830191909152602e80830187905283518084039091018152604e9092019283905281518594600160a060020a0316936304f49a3a93929091829184019080838360208310610a7d5780518252601f199092019160209182019101610a5e565b6000806000611b0784611bc8565b9150611b12846118b8565b9050611b24818363ffffffff61223f16565b949350505050565b6000806000611b3a84611e49565b9150611b2482611a6e565b60008054604080517f706c6174666f726d2e746f6b656e0000000000000000000000000000000000006020808301919091528251808303600e018152602e9092019283905281518594600160a060020a0316936304f49a3a939290918291840190808383602083106109125780518252601f1990920191602091820191016108f3565b60008054604080517f61737365742e657363726f7752656465656d656400000000000000000000000060208083019190915260348083018790528351808403909101815260549092019283905281518594600160a060020a03169363a855d4ce93929091829184019080838360208310610a7d5780518252601f199092019160209182019101610a5e565b60008083836040516020018083600160a060020a0316600160a060020a0316606060020a02815260140182600160a060020a0316600160a060020a0316606060020a02815260140192505050604051602081830303815290604052604051808280519060200190808383602083106113115780518252601f1990920191602091820191016112f2565b60008054604080517f706c6174666f726d2e77616c6c65742e66756e647300000000000000000000006020808301919091528251808303601501815260359092019283905281518594600160a060020a0316936304f49a3a939290918291840190808383602083106109125780518252601f1990920191602091820191016108f3565b60008054604080517fa855d4ce000000000000000000000000000000000000000000000000000000008152600481018590529051600160a060020a039092169163a855d4ce9160248082019260209290919082900301818787803b15801561097357600080fd5b60008054604080517f706c6174666f726d2e746f6b656e466163746f727900000000000000000000006020808301919091528251808303601501815260359092019283905281518594600160a060020a0316936304f49a3a939290918291840190808383602083106109125780518252601f1990920191602091820191016108f3565b60008054604080517f61737365742e6d6f64656c494400000000000000000000000000000000000000602080830191909152606060020a600160a060020a0387811691909102602d8401528351602181850301815260419093019384905282518695919091169363031578af93929091829184019080838360208310610a7d5780518252601f199092019160209182019101610a5e565b6000805461167d90600160a060020a031663a855d4ce611eff85611706565b60405160200180807f636f6c6c61746572616c2e6c6576656c000000000000000000000000000000008152506010018281526020019150506040516020818303038152906040526040518082805190602001908083835b60208310611f755780518252601f199092019160209182019101611f56565b51815160209384036101000a60001901801990921691161790526040805192909401829003822063ffffffff881660e060020a0283526004830152925160248083019650939450929083900301905081600087803b158015611fd657600080fd5b505af1158015611fea573d6000803e3d6000fd5b505050506040513d602081101561200057600080fd5b5051600054604080517f636f6c6c61746572616c2e6261736500000000000000000000000000000000006020828101919091528251808303600f018152602f909201928390528151600160a060020a039094169363a855d4ce93918291908401908083835b602083106120845780518252601f199092019160209182019101612065565b51815160209384036101000a60001901801990921691161790526040805192909401829003822063ffffffff881660e060020a0283526004830152925160248083019650939450929083900301905081600087803b1580156120e557600080fd5b505af11580156120f9573d6000803e3d6000fd5b505050506040513d602081101561210f57600080fd5b50519063ffffffff61225116565b60008054604080517f6f70657261746f7200000000000000000000000000000000000000000000000060208083019190915260288083018790528351808403909101815260489092019283905281518594600160a060020a0316936304f49a3a93929091829184019080838360208310610a7d5780518252601f199092019160209182019101610a5e565b60008054604080517f61737365742e706c6174666f726d546f6b656e73000000000000000000000000602080830191909152606060020a600160a060020a038781169190910260348401528351602881850301815260489093019384905282518695919091169363a855d4ce93929091829184019080838360208310610a7d5780518252601f199092019160209182019101610a5e565b60008282111561224b57fe5b50900390565b60008282018381101561226057fe5b93925050505600a165627a7a723058209a9030affcfa93e0986533864608baf8683e232971ddb0f0927a8e615d2a46550029",
  "source": "pragma solidity ^0.4.24;\n\n\nimport \"../math/SafeMath.sol\";\n\ninterface TokenView {\n  function totalSupply() external view returns (uint);\n  function balanceOf(address _investor) external view returns (uint);\n  function valuePerToken() external view returns (uint);\n  function scalingFactor() external view returns (uint);\n  function assetIncome() external view returns (uint);\n  function getERC20() external view returns (address);\n}\n\ninterface DBView {\n  function uintStorage(bytes32 _key) external view returns (uint);\n  function stringStorage(bytes32 _key) external  view returns (string);\n  function addressStorage(bytes32 _key) external  view returns (address);\n  function bytesStorage(bytes32 _key) external view returns (bytes);\n  function bytes32Storage(bytes32 _key) external view returns (bytes32);\n  function boolStorage(bytes32 _key) external view returns (bool);\n  function intStorage(bytes32 _key) external view returns (bool);\n}\n\n// @title A contract that gets variables from the _database\n// @notice The API contract can only view the database. It has no write privileges\ncontract API {\n  using SafeMath for uint256;\n\n  DBView private database;\n  uint constant scalingFactor = 10e32;\n\n  constructor(address _database)\n  public {\n    database = DBView(_database);\n  }\n\n  function getContract(string _name)\n  public\n  view\n  returns (address) {\n    return database.addressStorage(keccak256(abi.encodePacked('contract', _name)));\n  }\n\n  function getAddr(bytes32 _key)\n  public\n  view\n  returns (address) {\n    return database.addressStorage(_key);\n  }\n\n  function getUint(bytes32 _key)\n  public\n  view\n  returns (uint) {\n    return database.uintStorage(_key);\n  }\n\n  function hashSB(string _a, bytes32 _b)\n  public\n  pure\n  returns (bytes32) {\n    return keccak256(abi.encodePacked(_a, _b));\n  }\n\n  function getMethodID(string _functionString)\n  public\n  pure\n  returns (bytes4) {\n    return bytes4(keccak256(abi.encodePacked(_functionString)));\n  }\n\n  //////////////////////////////////////////////////////////////////////////////////////////////////////////////////\n  //                                        Crowdsale and Assets\n  //////////////////////////////////////////////////////////////////////////////////////////////////////////////////\n  function getAssetFundingToken(address _assetAddress)\n  public\n  view\n  returns(address) {\n    address fundingTokenAddress = TokenView(_assetAddress).getERC20();\n    return fundingTokenAddress;\n  }\n\n  // IF we decide not to store assetIncome\n  // function getAssetIncome(address _assetAddress)\n  // public\n  // view\n  // returns (uint) {\n  //   TokenView asset = TokenView(_assetAddress);\n  //   uint valuePerToken =  asset.valuePerToken();\n  //   return (valuePerToken * (asset.totalSupply())) / asset.scalingFactor();\n  // }\n\n  function getAssetROI(address _assetAddress)\n  public\n  view\n  returns (uint) {\n    TokenView assetToken = TokenView(_assetAddress);\n    return (assetToken.assetIncome() * 100) /  assetToken.totalSupply();\n  }\n\n  function getCrowdsaleGoal(address _assetAddress)\n  public\n  view\n  returns(uint) {\n    uint fundingGoal = database.uintStorage(keccak256(abi.encodePacked(\"crowdsale.goal\", _assetAddress)));\n    return fundingGoal;\n  }\n\n  function getCrowdsaleDeadline(address _assetAddress)\n  public\n  view\n  returns(uint) {\n    return database.uintStorage(keccak256(abi.encodePacked(\"crowdsale.deadline\", _assetAddress)));\n  }\n\n  function crowdsaleFinalized(address _assetAddress)\n  public\n  view\n  returns(bool) {\n    return database.boolStorage(keccak256(abi.encodePacked(\"crowdsale.finalized\", _assetAddress)));\n  }\n\n  function crowdsalePaid(address _assetAddress)\n  public\n  view\n  returns(bool) {\n    return database.boolStorage(keccak256(abi.encodePacked(\"crowdsale.paid\", _assetAddress)));\n  }\n\n  function crowdsaleFailed(address _assetAddress)\n  public\n  view\n  returns(bool) {\n    return (now > getCrowdsaleDeadline(_assetAddress) && !crowdsaleFinalized(_assetAddress));\n  }\n\n\n  //////////////////////////////////////////////////////////////////////////////////////////////////////////////////\n  //                                        Asset Manager and Operator\n  //////////////////////////////////////////////////////////////////////////////////////////////////////////////////\n\n  function getAssetManager(address _assetAddress)\n  public\n  view\n  returns(address) {\n    address managerAddress = database.addressStorage(keccak256(abi.encodePacked(\"asset.manager\", _assetAddress)));\n    return managerAddress;\n  }\n\n  function getAssetManagerFee(address _assetAddress)\n  public\n  view\n  returns(uint) {\n    uint managerFee = database.uintStorage(keccak256(abi.encodePacked(\"asset.managerTokens\", _assetAddress)));\n    return managerFee;\n  }\n\n  function getAssetPlatformFee(address _assetAddress)\n  public\n  view\n  returns(uint) {\n    uint platformFee = database.uintStorage(keccak256(abi.encodePacked(\"asset.platformTokens\", _assetAddress)));\n    return platformFee;\n  }\n\n  function getAssetManagerEscrowID(address _assetAddress, address _manager)\n  public\n  pure\n  returns(bytes32) {\n    bytes32 managerEscrowID = keccak256(abi.encodePacked(_assetAddress, _manager));\n    return managerEscrowID;\n  }\n\n  function getAssetManagerEscrow(bytes32 _managerEscrowID)\n  public\n  view\n  returns (uint) {\n    return database.uintStorage(keccak256(abi.encodePacked(\"asset.escrow\", _managerEscrowID)));\n  }\n\n  function getAssetManagerEscrowRemaining(bytes32 _managerEscrowID)\n  public\n  view\n  returns(uint) {\n    uint redeemed = getAssetManagerEscrowRedeemed(_managerEscrowID);\n    uint escrow = getAssetManagerEscrow(_managerEscrowID);\n    return escrow.sub(redeemed);\n  }\n\n  function getAssetManagerEscrowRedeemed(bytes32 _managerEscrowID)\n  public\n  view\n  returns(uint) {\n    uint escrowRedeemed = database.uintStorage(keccak256(abi.encodePacked(\"asset.escrowRedeemed\", _managerEscrowID)));\n    return escrowRedeemed;\n  }\n\n  function getAssetModelID(address _assetAddress)\n  public\n  view\n  returns(bytes32) {\n    bytes32 modelID = database.bytes32Storage(keccak256(abi.encodePacked(\"asset.modelID\", _assetAddress)));\n    return modelID;\n  }\n\n  function getAssetOperator(address _assetAddress)\n  public\n  view\n  returns(address) {\n    bytes32 modelID = getAssetModelID(_assetAddress);\n    address operatorAddress = getModelOperator(modelID);\n    return operatorAddress;\n  }\n\n  function generateOperatorID(string _operatorURI)\n  public\n  pure\n  returns(bytes32) {\n    bytes32 operatorID = keccak256(abi.encodePacked(\"operator.uri\", _operatorURI));\n    return operatorID;\n  }\n\n  function getOperatorID(address _operatorAddress)\n  public\n  view\n  returns(bytes32) {\n    bytes32 operatorID = database.bytes32Storage(keccak256(abi.encodePacked(\"operator\", _operatorAddress)));\n    return operatorID;\n  }\n\n  function getOperatorAddress(bytes32 _operatorID)\n  public\n  view\n  returns(address) {\n    address operatorAddress = database.addressStorage(keccak256(abi.encodePacked(\"operator\", _operatorID)));\n    return operatorAddress;\n  }\n\n  function getOperatorIPFS(bytes32 _operatorID)\n  public\n  view\n  returns(string) {\n    return database.stringStorage(keccak256(abi.encodePacked(\"operator.ipfs\", _operatorID)));\n  }\n\n  function generateModelID(string _modelURI, bytes32 _operatorID)\n  public\n  pure\n  returns(bytes32) {\n    bytes32 modelID = keccak256(abi.encodePacked('model.id', _operatorID, _modelURI));\n    return modelID;\n  }\n\n  function getModelOperator(bytes32 _modelID)\n  public\n  view\n  returns(address) {\n    address operatorAddress = database.addressStorage(keccak256(abi.encodePacked(\"model.operator\", _modelID)));\n    return operatorAddress;\n  }\n\n  function getModelIPFS(bytes32 _modelID)\n  public\n  view\n  returns(string) {\n    return database.stringStorage(keccak256(abi.encodePacked(\"model.ipfs\", _modelID)));\n  }\n\n  function getManagerAssetCount(address _manager)\n  public\n  view\n  returns(uint) {\n    return database.uintStorage(keccak256(abi.encodePacked(\"manager.assets\", _manager)));\n  }\n\n  function getCollateralLevel(address _manager)\n  public\n  view\n  returns(uint) {\n    return database.uintStorage(keccak256(abi.encodePacked(\"collateral.base\"))).add(database.uintStorage(keccak256(abi.encodePacked(\"collateral.level\", getManagerAssetCount(_manager)))));\n  }\n\n\n  //////////////////////////////////////////////////////////////////////////////////////////////////////////////////\n  //                                        Platform and Contract State\n  //////////////////////////////////////////////////////////////////////////////////////////////////////////////////\n//Platform functions\n  function getPlatformToken()\n  public\n  view\n  returns(address) {\n    address tokenAddress = database.addressStorage(keccak256(abi.encodePacked(\"platform.token\")));\n    return tokenAddress;\n  }\n\n  function getPlatformTokenFactory()\n  public\n  view\n  returns(address) {\n    address factoryAddress = database.addressStorage(keccak256(abi.encodePacked(\"platform.tokenFactory\")));\n    return factoryAddress;\n  }\n\n  function getPlatformFee()\n  public\n  view\n  returns(uint) {\n    uint fee = database.uintStorage(keccak256(abi.encodePacked(\"platform.fee\")));\n    return fee;\n  }\n\n  function getPlatformPercentage()\n  public\n  view\n  returns(uint) {\n    uint percentage = database.uintStorage(keccak256(abi.encodePacked(\"platform.percentage\")));\n    return percentage;\n  }\n\n  function getPlatformAssetsWallet()\n  public\n  view\n  returns(address) {\n    address walletAddress = database.addressStorage(keccak256(abi.encodePacked(\"platform.wallet.assets\")));\n    return walletAddress;\n  }\n\n  function getPlatformFundsWallet()\n  public\n  view\n  returns(address) {\n    address walletAddress = database.addressStorage(keccak256(abi.encodePacked(\"platform.wallet.funds\")));\n    return walletAddress;\n  }\n\n  function getContractAddress(string _contractName)\n  public\n  view\n  returns(address) {\n    address contractAddress = database.addressStorage(keccak256(abi.encodePacked(\"contract\", _contractName)));\n    return contractAddress;\n  }\n\n  function contractPaused(address _contract)\n  public\n  view\n  returns(bool) {\n    bool status = database.boolStorage(keccak256(abi.encodePacked(\"paused\", _contract)));\n    return status;\n  }\n\n  //////////////////////////////////////////////////////////////////////////////////////////////////////////////////\n  //                                        Ownership\n  //////////////////////////////////////////////////////////////////////////////////////////////////////////////////\n\n  function contractOwner(address _account)\n  public\n  view\n  returns(bool) {\n    bool status = database.boolStorage(keccak256(abi.encodePacked(\"owner\", _account)));\n    return status;\n  }\n\n}\n",
  "sourcePath": "/home/iamonuwa/Projects/MyBitFoundation/MyBit-Network.tech/contracts/database/API.sol",
  "compiler": {
    "name": "solc",
    "version": "0.4.24+commit.e67f0147.Emscripten.clang"
  },
  "schemaVersion": "3.0.9",
  "updatedAt": "2020-07-27T21:29:53.919Z",
  "devdoc": {
    "methods": {}
  },
  "userdoc": {
    "methods": {
      "contractOwner(address)": {
        "notice": "///////////////////////////////////////////////////////////////////////////////////////////////////////////////"
      },
      "getAssetFundingToken(address)": {
        "notice": "///////////////////////////////////////////////////////////////////////////////////////////////////////////////"
      },
      "getAssetManager(address)": {
        "notice": "///////////////////////////////////////////////////////////////////////////////////////////////////////////////"
      },
      "getPlatformToken()": {
        "notice": "///////////////////////////////////////////////////////////////////////////////////////////////////////////////"
      }
    }
  }
}