{
  "contractName": "AssetGenerator",
  "abi": [
    {
      "inputs": [
        {
          "name": "_database",
          "type": "address"
        },
        {
          "name": "_events",
          "type": "address"
        }
      ],
      "payable": false,
      "stateMutability": "nonpayable",
      "type": "constructor"
    },
    {
      "constant": false,
      "inputs": [
        {
          "name": "_tokenURI",
          "type": "string"
        },
        {
          "name": "_tokenHolders",
          "type": "address[]"
        },
        {
          "name": "_amount",
          "type": "uint256[]"
        }
      ],
      "name": "createAsset",
      "outputs": [
        {
          "name": "",
          "type": "bool"
        }
      ],
      "payable": false,
      "stateMutability": "nonpayable",
      "type": "function"
    },
    {
      "constant": false,
      "inputs": [
        {
          "name": "_tokenURI",
          "type": "string"
        },
        {
          "name": "_tokenHolders",
          "type": "address[]"
        },
        {
          "name": "_amount",
          "type": "uint256[]"
        }
      ],
      "name": "createTradeableAsset",
      "outputs": [
        {
          "name": "",
          "type": "bool"
        }
      ],
      "payable": false,
      "stateMutability": "nonpayable",
      "type": "function"
    },
    {
      "constant": false,
      "inputs": [],
      "name": "destroy",
      "outputs": [],
      "payable": false,
      "stateMutability": "nonpayable",
      "type": "function"
    }
  ],
  "bytecode": "0x608060405234801561001057600080fd5b506040516040806114c5833981016040818152825160209384015160008054600160a060020a03808516600160a060020a03199283161792839055600180548286169316929092179091557f636f6e7472616374000000000000000000000000000000000000000000000000878701527f4d696e746572000000000000000000000000000000000000000000000000000060288701528451600e818803018152602e909601948590528551939692959116936304f49a3a939192909182918401908083835b602083106100f45780518252601f1990920191602091820191016100d5565b51815160209384036101000a60001901801990921691161790526040805192909401829003822063ffffffff88167c01000000000000000000000000000000000000000000000000000000000283526004830152925160248083019650939450929083900301905081600087803b15801561016e57600080fd5b505af1158015610182573d6000803e3d6000fd5b505050506040513d602081101561019857600080fd5b505160028054600160a060020a031916600160a060020a03909216919091179055506112fa9050806101cb6000396000f30060806040526004361061003d5763ffffffff60e060020a6000350416634e38c7f4811461004257806383197ef01461008e578063d23efae7146100a5575b600080fd5b34801561004e57600080fd5b5061007a60246004803582810192908201359181358083019290820135916044359182019101356100dd565b604080519115158252519081900360200190f35b34801561009a57600080fd5b506100a36104d2565b005b3480156100b157600080fd5b5061007a602460048035828101929082013591813580830192908201359160443591820191013561072c565b6000808085841480156100f1575060648611155b15156100fc57600080fd5b600254604080517fdc111bbf00000000000000000000000000000000000000000000000000000000815260006024820181905260048201928352604482018c9052600160a060020a039093169263dc111bbf928d928d92919081906064018585808284378201915050945050505050602060405180830381600087803b15801561018557600080fd5b505af1158015610199573d6000803e3d6000fd5b505050506040513d60208110156101af57600080fd5b50519150600090505b60ff81168611156102ab57600254600160a060020a031663d5895a3c83898960ff86168181106101e457fe5b90506020020135600160a060020a031688888660ff16818110151561020557fe5b905060200201356040518463ffffffff1660e060020a0281526004018084600160a060020a0316600160a060020a0316815260200183600160a060020a0316600160a060020a031681526020018281526020019350505050602060405180830381600087803b15801561027757600080fd5b505af115801561028b573d6000803e3d6000fd5b505050506040513d60208110156102a157600080fd5b50506001016101b8565b600054604080517f61737365742e6d616e6167657200000000000000000000000000000000000000602080830191909152600160a060020a038681166c0100000000000000000000000002602d84015283518084036021018152604190930193849052825194169363ca446dd993918291908401908083835b602083106103435780518252601f199092019160209182019101610324565b5181516020939093036101000a60001901801990911692169190911790526040805191909301819003812063ffffffff871660e060020a0282526004820152336024820152915160448084019550600094509092839003019050818387803b1580156103ae57600080fd5b505af11580156103c2573d6000803e3d6000fd5b50505050600160009054906101000a9004600160a060020a0316600160a060020a03166378576a918a8a85336040518563ffffffff1660e060020a02815260040180806020018060200185600160a060020a0316600160a060020a0316815260200184600160a060020a0316600160a060020a031681526020018381038352600d8152602001807f4173736574206372656174656400000000000000000000000000000000000000815250602001838103825287878281815260200192508082843782019150509650505050505050600060405180830381600087803b1580156104ab57600080fd5b505af11580156104bf573d6000803e3d6000fd5b5060019c9b505050505050505050505050565b600054604080517f6f776e65720000000000000000000000000000000000000000000000000000006020808301919091526c0100000000000000000000000033026025830152825160198184030181526039909201928390528151600160a060020a0390941693633b7bfda093918291908401908083835b602083106105695780518252601f19909201916020918201910161054a565b51815160209384036101000a60001901801990921691161790526040805192909401829003822063ffffffff881660e060020a0283526004830152925160248083019650939450929083900301905081600087803b1580156105ca57600080fd5b505af11580156105de573d6000803e3d6000fd5b505050506040513d60208110156105f457600080fd5b5051151561066357604080517f08c379a000000000000000000000000000000000000000000000000000000000815260206004820152600960248201527f4e6f74206f776e65720000000000000000000000000000000000000000000000604482015290519081900360640190fd5b600154604080517f42b425aa000000000000000000000000000000000000000000000000000000008152306024820181905233604483015231606482015260006084820181905260a06004830152601860a48301527f417373657447656e657261746f722064657374726f796564000000000000000060c48301529151600160a060020a03909316926342b425aa9260e48084019391929182900301818387803b15801561071057600080fd5b505af1158015610724573d6000803e3d6000fd5b503392505050ff5b600080848314801561073f575060648511155b151561074a57600080fd5b8787878787876107586109e7565b60608082528101869052806020810160408201608083018a8a808284379091018581038452888152602090810191508990890280828437909101858103835286815260209081019150879087028082843782019150509950505050505050505050604051809103906000f0801580156107d5573d6000803e3d6000fd5b50600054604080517f61737365742e6d616e6167657200000000000000000000000000000000000000602080830191909152600160a060020a038581166c0100000000000000000000000002602d8401528351808403602101815260419093019384905282519596509093169363ca446dd9939192918291908401908083835b602083106108745780518252601f199092019160209182019101610855565b5181516020939093036101000a60001901801990911692169190911790526040805191909301819003812063ffffffff871660e060020a0282526004820152336024820152915160448084019550600094509092839003019050818387803b1580156108df57600080fd5b505af11580156108f3573d6000803e3d6000fd5b50506001546040517f78576a91000000000000000000000000000000000000000000000000000000008152600160a060020a0385811660448301523360648301819052608060048401908152600d60848501527f417373657420637265617465640000000000000000000000000000000000000060a485015260c06024850190815260c485018f90529290941695506378576a9194508d938d938893829160e40187878082843782019150509650505050505050600060405180830381600087803b1580156109c157600080fd5b505af11580156109d5573d6000803e3d6000fd5b5060019b9a5050505050505050505050565b6040516108d7806109f8833901905600608060405234801561001057600080fd5b506040516108d73803806108d7833981016040908152815160208301519183015191830180519184019390920190600090819060c8118015610053575082518451145b151561005e57600080fd5b8451610071906002906020880190610183565b50600090505b83518160ff161015610160576100b5838260ff1681518110151561009757fe5b60209081029091010151839064010000000061034d61016d82021704565b9150610120838260ff168151811015156100cb57fe5b9060200190602002015160016000878560ff168151811015156100ea57fe5b6020908102909101810151600160a060020a03168252810191909152604001600020549064010000000061034d61016d82021704565b60016000868460ff1681518110151561013557fe5b6020908102909101810151600160a060020a0316825281019190915260400160002055600101610077565b506000555061021e915050565b60008282018381101561017c57fe5b9392505050565b828054600181600116156101000203166002900490600052602060002090601f016020900481019282601f106101c457805160ff19168380011785556101f1565b828001600101855582156101f1579182015b828111156101f15782518255916020019190600101906101d6565b506101fd929150610201565b5090565b61021b91905b808211156101fd5760008155600101610207565b90565b6106aa8061022d6000396000f3006080604052600436106100b95763ffffffff7c0100000000000000000000000000000000000000000000000000000000600035041663047fc9aa811461014e57806318160ddd146101755780632ba1b3a11461018a5780633c130d901461019f5780633ccfd60b1461022957806370a082311461023e578063a8fa8e521461025f578063b815239514610274578063eba74e5c14610295578063ec8593be1461029f578063efcb5dea146102c0578063f1c5d6c2146102e1575b6000546100fd906100ee906100e2346d04ee2d6d415b85acef810000000063ffffffff61030216565b9063ffffffff61033816565b6004549063ffffffff61034d16565b600455600354610113903463ffffffff61034d16565b60035560408051348152905133917fe3166012cb87b3dec8e117fe0e096a47387f94ea2ec12086ed8ae24ff8c237fe919081900360200190a2005b34801561015a57600080fd5b5061016361035c565b60408051918252519081900360200190f35b34801561018157600080fd5b50610163610362565b34801561019657600080fd5b50610163610368565b3480156101ab57600080fd5b506101b461036e565b6040805160208082528351818301528351919283929083019185019080838360005b838110156101ee5781810151838201526020016101d6565b50505050905090810190601f16801561021b5780820380516001836020036101000a031916815260200191505b509250505060405180910390f35b34801561023557600080fd5b506101636103f9565b34801561024a57600080fd5b50610163600160a060020a03600435166104ff565b34801561026b57600080fd5b5061016361051a565b34801561028057600080fd5b50610163600160a060020a0360043516610520565b61029d61056c565b005b3480156102ab57600080fd5b50610163600160a060020a03600435166105e6565b3480156102cc57600080fd5b50610163600160a060020a03600435166105f8565b3480156102ed57600080fd5b50610163600160a060020a036004351661060a565b6000808315156103155760009150610331565b5082820282848281151561032557fe5b041461032d57fe5b8091505b5092915050565b6000818381151561034557fe5b049392505050565b60008282018381101561032d57fe5b60005481565b60005490565b60035481565b6002805460408051602060018416156101000260001901909316849004601f810184900484028201840190925281815292918301828280156103f15780601f106103c6576101008083540402835291602001916103f1565b820191906000526020600020905b8154815290600101906020018083116103d457829003601f168201915b505050505081565b60003361042d6104088261060a565b600160a060020a0383166000908152600560205260409020549063ffffffff61034d16565b600160a060020a038216600090815260056020818152604080842094909455600454600682528484205533835252205461047b906d04ee2d6d415b85acef810000000063ffffffff61033816565b3360008181526005602052604080822082905551929450909184156108fc0291859190818181858888f193505050501580156104bb573d6000803e3d6000fd5b506040805142815233602082015280820184905290517f10db2ba5699bf5dbd1070a0c0b207f229dc1ecb78bbe555b84cab3db9576ac429181900360600190a15090565b600160a060020a031660009081526001602052604090205490565b60045481565b600160a060020a038116600090815260056020526040812054610566906d04ee2d6d415b85acef8100000000906100e29061055a8661060a565b9063ffffffff61034d16565b92915050565b600054610595906100ee906100e2346d04ee2d6d415b85acef810000000063ffffffff61030216565b6004556003546105ab903463ffffffff61034d16565b60035560408051348152905133917fe3166012cb87b3dec8e117fe0e096a47387f94ea2ec12086ed8ae24ff8c237fe919081900360200190a2565b60056020526000908152604090205481565b60066020526000908152604090205481565b600160a060020a0381166000908152600660205260408120546004548291610638919063ffffffff61066c16565b600160a060020a03841660009081526001602052604090205490915061066590829063ffffffff61030216565b9392505050565b60008282111561067857fe5b509003905600a165627a7a7230582043a967ab366c486979326026b4ab66d32ac49ca349acc0e07c2ab9d18d9828950029a165627a7a72305820dc4f659003290bbe47ec5e3e44b8b275962729390d2c417a4afcc592c1756a980029",
  "source": "pragma solidity ^0.4.24;\n\nimport \"../math/SafeMath.sol\";\nimport \"../interfaces/DBInterface.sol\";\nimport '../database/Events.sol';\n// import \"../access/ERC20Burner.sol\";\nimport \"../tokens/distribution/FixedDistribution.sol\";\nimport \"../interfaces/MinterInterface.sol\";\n\n// @title An asset generator contract for onboarding existing real-world assets\n// @notice This contract creates ERC20 dividend tokens and give sthem to the _tokenHolders provided\n// @author Kyle Dewhurst, MyBit Foundation\ncontract AssetGenerator {\n  using SafeMath for uint256;\n\n  DBInterface private database;\n  Events private events;\n  MinterInterface private minter;\n\n\n  // @notice This contract\n  // @param: The address for the database contract used by this platform\n  constructor(address _database, address _events)\n  public{\n      database = DBInterface(_database);\n      events = Events(_events);\n      minter = MinterInterface(database.addressStorage(keccak256(abi.encodePacked(\"contract\", \"Minter\"))));\n  }\n\n\n  // @notice users can on-board non-tradeable assets here\n  // @dev creates an ERC20 dividend token (tradeable) or distribution token (not-tradeable)\n  function createAsset(string _tokenURI, address[] _tokenHolders, uint[] _amount)\n  external\n  // burnRequired\n  returns (bool) {\n    require (_tokenHolders.length == _amount.length && _tokenHolders.length <= 100);\n    FixedDistribution assetInstance = new FixedDistribution(_tokenURI, _tokenHolders, _amount);\n    database.setAddress(keccak256(abi.encodePacked(\"asset.manager\", address(assetInstance))), msg.sender);\n    events.asset('Asset created', _tokenURI, address(assetInstance), msg.sender);\n    return true;\n  }\n\n  // @notice users can on-board tradeable assets here\n  // @dev creates an ERC20 dividend token (tradeable) or\n  function createTradeableAsset(string _tokenURI, address[] _tokenHolders, uint[] _amount)\n  external\n  // burnRequired\n  returns (bool) {\n    require (_tokenHolders.length == _amount.length && _tokenHolders.length <= uint8(100));\n    address assetAddress = minter.cloneToken(_tokenURI, address(0));\n    for (uint8 i = 0; i < _tokenHolders.length; i++) {\n      minter.mintAssetTokens(assetAddress, _tokenHolders[i], _amount[i]);\n    }\n    database.setAddress(keccak256(abi.encodePacked(\"asset.manager\", assetAddress)), msg.sender);\n    events.asset('Asset created', _tokenURI, assetAddress, msg.sender);\n    return true;\n  }\n\n  // @notice platform owners can destroy contract here\n  function destroy()\n  onlyOwner\n  external {\n    events.transaction('AssetGenerator destroyed', address(this), msg.sender, address(this).balance, address(0));\n    selfdestruct(msg.sender);\n  }\n\n  // @notice reverts if user hasn't approved burner to burn platform token\n  // modifier burnRequired {\n  //   ERC20Burner burner = ERC20Burner(database.addressStorage(keccak256(abi.encodePacked(\"contract\", \"ERC20Burner\"))));\n  //   require(burner.burn(msg.sender, database.uintStorage(keccak256(abi.encodePacked(msg.sig, address(this))))));\n  //   _;\n  // }\n\n  // @notice Sender must be a registered owner\n  modifier onlyOwner {\n    require(database.boolStorage(keccak256(abi.encodePacked(\"owner\", msg.sender))), \"Not owner\");\n    _;\n  }\n}\n",
  "sourcePath": "/home/iamonuwa/Projects/MyBitFoundation/MyBit-Network.tech/contracts/ecosystem/AssetGenerator.sol",
  "compiler": {
    "name": "solc",
    "version": "0.4.24+commit.e67f0147.Emscripten.clang"
  },
  "schemaVersion": "3.0.9",
  "updatedAt": "2020-07-27T21:29:54.352Z",
  "devdoc": {
    "methods": {}
  },
  "userdoc": {
    "methods": {}
  }
}