{
  "contractName": "AssetManagerEscrow",
  "abi": [
    {
      "constant": true,
      "inputs": [],
      "name": "database",
      "outputs": [
        {
          "name": "",
          "type": "address"
        }
      ],
      "payable": false,
      "stateMutability": "view",
      "type": "function"
    },
    {
      "constant": true,
      "inputs": [],
      "name": "events",
      "outputs": [
        {
          "name": "",
          "type": "address"
        }
      ],
      "payable": false,
      "stateMutability": "view",
      "type": "function"
    },
    {
      "inputs": [
        {
          "name": "_database",
          "type": "address"
        },
        {
          "name": "_events",
          "type": "address"
        }
      ],
      "payable": false,
      "stateMutability": "nonpayable",
      "type": "constructor"
    },
    {
      "anonymous": false,
      "inputs": [],
      "name": "NotFinalized",
      "type": "event"
    },
    {
      "anonymous": false,
      "inputs": [
        {
          "indexed": false,
          "name": "checkpoint",
          "type": "uint256"
        }
      ],
      "name": "ROICheckpoint",
      "type": "event"
    },
    {
      "constant": false,
      "inputs": [
        {
          "name": "_assetAddress",
          "type": "address"
        },
        {
          "name": "_assetManager",
          "type": "address"
        },
        {
          "name": "_amount",
          "type": "uint256"
        }
      ],
      "name": "lockEscrow",
      "outputs": [
        {
          "name": "",
          "type": "bool"
        }
      ],
      "payable": false,
      "stateMutability": "nonpayable",
      "type": "function"
    },
    {
      "constant": false,
      "inputs": [
        {
          "name": "_assetAddress",
          "type": "address"
        }
      ],
      "name": "unlockEscrow",
      "outputs": [
        {
          "name": "",
          "type": "bool"
        }
      ],
      "payable": false,
      "stateMutability": "nonpayable",
      "type": "function"
    },
    {
      "constant": false,
      "inputs": [
        {
          "name": "_assetAddress",
          "type": "address"
        },
        {
          "name": "_newAssetManager",
          "type": "address"
        },
        {
          "name": "_amount",
          "type": "uint256"
        },
        {
          "name": "_withhold",
          "type": "bool"
        }
      ],
      "name": "changeAssetManager",
      "outputs": [
        {
          "name": "",
          "type": "bool"
        }
      ],
      "payable": false,
      "stateMutability": "nonpayable",
      "type": "function"
    },
    {
      "constant": false,
      "inputs": [
        {
          "name": "_assetAddress",
          "type": "address"
        },
        {
          "name": "_oldAssetManager",
          "type": "address"
        }
      ],
      "name": "returnEscrow",
      "outputs": [],
      "payable": false,
      "stateMutability": "nonpayable",
      "type": "function"
    },
    {
      "constant": false,
      "inputs": [
        {
          "name": "_assetAddress",
          "type": "address"
        }
      ],
      "name": "voteToBurn",
      "outputs": [
        {
          "name": "",
          "type": "bool"
        }
      ],
      "payable": false,
      "stateMutability": "nonpayable",
      "type": "function"
    },
    {
      "constant": false,
      "inputs": [],
      "name": "destroy",
      "outputs": [],
      "payable": false,
      "stateMutability": "nonpayable",
      "type": "function"
    }
  ],
  "bytecode": "0x60806040523480156200001157600080fd5b5060405160408062002fc5833981016040818152825160209384015160008054600160a060020a03808516600160a060020a03199283161792839055600180548286169316929092179091557f636f6e7472616374000000000000000000000000000000000000000000000000878701527f457363726f7752657365727665000000000000000000000000000000000000006028870152845160158188030181526035909601948590528551939692959116936304f49a3a939192909182918401908083835b60208310620000f85780518252601f199092019160209182019101620000d7565b51815160209384036101000a60001901801990921691161790526040805192909401829003822063ffffffff88167c01000000000000000000000000000000000000000000000000000000000283526004830152925160248083019650939450929083900301905081600087803b1580156200017357600080fd5b505af115801562000188573d6000803e3d6000fd5b505050506040513d60208110156200019f57600080fd5b505160028054600160a060020a031916600160a060020a0390921691909117905550612df2905080620001d36000396000f3006080604052600436106100745763ffffffff60e060020a600035041663303d0c6b8114610079578063350ca067146100b75780634a364354146100e6578063713b563f1461010757806383197ef014610138578063b5f8558c1461014f578063bce1272414610164578063e402371414610185575b600080fd5b34801561008557600080fd5b506100a3600160a060020a03600435811690602435166044356101ac565b604080519115158252519081900360200190f35b3480156100c357600080fd5b506100a3600160a060020a036004358116906024351660443560643515156101ce565b3480156100f257600080fd5b506100a3600160a060020a0360043516610703565b34801561011357600080fd5b5061011c610f2c565b60408051600160a060020a039092168252519081900360200190f35b34801561014457600080fd5b5061014d610f3b565b005b34801561015b57600080fd5b5061011c61112d565b34801561017057600080fd5b506100a3600160a060020a036004351661113c565b34801561019157600080fd5b5061014d600160a060020a0360043581169060243516611d81565b60006101b9838584611eb1565b15156101c457600080fd5b5060019392505050565b600080600160a060020a03851615156101e657600080fd5b600054604080517f61737365742e64616f2e61646d696e0000000000000000000000000000000000602080830191909152600160a060020a038a8116606060020a02602f8401528351808403602301815260439093019384905282519416936304f49a3a93918291908401908083835b602083106102755780518252601f199092019160209182019101610256565b51815160209384036101000a60001901801990921691161790526040805192909401829003822063ffffffff881660e060020a0283526004830152925160248083019650939450929083900301905081600087803b1580156102d657600080fd5b505af11580156102ea573d6000803e3d6000fd5b505050506040513d602081101561030057600080fd5b5051600160a060020a031633146103ad576040805160e560020a62461bcd02815260206004820152604560248201527f4f6e6c79207468652061737365742044414f2061646d696e73747261746f722060448201527f636f6e7472616374206d6179206368616e676520746865206173736574206d6160648201527f6e61676572000000000000000000000000000000000000000000000000000000608482015290519081900360a40190fd5b60005460408051600080516020612d67833981519152602080830191909152600160a060020a038a8116606060020a02602d8401528351808403602101815260419093019384905282519416936304f49a3a93918291908401908083835b6020831061042a5780518252601f19909201916020918201910161040b565b51815160209384036101000a60001901801990921691161790526040805192909401829003822063ffffffff881660e060020a0283526004830152925160248083019650939450929083900301905081600087803b15801561048b57600080fd5b505af115801561049f573d6000803e3d6000fd5b505050506040513d60208110156104b557600080fd5b50519050600160a060020a03808216908616141561051d576040805160e560020a62461bcd02815260206004820152601d60248201527f4e6577206173736574206d616e61676572206973207468652073616d65000000604482015290519081900360640190fd5b6105268661255c565b151561057c576040805160e560020a62461bcd02815260206004820152601960248201527f4173736574206d616e61676572206e6f742072656d6f76656400000000000000604482015290519081900360640190fd5b60005460408051600080516020612d67833981519152602080830191909152600160a060020a038a8116606060020a02602d84015283518084036021018152604190930193849052825194169363ca446dd993918291908401908083835b602083106105f95780518252601f1990920191602091820191016105da565b5181516020939093036101000a60001901801990911692169190911790526040805191909301819003812063ffffffff871660e060020a0282526004820152600160a060020a038c166024820152915160448084019550600094509092839003019050818387803b15801561066d57600080fd5b505af1158015610681573d6000803e3d6000fd5b50505050821515610696576106968682612653565b6106a1858786611eb1565b15156106f7576040805160e560020a62461bcd02815260206004820152601560248201527f4661696c656420746f206c6f636b20657363726f770000000000000000000000604482015290519081900360640190fd5b50600195945050505050565b60008054604080517f61737365742e64616f2e61646d696e0000000000000000000000000000000000602080830191909152600160a060020a03868116606060020a02602f84015283518084036023018152604390930193849052825186958695869593909116936304f49a3a939282918401908083835b6020831061079a5780518252601f19909201916020918201910161077b565b51815160209384036101000a60001901801990921691161790526040805192909401829003822063ffffffff881660e060020a0283526004830152925160248083019650939450929083900301905081600087803b1580156107fb57600080fd5b505af115801561080f573d6000803e3d6000fd5b505050506040513d602081101561082557600080fd5b5051600160a060020a031633146108d2576040805160e560020a62461bcd02815260206004820152604560248201527f4f6e6c79207468652061737365742044414f2061646d696e73747261746f722060448201527f636f6e7472616374206d6179206368616e676520746865206173736574206d6160648201527f6e61676572000000000000000000000000000000000000000000000000000000608482015290519081900360a40190fd5b60005460408051600080516020612d67833981519152602080830191909152600160a060020a03898116606060020a02602d8401528351808403602101815260419093019384905282518a9591909116936304f49a3a9392909182918401908083835b602083106109545780518252601f199092019160209182019101610935565b51815160209384036101000a60001901801990921691161790526040805192909401829003822063ffffffff881660e060020a0283526004830152925160248083019650939450929083900301905081600087803b1580156109b557600080fd5b505af11580156109c9573d6000803e3d6000fd5b505050506040513d60208110156109df57600080fd5b505160408051606060020a600160a060020a0394851681026020838101919091529490931690920260348301528051602881840301815260489092019081905281519192909182918401908083835b60208310610a4d5780518252601f199092019160209182019101610a2e565b51815160209384036101000a600019018019909216911617905260408051929094018290038220600054600080516020612d87833981519152848401526034808501839052865180860390910181526054909401958690528351919a50600160a060020a0316965063a855d4ce9550919392508291908401908083835b60208310610ae95780518252601f199092019160209182019101610aca565b51815160209384036101000a60001901801990921691161790526040805192909401829003822063ffffffff881660e060020a0283526004830152925160248083019650939450929083900301905081600087803b158015610b4a57600080fd5b505af1158015610b5e573d6000803e3d6000fd5b505050506040513d6020811015610b7457600080fd5b505160005460408051600080516020612d47833981519152602082810191909152602c80830189905283518084039091018152604c909201928390528151949650600160a060020a039093169363a855d4ce939192918291908401908083835b60208310610bf35780518252601f199092019160209182019101610bd4565b51815160209384036101000a60001901801990921691161790526040805192909401829003822063ffffffff881660e060020a0283526004830152925160248083019650939450929083900301905081600087803b158015610c5457600080fd5b505af1158015610c68573d6000803e3d6000fd5b505050506040513d6020811015610c7e57600080fd5b5051600254909150600160a060020a031663bd4de9cd610ca4838563ffffffff612b6d16565b60005460408051600080516020612da78339815191526020808301919091528251808303600e018152602e909201928390528151600160a060020a03909416936304f49a3a93918291908401908083835b60208310610d145780518252601f199092019160209182019101610cf5565b51815160209384036101000a60001901801990921691161790526040805192909401829003822063ffffffff881660e060020a0283526004830152925160248083019650939450929083900301905081600087803b158015610d7557600080fd5b505af1158015610d89573d6000803e3d6000fd5b505050506040513d6020811015610d9f57600080fd5b50516040805160e060020a63ffffffff86160281526004810193909352600160a060020a0390911660248301525160448083019260209291908290030181600087803b158015610dee57600080fd5b505af1158015610e02573d6000803e3d6000fd5b505050506040513d6020811015610e1857600080fd5b50511515610e2557600080fd5b60005460408051600080516020612d878339815191526020808301919091526034808301889052835180840390910181526054909201928390528151600160a060020a039094169363e2a4853a93918291908401908083835b60208310610e9d5780518252601f199092019160209182019101610e7e565b5181516020939093036101000a60001901801990911692169190911790526040805191909301819003812063ffffffff871660e060020a028252600482015260248101889052915160448084019550600094509092839003019050818387803b158015610f0957600080fd5b505af1158015610f1d573d6000803e3d6000fd5b50600198975050505050505050565b600054600160a060020a031681565b600054604080517f6f776e6572000000000000000000000000000000000000000000000000000000602080830191909152606060020a33026025830152825160198184030181526039909201928390528151600160a060020a0390941693633b7bfda093918291908401908083835b60208310610fc95780518252601f199092019160209182019101610faa565b51815160209384036101000a60001901801990921691161790526040805192909401829003822063ffffffff881660e060020a0283526004830152925160248083019650939450929083900301905081600087803b15801561102a57600080fd5b505af115801561103e573d6000803e3d6000fd5b505050506040513d602081101561105457600080fd5b5051151560011461106457600080fd5b600154604080517f42b425aa000000000000000000000000000000000000000000000000000000008152306024820181905233604483015231606482015260006084820181905260a06004830152601c60a48301527f41737365744d616e61676572457363726f772064657374726f7965640000000060c48301529151600160a060020a03909316926342b425aa9260e48084019391929182900301818387803b15801561111157600080fd5b505af1158015611125573d6000803e3d6000fd5b503392505050ff5b600154600160a060020a031681565b6000806000806000806000806000808a336040516020018083600160a060020a0316600160a060020a0316606060020a02815260140182600160a060020a0316600160a060020a0316606060020a028152601401925050506040516020818303038152906040526040518082805190602001908083835b602083106111d25780518252601f1990920191602091820191016111b3565b6001836020036101000a038019825116818451168082178552505050505050905001915050604051809103902098506000809054906101000a9004600160a060020a0316600160a060020a031663a855d4ce8a6040516020018080600080516020612d47833981519152815250600c0182600019166000191681526020019150506040516020818303038152906040526040518082805190602001908083835b602083106112915780518252601f199092019160209182019101611272565b51815160209384036101000a60001901801990921691161790526040805192909401829003822063ffffffff881660e060020a0283526004830152925160248083019650939450929083900301905081600087803b1580156112f257600080fd5b505af1158015611306573d6000803e3d6000fd5b505050506040513d602081101561131c57600080fd5b50511515611374576040805160e560020a62461bcd02815260206004820152601460248201527f417373657420657363726f77206973207a65726f000000000000000000000000604482015290519081900360640190fd5b60005460408051600080516020612da78339815191526020808301919091528251808303600e018152602e909201928390528151600160a060020a03909416936304f49a3a93918291908401908083835b602083106113e45780518252601f1990920191602091820191016113c5565b51815160209384036101000a60001901801990921691161790526040805192909401829003822063ffffffff881660e060020a0283526004830152925160248083019650939450929083900301905081600087803b15801561144557600080fd5b505af1158015611459573d6000803e3d6000fd5b505050506040513d602081101561146f57600080fd5b505160005460408051600080516020612d47833981519152602082810191909152602c8083018f905283518084039091018152604c909201928390528151949c50600160a060020a039093169363a855d4ce939192918291908401908083835b602083106114ee5780518252601f1990920191602091820191016114cf565b51815160209384036101000a60001901801990921691161790526040805192909401829003822063ffffffff881660e060020a0283526004830152925160248083019650939450929083900301905081600087803b15801561154f57600080fd5b505af1158015611563573d6000803e3d6000fd5b505050506040513d602081101561157957600080fd5b505160005460408051600080516020612d8783398151915260208281019190915260348083018f9052835180840390910181526054909201928390528151949b50600160a060020a039093169363a855d4ce939192918291908401908083835b602083106115f85780518252601f1990920191602091820191016115d9565b51815160209384036101000a60001901801990921691161790526040805192909401829003822063ffffffff881660e060020a0283526004830152925160248083019650939450929083900301905081600087803b15801561165957600080fd5b505af115801561166d573d6000803e3d6000fd5b505050506040513d602081101561168357600080fd5b50519550611697878763ffffffff612b6d16565b94506000809054906101000a9004600160a060020a0316600160a060020a0316633b7bfda08c60405160200180807f63726f776473616c652e66696e616c697a65640000000000000000000000000081525060130182600160a060020a0316600160a060020a0316606060020a0281526014019150506040516020818303038152906040526040518082805190602001908083835b6020831061174b5780518252601f19909201916020918201910161172c565b51815160209384036101000a60001901801990921691161790526040805192909401829003822063ffffffff881660e060020a0283526004830152925160248083019650939450929083900301905081600087803b1580156117ac57600080fd5b505af11580156117c0573d6000803e3d6000fd5b505050506040513d60208110156117d657600080fd5b50511515611a2e57426000809054906101000a9004600160a060020a0316600160a060020a031663a855d4ce8d60405160200180807f63726f776473616c652e646561646c696e65000000000000000000000000000081525060120182600160a060020a0316600160a060020a0316606060020a0281526014019150506040516020818303038152906040526040518082805190602001908083835b602083106118915780518252601f199092019160209182019101611872565b51815160209384036101000a60001901801990921691161790526040805192909401829003822063ffffffff881660e060020a0283526004830152925160248083019650939450929083900301905081600087803b1580156118f257600080fd5b505af1158015611906573d6000803e3d6000fd5b505050506040513d602081101561191c57600080fd5b50511061192857600080fd5b6040517f1bee0d5a3487871ad4e01635c06a95326ecde99999b0a6864aecb98461a9249f90600090a161195a8b61255c565b151561196557600080fd5b61196e89612b7f565b151561197957600080fd5b600254604080517f080a771c00000000000000000000000000000000000000000000000000000000815233600482015260248101889052600160a060020a038b811660448301529151919092169163080a771c9160648083019260209291908290030181600087803b1580156119ee57600080fd5b505af1158015611a02573d6000803e3d6000fd5b505050506040513d6020811015611a1857600080fd5b50511515611a2557600080fd5b60019950611d73565b8a9350611b4484600160a060020a03166318160ddd6040518163ffffffff1660e060020a028152600401602060405180830381600087803b158015611a7257600080fd5b505af1158015611a86573d6000803e3d6000fd5b505050506040513d6020811015611a9c57600080fd5b5051604080517f2ba1b3a10000000000000000000000000000000000000000000000000000000081529051611b3891606491600160a060020a038a1691632ba1b3a19160048083019260209291908290030181600087803b158015611b0057600080fd5b505af1158015611b14573d6000803e3d6000fd5b505050506040513d6020811015611b2a57600080fd5b50519063ffffffff612cec16565b9063ffffffff612d2216565b9250611b5783601963ffffffff612d2216565b6040805182815290519193507ff0ee7a9cde4e5b0e9a9d319bc8cee8ea787f22fc6ebead5e549ba5e0ab7169f9919081900360200190a160008211611b9b57600080fd5b60048211611bd957611bb487600463ffffffff612d2216565b9050611bd686611bca848463ffffffff612cec16565b9063ffffffff612b6d16565b94505b60008511611be657600080fd5b60005460408051600080516020612d8783398151915260208083019190915260348083018e9052835180840390910181526054909201928390528151600160a060020a039094169363e2a4853a93918291908401908083835b60208310611c5e5780518252601f199092019160209182019101611c3f565b6001836020036101000a0380198251168184511680821785525050505050509050019150506040518091039020611c9e888a612d3790919063ffffffff16565b6040518363ffffffff1660e060020a02815260040180836000191660001916815260200182815260200192505050600060405180830381600087803b158015611ce657600080fd5b505af1158015611cfa573d6000803e3d6000fd5b5050600254604080517f080a771c000000000000000000000000000000000000000000000000000000008152336004820152602481018a9052600160a060020a038d81166044830152915191909216935063080a771c925060648083019260209291908290030181600087803b1580156119ee57600080fd5b505050505050505050919050565b60005460408051600080516020612d67833981519152602080830191909152600160a060020a03868116606060020a02602d840152835180840360210181526041909301938490528251339591909116936304f49a3a9392909182918401908083835b60208310611e035780518252601f199092019160209182019101611de4565b51815160209384036101000a60001901801990921691161790526040805192909401829003822063ffffffff881660e060020a0283526004830152925160248083019650939450929083900301905081600087803b158015611e6457600080fd5b505af1158015611e78573d6000803e3d6000fd5b505050506040513d6020811015611e8e57600080fd5b5051600160a060020a031614611ea357600080fd5b611ead8282612653565b5050565b6000805460408051600080516020612d67833981519152602080830191909152600160a060020a03878116606060020a02602d840152835180840360210181526041909301938490528251869586959216936304f49a3a9390929182918401908083835b60208310611f345780518252601f199092019160209182019101611f15565b51815160209384036101000a60001901801990921691161790526040805192909401829003822063ffffffff881660e060020a0283526004830152925160248083019650939450929083900301905081600087803b158015611f9557600080fd5b505af1158015611fa9573d6000803e3d6000fd5b505050506040513d6020811015611fbf57600080fd5b5051600160a060020a03878116911614611fd857600080fd5b84866040516020018083600160a060020a0316600160a060020a0316606060020a02815260140182600160a060020a0316600160a060020a0316606060020a028152601401925050506040516020818303038152906040526040518082805190602001908083835b6020831061205f5780518252601f199092019160209182019101612040565b51815160209384036101000a600019018019909216911617905260408051929094018290038220600054600080516020612d4783398151915284840152602c80850183905286518086039091018152604c909401958690528351919950600160a060020a0316965063a855d4ce9550919392508291908401908083835b602083106120fb5780518252601f1990920191602091820191016120dc565b51815160209384036101000a60001901801990921691161790526040805192909401829003822063ffffffff881660e060020a0283526004830152925160248083019650939450929083900301905081600087803b15801561215c57600080fd5b505af1158015612170573d6000803e3d6000fd5b505050506040513d602081101561218657600080fd5b5051156121dd576040805160e560020a62461bcd02815260206004820152601860248201527f417373657420657363726f7720616c7265616479207365740000000000000000604482015290519081900360640190fd5b60005460408051600080516020612da78339815191526020808301919091528251808303600e018152602e909201928390528151600160a060020a03909416936304f49a3a93918291908401908083835b6020831061224d5780518252601f19909201916020918201910161222e565b51815160209384036101000a60001901801990921691161790526040805192909401829003822063ffffffff881660e060020a0283526004830152925160248083019650939450929083900301905081600087803b1580156122ae57600080fd5b505af11580156122c2573d6000803e3d6000fd5b505050506040513d60208110156122d857600080fd5b5051600254604080517f23b872dd000000000000000000000000000000000000000000000000000000008152600160a060020a038a811660048301529283166024820152604481018890529051929350908316916323b872dd916064808201926020929091908290030181600087803b15801561235457600080fd5b505af1158015612368573d6000803e3d6000fd5b505050506040513d602081101561237e57600080fd5b5051151561238b57600080fd5b60005460408051600080516020612d47833981519152602080830191909152602c80830187905283518084039091018152604c909201928390528151600160a060020a039094169363e2a4853a93918291908401908083835b602083106124035780518252601f1990920191602091820191016123e4565b5181516020939093036101000a60001901801990911692169190911790526040805191909301819003812063ffffffff871660e060020a0282526004820152602481018b9052915160448084019550600094509092839003019050818387803b15801561246f57600080fd5b505af1158015612483573d6000803e3d6000fd5b5050600154604080517f0b94df4c000000000000000000000000000000000000000000000000000000008152600160a060020a038a81166024830152604482018890528b81166064830152608482018a905260a06004830152600d60a48301527f457363726f77206c6f636b65640000000000000000000000000000000000000060c48301529151919092169350630b94df4c925060e480830192600092919082900301818387803b15801561253857600080fd5b505af115801561254c573d6000803e3d6000fd5b5060019998505050505050505050565b6000805460408051600080516020612d67833981519152602080830191909152600160a060020a03868116606060020a02602d840152835180840360210181526041909301938490528251941693630e14a37693918291908401908083835b602083106125da5780518252601f1990920191602091820191016125bb565b5181516020939093036101000a60001901801990911692169190911790526040805191909301819003812063ffffffff871660e060020a0282526004820152915160248084019550600094509092839003019050818387803b15801561263f57600080fd5b505af11580156106f7573d6000803e3d6000fd5b60008083836040516020018083600160a060020a0316600160a060020a0316606060020a02815260140182600160a060020a0316600160a060020a0316606060020a028152601401925050506040516020818303038152906040526040518082805190602001908083835b602083106126dd5780518252601f1990920191602091820191016126be565b51815160209384036101000a600019018019909216911617905260408051929094018290038220600054600080516020612d878339815191528484015260348085018390528651808603909101815260549094019586905283519199506129199750600160a060020a0316955063a855d4ce9492935082918401908083835b6020831061277b5780518252601f19909201916020918201910161275c565b51815160209384036101000a60001901801990921691161790526040805192909401829003822063ffffffff881660e060020a0283526004830152925160248083019650939450929083900301905081600087803b1580156127dc57600080fd5b505af11580156127f0573d6000803e3d6000fd5b505050506040513d602081101561280657600080fd5b505160005460408051600080516020612d47833981519152602082810191909152602c80830189905283518084039091018152604c909201928390528151600160a060020a039094169363a855d4ce93918291908401908083835b602083106128805780518252601f199092019160209182019101612861565b51815160209384036101000a60001901801990921691161790526040805192909401829003822063ffffffff881660e060020a0283526004830152925160248083019650939450929083900301905081600087803b1580156128e157600080fd5b505af11580156128f5573d6000803e3d6000fd5b505050506040513d602081101561290b57600080fd5b50519063ffffffff612b6d16565b905061292482612b7f565b151561297a576040805160e560020a62461bcd02815260206004820152601960248201527f52656d6f766520657363726f772064617461206661696c656400000000000000604482015290519081900360640190fd5b6000811115612b675760025460005460408051600080516020612da78339815191526020808301919091528251600e818403018152602e909201928390528151600160a060020a039586169563080a771c958a95899592909116936304f49a3a9382918401908083835b60208310612a035780518252601f1990920191602091820191016129e4565b51815160209384036101000a60001901801990921691161790526040805192909401829003822063ffffffff881660e060020a0283526004830152925160248083019650939450929083900301905081600087803b158015612a6457600080fd5b505af1158015612a78573d6000803e3d6000fd5b505050506040513d6020811015612a8e57600080fd5b50516040805160e060020a63ffffffff8716028152600160a060020a039485166004820152602481019390935292166044820152905160648083019260209291908290030181600087803b158015612ae557600080fd5b505af1158015612af9573d6000803e3d6000fd5b505050506040513d6020811015612b0f57600080fd5b50511515612b67576040805160e560020a62461bcd02815260206004820152601260248201527f46756e6473206e6f742072657475726e65640000000000000000000000000000604482015290519081900360640190fd5b50505050565b600082821115612b7957fe5b50900390565b6000805460408051600080516020612d47833981519152602080830191909152602c80830187905283518084039091018152604c909201928390528151600160a060020a039094169363e2b202bf93918291908401908083835b60208310612bf85780518252601f199092019160209182019101612bd9565b5181516020939093036101000a60001901801990911692169190911790526040805191909301819003812063ffffffff871660e060020a0282526004820152915160248084019550600094509092839003019050818387803b158015612c5d57600080fd5b505af1158015612c71573d6000803e3d6000fd5b505060005460408051600080516020612d878339815191526020808301919091526034808301899052835180840390910181526054909201928390528151600160a060020a03909416955063e2b202bf945090928291840190808383602083106125da5780518252601f1990920191602091820191016125bb565b600080831515612cff5760009150612d1b565b50828202828482811515612d0f57fe5b0414612d1757fe5b8091505b5092915050565b60008183811515612d2f57fe5b049392505050565b600082820183811015612d1757fe0061737365742e657363726f77000000000000000000000000000000000000000061737365742e6d616e616765720000000000000000000000000000000000000061737365742e657363726f7752656465656d6564000000000000000000000000706c6174666f726d2e746f6b656e000000000000000000000000000000000000a165627a7a72305820b85d609008d3fac7085d8d6fcbc7c0ebf8c458397ae65f6dafc001a4bddd58600029",
  "source": "pragma solidity ^0.4.24;\n\n  import \"../math/SafeMath.sol\";\n  import \"../interfaces/DBInterface.sol\";\n  import \"../database/Events.sol\";\n  import \"../interfaces/EscrowReserveInterface.sol\";\n\n  interface AssetManagerEscrow_ERC20 {\n    function transfer(address _to, uint256 _value) external returns (bool);\n    function transferFrom(address _from, address _to, uint256 _value) external returns (bool);\n    function burn(uint _amount) external returns (bool);\n    function burnFrom(address _user, uint _amount) external returns (bool);\n    function balanceOf(address _user) external view returns (uint);\n  }\n\n  interface AssetManagerEscrow_DivToken {\n    function totalSupply() external view returns (uint);\n    function assetIncome() external view returns (uint);\n    function balanceOf(address _user) external view returns (uint);\n  }\n\n  // @title A contract to hold escrow as collateral against assets\n  // @author Kyle Dewhurst, MyBit Foundation\n  // @notice AssetManager can lock his escrow in this contract and retrieve it if asset funding fails or successfully returns ROI\n  contract AssetManagerEscrow {\n\n    using SafeMath for uint256;\n\n    DBInterface public database;\n    Events public events;\n    EscrowReserveInterface private reserve;\n\n    //uint public consensus = 66;\n\n    // @notice constructor: initializes database\n    // @param: the address for the database contract used by this platform\n    constructor(address _database, address _events)\n    public {\n      database = DBInterface(_database);\n      events = Events(_events);\n      reserve = EscrowReserveInterface(database.addressStorage(keccak256(abi.encodePacked(\"contract\", \"EscrowReserve\"))));\n    }\n\n    // @dev anybody can make the assetManager escrow if he leaves this contract with approval to transfer\n    function lockEscrow(address _assetAddress, address _assetManager, uint _amount)\n    public\n    returns (bool) {\n      require(lockEscrowInternal(_assetManager, _assetAddress, _amount));\n      return true;\n    }\n\n    // @notice assetManager can unlock his escrow here once funding fails or asset returns sufficient ROI\n    // @dev asset must have fundingDeadline = 0 or have ROI > 25%\n    // @dev returns escrow according to ROI. 25% ROI returns 25% of escrow, 50% ROI returns 50% of escrow etc...\n    function unlockEscrow(address _assetAddress)\n    public\n    returns (bool) {\n      bytes32 assetManagerEscrowID = keccak256(abi.encodePacked(_assetAddress, msg.sender));\n      require(database.uintStorage(keccak256(abi.encodePacked(\"asset.escrow\", assetManagerEscrowID))) != 0, 'Asset escrow is zero');\n      //require(database.uintStorage(keccak256(abi.encodePacked(\"crowdsale.deadline\", _assetAddress))) < now, 'Before crowdsale deadline');\n      address platformToken = database.addressStorage(keccak256(abi.encodePacked(\"platform.token\")));\n      uint totalEscrow = database.uintStorage(keccak256(abi.encodePacked(\"asset.escrow\", assetManagerEscrowID)));\n      uint escrowRedeemed = database.uintStorage(keccak256(abi.encodePacked(\"asset.escrowRedeemed\", assetManagerEscrowID)));\n      uint unlockAmount = totalEscrow.sub(escrowRedeemed);\n      if(!database.boolStorage(keccak256(abi.encodePacked(\"crowdsale.finalized\", _assetAddress)))){\n        require(database.uintStorage(keccak256(abi.encodePacked(\"crowdsale.deadline\", _assetAddress))) < now);\n        //Crowdsale failed, return escrow\n        emit NotFinalized();\n        //If we're past deadline but crowdsale did NOT finalize, release all escrow\n        require(removeAssetManager(_assetAddress));\n        require(removeEscrowData(assetManagerEscrowID));\n        require(reserve.issueERC20(msg.sender, unlockAmount, platformToken));\n        return true;\n      } else {\n        //Crowdsale finalized. Only pay back based on ROI\n        AssetManagerEscrow_DivToken token = AssetManagerEscrow_DivToken(_assetAddress);\n        uint roiPercent = token.assetIncome().mul(100).div(token.totalSupply());   // Scaled up by 10^2  (approaches 100 as asset income increases)\n        uint roiCheckpoints = roiPercent.div(25);       // How many quarterly increments have been reached?\n        emit ROICheckpoint(roiCheckpoints);\n        require(roiCheckpoints > 0);\n        if(roiCheckpoints <= 4){\n          // Can't unlock escrow past 100% ROI\n          //  multiply the number of quarterly increments by a quarter of the escrow and subtract the escrow already redeemed.\n          uint quarterEscrow = totalEscrow.div(4);\n          unlockAmount = roiCheckpoints.mul(quarterEscrow).sub(escrowRedeemed);\n        }\n        require(unlockAmount > 0);\n        database.setUint(keccak256(abi.encodePacked(\"asset.escrowRedeemed\", assetManagerEscrowID)), escrowRedeemed.add(unlockAmount));\n        require(reserve.issueERC20(msg.sender, unlockAmount, platformToken));\n        return true;\n      }\n    }\n\n\n    // @notice investors can vote to call this function for the new assetManager to then call\n    // @dev new assetManager must approve this contract to transfer in and lock _ amount of platform tokens\n    function changeAssetManager(address _assetAddress, address _newAssetManager, uint256 _amount, bool _withhold)\n    external\n    returns (bool) {\n      require(_newAssetManager != address(0));\n      require(msg.sender == database.addressStorage(keccak256(abi.encodePacked(\"asset.dao.admin\", _assetAddress))), \"Only the asset DAO adminstrator contract may change the asset manager\");\n      address currentAssetManager = database.addressStorage(keccak256(abi.encodePacked(\"asset.manager\", _assetAddress)));\n      require(currentAssetManager != _newAssetManager, \"New asset manager is the same\");\n      //Remove current asset manager\n      require(removeAssetManager(_assetAddress), 'Asset manager not removed');\n      database.setAddress(keccak256(abi.encodePacked(\"asset.manager\", _assetAddress)), _newAssetManager);\n      if(!_withhold){\n        processEscrow(_assetAddress, currentAssetManager);\n      }\n      require(lockEscrowInternal(_newAssetManager, _assetAddress, _amount), 'Failed to lock escrow');\n      return true;\n    }\n\n    function returnEscrow(address _assetAddress, address _oldAssetManager)\n    external\n    {\n      require(database.addressStorage(keccak256(abi.encodePacked(\"asset.manager\", _assetAddress))) == msg.sender);\n      processEscrow(_assetAddress, _oldAssetManager);\n    }\n\n    function voteToBurn(address _assetAddress)\n    external\n    returns (bool) {\n      require(msg.sender == database.addressStorage(keccak256(abi.encodePacked(\"asset.dao.admin\", _assetAddress))), \"Only the asset DAO adminstrator contract may change the asset manager\");\n      bytes32 assetManagerEscrowID = keccak256(abi.encodePacked(_assetAddress, database.addressStorage(keccak256(abi.encodePacked(\"asset.manager\", _assetAddress)))));\n      uint escrowRedeemed = database.uintStorage(keccak256(abi.encodePacked(\"asset.escrowRedeemed\", assetManagerEscrowID)));\n      uint escrowAmount = database.uintStorage(keccak256(abi.encodePacked(\"asset.escrow\", assetManagerEscrowID)));\n      require(reserve.burnERC20(escrowAmount.sub(escrowRedeemed), database.addressStorage(keccak256(abi.encodePacked(\"platform.token\"))))); // burn manager tokens\n      database.setUint(keccak256(abi.encodePacked(\"asset.escrowRedeemed\", assetManagerEscrowID)), escrowAmount );  // mark burned _assetAddresss as redeemed\n      return true;\n    }\n\n    /*\n    //Burn platform tokens to unilaterally burn asset manager's escrow\n    function mutualBurn(address _assetAddress, uint _amountToBurn)\n    external\n    returns (bool) {\n      require(AssetManagerEscrow_DivToken(_assetAddress).balanceOf(msg.sender) > 0, 'Must be an asset holder');\n      bytes32 assetManagerEscrowID = keccak256(abi.encodePacked(_assetAddress, database.addressStorage(keccak256(abi.encodePacked(\"asset.manager\", _assetAddress)))));\n      uint escrowRedeemed = database.uintStorage(keccak256(abi.encodePacked(\"asset.escrowRedeemed\", assetManagerEscrowID)));\n      uint unlockAmount = database.uintStorage(keccak256(abi.encodePacked(\"asset.escrow\", assetManagerEscrowID))).sub(escrowRedeemed);\n      require(unlockAmount >= _amountToBurn, \"asset manager has no escrow left\");\n      uint256 selfBurnAmount = _amountToBurn.getFractionalAmount(database.uintStorage(keccak256(abi.encodePacked(\"platform.burnRate\"))));\n      AssetManagerEscrow_ERC20 platformToken = AssetManagerEscrow_ERC20(database.addressStorage(keccak256(abi.encodePacked(\"platform.token\"))));\n      require(platformToken.balanceOf(msg.sender) >= selfBurnAmount);\n      require(platformToken.burnFrom(msg.sender, selfBurnAmount));  // burn investor tokens\n      require(reserve.burnERC20(_amountToBurn, address(platformToken))); // burn manager tokens\n      database.setUint(keccak256(abi.encodePacked(\"asset.escrowRedeemed\", assetManagerEscrowID)), escrowRedeemed.add(_amountToBurn));  // mark burned _assetAddresss as redeemed\n      events.escrow('Escrow mutually burned', _assetAddress, assetManagerEscrowID, msg.sender, _amountToBurn);\n      return true;\n    }\n    */\n\n    // @notice platform owners can destroy contract here\n    function destroy()\n    onlyOwner\n    external {\n      events.transaction('AssetManagerEscrow destroyed', address(this), msg.sender, address(this).balance, address(0));\n      selfdestruct(msg.sender);\n    }\n\n    //////////////////////////////////////////////////////////////////////////////////////////////////////////////////\n    //                                            Internal/ Private Functions\n    //////////////////////////////////////////////////////////////////////////////////////////////////////////////////\n\n    function processEscrow(address _assetAddress, address _oldAssetManager)\n    private\n    {\n      bytes32 oldAssetManagerEscrowID = keccak256(abi.encodePacked(_assetAddress, _oldAssetManager));\n      uint oldEscrowRemaining = database.uintStorage(keccak256(abi.encodePacked(\"asset.escrow\", oldAssetManagerEscrowID))).sub(database.uintStorage(keccak256(abi.encodePacked(\"asset.escrowRedeemed\", oldAssetManagerEscrowID))));\n      require(removeEscrowData(oldAssetManagerEscrowID), 'Remove escrow data failed');\n      if(oldEscrowRemaining > 0){\n        require(reserve.issueERC20(_oldAssetManager, oldEscrowRemaining, database.addressStorage(keccak256(abi.encodePacked(\"platform.token\")))), 'Funds not returned');\n      }\n    }\n\n    function removeAssetManager(address _assetAddress)\n    private\n    returns (bool) {\n        database.deleteAddress(keccak256(abi.encodePacked(\"asset.manager\", _assetAddress)));\n        return true;\n    }\n\n    function removeEscrowData(bytes32 _assetManagerEscrowID)\n    private\n    returns (bool) {\n        database.deleteUint(keccak256(abi.encodePacked(\"asset.escrow\", _assetManagerEscrowID)));\n        database.deleteUint(keccak256(abi.encodePacked(\"asset.escrowRedeemed\", _assetManagerEscrowID)));\n        return true;\n    }\n\n    function lockEscrowInternal(address _assetManager, address _assetAddress, uint _amount)\n    private\n    returns (bool) {\n      require(_assetManager == database.addressStorage(keccak256(abi.encodePacked(\"asset.manager\", _assetAddress))));\n      bytes32 assetManagerEscrowID = keccak256(abi.encodePacked(_assetAddress, _assetManager));\n      require(database.uintStorage(keccak256(abi.encodePacked(\"asset.escrow\", assetManagerEscrowID))) == 0, 'Asset escrow already set');\n      AssetManagerEscrow_ERC20 platformToken = AssetManagerEscrow_ERC20(database.addressStorage(keccak256(abi.encodePacked(\"platform.token\"))));\n      require(platformToken.transferFrom(_assetManager, address(reserve), _amount));\n      database.setUint(keccak256(abi.encodePacked(\"asset.escrow\", assetManagerEscrowID)), _amount);\n      events.escrow('Escrow locked', _assetAddress, assetManagerEscrowID, _assetManager, _amount);\n      return true;\n    }\n\n  //////////////////////////////////////////////////////////////////////////////////////////////////////////////////\n  //                                            Modifiers\n  //////////////////////////////////////////////////////////////////////////////////////////////////////////////////\n\n    // @notice reverts if caller is not the owner\n    modifier onlyOwner {\n      require(database.boolStorage(keccak256(abi.encodePacked(\"owner\", msg.sender))) == true);\n      _;\n    }\n\n    event NotFinalized();\n    event ROICheckpoint(uint checkpoint);\n    /*\n    event LogConsensus(bytes32 votesID, uint votes, uint _assetAddresss, bytes32 executionID, uint quorum);\n    event LogEscrowBurned(bytes32 indexed _assetAddress, address indexed _assetManager, uint _amountBurnt);\n    event LogEscrowLocked(bytes32 indexed _assetAddress, bytes32 indexed _assetManagerEscrowID, address indexed _assetManager, uint _amount);\n    */\n}\n",
  "sourcePath": "/home/iamonuwa/Projects/MyBitFoundation/MyBit-Network.tech/contracts/roles/AssetManagerEscrow.sol",
  "compiler": {
    "name": "solc",
    "version": "0.4.24+commit.e67f0147.Emscripten.clang"
  },
  "schemaVersion": "3.0.9",
  "updatedAt": "2020-07-27T21:29:56.657Z",
  "devdoc": {
    "methods": {}
  },
  "userdoc": {
    "methods": {}
  }
}