{
  "contractName": "AssetManagerFunds",
  "abi": [
    {
      "constant": true,
      "inputs": [],
      "name": "database",
      "outputs": [
        {
          "name": "",
          "type": "address"
        }
      ],
      "payable": false,
      "stateMutability": "view",
      "type": "function"
    },
    {
      "constant": true,
      "inputs": [],
      "name": "events",
      "outputs": [
        {
          "name": "",
          "type": "address"
        }
      ],
      "payable": false,
      "stateMutability": "view",
      "type": "function"
    },
    {
      "inputs": [
        {
          "name": "_database",
          "type": "address"
        },
        {
          "name": "_events",
          "type": "address"
        }
      ],
      "payable": false,
      "stateMutability": "nonpayable",
      "type": "constructor"
    },
    {
      "payable": true,
      "stateMutability": "payable",
      "type": "fallback"
    },
    {
      "anonymous": false,
      "inputs": [
        {
          "indexed": false,
          "name": "sender",
          "type": "address"
        },
        {
          "indexed": false,
          "name": "amount",
          "type": "uint256"
        }
      ],
      "name": "EtherReceived",
      "type": "event"
    },
    {
      "constant": false,
      "inputs": [
        {
          "name": "_assetAddress",
          "type": "address"
        }
      ],
      "name": "withdraw",
      "outputs": [
        {
          "name": "",
          "type": "bool"
        }
      ],
      "payable": false,
      "stateMutability": "nonpayable",
      "type": "function"
    },
    {
      "constant": false,
      "inputs": [
        {
          "name": "_assetAddress",
          "type": "address[]"
        }
      ],
      "name": "retrieveAssetManagerTokens",
      "outputs": [
        {
          "name": "",
          "type": "bool"
        }
      ],
      "payable": false,
      "stateMutability": "nonpayable",
      "type": "function"
    },
    {
      "constant": false,
      "inputs": [
        {
          "name": "_assetAddress",
          "type": "address[]"
        }
      ],
      "name": "retrieveAssetManagerETH",
      "outputs": [
        {
          "name": "",
          "type": "bool"
        }
      ],
      "payable": false,
      "stateMutability": "nonpayable",
      "type": "function"
    },
    {
      "constant": true,
      "inputs": [
        {
          "name": "_assetAddress",
          "type": "address"
        },
        {
          "name": "_assetManager",
          "type": "address"
        }
      ],
      "name": "viewBalance",
      "outputs": [
        {
          "name": "",
          "type": "uint256"
        }
      ],
      "payable": false,
      "stateMutability": "view",
      "type": "function"
    },
    {
      "constant": true,
      "inputs": [
        {
          "name": "_assetAddress",
          "type": "address"
        },
        {
          "name": "_assetManager",
          "type": "address"
        }
      ],
      "name": "viewAmountOwed",
      "outputs": [
        {
          "name": "",
          "type": "uint256"
        }
      ],
      "payable": false,
      "stateMutability": "view",
      "type": "function"
    },
    {
      "constant": false,
      "inputs": [],
      "name": "destroy",
      "outputs": [],
      "payable": false,
      "stateMutability": "nonpayable",
      "type": "function"
    }
  ],
  "bytecode": "0x608060405234801561001057600080fd5b50604051604080611a4083398101604052805160209091015160008054600160a060020a03938416600160a060020a031991821617909155600180549390921692169190911790556119d9806100676000396000f3006080604052600436106100745763ffffffff60e060020a6000350416630cf3939f81146100b05780630e014cf8146100e95780633da532cc146101105780633daae2801461014457806351cff8d914610164578063713b563f1461018557806383197ef0146101b6578063b5f8558c146101cd575b6040805133815234602082015281517f1e57e3bb474320be3d2c77138f75b7c3941292d647f5f9634e33a8e94e0e069b929181900390910190a1005b3480156100bc57600080fd5b506100d7600160a060020a03600435811690602435166101e2565b60408051918252519081900360200190f35b3480156100f557600080fd5b506100d7600160a060020a0360043581169060243516610464565b34801561011c57600080fd5b5061013060048035602481019101356106c7565b604080519115158252519081900360200190f35b34801561015057600080fd5b5061013060048035602481019101356109f4565b34801561017057600080fd5b50610130600160a060020a0360043516611086565b34801561019157600080fd5b5061019a6116e8565b60408051600160a060020a039092168252519081900360200190f35b3480156101c257600080fd5b506101cb6116f7565b005b3480156101d957600080fd5b5061019a6118f2565b60008080600160a060020a0385161515610246576040805160e560020a62461bcd02815260206004820152601460248201527f456d707479206164647265737320706173736564000000000000000000000000604482015290519081900360640190fd5b6000546040805160008051602061198e833981519152602080830191909152600160a060020a038981166c0100000000000000000000000002602d8401528351808403602101815260419093019384905282519416936304f49a3a93918291908401908083835b602083106102cc5780518252601f1990920191602091820191016102ad565b51815160209384036101000a60001901801990921691161790526040805192909401829003822063ffffffff881660e060020a0283526004830152925160248083019650939450929083900301905081600087803b15801561032d57600080fd5b505af1158015610341573d6000803e3d6000fd5b505050506040513d602081101561035757600080fd5b5051600160a060020a038581169116146103e1576040805160e560020a62461bcd02815260206004820152602360248201527f54686174207573657220646f6573206e6f74206d616e6167652074686520617360448201527f7365740000000000000000000000000000000000000000000000000000000000606482015290519081900360840190fd5b6040805160e560020a6301defd490281523060048201529051869350600160a060020a03841691633bdfa9209160248083019260209291908290030181600087803b15801561042f57600080fd5b505af1158015610443573d6000803e3d6000fd5b505050506040513d602081101561045957600080fd5b505195945050505050565b60008080600160a060020a03851615156104c8576040805160e560020a62461bcd02815260206004820152601460248201527f456d707479206164647265737320706173736564000000000000000000000000604482015290519081900360640190fd5b6000546040805160008051602061198e833981519152602080830191909152600160a060020a038981166c0100000000000000000000000002602d8401528351808403602101815260419093019384905282519416936304f49a3a93918291908401908083835b6020831061054e5780518252601f19909201916020918201910161052f565b51815160209384036101000a60001901801990921691161790526040805192909401829003822063ffffffff881660e060020a0283526004830152925160248083019650939450929083900301905081600087803b1580156105af57600080fd5b505af11580156105c3573d6000803e3d6000fd5b505050506040513d60208110156105d957600080fd5b5051600160a060020a03858116911614610663576040805160e560020a62461bcd02815260206004820152602360248201527f54686174207573657220646f6573206e6f74206d616e6167652074686520617360448201527f7365740000000000000000000000000000000000000000000000000000000000606482015290519081900360840190fd5b604080517f70a082310000000000000000000000000000000000000000000000000000000081523060048201529051869350600160a060020a038416916370a082319160248083019260209291908290030181600087803b15801561042f57600080fd5b6002805460010190819055600090819081908190819081908190605d8911156106ef57600080fd5b600095505b60ff86168911156109a757600054600160a060020a03166304f49a3a8b8b60ff8a1681811061071f57fe5b90506020020135600160a060020a0316604051602001808060008051602061198e833981519152815250600d0182600160a060020a0316600160a060020a03166c010000000000000000000000000281526014019150506040516020818303038152906040526040518082805190602001908083835b602083106107b45780518252601f199092019160209182019101610795565b51815160209384036101000a60001901801990921691161790526040805192909401829003822063ffffffff881660e060020a0283526004830152925160248083019650939450929083900301905081600087803b15801561081557600080fd5b505af1158015610829573d6000803e3d6000fd5b505050506040513d602081101561083f57600080fd5b5051600160a060020a0316331461085557600080fd5b898960ff881681811061086457fe5b6040805160e560020a6301defd490281523060048201819052915160209384029590950135600160a060020a03169950903197508893633bdfa9209350602480830193928290030181600087803b1580156108be57600080fd5b505af11580156108d2573d6000803e3d6000fd5b505050506040513d60208110156108e857600080fd5b50519250600083111561099c57610905848463ffffffff61190116565b915084600160a060020a0316633ccfd60b6040518163ffffffff1660e060020a028152600401602060405180830381600087803b15801561094557600080fd5b505af1158015610959573d6000803e3d6000fd5b505050506040513d602081101561096f57600080fd5b5051151561097c57600080fd5b3031821461098957600080fd5b610999878463ffffffff61190116565b96505b6001909501946106f4565b604051339088156108fc029089906000818181858888f193505050501580156109d4573d6000803e3d6000fd5b506001975060025481146109e757600080fd5b5050505050505092915050565b600280546001019081905560009060609081908390819081908190819081908190602a8c1115610a2357600080fd5b604080518d81526020808f028201019091528c8015610a4c578160200160208202803883390190505b5099508c8c9050604051908082528060200260200182016040528015610a7c578160200160208202803883390190505b509850600096505b60ff87168c1115610f7857600054600160a060020a03166304f49a3a8e8e60ff8b16818110610aaf57fe5b90506020020135600160a060020a0316604051602001808060008051602061198e833981519152815250600d0182600160a060020a0316600160a060020a03166c010000000000000000000000000281526014019150506040516020818303038152906040526040518082805190602001908083835b60208310610b445780518252601f199092019160209182019101610b25565b51815160209384036101000a60001901801990921691161790526040805192909401829003822063ffffffff881660e060020a0283526004830152925160248083019650939450929083900301905081600087803b158015610ba557600080fd5b505af1158015610bb9573d6000803e3d6000fd5b505050506040513d6020811015610bcf57600080fd5b5051600160a060020a03163314610be557600080fd5b8c8c60ff8916818110610bf457fe5b90506020020135600160a060020a031695506000600160a060020a031686600160a060020a031614151515610c2857600080fd5b6040805160e560020a6301defd490281523060048201529051600160a060020a03881691633bdfa9209160248083019260209291908290030181600087803b158015610c7357600080fd5b505af1158015610c87573d6000803e3d6000fd5b505050506040513d6020811015610c9d57600080fd5b505194506000851115610f6d5785600160a060020a0316634ece90a86040518163ffffffff1660e060020a028152600401602060405180830381600087803b158015610ce857600080fd5b505af1158015610cfc573d6000803e3d6000fd5b505050506040513d6020811015610d1257600080fd5b5051604080517f70a082310000000000000000000000000000000000000000000000000000000081523060048201529051919550600160a060020a038616916370a08231916024808201926020929091908290030181600087803b158015610d7957600080fd5b505af1158015610d8d573d6000803e3d6000fd5b505050506040513d6020811015610da357600080fd5b50519250610db1898761191b565b915060ff82168c1115610e0957610de9858b8460ff16815181101515610dd357fe5b602090810290910101519063ffffffff61190116565b8a8360ff16815181101515610dfa57fe5b60209081029091010152610e56565b83898960ff16815181101515610e1b57fe5b600160a060020a03909216602092830290910190910152895185908b9060ff8b16908110610e4557fe5b602090810290910101526001909701965b85600160a060020a0316633ccfd60b6040518163ffffffff1660e060020a028152600401602060405180830381600087803b158015610e9457600080fd5b505af1158015610ea8573d6000803e3d6000fd5b505050506040513d6020811015610ebe57600080fd5b50511515610ecb57600080fd5b82610f638686600160a060020a03166370a08231306040518263ffffffff1660e060020a0281526004018082600160a060020a0316600160a060020a03168152602001915050602060405180830381600087803b158015610f2b57600080fd5b505af1158015610f3f573d6000803e3d6000fd5b505050506040513d6020811015610f5557600080fd5b50519063ffffffff61197b16565b14610f6d57600080fd5b600190960195610a84565b600096505b8760ff168760ff16101561106457888760ff16815181101515610f9c57fe5b90602001906020020151600160a060020a031663a9059cbb338c8a60ff16815181101515610fc657fe5b906020019060200201516040518363ffffffff1660e060020a0281526004018083600160a060020a0316600160a060020a0316815260200182815260200192505050602060405180830381600087803b15801561102257600080fd5b505af1158015611036573d6000803e3d6000fd5b505050506040513d602081101561104c57600080fd5b5051151561105957600080fd5b600190960195610f7d565b60019a50600254811461107657600080fd5b5050505050505050505092915050565b600280546001019081905560009081908190819081908190600160a060020a03881615156110b357600080fd5b6000546040805160008051602061198e833981519152602080830191909152600160a060020a038c81166c0100000000000000000000000002602d8401528351808403602101815260419093019384905282519416936304f49a3a93918291908401908083835b602083106111395780518252601f19909201916020918201910161111a565b51815160209384036101000a60001901801990921691161790526040805192909401829003822063ffffffff881660e060020a0283526004830152925160248083019650939450929083900301905081600087803b15801561119a57600080fd5b505af11580156111ae573d6000803e3d6000fd5b505050506040513d60208110156111c457600080fd5b5051600160a060020a031633146111da57600080fd5b8795506000600160a060020a031686600160a060020a0316634ece90a86040518163ffffffff1660e060020a028152600401602060405180830381600087803b15801561122657600080fd5b505af115801561123a573d6000803e3d6000fd5b505050506040513d602081101561125057600080fd5b5051600160a060020a031614156113b5576040805160e560020a6301defd490281523060048201819052915191319550600160a060020a03881691633bdfa920916024808201926020929091908290030181600087803b1580156112b357600080fd5b505af11580156112c7573d6000803e3d6000fd5b505050506040513d60208110156112dd57600080fd5b50519450600085116112ee57600080fd5b6112fe848663ffffffff61190116565b925085600160a060020a0316633ccfd60b6040518163ffffffff1660e060020a028152600401602060405180830381600087803b15801561133e57600080fd5b505af1158015611352573d6000803e3d6000fd5b505050506040513d602081101561136857600080fd5b5051151561137557600080fd5b3031831461138257600080fd5b604051339086156108fc029087906000818181858888f193505050501580156113af573d6000803e3d6000fd5b506116cb565b6040805160e560020a6301defd490281523060048201529051600160a060020a03881691633bdfa9209160248083019260209291908290030181600087803b15801561140057600080fd5b505af1158015611414573d6000803e3d6000fd5b505050506040513d602081101561142a57600080fd5b505194506000851161143b57600080fd5b85600160a060020a0316634ece90a86040518163ffffffff1660e060020a028152600401602060405180830381600087803b15801561147957600080fd5b505af115801561148d573d6000803e3d6000fd5b505050506040513d60208110156114a357600080fd5b5051604080517f70a082310000000000000000000000000000000000000000000000000000000081523060048201529051919350600160a060020a038416916370a08231916024808201926020929091908290030181600087803b15801561150a57600080fd5b505af115801561151e573d6000803e3d6000fd5b505050506040513d602081101561153457600080fd5b5051604080517f3ccfd60b0000000000000000000000000000000000000000000000000000000081529051919550600160a060020a03881691633ccfd60b916004808201926020929091908290030181600087803b15801561159557600080fd5b505af11580156115a9573d6000803e3d6000fd5b505050506040513d60208110156115bf57600080fd5b505115156115cc57600080fd5b8361162c8684600160a060020a03166370a08231306040518263ffffffff1660e060020a0281526004018082600160a060020a0316600160a060020a03168152602001915050602060405180830381600087803b158015610f2b57600080fd5b1461163657600080fd5b604080517fa9059cbb000000000000000000000000000000000000000000000000000000008152336004820152602481018790529051600160a060020a0384169163a9059cbb9160448083019260209291908290030181600087803b15801561169e57600080fd5b505af11580156116b2573d6000803e3d6000fd5b505050506040513d60208110156116c857600080fd5b50505b6001965060025481146116dd57600080fd5b505050505050919050565b600054600160a060020a031681565b600054604080517f6f776e65720000000000000000000000000000000000000000000000000000006020808301919091526c0100000000000000000000000033026025830152825160198184030181526039909201928390528151600160a060020a0390941693633b7bfda093918291908401908083835b6020831061178e5780518252601f19909201916020918201910161176f565b51815160209384036101000a60001901801990921691161790526040805192909401829003822063ffffffff881660e060020a0283526004830152925160248083019650939450929083900301905081600087803b1580156117ef57600080fd5b505af1158015611803573d6000803e3d6000fd5b505050506040513d602081101561181957600080fd5b5051151560011461182957600080fd5b600154604080517f42b425aa000000000000000000000000000000000000000000000000000000008152306024820181905233604483015231606482015260006084820181905260a06004830152601b60a48301527f41737365744d616e6167657246756e64732064657374726f796564000000000060c48301529151600160a060020a03909316926342b425aa9260e48084019391929182900301818387803b1580156118d657600080fd5b505af11580156118ea573d6000803e3d6000fd5b503392505050ff5b600154600160a060020a031681565b60008282018381101561191057fe5b8091505b5092915050565b6000805b83518160ff16101561196f5782600160a060020a0316848260ff1681518110151561194657fe5b90602001906020020151600160a060020a0316141561196757809150611914565b60010161191f565b50509051600101919050565b60008282111561198757fe5b50900390560061737365742e6d616e6167657200000000000000000000000000000000000000a165627a7a7230582062a3abf0bb1c735f8919b7fc41cc14e8401bbc0d3b9bc02ab2fd4ed15ba45e660029",
  "source": "pragma solidity ^0.4.24;\n\nimport \"../interfaces/ERC20.sol\";\nimport \"../interfaces/DBInterface.sol\";\nimport \"../database/Events.sol\";\nimport \"../math/SafeMath.sol\";\n\ninterface DToken {\n  function withdraw() external returns (bool);\n  function getAmountOwed(address _user) external view returns (uint);\n  function balanceOf(address _tokenHolder) external view returns (uint);\n  function transfer(address _to, uint _amount) external returns (bool success);\n  function getERC20() external  view returns (address);\n}\n\n// @title A dividend-token holding contract that locks tokens and retrieves dividends for assetManagers\n// @notice This contract receives newly minted tokens and retrieves Ether or ERC20 tokens received from the asset\n// @author Kyle Dewhurst & Peter Phillips, MyBit Foundation\ncontract AssetManagerFunds {\n  using SafeMath for uint256;\n\n  DBInterface public database;\n  Events public events;\n\n  uint256 private transactionNumber;\n\n  // @notice constructor: initializes database\n  constructor(address _database, address _events)\n  public {\n    database = DBInterface(_database);\n    events = Events(_events);\n  }\n\n  // @notice asset manager can withdraw his dividend fee from assets here\n  // @param : address _assetAddress = the address of this asset on the platform\n  function withdraw(address _assetAddress)\n  external\n  nonReentrant\n  returns (bool) {\n    require(_assetAddress != address(0));\n    require(msg.sender == database.addressStorage(keccak256(abi.encodePacked(\"asset.manager\", _assetAddress))));\n    DToken token = DToken( _assetAddress);\n    uint amountOwed;\n    uint balanceBefore;\n    if (token.getERC20() == address(0)){\n      balanceBefore = address(this).balance;\n      amountOwed = token.getAmountOwed(address(this));\n      require(amountOwed > 0);\n      uint balanceAfter = balanceBefore.add(amountOwed);\n      require(token.withdraw());\n      require(address(this).balance == balanceAfter);\n      msg.sender.transfer(amountOwed);\n    }\n    else {\n      amountOwed = token.getAmountOwed(address(this));\n      require(amountOwed > 0);\n      DToken fundingToken = DToken(token.getERC20());\n      balanceBefore = fundingToken.balanceOf(address(this));\n      require(token.withdraw());\n      require(fundingToken.balanceOf(address(this)).sub(amountOwed) == balanceBefore);\n      fundingToken.transfer(msg.sender, amountOwed);\n    }\n    return true;\n  }\n\n  function retrieveAssetManagerTokens(address[] _assetAddress)\n  external\n  nonReentrant\n  returns (bool) {\n    require(_assetAddress.length <= 42);\n    uint[] memory payoutAmounts = new uint[](_assetAddress.length);\n    address[] memory tokenAddresses = new address[](_assetAddress.length);\n    uint8 numEntries;\n    for(uint8 i = 0; i < _assetAddress.length; i++){\n      require(msg.sender == database.addressStorage(keccak256(abi.encodePacked(\"asset.manager\", _assetAddress[i]))) );\n      DToken token = DToken(_assetAddress[i]);\n      require(address(token) != address(0));\n      uint tokensOwed = token.getAmountOwed(address(this));\n      if(tokensOwed > 0){\n        DToken fundingToken = DToken(token.getERC20());\n        uint balanceBefore = fundingToken.balanceOf(address(this));\n        uint8 tokenIndex = containsAddress(tokenAddresses, address(token));\n        if (tokenIndex < _assetAddress.length) {  payoutAmounts[tokenIndex] = payoutAmounts[tokenIndex].add(tokensOwed); }\n        else {\n          tokenAddresses[numEntries] = address(fundingToken);\n          payoutAmounts[numEntries] = tokensOwed;\n          numEntries++;\n        }\n        require(token.withdraw());\n        require(fundingToken.balanceOf(address(this)).sub(tokensOwed) == balanceBefore);\n      }\n    }\n\n    for(i = 0; i < numEntries; i++){\n      require(ERC20(tokenAddresses[i]).transfer(msg.sender, payoutAmounts[i]));\n    }\n    return true;\n  }\n\n\n  function retrieveAssetManagerETH(address[] _assetAddress)\n  external\n  nonReentrant\n  returns (bool) {\n    require(_assetAddress.length <= 93);\n    uint weiOwed;\n    for(uint8 i = 0; i < _assetAddress.length; i++){\n      require(msg.sender == database.addressStorage(keccak256(abi.encodePacked(\"asset.manager\", _assetAddress[i]))));\n      DToken token = DToken(_assetAddress[i]);\n      uint balanceBefore = address(this).balance;\n      uint amountOwed = token.getAmountOwed(address(this));\n      if(amountOwed > 0){\n        uint balanceAfter = balanceBefore.add(amountOwed);\n        require(token.withdraw());\n        require(address(this).balance == balanceAfter);\n        weiOwed = weiOwed.add(amountOwed);\n      }\n    }\n    msg.sender.transfer(weiOwed);\n    return true;\n  }\n\n  function viewBalance(address _assetAddress, address _assetManager)\n  external\n  view\n  returns (uint){\n    require(_assetAddress != address(0), 'Empty address passed');\n    require(_assetManager == database.addressStorage(keccak256(abi.encodePacked(\"asset.manager\", _assetAddress))), 'That user does not manage the asset');\n    DToken token = DToken( _assetAddress);\n    uint balance = token.balanceOf(address(this));\n    return balance;\n  }\n\n  function viewAmountOwed(address _assetAddress, address _assetManager)\n  external\n  view\n  returns (uint){\n    require(_assetAddress != address(0), 'Empty address passed');\n    require(_assetManager == database.addressStorage(keccak256(abi.encodePacked(\"asset.manager\", _assetAddress))), 'That user does not manage the asset');\n    DToken token = DToken( _assetAddress);\n    uint amountOwed = token.getAmountOwed(address(this));\n    return amountOwed;\n  }\n\n  // @notice returns the index if the address is in the list, otherwise returns list length + 1\n  function containsAddress(address[] _addressList, address _addr)\n  internal\n  pure\n  returns (uint8) {\n    for (uint8 i = 0; i < _addressList.length; i++){\n      if (_addressList[i] == _addr) return i;\n    }\n    return uint8(_addressList.length + 1);\n  }\n\n  // @notice platform owners can destroy contract here\n  function destroy()\n  onlyOwner\n  external {\n    events.transaction('AssetManagerFunds destroyed', address(this), msg.sender, address(this).balance, address(0));\n    selfdestruct(msg.sender);\n  }\n\n  // @notice prevents calls from re-entering contract\n  modifier nonReentrant() {\n    transactionNumber += 1;\n    uint256 localCounter = transactionNumber;\n    _;\n    require(localCounter == transactionNumber);\n  }\n\n  // @notice reverts if caller is not the owner\n  modifier onlyOwner {\n    require(database.boolStorage(keccak256(abi.encodePacked(\"owner\", msg.sender))) == true);\n    _;\n  }\n\n  function ()\n  payable\n  public {\n    emit EtherReceived(msg.sender, msg.value);\n  }\n\n  event EtherReceived(address sender, uint amount);\n\n}\n",
  "sourcePath": "/home/iamonuwa/Projects/MyBitFoundation/MyBit-Network.tech/contracts/roles/AssetManagerFunds.sol",
  "compiler": {
    "name": "solc",
    "version": "0.4.24+commit.e67f0147.Emscripten.clang"
  },
  "schemaVersion": "3.0.9",
  "updatedAt": "2020-07-27T21:29:56.856Z",
  "devdoc": {
    "methods": {}
  },
  "userdoc": {
    "methods": {}
  }
}