{
  "contractName": "BurnableToken",
  "abi": [
    {
      "constant": true,
      "inputs": [],
      "name": "name",
      "outputs": [
        {
          "name": "",
          "type": "string"
        }
      ],
      "payable": false,
      "stateMutability": "view",
      "type": "function"
    },
    {
      "constant": false,
      "inputs": [
        {
          "name": "_spender",
          "type": "address"
        },
        {
          "name": "_value",
          "type": "uint256"
        }
      ],
      "name": "approve",
      "outputs": [
        {
          "name": "",
          "type": "bool"
        }
      ],
      "payable": false,
      "stateMutability": "nonpayable",
      "type": "function"
    },
    {
      "constant": true,
      "inputs": [],
      "name": "totalSupply",
      "outputs": [
        {
          "name": "",
          "type": "uint256"
        }
      ],
      "payable": false,
      "stateMutability": "view",
      "type": "function"
    },
    {
      "constant": false,
      "inputs": [
        {
          "name": "_from",
          "type": "address"
        },
        {
          "name": "_to",
          "type": "address"
        },
        {
          "name": "_value",
          "type": "uint256"
        }
      ],
      "name": "transferFrom",
      "outputs": [
        {
          "name": "",
          "type": "bool"
        }
      ],
      "payable": false,
      "stateMutability": "nonpayable",
      "type": "function"
    },
    {
      "constant": true,
      "inputs": [],
      "name": "decimals",
      "outputs": [
        {
          "name": "",
          "type": "uint8"
        }
      ],
      "payable": false,
      "stateMutability": "view",
      "type": "function"
    },
    {
      "constant": false,
      "inputs": [
        {
          "name": "_spender",
          "type": "address"
        },
        {
          "name": "_subtractedValue",
          "type": "uint256"
        }
      ],
      "name": "decreaseApproval",
      "outputs": [
        {
          "name": "",
          "type": "bool"
        }
      ],
      "payable": false,
      "stateMutability": "nonpayable",
      "type": "function"
    },
    {
      "constant": true,
      "inputs": [
        {
          "name": "_owner",
          "type": "address"
        }
      ],
      "name": "balanceOf",
      "outputs": [
        {
          "name": "",
          "type": "uint256"
        }
      ],
      "payable": false,
      "stateMutability": "view",
      "type": "function"
    },
    {
      "constant": true,
      "inputs": [],
      "name": "symbol",
      "outputs": [
        {
          "name": "",
          "type": "string"
        }
      ],
      "payable": false,
      "stateMutability": "view",
      "type": "function"
    },
    {
      "constant": false,
      "inputs": [
        {
          "name": "_to",
          "type": "address"
        },
        {
          "name": "_value",
          "type": "uint256"
        }
      ],
      "name": "transfer",
      "outputs": [
        {
          "name": "",
          "type": "bool"
        }
      ],
      "payable": false,
      "stateMutability": "nonpayable",
      "type": "function"
    },
    {
      "constant": false,
      "inputs": [
        {
          "name": "_spender",
          "type": "address"
        },
        {
          "name": "_addedValue",
          "type": "uint256"
        }
      ],
      "name": "increaseApproval",
      "outputs": [
        {
          "name": "",
          "type": "bool"
        }
      ],
      "payable": false,
      "stateMutability": "nonpayable",
      "type": "function"
    },
    {
      "constant": true,
      "inputs": [
        {
          "name": "_owner",
          "type": "address"
        },
        {
          "name": "_spender",
          "type": "address"
        }
      ],
      "name": "allowance",
      "outputs": [
        {
          "name": "",
          "type": "uint256"
        }
      ],
      "payable": false,
      "stateMutability": "view",
      "type": "function"
    },
    {
      "anonymous": false,
      "inputs": [
        {
          "indexed": true,
          "name": "_spender",
          "type": "address"
        },
        {
          "indexed": false,
          "name": "_value",
          "type": "uint256"
        }
      ],
      "name": "LogBurn",
      "type": "event"
    },
    {
      "anonymous": false,
      "inputs": [
        {
          "indexed": true,
          "name": "from",
          "type": "address"
        },
        {
          "indexed": true,
          "name": "to",
          "type": "address"
        },
        {
          "indexed": false,
          "name": "value",
          "type": "uint256"
        }
      ],
      "name": "Transfer",
      "type": "event"
    },
    {
      "anonymous": false,
      "inputs": [
        {
          "indexed": true,
          "name": "owner",
          "type": "address"
        },
        {
          "indexed": true,
          "name": "spender",
          "type": "address"
        },
        {
          "indexed": false,
          "name": "value",
          "type": "uint256"
        }
      ],
      "name": "Approval",
      "type": "event"
    },
    {
      "constant": false,
      "inputs": [
        {
          "name": "_amount",
          "type": "uint256"
        }
      ],
      "name": "burn",
      "outputs": [
        {
          "name": "success",
          "type": "bool"
        }
      ],
      "payable": false,
      "stateMutability": "nonpayable",
      "type": "function"
    },
    {
      "constant": false,
      "inputs": [
        {
          "name": "_from",
          "type": "address"
        },
        {
          "name": "_amount",
          "type": "uint256"
        }
      ],
      "name": "burnFrom",
      "outputs": [
        {
          "name": "success",
          "type": "bool"
        }
      ],
      "payable": false,
      "stateMutability": "nonpayable",
      "type": "function"
    }
  ],
  "bytecode": "0x608060405234801561001057600080fd5b50610a9b806100206000396000f3006080604052600436106100c45763ffffffff7c010000000000000000000000000000000000000000000000000000000060003504166306fdde0381146100c9578063095ea7b31461015357806318160ddd1461018b57806323b872dd146101b2578063313ce567146101dc57806342966c6814610207578063661884631461021f57806370a082311461024357806379cc67901461026457806395d89b4114610288578063a9059cbb1461029d578063d73dd623146102c1578063dd62ed3e146102e5575b600080fd5b3480156100d557600080fd5b506100de61030c565b6040805160208082528351818301528351919283929083019185019080838360005b83811015610118578181015183820152602001610100565b50505050905090810190601f1680156101455780820380516001836020036101000a031916815260200191505b509250505060405180910390f35b34801561015f57600080fd5b50610177600160a060020a036004351660243561039a565b604080519115158252519081900360200190f35b34801561019757600080fd5b506101a0610400565b60408051918252519081900360200190f35b3480156101be57600080fd5b50610177600160a060020a0360043581169060243516604435610406565b3480156101e857600080fd5b506101f1610569565b6040805160ff9092168252519081900360200190f35b34801561021357600080fd5b50610177600435610572565b34801561022b57600080fd5b50610177600160a060020a036004351660243561061c565b34801561024f57600080fd5b506101a0600160a060020a036004351661070b565b34801561027057600080fd5b50610177600160a060020a0360043516602435610726565b34801561029457600080fd5b506100de61083b565b3480156102a957600080fd5b50610177600160a060020a0360043516602435610896565b3480156102cd57600080fd5b50610177600160a060020a0360043516602435610963565b3480156102f157600080fd5b506101a0600160a060020a03600435811690602435166109fc565b6003805460408051602060026001851615610100026000190190941693909304601f810184900484028201840190925281815292918301828280156103925780601f1061036757610100808354040283529160200191610392565b820191906000526020600020905b81548152906001019060200180831161037557829003601f168201915b505050505081565b336000818152600160209081526040808320600160a060020a038716808552908352818420869055815186815291519394909390927f8c5be1e5ebec7d5bd14f71427d1e84f3dd0314c0f7b2291e5b200ac8c7c3b925928290030190a350600192915050565b60025490565b600160a060020a03831660009081526020819052604081205482111561042b57600080fd5b600160a060020a038416600090815260016020908152604080832033845290915290205482111561045b57600080fd5b600160a060020a038316151561047057600080fd5b600160a060020a038416600090815260208190526040902054610499908363ffffffff610a2716565b600160a060020a0380861660009081526020819052604080822093909355908516815220546104ce908363ffffffff610a3916565b600160a060020a03808516600090815260208181526040808320949094559187168152600182528281203382529091522054610510908363ffffffff610a2716565b600160a060020a0380861660008181526001602090815260408083203384528252918290209490945580518681529051928716939192600080516020610a50833981519152929181900390910190a35060019392505050565b60055460ff1690565b33600090815260208190526040812054610592908363ffffffff610a2716565b336000908152602081905260409020556002546105b5908363ffffffff610a2716565b60025560408051838152905133917f38d762ef507761291a578e921acfe29c1af31a7331ea03e391cf16cfc4d4f581919081900360200190a26040805183815290516000913391600080516020610a508339815191529181900360200190a3506001919050565b336000908152600160209081526040808320600160a060020a038616845290915281205480831061067057336000908152600160209081526040808320600160a060020a03881684529091528120556106a5565b610680818463ffffffff610a2716565b336000908152600160209081526040808320600160a060020a03891684529091529020555b336000818152600160209081526040808320600160a060020a0389168085529083529281902054815190815290519293927f8c5be1e5ebec7d5bd14f71427d1e84f3dd0314c0f7b2291e5b200ac8c7c3b925929181900390910190a35060019392505050565b600160a060020a031660009081526020819052604090205490565b600160a060020a03821660009081526020819052604081205461074f908363ffffffff610a2716565b600160a060020a03841660009081526020818152604080832093909355600181528282203383529052205461078a908363ffffffff610a2716565b600160a060020a03841660009081526001602090815260408083203384529091529020556002546107c1908363ffffffff610a2716565b600255604080518381529051600160a060020a038516917f38d762ef507761291a578e921acfe29c1af31a7331ea03e391cf16cfc4d4f581919081900360200190a2604080518381529051600091600160a060020a03861691600080516020610a508339815191529181900360200190a350600192915050565b6004805460408051602060026001851615610100026000190190941693909304601f810184900484028201840190925281815292918301828280156103925780601f1061036757610100808354040283529160200191610392565b336000908152602081905260408120548211156108b257600080fd5b600160a060020a03831615156108c757600080fd5b336000908152602081905260409020546108e7908363ffffffff610a2716565b3360009081526020819052604080822092909255600160a060020a03851681522054610919908363ffffffff610a3916565b600160a060020a03841660008181526020818152604091829020939093558051858152905191923392600080516020610a508339815191529281900390910190a350600192915050565b336000908152600160209081526040808320600160a060020a0386168452909152812054610997908363ffffffff610a3916565b336000818152600160209081526040808320600160a060020a0389168085529083529281902085905580519485525191937f8c5be1e5ebec7d5bd14f71427d1e84f3dd0314c0f7b2291e5b200ac8c7c3b925929081900390910190a350600192915050565b600160a060020a03918216600090815260016020908152604080832093909416825291909152205490565b600082821115610a3357fe5b50900390565b600082820183811015610a4857fe5b93925050505600ddf252ad1be2c89b69c2b068fc378daa952ba7f163c4a11628f55a4df523b3efa165627a7a7230582036e6deb9805d63f448bf9eeb541dd8d271c523aa8755960ad5a0a9e3e4568bfe0029",
  "source": "pragma solidity ^0.4.24;\n\nimport \"./StandardToken.sol\";\nimport \"../../interfaces/BurnERC20.sol\";\nimport \"../../math/SafeMath.sol\";\n\n// @title ERC20 token contract with burning capabilities\n// @notice Standard ERC20 contract with a deflationary supply.\ncontract BurnableToken is StandardToken, BurnERC20 {\n  using SafeMath for uint256;\n\n  // ------------------------------------------------------------------------\n  // Removes senders tokens from supply.\n  // Lowers investor balance and totalSupply by _amount\n  // ------------------------------------------------------------------------\n  function burn(uint _amount)\n  public\n  returns (bool success) {\n    balances[msg.sender] = balances[msg.sender].sub(_amount);\n    supply = supply.sub(_amount);\n    emit LogBurn(msg.sender, _amount);\n    emit Transfer(msg.sender, address(0), _amount);\n    return true;\n  }\n\n  // ------------------------------------------------------------------------\n  // An approved sender can burn _amount tokens of investor _from\n  // Lowers investor balance and supply by _amount\n  // ------------------------------------------------------------------------\n  function burnFrom(address _from, uint _amount)\n  public\n  returns (bool success) {\n    balances[_from] = balances[_from].sub(_amount);                         // Subtract from the targeted balance\n    allowed[_from][msg.sender] = allowed[_from][msg.sender].sub(_amount);             // Subtract from the sender's allowance\n    supply = supply.sub(_amount);                              // Update supply\n    emit LogBurn(_from, _amount);\n    emit Transfer(_from, address(0), _amount);\n    return true;\n  }\n}\n",
  "sourcePath": "/home/iamonuwa/Projects/MyBitFoundation/MyBit-Network.tech/contracts/tokens/erc20/BurnableToken.sol",
  "compiler": {
    "name": "solc",
    "version": "0.4.24+commit.e67f0147.Emscripten.clang"
  },
  "schemaVersion": "3.0.9",
  "updatedAt": "2020-07-27T21:29:54.733Z",
  "devdoc": {
    "methods": {
      "allowance(address,address)": {
        "details": "Function to check the amount of tokens that an owner allowed to a spender.",
        "params": {
          "_owner": "address The address which owns the funds.",
          "_spender": "address The address which will spend the funds."
        },
        "return": "A uint256 specifying the amount of tokens still available for the spender."
      },
      "approve(address,uint256)": {
        "details": "Approve the passed address to spend the specified amount of tokens on behalf of msg.sender. Beware that changing an allowance with this method brings the risk that someone may use both the old and the new allowance by unfortunate transaction ordering. One possible solution to mitigate this race condition is to first reduce the spender's allowance to 0 and set the desired value afterwards: https://github.com/ethereum/EIPs/issues/20#issuecomment-263524729",
        "params": {
          "_spender": "The address which will spend the funds.",
          "_value": "The amount of tokens to be spent."
        }
      },
      "balanceOf(address)": {
        "details": "Gets the balance of the specified address.",
        "params": {
          "_owner": "The address to query the the balance of."
        },
        "return": "An uint256 representing the amount owned by the passed address."
      },
      "decreaseApproval(address,uint256)": {
        "details": "Decrease the amount of tokens that an owner allowed to a spender. approve should be called when allowed[_spender] == 0. To decrement allowed value is better to use this function to avoid 2 calls (and wait until the first transaction is mined) From MonolithDAO Token.sol",
        "params": {
          "_spender": "The address which will spend the funds.",
          "_subtractedValue": "The amount of tokens to decrease the allowance by."
        }
      },
      "increaseApproval(address,uint256)": {
        "details": "Increase the amount of tokens that an owner allowed to a spender. approve should be called when allowed[_spender] == 0. To increment allowed value is better to use this function to avoid 2 calls (and wait until the first transaction is mined) From MonolithDAO Token.sol",
        "params": {
          "_addedValue": "The amount of tokens to increase the allowance by.",
          "_spender": "The address which will spend the funds."
        }
      },
      "totalSupply()": {
        "details": "Total number of tokens in existence"
      },
      "transfer(address,uint256)": {
        "details": "Transfer token for a specified address",
        "params": {
          "_to": "The address to transfer to.",
          "_value": "The amount to be transferred."
        }
      },
      "transferFrom(address,address,uint256)": {
        "details": "Transfer tokens from one address to another",
        "params": {
          "_from": "address The address which you want to send tokens from",
          "_to": "address The address which you want to transfer to",
          "_value": "uint256 the amount of tokens to be transferred"
        }
      }
    }
  },
  "userdoc": {
    "methods": {}
  }
}