{
  "contractName": "CrowdsaleGeneratorETH",
  "abi": [
    {
      "constant": true,
      "inputs": [],
      "name": "database",
      "outputs": [
        {
          "name": "",
          "type": "address"
        }
      ],
      "payable": false,
      "stateMutability": "view",
      "type": "function"
    },
    {
      "constant": true,
      "inputs": [],
      "name": "events",
      "outputs": [
        {
          "name": "",
          "type": "address"
        }
      ],
      "payable": false,
      "stateMutability": "view",
      "type": "function"
    },
    {
      "inputs": [
        {
          "name": "_database",
          "type": "address"
        },
        {
          "name": "_events",
          "type": "address"
        },
        {
          "name": "_kyber",
          "type": "address"
        }
      ],
      "payable": false,
      "stateMutability": "nonpayable",
      "type": "constructor"
    },
    {
      "constant": false,
      "inputs": [
        {
          "name": "_assetURI",
          "type": "string"
        },
        {
          "name": "_ipfs",
          "type": "string"
        },
        {
          "name": "_fundingLength",
          "type": "uint256"
        },
        {
          "name": "_amountToRaise",
          "type": "uint256"
        },
        {
          "name": "_assetManagerPerc",
          "type": "uint256"
        },
        {
          "name": "_escrow",
          "type": "uint256"
        },
        {
          "name": "_paymentToken",
          "type": "address"
        },
        {
          "name": "_paymentToken",
          "type": "address"
        }
      ],
      "name": "createAssetOrderETH",
      "outputs": [],
      "payable": true,
      "stateMutability": "payable",
      "type": "function"
    },
    {
      "constant": false,
      "inputs": [
        {
          "name": "_assetAddress",
          "type": "address"
        },
        {
          "name": "_ipfs",
          "type": "string"
        }
      ],
      "name": "updateIPFS",
      "outputs": [],
      "payable": false,
      "stateMutability": "nonpayable",
      "type": "function"
    },
    {
      "constant": false,
      "inputs": [],
      "name": "destroy",
      "outputs": [],
      "payable": false,
      "stateMutability": "nonpayable",
      "type": "function"
    }
  ],
  "bytecode": "0x60806040523480156200001157600080fd5b5060405160608062002eea83398101604081815282516020808501519483015160008054600160a060020a03808616600160a060020a0319928316179283905560018054828b16908416179055600280548286169316929092179091557f636f6e7472616374000000000000000000000000000000000000000000000000848801527f4d696e746572000000000000000000000000000000000000000000000000000060288801528551600e818903018152602e90970195869052865194979692959116936304f49a3a938291908401908083835b60208310620001075780518252601f199092019160209182019101620000e6565b51815160209384036101000a60001901801990921691161790526040805192909401829003822063ffffffff88167c01000000000000000000000000000000000000000000000000000000000283526004830152925160248083019650939450929083900301905081600087803b1580156200018257600080fd5b505af115801562000197573d6000803e3d6000fd5b505050506040513d6020811015620001ae57600080fd5b505160038054600160a060020a03909216600160a060020a0319909216919091179055505050612d0680620001e46000396000f3006080604052600436106100535763ffffffff60e060020a600035041663713b563f811461005857806383197ef014610089578063b5f8558c146100a0578063d3f5b664146100b5578063f217caed146100ec575b600080fd5b34801561006457600080fd5b5061006d610119565b60408051600160a060020a039092168252519081900360200190f35b34801561009557600080fd5b5061009e610128565b005b3480156100ac57600080fd5b5061006d610362565b61009e602460048035828101929082013591813591820191013560443560643560843560a435600160a060020a0360c43516610371565b3480156100f857600080fd5b5061009e60048035600160a060020a03169060248035908101910135610a87565b600054600160a060020a031681565b600054604080517f6f776e6572000000000000000000000000000000000000000000000000000000602080830191909152606060020a33026025830152825160198184030181526039909201928390528151600160a060020a0390941693633b7bfda093918291908401908083835b602083106101b65780518252601f199092019160209182019101610197565b51815160209384036101000a60001901801990921691161790526040805192909401829003822063ffffffff881660e060020a0283526004830152925160248083019650939450929083900301905081600087803b15801561021757600080fd5b505af115801561022b573d6000803e3d6000fd5b505050506040513d602081101561024157600080fd5b50511515610299576040805160e560020a62461bcd02815260206004820152600960248201527f4e6f74206f776e65720000000000000000000000000000000000000000000000604482015290519081900360640190fd5b600154604080517f42b425aa000000000000000000000000000000000000000000000000000000008152306024820181905233604483015231606482015260006084820181905260a06004830152601f60a48301527f43726f776473616c6547656e657261746f724554482064657374726f7965640060c48301529151600160a060020a03909316926342b425aa9260e48084019391929182900301818387803b15801561034657600080fd5b505af115801561035a573d6000803e3d6000fd5b503392505050ff5b600154600160a060020a031681565b600080600160a060020a03831673eeeeeeeeeeeeeeeeeeeeeeeeeeeeeeeeeeeeeeee14156103aa573484146103a557600080fd5b6103b5565b34156103b557600080fd5b606486101561040e576040805160e560020a62461bcd02815260206004820152601b60248201527f43726f776473616c6520676f616c20697320746f6f20736d616c6c0000000000604482015290519081900360640190fd5b600054604080517f706c6174666f726d2e70657263656e7461676500000000000000000000000000602080830191909152825180830360130181526033909201928390528151606494600160a060020a03169363a855d4ce9392909182918401908083835b602083106104925780518252601f199092019160209182019101610473565b51815160209384036101000a60001901801990921691161790526040805192909401829003822063ffffffff881660e060020a0283526004830152925160248083019650939450929083900301905081600087803b1580156104f357600080fd5b505af1158015610507573d6000803e3d6000fd5b505050506040513d602081101561051d57600080fd5b505186011061059c576040805160e560020a62461bcd02815260206004820152602860248201527f4d616e616765722070657263656e74206e65656420746f206265206c6573732060448201527f7468616e20313030000000000000000000000000000000000000000000000000606482015290519081900360840190fd5b6000546040517f61737365742e757269000000000000000000000000000000000000000000000060208201908152600160a060020a0390921691633b7bfda0918e918e916029018383808284378201915050925050506040516020818303038152906040526040518082805190602001908083835b602083106106305780518252601f199092019160209182019101610611565b51815160209384036101000a60001901801990921691161790526040805192909401829003822063ffffffff881660e060020a0283526004830152925160248083019650939450929083900301905081600087803b15801561069157600080fd5b505af11580156106a5573d6000803e3d6000fd5b505050506040513d60208110156106bb57600080fd5b505115610712576040805160e560020a62461bcd02815260206004820152601760248201527f417373657420555249206973206e6f7420756e69717565000000000000000000604482015290519081900360640190fd5b600354604080517fdc111bbf00000000000000000000000000000000000000000000000000000000815260006024820181905260048201928352604482018e9052600160a060020a039093169263dc111bbf928f928f92919081906064018585808284378201915050945050505050602060405180830381600087803b15801561079b57600080fd5b505af11580156107af573d6000803e3d6000fd5b505050506040513d60208110156107c557600080fd5b505191506107d4828888610dce565b15156107df57600080fd5b610851828c8c8080601f0160208091040260200160405190810160405280939291908181526020018383808284378201915050505050508b8b8080601f01602080910402602001604051908101604052809392919081815260200183838082843782019150505050505033898b611382565b151561085c57600080fd5b6108668633611c21565b90506108753383858785611f94565b151561088057600080fd5b600160009054906101000a9004600160a060020a0316600160a060020a03166378576a918c8c85336040518563ffffffff1660e060020a02815260040180806020018060200185600160a060020a0316600160a060020a0316815260200184600160a060020a0316600160a060020a03168152602001838103835260158152602001807f41737365742066756e64696e6720737461727465640000000000000000000000815250602001838103825287878281815260200192508082843782019150509650505050505050600060405180830381600087803b15801561096557600080fd5b505af1158015610979573d6000803e3d6000fd5b50505050600160009054906101000a9004600160a060020a0316600160a060020a03166378576a918a8a85336040518563ffffffff1660e060020a02815260040180806020018060200185600160a060020a0316600160a060020a0316815260200184600160a060020a0316600160a060020a031681526020018381038352600e8152602001807f4e65772061737365742069706673000000000000000000000000000000000000815250602001838103825287878281815260200192508082843782019150509650505050505050600060405180830381600087803b158015610a6257600080fd5b505af1158015610a76573d6000803e3d6000fd5b505050505050505050505050505050565b600054604080517f61737365742e6d616e6167657200000000000000000000000000000000000000602080830191909152600160a060020a03878116606060020a02602d8401528351808403602101815260419093019384905282519416936304f49a3a93918291908401908083835b60208310610b165780518252601f199092019160209182019101610af7565b51815160209384036101000a60001901801990921691161790526040805192909401829003822063ffffffff881660e060020a0283526004830152925160248083019650939450929083900301905081600087803b158015610b7757600080fd5b505af1158015610b8b573d6000803e3d6000fd5b505050506040513d6020811015610ba157600080fd5b5051600160a060020a03163314610bb757600080fd5b600054604080517f61737365742e6970667300000000000000000000000000000000000000000000602080830191909152600160a060020a03878116606060020a02602a8401528351808403601e018152603e909301938490528251941693636e89955093918291908401908083835b60208310610c465780518252601f199092019160209182019101610c27565b5181516020939093036101000a60001901801990911692169190911790526040805191909301819003812063ffffffff871660e060020a0282526004820181815260248301948552604483018a90529095508994508893909250906064018484808284378201915050945050505050600060405180830381600087803b158015610ccf57600080fd5b505af1158015610ce3573d6000803e3d6000fd5b50506001546040517f78576a91000000000000000000000000000000000000000000000000000000008152600160a060020a0387811660448301523360648301819052608060048401908152600e60848501527f4e6577206173736574206970667300000000000000000000000000000000000060a485015260c06024850190815260c485018990529290941695506378576a919450879387938a93829160e40187878082843782019150509650505050505050600060405180830381600087803b158015610db157600080fd5b505af1158015610dc5573d6000803e3d6000fd5b50505050505050565b60008054604080517f63726f776473616c652e73746172740000000000000000000000000000000000602080830191909152600160a060020a03888116606060020a02602f84015283518084036023018152604390930193849052825194169363e2a4853a93918291908401908083835b60208310610e5e5780518252601f199092019160209182019101610e3f565b5181516020939093036101000a60001901801990911692169190911790526040805191909301819003812063ffffffff871660e060020a0282526004820152426024820152915160448084019550600094509092839003019050818387803b158015610ec957600080fd5b505af1158015610edd573d6000803e3d6000fd5b5050600054604080517f63726f776473616c652e646561646c696e650000000000000000000000000000602080830191909152600160a060020a038a8116606060020a0260328401528351808403602601815260469093019384905282519416955063e2a4853a9450909282918401908083835b60208310610f705780518252601f199092019160209182019101610f51565b6001836020036101000a0380198251168184511680821785525050505050509050019150506040518091039020610fb08642612c5c90919063ffffffff16565b6040518363ffffffff1660e060020a02815260040180836000191660001916815260200182815260200192505050600060405180830381600087803b158015610ff857600080fd5b505af115801561100c573d6000803e3d6000fd5b5050600054604080517f63726f776473616c652e676f616c000000000000000000000000000000000000602080830191909152600160a060020a038a8116606060020a02602e8401528351808403602201815260429093019384905282519416955063e2a4853a9450909282918401908083835b6020831061109f5780518252601f199092019160209182019101611080565b5181516020939093036101000a60001901801990911692169190911790526040805191909301819003812063ffffffff871660e060020a028252600482015260248101899052915160448084019550600094509092839003019050818387803b15801561110b57600080fd5b505af115801561111f573d6000803e3d6000fd5b5050600054604080517f63726f776473616c652e72656d61696e696e6700000000000000000000000000602080830191909152600160a060020a038a8116606060020a0260338401528351808403602701815260479093019384905282519416955063e2a4853a9450909282918401908083835b602083106111b25780518252601f199092019160209182019101611193565b51815160209384036101000a6000190180199092169116179052604080519290940182900382206000547f706c6174666f726d2e6665650000000000000000000000000000000000000000848401528551600c818603018152602c909401958690528351919750611318965060649561130c95506112ff94600160a060020a039092169363a855d4ce9382918401908083835b602083106112645780518252601f199092019160209182019101611245565b51815160209384036101000a60001901801990921691161790526040805192909401829003822063ffffffff881660e060020a0283526004830152925160248083019650939450929083900301905081600087803b1580156112c557600080fd5b505af11580156112d9573d6000803e3d6000fd5b505050506040513d60208110156112ef57600080fd5b505160649063ffffffff612c5c16565b889063ffffffff612c7216565b9063ffffffff612c9d16565b6040518363ffffffff1660e060020a02815260040180836000191660001916815260200182815260200192505050600060405180830381600087803b15801561136057600080fd5b505af1158015611374573d6000803e3d6000fd5b506001979650505050505050565b60008054604080517f706c6174666f726d2e70657263656e746167650000000000000000000000000060208083019190915282518083036013018152603390920192839052815185946114c8946114b794600160a060020a039092169363a855d4ce9382918401908083835b6020831061140d5780518252601f1990920191602091820191016113ee565b51815160209384036101000a60001901801990921691161790526040805192909401829003822063ffffffff881660e060020a0283526004830152925160248083019650939450929083900301905081600087803b15801561146e57600080fd5b505af1158015611482573d6000803e3d6000fd5b505050506040513d602081101561149857600080fd5b50516114ab60648863ffffffff612cb216565b9063ffffffff612cb216565b61130c85606463ffffffff612c7216565b600054604080517f61737365742e6d616e61676572546f6b656e7300000000000000000000000000602080830191909152600160a060020a038d8116606060020a0260338401528351808403602701815260479093019384905282519596509093169363e2a4853a939192918291908401908083835b6020831061155d5780518252601f19909201916020918201910161153e565b6001836020036101000a038019825116818451168082178552505050505050905001915050604051809103902061159d8785612cc490919063ffffffff16565b6040518363ffffffff1660e060020a02815260040180836000191660001916815260200182815260200192505050600060405180830381600087803b1580156115e557600080fd5b505af11580156115f9573d6000803e3d6000fd5b5050600054604080517f61737365742e706c6174666f726d546f6b656e73000000000000000000000000602080830191909152600160a060020a038e8116606060020a0260348401528351808403602801815260489093019384905282519416955063e2a4853a9450909282918401908083835b6020831061168c5780518252601f19909201916020918201910161166d565b51815160209384036101000a6000190180199092169116179052604080519290940182900382206000547f706c6174666f726d2e70657263656e7461676500000000000000000000000000848401528551601381860301815260339094019586905283519197506117cd9650600160a060020a03169463a855d4ce9450918291908401908083835b602083106117335780518252601f199092019160209182019101611714565b51815160209384036101000a60001901801990921691161790526040805192909401829003822063ffffffff881660e060020a0283526004830152925160248083019650939450929083900301905081600087803b15801561179457600080fd5b505af11580156117a8573d6000803e3d6000fd5b505050506040513d60208110156117be57600080fd5b5051859063ffffffff612cc416565b6040518363ffffffff1660e060020a02815260040180836000191660001916815260200182815260200192505050600060405180830381600087803b15801561181557600080fd5b505af1158015611829573d6000803e3d6000fd5b5050600054604080517f61737365742e6d616e6167657200000000000000000000000000000000000000602080830191909152600160a060020a038e8116606060020a02602d8401528351808403602101815260419093019384905282519416955063ca446dd99450909282918401908083835b602083106118bc5780518252601f19909201916020918201910161189d565b5181516020939093036101000a60001901801990911692169190911790526040805191909301819003812063ffffffff871660e060020a0282526004820152600160a060020a038c166024820152915160448084019550600094509092839003019050818387803b15801561193057600080fd5b505af1158015611944573d6000803e3d6000fd5b5050600054604080517f61737365742e6970667300000000000000000000000000000000000000000000602080830191909152600160a060020a038e8116606060020a02602a8401528351808403601e018152603e90930193849052825194169550636e8995509450909282918401908083835b602083106119d75780518252601f1990920191602091820191016119b8565b51815160209384036101000a60001901801990921691161790526040805192909401829003822063ffffffff881660e060020a02835260048301818152602484019586528f5160448501528f519197508f96509493506064909201919085019080838360005b83811015611a55578181015183820152602001611a3d565b50505050905090810190601f168015611a825780820380516001836020036101000a031916815260200191505b509350505050600060405180830381600087803b158015611aa257600080fd5b505af1158015611ab6573d6000803e3d6000fd5b50506000546040517f61737365742e757269000000000000000000000000000000000000000000000060208083019182528c51600160a060020a03909416955063abfdcced94508c93919260290191908401908083835b60208310611b2c5780518252601f199092019160209182019101611b0d565b6001836020036101000a0380198251168184511680821785525050505050509050019150506040516020818303038152906040526040518082805190602001908083835b60208310611b8f5780518252601f199092019160209182019101611b70565b5181516020939093036101000a60001901801990911692169190911790526040805191909301819003812063ffffffff871660e060020a028252600482015260016024820152915160448084019550600094509092839003019050818387803b158015611bfb57600080fd5b505af1158015611c0f573d6000803e3d6000fd5b5060019b9a5050505050505050505050565b60008054604080517f6d616e616765722e617373657473000000000000000000000000000000000000602080830191909152600160a060020a03868116606060020a02602e8401528351808403602201815260429093019384905282518695611f659592169363a855d4ce938593859390918291908401908083835b60208310611cbc5780518252601f199092019160209182019101611c9d565b51815160209384036101000a60001901801990921691161790526040805192909401829003822063ffffffff881660e060020a0283526004830152925160248083019650939450929083900301905081600087803b158015611d1d57600080fd5b505af1158015611d31573d6000803e3d6000fd5b505050506040513d6020811015611d4757600080fd5b5051604080517f636f6c6c61746572616c2e6c6576656c0000000000000000000000000000000060208281019190915260308083019490945282518083039094018452605090910191829052825182918401908083835b60208310611dbd5780518252601f199092019160209182019101611d9e565b51815160209384036101000a60001901801990921691161790526040805192909401829003822063ffffffff881660e060020a0283526004830152925160248083019650939450929083900301905081600087803b158015611e1e57600080fd5b505af1158015611e32573d6000803e3d6000fd5b505050506040513d6020811015611e4857600080fd5b5051600054604080517f636f6c6c61746572616c2e6261736500000000000000000000000000000000006020828101919091528251808303600f018152602f909201928390528151600160a060020a039094169363a855d4ce93918291908401908083835b60208310611ecc5780518252601f199092019160209182019101611ead565b51815160209384036101000a60001901801990921691161790526040805192909401829003822063ffffffff881660e060020a0283526004830152925160248083019650939450929083900301905081600087803b158015611f2d57600080fd5b505af1158015611f41573d6000803e3d6000fd5b505050506040513d6020811015611f5757600080fd5b50519063ffffffff612c5c16565b9050611f7881606463ffffffff612c7216565b9050611f8a848263ffffffff612cc416565b91505b5092915050565b600080600080600080898b6040516020018083600160a060020a0316600160a060020a0316606060020a02815260140182600160a060020a0316600160a060020a0316606060020a028152601401925050506040516020818303038152906040526040518082805190602001908083835b602083106120245780518252601f199092019160209182019101612005565b51815160209384036101000a6000190180199092169116179052604080519290940182900382206000547f706c6174666f726d2e746f6b656e000000000000000000000000000000000000848401528551600e818603018152602e909401958690528351919b50600160a060020a031696506304f49a3a9550919392508291908401908083835b602083106120ca5780518252601f1990920191602091820191016120ab565b51815160209384036101000a60001901801990921691161790526040805192909401829003822063ffffffff881660e060020a0283526004830152925160248083019650939450929083900301905081600087803b15801561212b57600080fd5b505af115801561213f573d6000803e3d6000fd5b505050506040513d602081101561215557600080fd5b50519250600160a060020a03891673eeeeeeeeeeeeeeeeeeeeeeeeeeeeeeeeeeeeeeee141561220157868810156121fc576040805160e560020a62461bcd02815260206004820152602e60248201527f496e73756666696369656e7420636f6c6c61746572616c20666f72206173736560448201527f74206d616e61676572207269736b000000000000000000000000000000000000606482015290519081900360840190fd5b61234d565b600254604080517f809a9e55000000000000000000000000000000000000000000000000000000008152600160a060020a038c8116600483015273eeeeeeeeeeeeeeeeeeeeeeeeeeeeeeeeeeeeeeee6024830152604482018c9052825193169263809a9e55926064808401939192918290030181600087803b15801561228657600080fd5b505af115801561229a573d6000803e3d6000fd5b505050506040513d60408110156122b057600080fd5b50519150866122d1670de0b6b3a764000061130c8b8663ffffffff612c7216565b101561234d576040805160e560020a62461bcd02815260206004820152603f60248201527f496e73756666696369656e7420636f6c6c61746572616c20666f72206173736560448201527f74206d616e61676572207269736b20616674657220636f6e76657273696f6e00606482015290519081900360840190fd5b600160a060020a038981169084161461286457600160a060020a03891673eeeeeeeeeeeeeeeeeeeeeeeeeeeeeeeeeeeeeeee141561246c57600254604080517fcb3c28c7000000000000000000000000000000000000000000000000000000008152600160a060020a038c81166004830152602482018c905286811660448301523060648301527f80000000000000000000000000000000000000000000000000000000000000006084830152600060a4830181905260c48301529151919092169163cb3c28c7918b9160e48082019260209290919082900301818588803b15801561243857600080fd5b505af115801561244c573d6000803e3d6000fd5b50505050506040513d602081101561246357600080fd5b5051945061269e565b50604080517f23b872dd000000000000000000000000000000000000000000000000000000008152600160a060020a038c81166004830152306024830152604482018a905291518a928316916323b872dd9160648083019260209291908290030181600087803b1580156124df57600080fd5b505af11580156124f3573d6000803e3d6000fd5b505050506040513d602081101561250957600080fd5b5051151561251657600080fd5b600254604080517f095ea7b3000000000000000000000000000000000000000000000000000000008152600160a060020a039283166004820152602481018b905290519183169163095ea7b3916044808201926020929091908290030181600087803b15801561258557600080fd5b505af1158015612599573d6000803e3d6000fd5b505050506040513d60208110156125af57600080fd5b505115156125bc57600080fd5b600254604080517fcb3c28c7000000000000000000000000000000000000000000000000000000008152600160a060020a038c81166004830152602482018c905286811660448301523060648301527f80000000000000000000000000000000000000000000000000000000000000006084830152600060a4830181905260c48301819052925193169263cb3c28c79260e480840193602093929083900390910190829087803b15801561266f57600080fd5b505af1158015612683573d6000803e3d6000fd5b505050506040513d602081101561269957600080fd5b505194505b600054604080517f636f6e74726163740000000000000000000000000000000000000000000000006020808301919091527f457363726f7752657365727665000000000000000000000000000000000000006028830152825160158184030181526035909201928390528151600160a060020a038089169563a9059cbb959116936304f49a3a93909282918401908083835b6020831061274f5780518252601f199092019160209182019101612730565b51815160209384036101000a60001901801990921691161790526040805192909401829003822063ffffffff881660e060020a0283526004830152925160248083019650939450929083900301905081600087803b1580156127b057600080fd5b505af11580156127c4573d6000803e3d6000fd5b505050506040513d60208110156127da57600080fd5b50516040805160e060020a63ffffffff8516028152600160a060020a039092166004830152602482018990525160448083019260209291908290030181600087803b15801561282857600080fd5b505af115801561283c573d6000803e3d6000fd5b505050506040513d602081101561285257600080fd5b5051151561285f57600080fd5b612a4a565b87945082600160a060020a03166323b872dd8c6000809054906101000a9004600160a060020a0316600160a060020a03166304f49a3a60405160200180807f636f6e7472616374000000000000000000000000000000000000000000000000815250600801807f457363726f775265736572766500000000000000000000000000000000000000815250600d0190506040516020818303038152906040526040518082805190602001908083835b602083106129315780518252601f199092019160209182019101612912565b51815160209384036101000a60001901801990921691161790526040805192909401829003822063ffffffff881660e060020a0283526004830152925160248083019650939450929083900301905081600087803b15801561299257600080fd5b505af11580156129a6573d6000803e3d6000fd5b505050506040513d60208110156129bc57600080fd5b50516040805160e060020a63ffffffff8616028152600160a060020a039384166004820152929091166024830152604482018990525160648083019260209291908290030181600087803b158015612a1357600080fd5b505af1158015612a27573d6000803e3d6000fd5b505050506040513d6020811015612a3d57600080fd5b50511515612a4a57600080fd5b600054604080517f61737365742e657363726f770000000000000000000000000000000000000000602080830191909152602c80830189905283518084039091018152604c909201928390528151600160a060020a039094169363e2a4853a93918291908401908083835b60208310612ad45780518252601f199092019160209182019101612ab5565b5181516020939093036101000a60001901801990911692169190911790526040805191909301819003812063ffffffff871660e060020a0282526004820152602481018c9052915160448084019550600094509092839003019050818387803b158015612b4057600080fd5b505af1158015612b54573d6000803e3d6000fd5b50505050600160009054906101000a9004600160a060020a0316600160a060020a0316630b94df4c8b868e896040518563ffffffff1660e060020a028152600401808060200186600160a060020a0316600160a060020a03168152602001856000191660001916815260200184600160a060020a0316600160a060020a031681526020018381526020018281038252600d8152602001807f457363726f77206c6f636b65640000000000000000000000000000000000000081525060200195505050505050600060405180830381600087803b158015612c3357600080fd5b505af1158015612c47573d6000803e3d6000fd5b5060019e9d5050505050505050505050505050565b600082820183811015612c6b57fe5b9392505050565b600080831515612c855760009150611f8d565b50828202828482811515612c9557fe5b0414612c6b57fe5b60008183811515612caa57fe5b049392505050565b600082821115612cbe57fe5b50900390565b6000612c6b612cd38484612c72565b6064612c9d5600a165627a7a72305820bbfa018308f55e922bf3a77868750d664c88e32e3081f4fc43b0814b91d906f80029",
  "source": "pragma solidity ^0.4.24;\n\nimport \"../math/SafeMath.sol\";\nimport \"../interfaces/DBInterface.sol\";\nimport \"../database/Events.sol\";\nimport \"../interfaces/KyberInterface.sol\";\nimport \"../interfaces/MinterInterface.sol\";\n\ninterface CrowdsaleGeneratorETH_ERC20 {\n  function balanceOf(address _who) external view returns (uint256);\n  function approve(address _spender, uint256 _value) external returns (bool);\n  function transfer(address _to, uint256 _value) external returns (bool);\n  function transferFrom(address _from, address _to, uint256 _value) external returns (bool);\n}\n\n// @title A crowdsale generator contract\n// @author Kyle Dewhurst, MyBit Foundation\n// @notice AssetManagers can initiate a crowdsale that accepts Ether as payment here\ncontract CrowdsaleGeneratorETH {\n  using SafeMath for uint256;\n\n  DBInterface public database;\n  Events public events;\n  KyberInterface private kyber;\n  MinterInterface private minter;\n\n  //uint constant scalingFactor = 1e32;   // Used to avoid rounding errors\n\n  // @notice This contract\n  // @param: The address for the database contract used by this platform\n  constructor(address _database, address _events, address _kyber)\n  public{\n      database = DBInterface(_database);\n      events = Events(_events);\n      kyber = KyberInterface(_kyber);\n      minter = MinterInterface(database.addressStorage(keccak256(abi.encodePacked(\"contract\", \"Minter\"))));\n  }\n\n  // @notice AssetManagers can initiate a crowdfund for a new asset here\n  // @dev the crowdsaleETH contract is granted rights to mint asset-tokens as it receives funding\n  // @param (string) _assetURI = The location where information about the asset can be found\n  // @param (uint) _fundingLength = The number of seconds this crowdsale is to go on for until it fails\n  // @param (uint) _amountToRaise = The amount of WEI required to raise for the crowdsale to be a success\n  // @param (uint) _assetManagerPerc = The percentage of the total revenue which is to go to the AssetManager if asset is a success\n  function createAssetOrderETH(string _assetURI, string _ipfs, uint _fundingLength, uint _amountToRaise, uint _assetManagerPerc, uint _escrow, address _paymentToken)\n  external\n  payable {\n    if(_paymentToken == address(0xEeeeeEeeeEeEeeEeEeEeeEEEeeeeEeeeeeeeEEeE)){\n      require(msg.value == _escrow);\n    } else {\n      require(msg.value == 0);\n    }\n    require(_amountToRaise >= 100, \"Crowdsale goal is too small\");\n    require((_assetManagerPerc + database.uintStorage(keccak256(abi.encodePacked(\"platform.percentage\")))) < 100, \"Manager percent need to be less than 100\");\n    // require(database.addressStorage(keccak256(abi.encodePacked(\"model.operator\", _modelID))) != address(0), \"Operator does not exist\");\n    require(!database.boolStorage(keccak256(abi.encodePacked(\"asset.uri\", _assetURI))), \"Asset URI is not unique\"); //Check that asset URI is unique\n    address assetAddress = minter.cloneToken(_assetURI, address(0));\n    require(setCrowdsaleValues(assetAddress, _fundingLength, _amountToRaise));\n    require(setAssetValues(assetAddress, _assetURI, _ipfs, msg.sender, _assetManagerPerc, _amountToRaise));\n    //Lock escrow\n    uint minEscrow = calculateEscrowETH(_amountToRaise, msg.sender);\n    require(lockEscrowETH(msg.sender, assetAddress, _paymentToken, _escrow, minEscrow));\n    events.asset('Asset funding started', _assetURI, assetAddress, msg.sender);\n    events.asset('New asset ipfs', _ipfs, assetAddress, msg.sender);\n  }\n\n  function updateIPFS(address _assetAddress, string _ipfs)\n  external {\n    require(msg.sender == database.addressStorage(keccak256(abi.encodePacked(\"asset.manager\", _assetAddress))));\n    database.setString(keccak256(abi.encodePacked(\"asset.ipfs\", _assetAddress)), _ipfs);\n    events.asset('New asset ipfs', _ipfs, _assetAddress, msg.sender);\n  }\n\n\n  // @notice platform owners can destroy contract here\n  function destroy()\n  onlyOwner\n  external {\n    events.transaction('CrowdsaleGeneratorETH destroyed', address(this), msg.sender, address(this).balance, address(0));\n    selfdestruct(msg.sender);\n  }\n\n  //////////////////////////////////////////////////////////////////////////////////////////////////////////////////\n  //                                            Internal/ Private Functions\n  //////////////////////////////////////////////////////////////////////////////////////////////////////////////////\n\n  function setCrowdsaleValues(address _assetAddress, uint _fundingLength, uint _amountToRaise)\n  private\n  returns (bool){\n    database.setUint(keccak256(abi.encodePacked(\"crowdsale.start\", _assetAddress)), now);\n    database.setUint(keccak256(abi.encodePacked(\"crowdsale.deadline\", _assetAddress)), now.add(_fundingLength));\n    database.setUint(keccak256(abi.encodePacked(\"crowdsale.goal\", _assetAddress)), _amountToRaise);\n    database.setUint(keccak256(abi.encodePacked(\"crowdsale.remaining\", _assetAddress)), _amountToRaise.mul(uint(100).add(database.uintStorage(keccak256(abi.encodePacked(\"platform.fee\"))))).div(100));\n    return true;\n  }\n\n  function setAssetValues(address _assetAddress, string _assetURI, string _ipfs, address _assetManager, uint _assetManagerPerc, uint _amountToRaise)\n  private\n  returns (bool){\n    uint totalTokens = _amountToRaise.mul(100).div(uint(100).sub(_assetManagerPerc).sub(database.uintStorage(keccak256(abi.encodePacked(\"platform.percentage\")))));\n    //database.setUint(keccak256(abi.encodePacked(\"asset.managerTokens\", assetAddress)), _amountToRaise.mul(uint(100).mul(scalingFactor).div(uint(100).sub(_assetManagerPerc)).sub(scalingFactor)).div(scalingFactor));\n    database.setUint(keccak256(abi.encodePacked(\"asset.managerTokens\", _assetAddress)), totalTokens.getFractionalAmount(_assetManagerPerc));\n    database.setUint(keccak256(abi.encodePacked(\"asset.platformTokens\", _assetAddress)), totalTokens.getFractionalAmount(database.uintStorage(keccak256(abi.encodePacked(\"platform.percentage\")))));\n    database.setAddress(keccak256(abi.encodePacked(\"asset.manager\", _assetAddress)), _assetManager);\n    // database.setBytes32(keccak256(abi.encodePacked(\"asset.modelID\", _assetAddress)), _modelID);\n    database.setString(keccak256(abi.encodePacked(\"asset.ipfs\", _assetAddress)), _ipfs);\n    //database.setAddress(keccak256(abi.encodePacked(\"asset.operator\", _assetAddress)), database.addressStorage(keccak256(abi.encodePacked(\"model.operator\", _modelID))));\n    /*\n    if(database.boolStorage(keccak256(abi.encodePacked(\"model.acceptsToken\", _modelID, address(0))))){\n      database.setAddress(keccak256(abi.encodePacked(\"asset.receiver\", _assetAddress)), database.addressStorage(keccak256(abi.encodePacked(\"model.operator\", _modelID))));\n    } else {\n      database.setAddress(keccak256(abi.encodePacked(\"asset.receiver\", _assetAddress)), _assetManager);\n    }\n    */\n    database.setBool(keccak256(abi.encodePacked(\"asset.uri\", _assetURI)), true); //Set to ensure a unique asset URI\n    return true;\n  }\n\n  function calculateEscrowETH(uint _amount, address _manager)\n  private\n  view\n  returns (uint){\n    uint percent = database.uintStorage(keccak256(abi.encodePacked(\"collateral.base\"))).add(database.uintStorage(keccak256(abi.encodePacked(\"collateral.level\", database.uintStorage(keccak256(abi.encodePacked(\"manager.assets\", _manager)))))));\n      percent = percent.mul(100);\n    return _amount.getFractionalAmount(percent);\n  }\n\n  function lockEscrowETH(address _assetManager, address _assetAddress, address _paymentTokenAddress, uint _amount, uint  _min)\n  private\n  returns (bool) {\n    uint amount;\n    bytes32 assetManagerEscrowID = keccak256(abi.encodePacked(_assetAddress, _assetManager));\n    address platformTokenAddress = database.addressStorage(keccak256(abi.encodePacked(\"platform.token\")));\n    if(_paymentTokenAddress == address(0xEeeeeEeeeEeEeeEeEeEeeEEEeeeeEeeeeeeeEEeE)){\n      require(_amount >= _min, \"Insufficient collateral for asset manager risk\");\n    } else {\n      //Get conversion rate, and make sure converted amount is >= _amount\n      (uint rate,) = kyber.getExpectedRate(_paymentTokenAddress, address(0xEeeeeEeeeEeEeeEeEeEeeEEEeeeeEeeeeeeeEEeE), _amount);\n      require(_amount.mul(rate).div(10**18) >= _min, \"Insufficient collateral for asset manager risk after conversion\");\n    }\n    if(_paymentTokenAddress != platformTokenAddress){\n      //Convert the payment token into the platform token\n      if(_paymentTokenAddress == address(0xEeeeeEeeeEeEeeEeEeEeeEEEeeeeEeeeeeeeEEeE)){\n        amount = kyber.trade.value(_amount)(_paymentTokenAddress, _amount, platformTokenAddress, address(this), 2**255, 0, 0); //Currently no minimum rate is set, so watch out for slippage!\n      } else {\n        CrowdsaleGeneratorETH_ERC20 paymentToken = CrowdsaleGeneratorETH_ERC20(_paymentTokenAddress);\n        require(paymentToken.transferFrom(_assetManager, address(this), _amount));\n        require(paymentToken.approve(address(kyber), _amount));\n        amount = kyber.trade(_paymentTokenAddress, _amount, platformTokenAddress, address(this), 2**255, 0, 0); //Currently no minimum rate is set, so watch out for slippage!\n      }\n      require(CrowdsaleGeneratorETH_ERC20(platformTokenAddress).transfer(database.addressStorage(keccak256(abi.encodePacked(\"contract\", \"EscrowReserve\"))), amount));\n    } else {\n      amount = _amount;\n      require(CrowdsaleGeneratorETH_ERC20(platformTokenAddress).transferFrom(_assetManager, database.addressStorage(keccak256(abi.encodePacked(\"contract\", \"EscrowReserve\"))), amount));\n    }\n    database.setUint(keccak256(abi.encodePacked(\"asset.escrow\", assetManagerEscrowID)), amount);\n    events.escrow('Escrow locked', _assetAddress, assetManagerEscrowID, _assetManager, amount);\n    return true;\n  }\n\n  //////////////////////////////////////////////////////////////////////////////////////////////////////////////////\n  //                                            Modifiers\n  //////////////////////////////////////////////////////////////////////////////////////////////////////////////////\n\n\n  // // @notice reverts if asset manager is unable to burn pp\n  // modifier burnRequired {\n  //   //emit LogSig(msg.sig);\n  //   require(burner.burn(msg.sender, database.uintStorage(keccak256(abi.encodePacked(msg.sig, address(this))))));\n  //   _;\n  // }\n\n  // @notice Sender must be a registered owner\n  modifier onlyOwner {\n    require(database.boolStorage(keccak256(abi.encodePacked(\"owner\", msg.sender))), \"Not owner\");\n    _;\n  }\n\n  //////////////////////////////////////////////////////////////////////////////////////////////////////////////////\n  //                                            Events\n  //////////////////////////////////////////////////////////////////////////////////////////////////////////////////\n\n  //event LogAssetFundingStarted(bytes32 indexed _modelID, address indexed _assetManager, string _assetURI, address indexed _tokenAddress);\n  //event LogSig(bytes4 _sig);\n\n}\n",
  "sourcePath": "/home/iamonuwa/Projects/MyBitFoundation/MyBit-Network.tech/contracts/crowdsale/CrowdsaleGeneratorETH.sol",
  "compiler": {
    "name": "solc",
    "version": "0.4.24+commit.e67f0147.Emscripten.clang"
  },
  "schemaVersion": "3.0.9",
  "updatedAt": "2020-07-27T21:29:53.724Z",
  "devdoc": {
    "methods": {}
  },
  "userdoc": {
    "methods": {}
  }
}