{
  "contractName": "CrowdsaleReserve",
  "abi": [
    {
      "inputs": [
        {
          "name": "_database",
          "type": "address"
        },
        {
          "name": "_events",
          "type": "address"
        }
      ],
      "payable": false,
      "stateMutability": "nonpayable",
      "type": "constructor"
    },
    {
      "constant": false,
      "inputs": [
        {
          "name": "_receiver",
          "type": "address"
        },
        {
          "name": "_amount",
          "type": "uint256"
        }
      ],
      "name": "issueETH",
      "outputs": [
        {
          "name": "",
          "type": "bool"
        }
      ],
      "payable": false,
      "stateMutability": "nonpayable",
      "type": "function"
    },
    {
      "constant": false,
      "inputs": [
        {
          "name": "_payer",
          "type": "address"
        }
      ],
      "name": "receiveETH",
      "outputs": [
        {
          "name": "",
          "type": "bool"
        }
      ],
      "payable": true,
      "stateMutability": "payable",
      "type": "function"
    },
    {
      "constant": false,
      "inputs": [
        {
          "name": "_asset",
          "type": "address"
        },
        {
          "name": "_amount",
          "type": "uint256"
        }
      ],
      "name": "refundETHAsset",
      "outputs": [
        {
          "name": "",
          "type": "bool"
        }
      ],
      "payable": false,
      "stateMutability": "nonpayable",
      "type": "function"
    },
    {
      "constant": false,
      "inputs": [
        {
          "name": "_receiver",
          "type": "address"
        },
        {
          "name": "_amount",
          "type": "uint256"
        },
        {
          "name": "_tokenAddress",
          "type": "address"
        }
      ],
      "name": "issueERC20",
      "outputs": [
        {
          "name": "",
          "type": "bool"
        }
      ],
      "payable": false,
      "stateMutability": "nonpayable",
      "type": "function"
    },
    {
      "constant": false,
      "inputs": [
        {
          "name": "_payer",
          "type": "address"
        },
        {
          "name": "_amount",
          "type": "uint256"
        },
        {
          "name": "_tokenAddress",
          "type": "address"
        }
      ],
      "name": "requestERC20",
      "outputs": [
        {
          "name": "",
          "type": "bool"
        }
      ],
      "payable": false,
      "stateMutability": "nonpayable",
      "type": "function"
    },
    {
      "constant": false,
      "inputs": [
        {
          "name": "_receiver",
          "type": "address"
        },
        {
          "name": "_amount",
          "type": "uint256"
        },
        {
          "name": "_tokenAddress",
          "type": "address"
        }
      ],
      "name": "approveERC20",
      "outputs": [
        {
          "name": "",
          "type": "bool"
        }
      ],
      "payable": false,
      "stateMutability": "nonpayable",
      "type": "function"
    },
    {
      "constant": false,
      "inputs": [
        {
          "name": "_asset",
          "type": "address"
        },
        {
          "name": "_amount",
          "type": "uint256"
        },
        {
          "name": "_tokenAddress",
          "type": "address"
        }
      ],
      "name": "refundERC20Asset",
      "outputs": [
        {
          "name": "",
          "type": "bool"
        }
      ],
      "payable": false,
      "stateMutability": "nonpayable",
      "type": "function"
    }
  ],
  "bytecode": "0x608060405234801561001057600080fd5b5060405160408061166b83398101604052805160209091015160008054600160a060020a03938416600160a060020a03199182161790915560018054939092169216919091179055611604806100676000396000f3006080604052600436106100695763ffffffff60e060020a600035041663080a771c811461006e5780630b83af38146100ad57806325127520146100d8578063785bc786146100fc5780638c53f61d14610120578063c4e0d20014610134578063deca3ea91461015f575b600080fd5b34801561007a57600080fd5b50610099600160a060020a03600435811690602435906044351661018a565b604080519115158252519081900360200190f35b3480156100b957600080fd5b50610099600160a060020a0360043581169060243590604435166105ad565b3480156100e457600080fd5b50610099600160a060020a03600435166024356108f2565b34801561010857600080fd5b50610099600160a060020a0360043516602435610bd2565b610099600160a060020a0360043516610ecd565b34801561014057600080fd5b50610099600160a060020a03600435811690602435906044351661111b565b34801561016b57600080fd5b50610099600160a060020a0360043581169060243590604435166113fe565b60008054604080516000805160206115b98339815191526020808301919091527f43726f776473616c65455243323000000000000000000000000000000000000060288301528251601681840301815260369092019283905281518594600160a060020a0316936304f49a3a9392909182918401908083835b602083106102225780518252601f199092019160209182019101610203565b51815160209384036101000a60001901801990921691161790526040805192909401829003822063ffffffff881660e060020a0283526004830152925160248083019650939450929083900301905081600087803b15801561028357600080fd5b505af1158015610297573d6000803e3d6000fd5b505050506040513d60208110156102ad57600080fd5b5051600160a060020a031633146102fc576040805160e560020a62461bcd0281526020600482015260176024820152600080516020611599833981519152604482015290519081900360640190fd5b50604080517f70a08231000000000000000000000000000000000000000000000000000000008152306004820152905183918591600160a060020a038416916370a082319160248083019260209291908290030181600087803b15801561036257600080fd5b505af1158015610376573d6000803e3d6000fd5b505050506040513d602081101561038c57600080fd5b505110156103e4576040805160e560020a62461bcd02815260206004820152601060248201527f4e6f7420656e6f7567682066756e647300000000000000000000000000000000604482015290519081900360640190fd5b80600160a060020a031663a9059cbb86866040518363ffffffff1660e060020a0281526004018083600160a060020a0316600160a060020a0316815260200182815260200192505050602060405180830381600087803b15801561044757600080fd5b505af115801561045b573d6000803e3d6000fd5b505050506040513d602081101561047157600080fd5b505115156104c9576040805160e560020a62461bcd02815260206004820152600f60248201527f5472616e73666572206661696c65640000000000000000000000000000000000604482015290519081900360640190fd5b6001546040805160e160020a63215a12d5028152306024820152600160a060020a03888116604483015260648201889052868116608483015260a06004830152602660a48301527f45524332302077697468647261776e2066726f6d2063726f776473616c65207260c48301527f657365727665000000000000000000000000000000000000000000000000000060e4830152915191909216916342b425aa9161010480830192600092919082900301818387803b15801561058a57600080fd5b505af115801561059e573d6000803e3d6000fd5b50600198975050505050505050565b60008054604080516000805160206115b98339815191526020808301919091527f43726f776473616c6545524332300000000000000000000000000000000000006028830152825160168184030181526036909201928390528151600160a060020a03909416936304f49a3a93918291908401908083835b602083106106445780518252601f199092019160209182019101610625565b51815160209384036101000a60001901801990921691161790526040805192909401829003822063ffffffff881660e060020a0283526004830152925160248083019650939450929083900301905081600087803b1580156106a557600080fd5b505af11580156106b9573d6000803e3d6000fd5b505050506040513d60208110156106cf57600080fd5b5051600160a060020a0316331461071e576040805160e560020a62461bcd0281526020600482015260176024820152600080516020611599833981519152604482015290519081900360640190fd5b604080517f23b872dd000000000000000000000000000000000000000000000000000000008152600160a060020a038681166004830152306024830152604482018690529151918416916323b872dd916064808201926020929091908290030181600087803b15801561079057600080fd5b505af11580156107a4573d6000803e3d6000fd5b505050506040513d60208110156107ba57600080fd5b50511515610812576040805160e560020a62461bcd02815260206004820152600f60248201527f5472616e73666572206661696c65640000000000000000000000000000000000604482015290519081900360640190fd5b6001546040805160e160020a63215a12d5028152600160a060020a03878116602483015230604483015260648201879052858116608483015260a06004830152602360a48301527f45524332302072656365697665642062792063726f776473616c65207265736560c48301527f727665000000000000000000000000000000000000000000000000000000000060e4830152915191909216916342b425aa9161010480830192600092919082900301818387803b1580156108d357600080fd5b505af11580156108e7573d6000803e3d6000fd5b505050509392505050565b60008054604080516000805160206115b98339815191526020808301919091527f43726f776473616c6545544800000000000000000000000000000000000000006028830152825160148184030181526034909201928390528151600160a060020a03909416936304f49a3a93918291908401908083835b602083106109895780518252601f19909201916020918201910161096a565b51815160209384036101000a60001901801990921691161790526040805192909401829003822063ffffffff881660e060020a0283526004830152925160248083019650939450929083900301905081600087803b1580156109ea57600080fd5b505af11580156109fe573d6000803e3d6000fd5b505050506040513d6020811015610a1457600080fd5b5051600160a060020a03163314610a63576040805160e560020a62461bcd0281526020600482015260176024820152600080516020611599833981519152604482015290519081900360640190fd5b3031821115610abc576040805160e560020a62461bcd02815260206004820152601060248201527f4e6f7420656e6f7567682066756e647300000000000000000000000000000000604482015290519081900360640190fd5b604051600160a060020a0384169083156108fc029084906000818181858888f19350505050158015610af2573d6000803e3d6000fd5b506001546040805160e160020a63215a12d5028152306024820152600160a060020a0386811660448301526064820186905260006084830181905260a06004840152602660a48401527f45746865722077697468647261776e2066726f6d2063726f776473616c65207260c48401527f657365727665000000000000000000000000000000000000000000000000000060e484015292519316926342b425aa926101048084019391929182900301818387803b158015610bb157600080fd5b505af1158015610bc5573d6000803e3d6000fd5b5060019695505050505050565b60008054604080516000805160206115b98339815191526020808301919091527f43726f776473616c6545544800000000000000000000000000000000000000006028830152825160148184030181526034909201928390528151600160a060020a03909416936304f49a3a93918291908401908083835b60208310610c695780518252601f199092019160209182019101610c4a565b51815160209384036101000a60001901801990921691161790526040805192909401829003822063ffffffff881660e060020a0283526004830152925160248083019650939450929083900301905081600087803b158015610cca57600080fd5b505af1158015610cde573d6000803e3d6000fd5b505050506040513d6020811015610cf457600080fd5b5051600160a060020a03163314610d43576040805160e560020a62461bcd0281526020600482015260176024820152600080516020611599833981519152604482015290519081900360640190fd5b82600160a060020a03166352ff7fa983846040518363ffffffff1660e060020a028152600401808281526020019150506020604051808303818588803b158015610d8c57600080fd5b505af1158015610da0573d6000803e3d6000fd5b50505050506040513d6020811015610db757600080fd5b50511515610e0f576040805160e560020a62461bcd02815260206004820152601860248201527f4469766964656e642069737375616e6365206661696c65640000000000000000604482015290519081900360640190fd5b6001546040805160e160020a63215a12d5028152600160a060020a0386811660248301523060448301526064820186905260006084830181905260a06004840152602860a48401527f41737365742069737375656420726566756e642062792063726f776473616c6560c48401527f207265736572766500000000000000000000000000000000000000000000000060e484015292519316926342b425aa926101048084019391929182900301818387803b158015610bb157600080fd5b60008054604080516000805160206115b98339815191526020808301919091527f43726f776473616c6545544800000000000000000000000000000000000000006028830152825160148184030181526034909201928390528151600160a060020a03909416936304f49a3a93918291908401908083835b60208310610f645780518252601f199092019160209182019101610f45565b51815160209384036101000a60001901801990921691161790526040805192909401829003822063ffffffff881660e060020a0283526004830152925160248083019650939450929083900301905081600087803b158015610fc557600080fd5b505af1158015610fd9573d6000803e3d6000fd5b505050506040513d6020811015610fef57600080fd5b5051600160a060020a0316331461103e576040805160e560020a62461bcd0281526020600482015260176024820152600080516020611599833981519152604482015290519081900360640190fd5b6001546040805160e160020a63215a12d5028152306024820152600160a060020a03858116604483015234606483015260006084830181905260a06004840152602360a48401527f45746865722072656365697665642062792063726f776473616c65207265736560c48401527f727665000000000000000000000000000000000000000000000000000000000060e484015292519316926342b425aa926101048084019391929182900301818387803b1580156110fb57600080fd5b505af115801561110f573d6000803e3d6000fd5b50600195945050505050565b60008054604080516000805160206115b98339815191526020808301919091527f43726f776473616c6545524332300000000000000000000000000000000000006028830152825160168184030181526036909201928390528151600160a060020a03909416936304f49a3a93918291908401908083835b602083106111b25780518252601f199092019160209182019101611193565b51815160209384036101000a60001901801990921691161790526040805192909401829003822063ffffffff881660e060020a0283526004830152925160248083019650939450929083900301905081600087803b15801561121357600080fd5b505af1158015611227573d6000803e3d6000fd5b505050506040513d602081101561123d57600080fd5b5051600160a060020a0316331461128c576040805160e560020a62461bcd0281526020600482015260176024820152600080516020611599833981519152604482015290519081900360640190fd5b81600160a060020a031663095ea7b385856040518363ffffffff1660e060020a0281526004018083600160a060020a0316600160a060020a0316815260200182815260200192505050602060405180830381600087803b1580156112ef57600080fd5b505af1158015611303573d6000803e3d6000fd5b505050506040513d602081101561131957600080fd5b50506001546040805160e160020a63215a12d5028152306024820152600160a060020a03878116604483015260648201879052858116608483015260a06004830152602960a48301527f455243323020617070726f76616c20676976656e2062792063726f776473616c60c48301527f652072657365727665000000000000000000000000000000000000000000000060e4830152915191909216916342b425aa9161010480830192600092919082900301818387803b1580156113dc57600080fd5b505af11580156113f0573d6000803e3d6000fd5b506001979650505050505050565b600061140b84848461111b565b5083600160a060020a03166352ff7fa9846040518263ffffffff1660e060020a02815260040180828152602001915050602060405180830381600087803b15801561145557600080fd5b505af1158015611469573d6000803e3d6000fd5b505050506040513d602081101561147f57600080fd5b505115156114d7576040805160e560020a62461bcd02815260206004820152601860248201527f4469766964656e642069737375616e6365206661696c65640000000000000000604482015290519081900360640190fd5b6001546040805160e160020a63215a12d5028152600160a060020a03878116602483015230604483015260648201879052858116608483015260a06004830152602860a48301527f41737365742069737375656420726566756e642062792063726f776473616c6560c48301527f207265736572766500000000000000000000000000000000000000000000000060e4830152915191909216916342b425aa9161010480830192600092919082900301818387803b1580156113dc57600080fd00436f6e7472616374206e6f7420617574686f72697a6564000000000000000000636f6e7472616374000000000000000000000000000000000000000000000000a165627a7a7230582020000321974b57246831c08d45f9b5a26f269bdf0f268a5eb1ff4142a8cfb3020029",
  "source": "pragma solidity ^0.4.24;\n\nimport \"../interfaces/CrowdsaleReserveInterface.sol\";\nimport \"../interfaces/ERC20.sol\";\nimport \"../interfaces/DividendInterface.sol\";\n\ninterface Events {\n  function transaction(string _message, address _from, address _to, uint _amount, address _token)  external;\n}\ninterface DB {\n  function addressStorage(bytes32 _key) external view returns (address);\n  function uintStorage(bytes32 _key) external view returns (uint);\n  function setUint(bytes32 _key, uint _value) external;\n  function deleteUint(bytes32 _key) external;\n  function setBool(bytes32 _key, bool _value) external;\n  function boolStorage(bytes32 _key) external view returns (bool);\n}\n\ncontract CrowdsaleReserve is CrowdsaleReserveInterface{\n  DB private database;\n  Events private events;\n\n  constructor(address _database, address _events) public {\n    database = DB(_database);\n    events = Events(_events);\n  }\n  function issueETH(address _receiver, uint256 _amount) external returns (bool){\n    require(msg.sender == database.addressStorage(keccak256(abi.encodePacked(\"contract\", \"CrowdsaleETH\"))), 'Contract not authorized');\n    require(address(this).balance >= _amount, 'Not enough funds');\n    _receiver.transfer(_amount);\n    events.transaction(\"Ether withdrawn from crowdsale reserve\", address(this), _receiver, _amount, address(0));\n    return true;\n  }\n  function receiveETH(address _payer) external payable returns (bool){\n    require(msg.sender == database.addressStorage(keccak256(abi.encodePacked(\"contract\", \"CrowdsaleETH\"))), 'Contract not authorized');\n    events.transaction(\"Ether received by crowdsale reserve\", address(this), _payer, msg.value, address(0));\n    return true;\n  }\n  function refundETHAsset(address _asset, uint256 _amount) external returns (bool){\n    require(msg.sender == database.addressStorage(keccak256(abi.encodePacked(\"contract\", \"CrowdsaleETH\"))), 'Contract not authorized');\n    require(DividendInterface(_asset).issueDividends.value(_amount)(_amount), 'Dividend issuance failed');\n    events.transaction(\"Asset issued refund by crowdsale reserve\", _asset, address(this), _amount, address(0));\n    return true;\n  }\n  function issueERC20(address _receiver, uint256 _amount, address _tokenAddress) external returns (bool){\n    require(msg.sender == database.addressStorage(keccak256(abi.encodePacked(\"contract\", \"CrowdsaleERC20\"))), 'Contract not authorized');\n    ERC20 erc20 = ERC20(_tokenAddress);\n    require(erc20.balanceOf(this) >= _amount, 'Not enough funds');\n    require(erc20.transfer(_receiver, _amount), 'Transfer failed');\n    events.transaction(\"ERC20 withdrawn from crowdsale reserve\", address(this), _receiver, _amount, _tokenAddress);\n    return true;\n  }\n  function requestERC20(address _payer, uint256 _amount, address _tokenAddress) external returns (bool){\n    require(msg.sender == database.addressStorage(keccak256(abi.encodePacked(\"contract\", \"CrowdsaleERC20\"))), 'Contract not authorized');\n    require(ERC20(_tokenAddress).transferFrom(_payer, address(this), _amount), 'Transfer failed');\n    events.transaction(\"ERC20 received by crowdsale reserve\", _payer, address(this), _amount, _tokenAddress);\n  }\n  function approveERC20(address _receiver, uint256 _amount, address _tokenAddress) public returns (bool){\n    require(msg.sender == database.addressStorage(keccak256(abi.encodePacked(\"contract\", \"CrowdsaleERC20\"))), 'Contract not authorized');\n    ERC20(_tokenAddress).approve(_receiver, _amount); //always returns true\n    events.transaction(\"ERC20 approval given by crowdsale reserve\", address(this), _receiver, _amount, _tokenAddress);\n    return true;\n  }\n  function refundERC20Asset(address _asset, uint256 _amount, address _tokenAddress) external returns (bool){\n    approveERC20(_asset, _amount, _tokenAddress);\n    require(DividendInterface(_asset).issueDividends(_amount), 'Dividend issuance failed');\n    events.transaction(\"Asset issued refund by crowdsale reserve\", _asset, address(this), _amount, _tokenAddress);\n    return true;\n  }\n}\n",
  "sourcePath": "/home/iamonuwa/Projects/MyBitFoundation/MyBit-Network.tech/contracts/database/CrowdsaleReserve.sol",
  "compiler": {
    "name": "solc",
    "version": "0.4.24+commit.e67f0147.Emscripten.clang"
  },
  "schemaVersion": "3.0.9",
  "updatedAt": "2020-07-27T21:29:54.172Z",
  "devdoc": {
    "methods": {}
  },
  "userdoc": {
    "methods": {}
  }
}