{
  "contractName": "CrowdsaleGeneratorERC20",
  "abi": [
    {
      "inputs": [
        {
          "name": "_database",
          "type": "address"
        },
        {
          "name": "_events",
          "type": "address"
        },
        {
          "name": "_kyber",
          "type": "address"
        }
      ],
      "payable": false,
      "stateMutability": "nonpayable",
      "type": "constructor"
    },
    {
      "constant": false,
      "inputs": [
        {
          "name": "_assetURI",
          "type": "string"
        },
        {
          "name": "_ipfs",
          "type": "string"
        },
        {
          "name": "_fundingLength",
          "type": "uint256"
        },
        {
          "name": "_amountToRaise",
          "type": "uint256"
        },
        {
          "name": "_assetManagerPerc",
          "type": "uint256"
        },
        {
          "name": "_escrow",
          "type": "uint256"
        },
        {
          "name": "_fundingToken",
          "type": "address"
        },
        {
          "name": "_paymentToken",
          "type": "address"
        },
        {
          "name": "_paymentToken",
          "type": "address"
        }
      ],
      "name": "createAssetOrderERC20",
      "outputs": [],
      "payable": true,
      "stateMutability": "payable",
      "type": "function"
    },
    {
      "constant": false,
      "inputs": [
        {
          "name": "_assetAddress",
          "type": "address"
        },
        {
          "name": "_ipfs",
          "type": "string"
        }
      ],
      "name": "updateIPFS",
      "outputs": [],
      "payable": false,
      "stateMutability": "nonpayable",
      "type": "function"
    },
    {
      "constant": false,
      "inputs": [],
      "name": "destroy",
      "outputs": [],
      "payable": false,
      "stateMutability": "nonpayable",
      "type": "function"
    }
  ],
  "bytecode": "0x60806040523480156200001157600080fd5b5060405160608062002e8e83398101604081815282516020808501519483015160008054600160a060020a03808616600160a060020a0319928316179283905560018054828b16908416179055600280548286169316929092179091557f636f6e7472616374000000000000000000000000000000000000000000000000848801527f4d696e746572000000000000000000000000000000000000000000000000000060288801528551600e818903018152602e90970195869052865194979692959116936304f49a3a938291908401908083835b60208310620001075780518252601f199092019160209182019101620000e6565b51815160209384036101000a60001901801990921691161790526040805192909401829003822063ffffffff88167c01000000000000000000000000000000000000000000000000000000000283526004830152925160248083019650939450929083900301905081600087803b1580156200018257600080fd5b505af115801562000197573d6000803e3d6000fd5b505050506040513d6020811015620001ae57600080fd5b505160038054600160a060020a03909216600160a060020a0319909216919091179055505050612caa80620001e46000396000f30060806040526004361061003d5763ffffffff60e060020a60003504166383197ef08114610042578063a72c2d9c14610059578063f217caed14610096575b600080fd5b34801561004e57600080fd5b506100576100c3565b005b610057602460048035828101929082013591813591820191013560443560643560843560a435600160a060020a0360c43581169060e43516610324565b3480156100a257600080fd5b5061005760048035600160a060020a03169060248035908101910135610a3d565b600054604080517f6f776e6572000000000000000000000000000000000000000000000000000000602080830191909152606060020a33026025830152825160198184030181526039909201928390528151600160a060020a0390941693633b7bfda093918291908401908083835b602083106101515780518252601f199092019160209182019101610132565b51815160209384036101000a60001901801990921691161790526040805192909401829003822063ffffffff881660e060020a0283526004830152925160248083019650939450929083900301905081600087803b1580156101b257600080fd5b505af11580156101c6573d6000803e3d6000fd5b505050506040513d60208110156101dc57600080fd5b50511515610234576040805160e560020a62461bcd02815260206004820152600960248201527f4e6f74206f776e65720000000000000000000000000000000000000000000000604482015290519081900360640190fd5b600154604080517f42b425aa000000000000000000000000000000000000000000000000000000008152306024820181905233604483015231606482015260006084820181905260a06004830152602160a48301527f43726f776473616c6547656e657261746f7245524332302064657374726f796560c48301527f640000000000000000000000000000000000000000000000000000000000000060e48301529151600160a060020a03909316926342b425aa926101048084019391929182900301818387803b15801561030857600080fd5b505af115801561031c573d6000803e3d6000fd5b503392505050ff5b600080600160a060020a03831673eeeeeeeeeeeeeeeeeeeeeeeeeeeeeeeeeeeeeeee141561035d5734851461035857600080fd5b610368565b341561036857600080fd5b60648710156103c1576040805160e560020a62461bcd02815260206004820152601b60248201527f43726f776473616c6520676f616c20697320746f6f20736d616c6c0000000000604482015290519081900360640190fd5b600054604080517f706c6174666f726d2e70657263656e7461676500000000000000000000000000602080830191909152825180830360130181526033909201928390528151606494600160a060020a03169363a855d4ce9392909182918401908083835b602083106104455780518252601f199092019160209182019101610426565b51815160209384036101000a60001901801990921691161790526040805192909401829003822063ffffffff881660e060020a0283526004830152925160248083019650939450929083900301905081600087803b1580156104a657600080fd5b505af11580156104ba573d6000803e3d6000fd5b505050506040513d60208110156104d057600080fd5b505187011061054f576040805160e560020a62461bcd02815260206004820152602860248201527f4d616e616765722070657263656e74206e65656420746f206265206c6573732060448201527f7468616e20313030000000000000000000000000000000000000000000000000606482015290519081900360840190fd5b6000546040517f61737365742e757269000000000000000000000000000000000000000000000060208201908152600160a060020a0390921691633b7bfda0918f918f916029018383808284378201915050925050506040516020818303038152906040526040518082805190602001908083835b602083106105e35780518252601f1990920191602091820191016105c4565b51815160209384036101000a60001901801990921691161790526040805192909401829003822063ffffffff881660e060020a0283526004830152925160248083019650939450929083900301905081600087803b15801561064457600080fd5b505af1158015610658573d6000803e3d6000fd5b505050506040513d602081101561066e57600080fd5b5051156106c5576040805160e560020a62461bcd02815260206004820152601760248201527f417373657420555249206973206e6f7420756e69717565000000000000000000604482015290519081900360640190fd5b600354604080517fdc111bbf000000000000000000000000000000000000000000000000000000008152600160a060020a03878116602483015260048201928352604482018f90529092169163dc111bbf918f918f91899181906064018585808284378201915050945050505050602060405180830381600087803b15801561074d57600080fd5b505af1158015610761573d6000803e3d6000fd5b505050506040513d602081101561077757600080fd5b50519150610786828989610d84565b151561079157600080fd5b610804828d8d8080601f0160208091040260200160405190810160405280939291908181526020018383808284378201915050505050508c8c8080601f016020809104026020016040519081016040528093929190818152602001838380828437820191505050505050338a8c8a611338565b151561080f57600080fd5b61081a873386611c4e565b905061082a338385878986611fc0565b151561083557600080fd5b600160009054906101000a9004600160a060020a0316600160a060020a03166378576a918d8d85336040518563ffffffff1660e060020a02815260040180806020018060200185600160a060020a0316600160a060020a0316815260200184600160a060020a0316600160a060020a03168152602001838103835260158152602001807f41737365742066756e64696e6720737461727465640000000000000000000000815250602001838103825287878281815260200192508082843782019150509650505050505050600060405180830381600087803b15801561091a57600080fd5b505af115801561092e573d6000803e3d6000fd5b50505050600160009054906101000a9004600160a060020a0316600160a060020a03166378576a918b8b85336040518563ffffffff1660e060020a02815260040180806020018060200185600160a060020a0316600160a060020a0316815260200184600160a060020a0316600160a060020a031681526020018381038352600e8152602001807f4e65772061737365742069706673000000000000000000000000000000000000815250602001838103825287878281815260200192508082843782019150509650505050505050600060405180830381600087803b158015610a1757600080fd5b505af1158015610a2b573d6000803e3d6000fd5b50505050505050505050505050505050565b600054604080517f61737365742e6d616e6167657200000000000000000000000000000000000000602080830191909152600160a060020a03878116606060020a02602d8401528351808403602101815260419093019384905282519416936304f49a3a93918291908401908083835b60208310610acc5780518252601f199092019160209182019101610aad565b51815160209384036101000a60001901801990921691161790526040805192909401829003822063ffffffff881660e060020a0283526004830152925160248083019650939450929083900301905081600087803b158015610b2d57600080fd5b505af1158015610b41573d6000803e3d6000fd5b505050506040513d6020811015610b5757600080fd5b5051600160a060020a03163314610b6d57600080fd5b600054604080517f61737365742e6970667300000000000000000000000000000000000000000000602080830191909152600160a060020a03878116606060020a02602a8401528351808403601e018152603e909301938490528251941693636e89955093918291908401908083835b60208310610bfc5780518252601f199092019160209182019101610bdd565b5181516020939093036101000a60001901801990911692169190911790526040805191909301819003812063ffffffff871660e060020a0282526004820181815260248301948552604483018a90529095508994508893909250906064018484808284378201915050945050505050600060405180830381600087803b158015610c8557600080fd5b505af1158015610c99573d6000803e3d6000fd5b50506001546040517f78576a91000000000000000000000000000000000000000000000000000000008152600160a060020a0387811660448301523360648301819052608060048401908152600e60848501527f4e6577206173736574206970667300000000000000000000000000000000000060a485015260c06024850190815260c485018990529290941695506378576a919450879387938a93829160e40187878082843782019150509650505050505050600060405180830381600087803b158015610d6757600080fd5b505af1158015610d7b573d6000803e3d6000fd5b50505050505050565b60008054604080517f63726f776473616c652e73746172740000000000000000000000000000000000602080830191909152600160a060020a03888116606060020a02602f84015283518084036023018152604390930193849052825194169363e2a4853a93918291908401908083835b60208310610e145780518252601f199092019160209182019101610df5565b5181516020939093036101000a60001901801990911692169190911790526040805191909301819003812063ffffffff871660e060020a0282526004820152426024820152915160448084019550600094509092839003019050818387803b158015610e7f57600080fd5b505af1158015610e93573d6000803e3d6000fd5b5050600054604080517f63726f776473616c652e646561646c696e650000000000000000000000000000602080830191909152600160a060020a038a8116606060020a0260328401528351808403602601815260469093019384905282519416955063e2a4853a9450909282918401908083835b60208310610f265780518252601f199092019160209182019101610f07565b6001836020036101000a0380198251168184511680821785525050505050509050019150506040518091039020610f668642612bf590919063ffffffff16565b6040518363ffffffff1660e060020a02815260040180836000191660001916815260200182815260200192505050600060405180830381600087803b158015610fae57600080fd5b505af1158015610fc2573d6000803e3d6000fd5b5050600054604080517f63726f776473616c652e676f616c000000000000000000000000000000000000602080830191909152600160a060020a038a8116606060020a02602e8401528351808403602201815260429093019384905282519416955063e2a4853a9450909282918401908083835b602083106110555780518252601f199092019160209182019101611036565b5181516020939093036101000a60001901801990911692169190911790526040805191909301819003812063ffffffff871660e060020a028252600482015260248101899052915160448084019550600094509092839003019050818387803b1580156110c157600080fd5b505af11580156110d5573d6000803e3d6000fd5b5050600054604080517f63726f776473616c652e72656d61696e696e6700000000000000000000000000602080830191909152600160a060020a038a8116606060020a0260338401528351808403602701815260479093019384905282519416955063e2a4853a9450909282918401908083835b602083106111685780518252601f199092019160209182019101611149565b51815160209384036101000a6000190180199092169116179052604080519290940182900382206000547f706c6174666f726d2e6665650000000000000000000000000000000000000000848401528551600c818603018152602c9094019586905283519197506112ce96506064956112c295506112b594600160a060020a039092169363a855d4ce9382918401908083835b6020831061121a5780518252601f1990920191602091820191016111fb565b51815160209384036101000a60001901801990921691161790526040805192909401829003822063ffffffff881660e060020a0283526004830152925160248083019650939450929083900301905081600087803b15801561127b57600080fd5b505af115801561128f573d6000803e3d6000fd5b505050506040513d60208110156112a557600080fd5b505160649063ffffffff612bf516565b889063ffffffff612c0f16565b9063ffffffff612c3a16565b6040518363ffffffff1660e060020a02815260040180836000191660001916815260200182815260200192505050600060405180830381600087803b15801561131657600080fd5b505af115801561132a573d6000803e3d6000fd5b506001979650505050505050565b60008054604080517f706c6174666f726d2e70657263656e7461676500000000000000000000000000602080830191909152825180830360130181526033909201928390528151859461147e9461146d94600160a060020a039092169363a855d4ce9382918401908083835b602083106113c35780518252601f1990920191602091820191016113a4565b51815160209384036101000a60001901801990921691161790526040805192909401829003822063ffffffff881660e060020a0283526004830152925160248083019650939450929083900301905081600087803b15801561142457600080fd5b505af1158015611438573d6000803e3d6000fd5b505050506040513d602081101561144e57600080fd5b505161146160648963ffffffff612c4f16565b9063ffffffff612c4f16565b6112c286606463ffffffff612c0f16565b600054604080517f61737365742e6d616e61676572546f6b656e7300000000000000000000000000602080830191909152600160a060020a038e8116606060020a0260338401528351808403602701815260479093019384905282519596509093169363e2a4853a939192918291908401908083835b602083106115135780518252601f1990920191602091820191016114f4565b6001836020036101000a03801982511681845116808217855250505050505090500191505060405180910390206115538885612c6190919063ffffffff16565b6040518363ffffffff1660e060020a02815260040180836000191660001916815260200182815260200192505050600060405180830381600087803b15801561159b57600080fd5b505af11580156115af573d6000803e3d6000fd5b505050506000809054906101000a9004600160a060020a0316600160a060020a031663e2a4853a8a60405160200180807f61737365742e706c6174666f726d546f6b656e7300000000000000000000000081525060140182600160a060020a0316600160a060020a0316606060020a0281526014019150506040516020818303038152906040526040518082805190602001908083835b602083106116655780518252601f199092019160209182019101611646565b51815160209384036101000a6000190180199092169116179052604080519290940182900382206000547f706c6174666f726d2e70657263656e7461676500000000000000000000000000848401528551601381860301815260339094019586905283519197506117a69650600160a060020a03169463a855d4ce9450918291908401908083835b6020831061170c5780518252601f1990920191602091820191016116ed565b51815160209384036101000a60001901801990921691161790526040805192909401829003822063ffffffff881660e060020a0283526004830152925160248083019650939450929083900301905081600087803b15801561176d57600080fd5b505af1158015611781573d6000803e3d6000fd5b505050506040513d602081101561179757600080fd5b5051859063ffffffff612c6116565b6040518363ffffffff1660e060020a02815260040180836000191660001916815260200182815260200192505050600060405180830381600087803b1580156117ee57600080fd5b505af1158015611802573d6000803e3d6000fd5b505050506000809054906101000a9004600160a060020a0316600160a060020a031663ca446dd98a60405160200180807f61737365742e6d616e6167657200000000000000000000000000000000000000815250600d0182600160a060020a0316600160a060020a0316606060020a0281526014019150506040516020818303038152906040526040518082805190602001908083835b602083106118b85780518252601f199092019160209182019101611899565b5181516020939093036101000a60001901801990911692169190911790526040805191909301819003812063ffffffff871660e060020a0282526004820152600160a060020a038d166024820152915160448084019550600094509092839003019050818387803b15801561192c57600080fd5b505af1158015611940573d6000803e3d6000fd5b505050506000809054906101000a9004600160a060020a0316600160a060020a0316636e8995508a60405160200180807f61737365742e6970667300000000000000000000000000000000000000000000815250600a0182600160a060020a0316600160a060020a0316606060020a0281526014019150506040516020818303038152906040526040518082805190602001908083835b602083106119f65780518252601f1990920191602091820191016119d7565b6001836020036101000a0380198251168184511680821785525050505050509050019150506040518091039020896040518363ffffffff1660e060020a02815260040180836000191660001916815260200180602001828103825283818151815260200191508051906020019080838360005b83811015611a81578181015183820152602001611a69565b50505050905090810190601f168015611aae5780820380516001836020036101000a031916815260200191505b509350505050600060405180830381600087803b158015611ace57600080fd5b505af1158015611ae2573d6000803e3d6000fd5b50506000546040517f61737365742e757269000000000000000000000000000000000000000000000060208083019182528d51600160a060020a03909416955063abfdcced94508d93919260290191908401908083835b60208310611b585780518252601f199092019160209182019101611b39565b6001836020036101000a0380198251168184511680821785525050505050509050019150506040516020818303038152906040526040518082805190602001908083835b60208310611bbb5780518252601f199092019160209182019101611b9c565b5181516020939093036101000a60001901801990911692169190911790526040805191909301819003812063ffffffff871660e060020a028252600482015260016024820152915160448084019550600094509092839003019050818387803b158015611c2757600080fd5b505af1158015611c3b573d6000803e3d6000fd5b5060019c9b505050505050505050505050565b60008054604080517f6d616e616765722e617373657473000000000000000000000000000000000000602080830191909152600160a060020a03878116606060020a02602e8401528351808403602201815260429093019384905282518695611f929592169363a855d4ce938593859390918291908401908083835b60208310611ce95780518252601f199092019160209182019101611cca565b51815160209384036101000a60001901801990921691161790526040805192909401829003822063ffffffff881660e060020a0283526004830152925160248083019650939450929083900301905081600087803b158015611d4a57600080fd5b505af1158015611d5e573d6000803e3d6000fd5b505050506040513d6020811015611d7457600080fd5b5051604080517f636f6c6c61746572616c2e6c6576656c0000000000000000000000000000000060208281019190915260308083019490945282518083039094018452605090910191829052825182918401908083835b60208310611dea5780518252601f199092019160209182019101611dcb565b51815160209384036101000a60001901801990921691161790526040805192909401829003822063ffffffff881660e060020a0283526004830152925160248083019650939450929083900301905081600087803b158015611e4b57600080fd5b505af1158015611e5f573d6000803e3d6000fd5b505050506040513d6020811015611e7557600080fd5b5051600054604080517f636f6c6c61746572616c2e6261736500000000000000000000000000000000006020828101919091528251808303600f018152602f909201928390528151600160a060020a039094169363a855d4ce93918291908401908083835b60208310611ef95780518252601f199092019160209182019101611eda565b51815160209384036101000a60001901801990921691161790526040805192909401829003822063ffffffff881660e060020a0283526004830152925160248083019650939450929083900301905081600087803b158015611f5a57600080fd5b505af1158015611f6e573d6000803e3d6000fd5b505050506040513d6020811015611f8457600080fd5b50519063ffffffff612bf516565b9050611fa581600a63ffffffff612c0f16565b9050611fb7858263ffffffff612c6116565b95945050505050565b6000806000806000808a8c6040516020018083600160a060020a0316600160a060020a0316606060020a02815260140182600160a060020a0316600160a060020a0316606060020a028152601401925050506040516020818303038152906040526040518082805190602001908083835b602083106120505780518252601f199092019160209182019101612031565b51815160209384036101000a6000190180199092169116179052604080519290940182900382206000547f706c6174666f726d2e746f6b656e000000000000000000000000000000000000848401528551600e818603018152602e909401958690528351919b50600160a060020a031696506304f49a3a9550919392508291908401908083835b602083106120f65780518252601f1990920191602091820191016120d7565b51815160209384036101000a60001901801990921691161790526040805192909401829003822063ffffffff881660e060020a0283526004830152925160248083019650939450929083900301905081600087803b15801561215757600080fd5b505af115801561216b573d6000803e3d6000fd5b505050506040513d602081101561218157600080fd5b50519250600160a060020a038a8116908a16141561221c5786881015612217576040805160e560020a62461bcd02815260206004820152602e60248201527f496e73756666696369656e7420636f6c6c61746572616c20666f72206173736560448201527f74206d616e61676572207269736b000000000000000000000000000000000000606482015290519081900360840190fd5b6122e5565b600254604080517f809a9e55000000000000000000000000000000000000000000000000000000008152600160a060020a038d811660048301528c81166024830152604482018c9052825193169263809a9e55926064808401939192918290030181600087803b15801561228f57600080fd5b505af11580156122a3573d6000803e3d6000fd5b505050506040513d60408110156122b957600080fd5b50519150866122da670de0b6b3a76400006112c28b8663ffffffff612c0f16565b10156122e557600080fd5b600160a060020a038a8116908416146127fc57600160a060020a038a1673eeeeeeeeeeeeeeeeeeeeeeeeeeeeeeeeeeeeeeee141561240457600254604080517fcb3c28c7000000000000000000000000000000000000000000000000000000008152600160a060020a038d81166004830152602482018c905286811660448301523060648301527f80000000000000000000000000000000000000000000000000000000000000006084830152600060a4830181905260c48301529151919092169163cb3c28c7918b9160e48082019260209290919082900301818588803b1580156123d057600080fd5b505af11580156123e4573d6000803e3d6000fd5b50505050506040513d60208110156123fb57600080fd5b50519450612636565b50604080517f23b872dd000000000000000000000000000000000000000000000000000000008152600160a060020a038d81166004830152306024830152604482018a905291518b928316916323b872dd9160648083019260209291908290030181600087803b15801561247757600080fd5b505af115801561248b573d6000803e3d6000fd5b505050506040513d60208110156124a157600080fd5b505115156124ae57600080fd5b600254604080517f095ea7b3000000000000000000000000000000000000000000000000000000008152600160a060020a039283166004820152602481018b905290519183169163095ea7b3916044808201926020929091908290030181600087803b15801561251d57600080fd5b505af1158015612531573d6000803e3d6000fd5b505050506040513d602081101561254757600080fd5b5051151561255457600080fd5b600254604080517fcb3c28c7000000000000000000000000000000000000000000000000000000008152600160a060020a038d81166004830152602482018c905286811660448301523060648301527f80000000000000000000000000000000000000000000000000000000000000006084830152600060a4830181905260c48301819052925193169263cb3c28c79260e480840193602093929083900390910190829087803b15801561260757600080fd5b505af115801561261b573d6000803e3d6000fd5b505050506040513d602081101561263157600080fd5b505194505b600054604080517f636f6e74726163740000000000000000000000000000000000000000000000006020808301919091527f457363726f7752657365727665000000000000000000000000000000000000006028830152825160158184030181526035909201928390528151600160a060020a038089169563a9059cbb959116936304f49a3a93909282918401908083835b602083106126e75780518252601f1990920191602091820191016126c8565b51815160209384036101000a60001901801990921691161790526040805192909401829003822063ffffffff881660e060020a0283526004830152925160248083019650939450929083900301905081600087803b15801561274857600080fd5b505af115801561275c573d6000803e3d6000fd5b505050506040513d602081101561277257600080fd5b50516040805160e060020a63ffffffff8516028152600160a060020a039092166004830152602482018990525160448083019260209291908290030181600087803b1580156127c057600080fd5b505af11580156127d4573d6000803e3d6000fd5b505050506040513d60208110156127ea57600080fd5b505115156127f757600080fd5b6129e2565b87945082600160a060020a03166323b872dd8d6000809054906101000a9004600160a060020a0316600160a060020a03166304f49a3a60405160200180807f636f6e7472616374000000000000000000000000000000000000000000000000815250600801807f457363726f775265736572766500000000000000000000000000000000000000815250600d0190506040516020818303038152906040526040518082805190602001908083835b602083106128c95780518252601f1990920191602091820191016128aa565b51815160209384036101000a60001901801990921691161790526040805192909401829003822063ffffffff881660e060020a0283526004830152925160248083019650939450929083900301905081600087803b15801561292a57600080fd5b505af115801561293e573d6000803e3d6000fd5b505050506040513d602081101561295457600080fd5b50516040805160e060020a63ffffffff8616028152600160a060020a039384166004820152929091166024830152604482018990525160648083019260209291908290030181600087803b1580156129ab57600080fd5b505af11580156129bf573d6000803e3d6000fd5b505050506040513d60208110156129d557600080fd5b505115156129e257600080fd5b600054604080517f61737365742e657363726f770000000000000000000000000000000000000000602080830191909152602c80830189905283518084039091018152604c909201928390528151600160a060020a039094169363e2a4853a93918291908401908083835b60208310612a6c5780518252601f199092019160209182019101612a4d565b5181516020939093036101000a60001901801990911692169190911790526040805191909301819003812063ffffffff871660e060020a0282526004820152602481018c9052915160448084019550600094509092839003019050818387803b158015612ad857600080fd5b505af1158015612aec573d6000803e3d6000fd5b50505050600160009054906101000a9004600160a060020a0316600160a060020a0316630b94df4c8c868f896040518563ffffffff1660e060020a028152600401808060200186600160a060020a0316600160a060020a03168152602001856000191660001916815260200184600160a060020a0316600160a060020a031681526020018381526020018281038252600d8152602001807f457363726f77206c6f636b65640000000000000000000000000000000000000081525060200195505050505050600060405180830381600087803b158015612bcb57600080fd5b505af1158015612bdf573d6000803e3d6000fd5b5060019f9e505050505050505050505050505050565b600082820183811015612c0457fe5b8091505b5092915050565b600080831515612c225760009150612c08565b50828202828482811515612c3257fe5b0414612c0457fe5b60008183811515612c4757fe5b049392505050565b600082821115612c5b57fe5b50900390565b6000612c77612c708484612c0f565b6064612c3a565b93925050505600a165627a7a723058205e3514708804db707ed343cc5ce316fb87278327699dbe0897a4dd4b02eba0430029",
  "source": " pragma solidity ^0.4.24;\n\nimport \"../math/SafeMath.sol\";\nimport \"../interfaces/DBInterface.sol\";\nimport \"../database/Events.sol\";\nimport \"../interfaces/KyberInterface.sol\";\nimport \"../interfaces/MinterInterface.sol\";\n\ninterface CrowdsaleGeneratorERC20_ERC20 {\n  function balanceOf(address _who) external view returns (uint256);\n  function approve(address _spender, uint256 _value) external returns (bool);\n  function transfer(address _to, uint256 _value) external returns (bool);\n  function transferFrom(address _from, address _to, uint256 _value) external returns (bool);\n}\n\n// @title A crowdsale generator contract\n// @author Kyle Dewhurst & Peter Phillips, MyBit Foundation\n// @notice AssetManagers can initiate a crowdsale that accepts ERC20 tokens as payment here\ncontract CrowdsaleGeneratorERC20 {\n  using SafeMath for uint256;\n\n  DBInterface private database;\n  Events private events;\n  KyberInterface private kyber;\n  MinterInterface private minter;\n  //CrowdsaleGeneratorERC20_ERC20Burner private burner;\n\n  //uint constant scalingFactor = 10**32;\n\n  // @notice This contract\n  // @param: The address for the database contract used by this platform\n  constructor(address _database, address _events, address _kyber)\n  public{\n      database = DBInterface(_database);\n      events = Events(_events);\n      kyber = KyberInterface(_kyber);\n      minter = MinterInterface(database.addressStorage(keccak256(abi.encodePacked(\"contract\", \"Minter\"))));\n  }\n\n  // @notice AssetManagers can initiate a crowdfund for a new asset here\n  // @dev the crowdsaleERC20 contract is granted rights to mint asset-tokens as it receives funding\n  // @param (string) _assetURI = The location where information about the asset can be found\n  // @param (bytes32) _modelID = The modelID of the asset that will be used in the crowdsale\n  // @param (uint) _fundingLength = The number of seconds this crowdsale is to go on for until it fails\n  // @param (uint) _amountToRaise = The amount of tokens required to raise for the crowdsale to be a success\n  // @param (uint) _assetManagerPerc = The percentage of the total revenue which is to go to the AssetManager if asset is a success\n  // @param (address) _fundingToken = The ERC20 token to be used to fund the crowdsale (Operator must accept this token as payment)\n  function createAssetOrderERC20(string _assetURI, string _ipfs, uint _fundingLength, uint _amountToRaise, uint _assetManagerPerc, uint _escrow, address _fundingToken, address _paymentToken)\n  payable\n  external\n  {\n    if(_paymentToken == address(0xEeeeeEeeeEeEeeEeEeEeeEEEeeeeEeeeeeeeEEeE)){\n      require(msg.value == _escrow);\n    } else {\n      require(msg.value == 0);\n    }\n    require(_amountToRaise >= 100, \"Crowdsale goal is too small\");\n    require((_assetManagerPerc + database.uintStorage(keccak256(abi.encodePacked(\"platform.percentage\")))) < 100, \"Manager percent need to be less than 100\");\n    // require(database.addressStorage(keccak256(abi.encodePacked(\"model.operator\", _modelID))) != address(0), \"Model not set\");\n    require(!database.boolStorage(keccak256(abi.encodePacked(\"asset.uri\", _assetURI))), \"Asset URI is not unique\"); //Check that asset URI is unique\n    address assetAddress = minter.cloneToken(_assetURI, _fundingToken);\n    require(setCrowdsaleValues(assetAddress, _fundingLength, _amountToRaise));\n    require(setAssetValues(assetAddress, _assetURI, _ipfs, msg.sender, _assetManagerPerc, _amountToRaise, _fundingToken));\n    uint minEscrow = calculateEscrowERC20(_amountToRaise, msg.sender, _fundingToken);\n    require(lockEscrowERC20(msg.sender, assetAddress, _paymentToken, _fundingToken, _escrow, minEscrow));\n    events.asset('Asset funding started', _assetURI, assetAddress, msg.sender);\n    events.asset('New asset ipfs', _ipfs, assetAddress, msg.sender);\n  }\n\n  function updateIPFS(address _assetAddress, string _ipfs)\n  external {\n    require(msg.sender == database.addressStorage(keccak256(abi.encodePacked(\"asset.manager\", _assetAddress))));\n    database.setString(keccak256(abi.encodePacked(\"asset.ipfs\", _assetAddress)), _ipfs);\n    events.asset('New asset ipfs', _ipfs, _assetAddress, msg.sender);\n  }\n\n  // @notice platform owners can destroy contract here\n  function destroy()\n  onlyOwner\n  external {\n    events.transaction('CrowdsaleGeneratorERC20 destroyed', address(this), msg.sender, address(this).balance, address(0));\n    selfdestruct(msg.sender);\n  }\n\n  //////////////////////////////////////////////////////////////////////////////////////////////////////////////////\n  //                                            Internal/ Private Functions\n  //////////////////////////////////////////////////////////////////////////////////////////////////////////////////\n\n  function setCrowdsaleValues(address _assetAddress, uint _fundingLength, uint _amountToRaise)\n  private\n  returns (bool){\n    database.setUint(keccak256(abi.encodePacked(\"crowdsale.start\", _assetAddress)), now);\n    database.setUint(keccak256(abi.encodePacked(\"crowdsale.deadline\", _assetAddress)), now.add(_fundingLength));\n    database.setUint(keccak256(abi.encodePacked(\"crowdsale.goal\", _assetAddress)), _amountToRaise);\n    database.setUint(keccak256(abi.encodePacked(\"crowdsale.remaining\", _assetAddress)), _amountToRaise.mul(uint(100).add(database.uintStorage(keccak256(abi.encodePacked(\"platform.fee\"))))).div(100));\n    return true;\n  }\n\n  function setAssetValues(address _assetAddress, string _assetURI, string _ipfs, address _assetManager, uint _assetManagerPerc, uint _amountToRaise, address _fundingToken)\n  private\n  returns (bool){\n    uint totalTokens = _amountToRaise.mul(100).div(uint(100).sub(_assetManagerPerc).sub(database.uintStorage(keccak256(abi.encodePacked(\"platform.percentage\")))));\n    //database.setUint(keccak256(abi.encodePacked(\"asset.managerTokens\", assetAddress)), _amountToRaise.mul(uint(100).mul(scalingFactor).div(uint(100).sub(_assetManagerPerc)).sub(scalingFactor)).div(scalingFactor));\n    database.setUint(keccak256(abi.encodePacked(\"asset.managerTokens\", _assetAddress)), totalTokens.getFractionalAmount(_assetManagerPerc));\n    database.setUint(keccak256(abi.encodePacked(\"asset.platformTokens\", _assetAddress)), totalTokens.getFractionalAmount(database.uintStorage(keccak256(abi.encodePacked(\"platform.percentage\")))));\n    database.setAddress(keccak256(abi.encodePacked(\"asset.manager\", _assetAddress)), _assetManager);\n    // database.setBytes32(keccak256(abi.encodePacked(\"asset.modelID\", _assetAddress)), _modelID);\n    database.setString(keccak256(abi.encodePacked(\"asset.ipfs\", _assetAddress)), _ipfs);\n    //database.setAddress(keccak256(abi.encodePacked(\"asset.operator\", _assetAddress)), database.addressStorage(keccak256(abi.encodePacked(\"asset.operator\", _modelID))));\n    /*\n    if(database.boolStorage(keccak256(abi.encodePacked(\"asset.acceptsToken\", _modelID, _fundingToken)))){\n      database.setAddress(keccak256(abi.encodePacked(\"asset.receiver\", _assetAddress)), database.addressStorage(keccak256(abi.encodePacked(\"model.operator\", _modelID))));\n    } else {\n      database.setAddress(keccak256(abi.encodePacked(\"asset.receiver\", _assetAddress)), _assetManager);\n    }\n    */\n    database.setBool(keccak256(abi.encodePacked(\"asset.uri\", _assetURI)), true); //Set to ensure a unique asset URI\n    return true;\n  }\n\n  function calculateEscrowERC20(uint _amount, address _manager, address _fundingToken)\n  private\n  view\n  returns (uint){\n    uint percent = database.uintStorage(keccak256(abi.encodePacked(\"collateral.base\"))).add(database.uintStorage(keccak256(abi.encodePacked(\"collateral.level\", database.uintStorage(keccak256(abi.encodePacked(\"manager.assets\", _manager)))))));\n      percent = percent.mul(10);\n    return _amount.getFractionalAmount(percent);\n  }\n\n  function lockEscrowERC20(address _assetManager, address _assetAddress, address _paymentTokenAddress, address _fundingTokenAddress, uint _amount, uint _min)\n  private\n  returns (bool) {\n    uint amount;\n    bytes32 assetManagerEscrowID = keccak256(abi.encodePacked(_assetAddress, _assetManager));\n    address platformTokenAddress = database.addressStorage(keccak256(abi.encodePacked(\"platform.token\")));\n    if(_paymentTokenAddress == _fundingTokenAddress){\n      require(_amount >= _min, \"Insufficient collateral for asset manager risk\");\n    } else {\n      //Get conversion rate, and make sure converted amount is >= _amount\n      (uint rate,) = kyber.getExpectedRate(_paymentTokenAddress, _fundingTokenAddress, _amount);\n      require(_amount.mul(rate).div(10**18) >= _min);\n    }\n    if(_paymentTokenAddress != platformTokenAddress){\n      //Convert the payment token into the platform token\n      if(_paymentTokenAddress == address(0xEeeeeEeeeEeEeeEeEeEeeEEEeeeeEeeeeeeeEEeE)){\n        amount = kyber.trade.value(_amount)(_paymentTokenAddress, _amount, platformTokenAddress, address(this), 2**255, 0, 0); //Currently no minimum rate is set, so watch out for slippage!\n      } else {\n        CrowdsaleGeneratorERC20_ERC20 paymentToken = CrowdsaleGeneratorERC20_ERC20(_paymentTokenAddress);\n        require(paymentToken.transferFrom(_assetManager, address(this), _amount));\n        require(paymentToken.approve(address(kyber), _amount));\n        amount = kyber.trade(_paymentTokenAddress, _amount, platformTokenAddress, address(this), 2**255, 0, 0); //Currently no minimum rate is set, so watch out for slippage!\n      }\n      require(CrowdsaleGeneratorERC20_ERC20(platformTokenAddress).transfer(database.addressStorage(keccak256(abi.encodePacked(\"contract\", \"EscrowReserve\"))), amount));\n    } else {\n      amount = _amount;\n      require(CrowdsaleGeneratorERC20_ERC20(platformTokenAddress).transferFrom(_assetManager, database.addressStorage(keccak256(abi.encodePacked(\"contract\", \"EscrowReserve\"))), amount));\n    }\n    database.setUint(keccak256(abi.encodePacked(\"asset.escrow\", assetManagerEscrowID)), amount);\n    events.escrow('Escrow locked', _assetAddress, assetManagerEscrowID, _assetManager, amount);\n    return true;\n  }\n\n\n  //////////////////////////////////////////////////////////////////////////////////////////////////////////////////\n  //                                            Modifiers\n  //////////////////////////////////////////////////////////////////////////////////////////////////////////////////\n\n  // @notice Sender must be a registered owner\n  modifier onlyOwner {\n    require(database.boolStorage(keccak256(abi.encodePacked(\"owner\", msg.sender))), \"Not owner\");\n    _;\n  }\n\n  modifier checkRequirements {\n    _;\n  }\n}\n",
  "sourcePath": "/home/iamonuwa/Projects/MyBitFoundation/MyBit-Network.tech/contracts/crowdsale/CrowdsaleGeneratorERC20.sol",
  "compiler": {
    "name": "solc",
    "version": "0.4.24+commit.e67f0147.Emscripten.clang"
  },
  "schemaVersion": "3.0.9",
  "updatedAt": "2020-07-27T21:29:53.558Z",
  "devdoc": {
    "methods": {}
  },
  "userdoc": {
    "methods": {}
  }
}