{
  "contractName": "CrowdsaleETH",
  "abi": [
    {
      "inputs": [
        {
          "name": "_database",
          "type": "address"
        },
        {
          "name": "_events",
          "type": "address"
        }
      ],
      "payable": false,
      "stateMutability": "nonpayable",
      "type": "constructor"
    },
    {
      "constant": false,
      "inputs": [
        {
          "name": "_assetAddress",
          "type": "address"
        }
      ],
      "name": "buyAssetOrderETH",
      "outputs": [
        {
          "name": "",
          "type": "bool"
        }
      ],
      "payable": true,
      "stateMutability": "payable",
      "type": "function"
    },
    {
      "constant": false,
      "inputs": [
        {
          "name": "_assetAddress",
          "type": "address"
        }
      ],
      "name": "payoutETH",
      "outputs": [
        {
          "name": "",
          "type": "bool"
        }
      ],
      "payable": false,
      "stateMutability": "nonpayable",
      "type": "function"
    },
    {
      "constant": false,
      "inputs": [
        {
          "name": "_assetAddress",
          "type": "address"
        }
      ],
      "name": "cancel",
      "outputs": [
        {
          "name": "",
          "type": "bool"
        }
      ],
      "payable": false,
      "stateMutability": "nonpayable",
      "type": "function"
    },
    {
      "constant": false,
      "inputs": [
        {
          "name": "_assetAddress",
          "type": "address"
        }
      ],
      "name": "refund",
      "outputs": [
        {
          "name": "",
          "type": "bool"
        }
      ],
      "payable": false,
      "stateMutability": "nonpayable",
      "type": "function"
    },
    {
      "constant": false,
      "inputs": [
        {
          "name": "_erc20Token",
          "type": "address"
        }
      ],
      "name": "recoverTokens",
      "outputs": [],
      "payable": false,
      "stateMutability": "nonpayable",
      "type": "function"
    },
    {
      "constant": false,
      "inputs": [],
      "name": "destroy",
      "outputs": [],
      "payable": false,
      "stateMutability": "nonpayable",
      "type": "function"
    }
  ],
  "bytecode": "0x60806040523480156200001157600080fd5b506040516040806200431a833981016040818152825160209384015160008054600160a060020a03808516600160a060020a03199283161792839055600180548286169316929092179091557f636f6e7472616374000000000000000000000000000000000000000000000000878701527f4d696e746572000000000000000000000000000000000000000000000000000060288701528451600e818803018152602e909601948590528551939692959116936304f49a3a939192909182918401908083835b60208310620000f85780518252601f199092019160209182019101620000d7565b51815160209384036101000a60001901801990921691161790526040805192909401829003822063ffffffff88167c01000000000000000000000000000000000000000000000000000000000283526004830152925160248083019650939450929083900301905081600087803b1580156200017357600080fd5b505af115801562000188573d6000803e3d6000fd5b505050506040513d60208110156200019f57600080fd5b505160028054600160a060020a031916600160a060020a03928316179055600054604080517f636f6e74726163740000000000000000000000000000000000000000000000006020808301919091527f43726f776473616c655265736572766500000000000000000000000000000000602883015282518083036018018152603890920192839052815193909416936304f49a3a9391929182918401908083835b60208310620002615780518252601f19909201916020918201910162000240565b51815160209384036101000a60001901801990921691161790526040805192909401829003822063ffffffff88167c01000000000000000000000000000000000000000000000000000000000283526004830152925160248083019650939450929083900301905081600087803b158015620002dc57600080fd5b505af1158015620002f1573d6000803e3d6000fd5b505050506040513d60208110156200030857600080fd5b505160038054600160a060020a031916600160a060020a0390921691909117905550613fde9050806200033c6000396000f30060806040526004361061005e5763ffffffff60e060020a60003504166316114acd81146100635780634c33fe941461008657806383197ef0146100bb578063c30f1be8146100d0578063dd00da7c146100e4578063fa89401a14610105575b600080fd5b34801561006f57600080fd5b50610084600160a060020a0360043516610126565b005b34801561009257600080fd5b506100a7600160a060020a03600435166103c6565b604080519115158252519081900360200190f35b3480156100c757600080fd5b50610084610ba1565b6100a7600160a060020a0360043516610ddb565b3480156100f057600080fd5b506100a7600160a060020a0360043516611c76565b34801561011157600080fd5b506100a7600160a060020a036004351661353f565b60008054604080517f6f776e6572000000000000000000000000000000000000000000000000000000602080830191909152606060020a330260258301528251601981840301815260399092019283905281518594600160a060020a031693633b7bfda09392909182918401908083835b602083106101b65780518252601f199092019160209182019101610197565b51815160209384036101000a60001901801990921691161790526040805192909401829003822063ffffffff881660e060020a0283526004830152925160248083019650939450929083900301905081600087803b15801561021757600080fd5b505af115801561022b573d6000803e3d6000fd5b505050506040513d602081101561024157600080fd5b50511515610299576040805160e560020a62461bcd02815260206004820152600960248201527f4e6f74206f776e65720000000000000000000000000000000000000000000000604482015290519081900360640190fd5b604080517f70a082310000000000000000000000000000000000000000000000000000000081523060048201529051849350600160a060020a038416916370a082319160248083019260209291908290030181600087803b1580156102fd57600080fd5b505af1158015610311573d6000803e3d6000fd5b505050506040513d602081101561032757600080fd5b5051604080517fa9059cbb000000000000000000000000000000000000000000000000000000008152336004820152602481018390529051919250600160a060020a0384169163a9059cbb916044808201926020929091908290030181600087803b15801561039557600080fd5b505af11580156103a9573d6000803e3d6000fd5b505050506040513d60208110156103bf57600080fd5b5050505050565b60008054604080517f7061757365640000000000000000000000000000000000000000000000000000602080830191909152606060020a300260268301528251601a818403018152603a909201928390528151600160a060020a0390941693633b7bfda093918291908401908083835b602083106104555780518252601f199092019160209182019101610436565b51815160209384036101000a60001901801990921691161790526040805192909401829003822063ffffffff881660e060020a0283526004830152925160248083019650939450929083900301905081600087803b1580156104b657600080fd5b505af11580156104ca573d6000803e3d6000fd5b505050506040513d60208110156104e057600080fd5b505115610537576040805160e560020a62461bcd02815260206004820152600f60248201527f436f6e7472616374207061757365640000000000000000000000000000000000604482015290519081900360640190fd5b6000805460408051600080516020613f53833981519152602080830191909152600160a060020a03878116606060020a02602d84015283518084036021018152604190930193849052825188969591909116936304f49a3a9392909182918401908083835b602083106105bb5780518252601f19909201916020918201910161059c565b51815160209384036101000a60001901801990921691161790526040805192909401829003822063ffffffff881660e060020a0283526004830152925160248083019650939450929083900301905081600087803b15801561061c57600080fd5b505af1158015610630573d6000803e3d6000fd5b505050506040513d602081101561064657600080fd5b5051600160a060020a031614156106a7576040805160e560020a62461bcd02815260206004820152600d60248201527f496e76616c696420617373657400000000000000000000000000000000000000604482015290519081900360640190fd5b60005460408051600080516020613f93833981519152602080830191909152600160a060020a03878116606060020a0260328401528351808403602601815260469093019384905282518895919091169363a855d4ce9392909182918401908083835b602083106107295780518252601f19909201916020918201910161070a565b51815160209384036101000a60001901801990921691161790526040805192909401829003822063ffffffff881660e060020a0283526004830152925160248083019650939450929083900301905081600087803b15801561078a57600080fd5b505af115801561079e573d6000803e3d6000fd5b505050506040513d60208110156107b457600080fd5b5051421061080c576040805160e560020a62461bcd02815260206004820152600f60248201527f4265666f726520646561646c696e650000000000000000000000000000000000604482015290519081900360640190fd5b60005460408051600080516020613f33833981519152602080830191909152600160a060020a03888116606060020a02603384015283518084036027018152604790930193849052825189959190911693633b7bfda09392909182918401908083835b6020831061088e5780518252601f19909201916020918201910161086f565b51815160209384036101000a60001901801990921691161790526040805192909401829003822063ffffffff881660e060020a0283526004830152925160248083019650939450929083900301905081600087803b1580156108ef57600080fd5b505af1158015610903573d6000803e3d6000fd5b505050506040513d602081101561091957600080fd5b505115610970576040805160e560020a62461bcd02815260206004820152601360248201527f43726f776473616c652066696e616c697a656400000000000000000000000000604482015290519081900360640190fd5b60005460408051600080516020613f53833981519152602080830191909152600160a060020a03898116606060020a02602d8401528351808403602101815260419093019384905282519416936304f49a3a93918291908401908083835b602083106109ed5780518252601f1990920191602091820191016109ce565b51815160209384036101000a60001901801990921691161790526040805192909401829003822063ffffffff881660e060020a0283526004830152925160248083019650939450929083900301905081600087803b158015610a4e57600080fd5b505af1158015610a62573d6000803e3d6000fd5b505050506040513d6020811015610a7857600080fd5b5051600160a060020a03163314610a8e57600080fd5b60005460408051600080516020613f93833981519152602080830191909152600160a060020a03898116606060020a02603284015283518084036026018152604690930193849052825194169363e2a4853a93918291908401908083835b60208310610b0b5780518252601f199092019160209182019101610aec565b5181516020939093036101000a60001901801990911692169190911790526040805191909301819003812063ffffffff871660e060020a028252600482015260016024820152915160448084019550600094509092839003019050818387803b158015610b7757600080fd5b505af1158015610b8b573d6000803e3d6000fd5b50505050610b988561353f565b50505050919050565b600054604080517f6f776e6572000000000000000000000000000000000000000000000000000000602080830191909152606060020a33026025830152825160198184030181526039909201928390528151600160a060020a0390941693633b7bfda093918291908401908083835b60208310610c2f5780518252601f199092019160209182019101610c10565b51815160209384036101000a60001901801990921691161790526040805192909401829003822063ffffffff881660e060020a0283526004830152925160248083019650939450929083900301905081600087803b158015610c9057600080fd5b505af1158015610ca4573d6000803e3d6000fd5b505050506040513d6020811015610cba57600080fd5b50511515610d12576040805160e560020a62461bcd02815260206004820152600960248201527f4e6f74206f776e65720000000000000000000000000000000000000000000000604482015290519081900360640190fd5b600154604080517f42b425aa000000000000000000000000000000000000000000000000000000008152306024820181905233604483015231606482015260006084820181905260a06004830152601660a48301527f43726f776473616c654554482064657374726f7965640000000000000000000060c48301529151600160a060020a03909316926342b425aa9260e48084019391929182900301818387803b158015610dbf57600080fd5b505af1158015610dd3573d6000803e3d6000fd5b503392505050ff5b60008080348110610deb57600080fd5b6000805460408051600080516020613f53833981519152602080830191909152600160a060020a03898116606060020a02602d8401528351808403602101815260419093019384905282518a969591909116936304f49a3a9392909182918401908083835b60208310610e6f5780518252601f199092019160209182019101610e50565b51815160209384036101000a60001901801990921691161790526040805192909401829003822063ffffffff881660e060020a0283526004830152925160248083019650939450929083900301905081600087803b158015610ed057600080fd5b505af1158015610ee4573d6000803e3d6000fd5b505050506040513d6020811015610efa57600080fd5b5051600160a060020a03161415610f5b576040805160e560020a62461bcd02815260206004820152600d60248201527f496e76616c696420617373657400000000000000000000000000000000000000604482015290519081900360640190fd5b60005460408051600080516020613f93833981519152602080830191909152600160a060020a03898116606060020a0260328401528351808403602601815260469093019384905282518a95919091169363a855d4ce9392909182918401908083835b60208310610fdd5780518252601f199092019160209182019101610fbe565b51815160209384036101000a60001901801990921691161790526040805192909401829003822063ffffffff881660e060020a0283526004830152925160248083019650939450929083900301905081600087803b15801561103e57600080fd5b505af1158015611052573d6000803e3d6000fd5b505050506040513d602081101561106857600080fd5b505142106110c0576040805160e560020a62461bcd02815260206004820152600f60248201527f4265666f726520646561646c696e650000000000000000000000000000000000604482015290519081900360640190fd5b60005460408051600080516020613f33833981519152602080830191909152600160a060020a038a8116606060020a0260338401528351808403602701815260479093019384905282518b959190911693633b7bfda09392909182918401908083835b602083106111425780518252601f199092019160209182019101611123565b51815160209384036101000a60001901801990921691161790526040805192909401829003822063ffffffff881660e060020a0283526004830152925160248083019650939450929083900301905081600087803b1580156111a357600080fd5b505af11580156111b7573d6000803e3d6000fd5b505050506040513d60208110156111cd57600080fd5b505115611224576040805160e560020a62461bcd02815260206004820152601360248201527f43726f776473616c652066696e616c697a656400000000000000000000000000604482015290519081900360640190fd5b600054604080517f63726f776473616c652e72656d61696e696e6700000000000000000000000000602080830191909152600160a060020a038b8116606060020a02603384015283518084036027018152604790930193849052825194169363a855d4ce93918291908401908083835b602083106112b35780518252601f199092019160209182019101611294565b51815160209384036101000a60001901801990921691161790526040805192909401829003822063ffffffff881660e060020a0283526004830152925160248083019650939450929083900301905081600087803b15801561131457600080fd5b505af1158015611328573d6000803e3d6000fd5b505050506040513d602081101561133e57600080fd5b505194503485111561173f5760005460408051600080516020613f738339815191526020808301919091528251808303600c018152602c90920192839052815161147a9461145d94600160a060020a039091169363a855d4ce93909282918401908083835b602083106113c25780518252601f1990920191602091820191016113a3565b51815160209384036101000a60001901801990921691161790526040805192909401829003822063ffffffff881660e060020a0283526004830152925160248083019650939450929083900301905081600087803b15801561142357600080fd5b505af1158015611437573d6000803e3d6000fd5b505050506040513d602081101561144d57600080fd5b505160649063ffffffff613ea916565b61146e34606463ffffffff613ec316565b9063ffffffff613eee16565b600054604080517f63726f776473616c652e72656d61696e696e6700000000000000000000000000602080830191909152600160a060020a038c8116606060020a0260338401528351808403602701815260479093019384905282519599509093169363e2a4853a939192918291908401908083835b6020831061150f5780518252601f1990920191602091820191016114f0565b6001836020036101000a038019825116818451168082178552505050505050905001915050604051809103902061154f3489613f0390919063ffffffff16565b6040518363ffffffff1660e060020a02815260040180836000191660001916815260200182815260200192505050600060405180830381600087803b15801561159757600080fd5b505af11580156115ab573d6000803e3d6000fd5b5050600254604080517fd5895a3c000000000000000000000000000000000000000000000000000000008152600160a060020a038c81166004830152336024830152604482018a9052915191909216935063d5895a3c925060648083019260209291908290030181600087803b15801561162457600080fd5b505af1158015611638573d6000803e3d6000fd5b505050506040513d602081101561164e57600080fd5b505115156116a6576040805160e560020a62461bcd02815260206004820152601760248201527f496e766573746f72206d696e74696e67206661696c6564000000000000000000604482015290519081900360640190fd5b600354604080517f8c53f61d0000000000000000000000000000000000000000000000000000000081523360048201529051600160a060020a0390921691638c53f61d913491602480830192602092919082900301818588803b15801561170c57600080fd5b505af1158015611720573d6000803e3d6000fd5b50505050506040513d602081101561173757600080fd5b50611ba39050565b60005460408051600080516020613f738339815191526020808301919091528251808303600c018152602c9092019283905281516117c7946117b694600160a060020a039091169363a855d4ce9390928291840190808383602083106113c25780518252601f1990920191602091820191016113a3565b61146e87606463ffffffff613ec316565b60005460408051600080516020613f33833981519152602080830191909152600160a060020a038c8116606060020a0260338401528351808403602701815260479093019384905282519599509093169363abfdcced939192918291908401908083835b6020831061184a5780518252601f19909201916020918201910161182b565b5181516020939093036101000a60001901801990911692169190911790526040805191909301819003812063ffffffff871660e060020a028252600482015260016024820152915160448084019550600094509092839003019050818387803b1580156118b657600080fd5b505af11580156118ca573d6000803e3d6000fd5b5050600054604080517f63726f776473616c652e72656d61696e696e6700000000000000000000000000602080830191909152600160a060020a038d8116606060020a0260338401528351808403602701815260479093019384905282519416955063e2b202bf9450909282918401908083835b6020831061195d5780518252601f19909201916020918201910161193e565b5181516020939093036101000a60001901801990911692169190911790526040805191909301819003812063ffffffff871660e060020a0282526004820152915160248084019550600094509092839003019050818387803b1580156119c257600080fd5b505af11580156119d6573d6000803e3d6000fd5b5050600254604080517fd5895a3c000000000000000000000000000000000000000000000000000000008152600160a060020a038c81166004830152336024830152604482018a9052915191909216935063d5895a3c925060648083019260209291908290030181600087803b158015611a4f57600080fd5b505af1158015611a63573d6000803e3d6000fd5b505050506040513d6020811015611a7957600080fd5b50511515611ad1576040805160e560020a62461bcd02815260206004820152601760248201527f496e766573746f72206d696e74696e67206661696c6564000000000000000000604482015290519081900360640190fd5b600354604080517f8c53f61d0000000000000000000000000000000000000000000000000000000081523360048201529051600160a060020a0390921691638c53f61d918891602480830192602092919082900301818588803b158015611b3757600080fd5b505af1158015611b4b573d6000803e3d6000fd5b50505050506040513d6020811015611b6257600080fd5b503390506108fc611b79348863ffffffff613f0316565b6040518115909202916000818181858888f19350505050158015611ba1573d6000803e3d6000fd5b505b600154604080517f42b425aa00000000000000000000000000000000000000000000000000000000815230602482015233604482015260648101879052600160a060020a038a8116608483015260a06004830152600f60a48301527f417373657420707572636861736564000000000000000000000000000000000060c4830152915191909216916342b425aa9160e480830192600092919082900301818387803b158015611c5157600080fd5b505af1158015611c65573d6000803e3d6000fd5b5060019a9950505050505050505050565b60008054604080517f7061757365640000000000000000000000000000000000000000000000000000602080830191909152606060020a300260268301528251601a818403018152603a909201928390528151859485948594859485948594600160a060020a031693633b7bfda09392909182918401908083835b60208310611d105780518252601f199092019160209182019101611cf1565b51815160209384036101000a60001901801990921691161790526040805192909401829003822063ffffffff881660e060020a0283526004830152925160248083019650939450929083900301905081600087803b158015611d7157600080fd5b505af1158015611d85573d6000803e3d6000fd5b505050506040513d6020811015611d9b57600080fd5b505115611df2576040805160e560020a62461bcd02815260206004820152600f60248201527f436f6e7472616374207061757365640000000000000000000000000000000000604482015290519081900360640190fd5b60005460408051600080516020613f33833981519152602080830191909152600160a060020a038c8116606060020a0260338401528351808403602701815260479093019384905282518d959190911693633b7bfda09392909182918401908083835b60208310611e745780518252601f199092019160209182019101611e55565b51815160209384036101000a60001901801990921691161790526040805192909401829003822063ffffffff881660e060020a0283526004830152925160248083019650939450929083900301905081600087803b158015611ed557600080fd5b505af1158015611ee9573d6000803e3d6000fd5b505050506040513d6020811015611eff57600080fd5b50511515611f57576040805160e560020a62461bcd02815260206004820152601760248201527f43726f776473616c65206e6f742066696e616c697a6564000000000000000000604482015290519081900360640190fd5b600054604080517f63726f776473616c652e70616964000000000000000000000000000000000000602080830191909152600160a060020a038d8116606060020a02602e8401528351808403602201815260429093019384905282518e959190911693633b7bfda09392909182918401908083835b60208310611feb5780518252601f199092019160209182019101611fcc565b51815160209384036101000a60001901801990921691161790526040805192909401829003822063ffffffff881660e060020a0283526004830152925160248083019650939450929083900301905081600087803b15801561204c57600080fd5b505af1158015612060573d6000803e3d6000fd5b505050506040513d602081101561207657600080fd5b5051156120cd576040805160e560020a62461bcd02815260206004820152601660248201527f43726f776473616c65206861642070616964206f757400000000000000000000604482015290519081900360640190fd5b600054604080517f63726f776473616c652e70616964000000000000000000000000000000000000602080830191909152600160a060020a038e8116606060020a02602e84015283518084036022018152604290930193849052825194169363abfdcced93918291908401908083835b6020831061215c5780518252601f19909201916020918201910161213d565b5181516020939093036101000a60001901801990911692169190911790526040805191909301819003812063ffffffff871660e060020a028252600482015260016024820152915160448084019550600094509092839003019050818387803b1580156121c857600080fd5b505af11580156121dc573d6000803e3d6000fd5b5050600054604080517f706c6174666f726d2e77616c6c65742e61737365747300000000000000000000602080830191909152825180830360160181526036909201928390528151600160a060020a0390941695506304f49a3a9450909282918401908083835b602083106122625780518252601f199092019160209182019101612243565b51815160209384036101000a60001901801990921691161790526040805192909401829003822063ffffffff881660e060020a0283526004830152925160248083019650939450929083900301905081600087803b1580156122c357600080fd5b505af11580156122d7573d6000803e3d6000fd5b505050506040513d60208110156122ed57600080fd5b50519750600160a060020a0388161515612351576040805160e560020a62461bcd02815260206004820152601e60248201527f506c6174666f726d206173736574732077616c6c6574206e6f74207365740000604482015290519081900360640190fd5b600260009054906101000a9004600160a060020a0316600160a060020a031663d5895a3c8b6000809054906101000a9004600160a060020a0316600160a060020a03166304f49a3a60405160200180807f636f6e7472616374000000000000000000000000000000000000000000000000815250600801807f41737365744d616e6167657246756e647300000000000000000000000000000081525060110190506040516020818303038152906040526040518082805190602001908083835b602083106124305780518252601f199092019160209182019101612411565b51815160209384036101000a60001901801990921691161790526040805192909401829003822063ffffffff881660e060020a0283526004830152925160248083019650939450929083900301905081600087803b15801561249157600080fd5b505af11580156124a5573d6000803e3d6000fd5b505050506040513d60208110156124bb57600080fd5b81019080805190602001909291905050506000809054906101000a9004600160a060020a0316600160a060020a031663a855d4ce8f60405160200180807f61737365742e6d616e61676572546f6b656e730000000000000000000000000081525060130182600160a060020a0316600160a060020a0316606060020a0281526014019150506040516020818303038152906040526040518082805190602001908083835b6020831061257e5780518252601f19909201916020918201910161255f565b51815160209384036101000a60001901801990921691161790526040805192909401829003822063ffffffff881660e060020a0283526004830152925160248083019650939450929083900301905081600087803b1580156125df57600080fd5b505af11580156125f3573d6000803e3d6000fd5b505050506040513d602081101561260957600080fd5b50516040805160e060020a63ffffffff8716028152600160a060020a0394851660048201529290931660248301526044820152905160648083019260209291908290030181600087803b15801561265f57600080fd5b505af1158015612673573d6000803e3d6000fd5b505050506040513d602081101561268957600080fd5b505115156126e1576040805160e560020a62461bcd02815260206004820152601660248201527f4d616e61676572206d696e74696e67206661696c656400000000000000000000604482015290519081900360640190fd5b600260009054906101000a9004600160a060020a0316600160a060020a031663d5895a3c8b8a6000809054906101000a9004600160a060020a0316600160a060020a031663a855d4ce8f60405160200180807f61737365742e706c6174666f726d546f6b656e7300000000000000000000000081525060140182600160a060020a0316600160a060020a0316606060020a0281526014019150506040516020818303038152906040526040518082805190602001908083835b602083106127b95780518252601f19909201916020918201910161279a565b51815160209384036101000a60001901801990921691161790526040805192909401829003822063ffffffff881660e060020a0283526004830152925160248083019650939450929083900301905081600087803b15801561281a57600080fd5b505af115801561282e573d6000803e3d6000fd5b505050506040513d602081101561284457600080fd5b50516040805160e060020a63ffffffff8716028152600160a060020a0394851660048201529290931660248301526044820152905160648083019260209291908290030181600087803b15801561289a57600080fd5b505af11580156128ae573d6000803e3d6000fd5b505050506040513d60208110156128c457600080fd5b5051151561291c576040805160e560020a62461bcd02815260206004820152601760248201527f506c6174666f726d206d696e74696e67206661696c6564000000000000000000604482015290519081900360640190fd5b60005460408051600080516020613f53833981519152602080830191909152600160a060020a038e8116606060020a02602d8401528351808403602101815260419093019384905282519416936304f49a3a93918291908401908083835b602083106129995780518252601f19909201916020918201910161297a565b51815160209384036101000a60001901801990921691161790526040805192909401829003822063ffffffff881660e060020a0283526004830152925160248083019650939450929083900301905081600087803b1580156129fa57600080fd5b505af1158015612a0e573d6000803e3d6000fd5b505050506040513d6020811015612a2457600080fd5b5051600054604080517f706c6174666f726d2e77616c6c65742e66756e64730000000000000000000000602082810191909152825180830360150181526035909201928390528151949b50600160a060020a03909316936304f49a3a939192918291908401908083835b60208310612aad5780518252601f199092019160209182019101612a8e565b51815160209384036101000a60001901801990921691161790526040805192909401829003822063ffffffff881660e060020a0283526004830152925160248083019650939450929083900301905081600087803b158015612b0e57600080fd5b505af1158015612b22573d6000803e3d6000fd5b505050506040513d6020811015612b3857600080fd5b50519550600160a060020a03871615801590612b5c5750600160a060020a03861615155b1515612bd8576040805160e560020a62461bcd02815260206004820152602360248201527f5265636569766572206f7220706c6174666f726d2077616c6c6574206e6f742060448201527f7365740000000000000000000000000000000000000000000000000000000000606482015290519081900360840190fd5b600054604080517f63726f776473616c652e676f616c000000000000000000000000000000000000602080830191909152600160a060020a038e8116606060020a02602e84015283518084036022018152604290930193849052825194169363a855d4ce93918291908401908083835b60208310612c675780518252601f199092019160209182019101612c48565b51815160209384036101000a60001901801990921691161790526040805192909401829003822063ffffffff881660e060020a0283526004830152925160248083019650939450929083900301905081600087803b158015612cc857600080fd5b505af1158015612cdc573d6000803e3d6000fd5b505050506040513d6020811015612cf257600080fd5b505160005460408051600080516020613f738339815191526020828101919091528251808303600c018152602c909201928390528151949950612e0594600160a060020a039094169363a855d4ce93918291908401908083835b60208310612d6b5780518252601f199092019160209182019101612d4c565b51815160209384036101000a60001901801990921691161790526040805192909401829003822063ffffffff881660e060020a0283526004830152925160248083019650939450929083900301905081600087803b158015612dcc57600080fd5b505af1158015612de0573d6000803e3d6000fd5b505050506040513d6020811015612df657600080fd5b5051869063ffffffff613f1516565b600354604080517f25127520000000000000000000000000000000000000000000000000000000008152600160a060020a038a811660048301526024820185905291519397509116916325127520916044808201926020929091908290030181600087803b158015612e7657600080fd5b505af1158015612e8a573d6000803e3d6000fd5b505050506040513d6020811015612ea057600080fd5b50511515612ef8576040805160e560020a62461bcd02815260206004820152601760248201527f506c6174666f726d2066756e6473206e6f742070616964000000000000000000604482015290519081900360640190fd5b600354604080517f25127520000000000000000000000000000000000000000000000000000000008152600160a060020a038a81166004830152602482018990529151919092169163251275209160448083019260209291908290030181600087803b158015612f6757600080fd5b505af1158015612f7b573d6000803e3d6000fd5b505050506040513d6020811015612f9157600080fd5b50511515612fe9576040805160e560020a62461bcd02815260206004820152601760248201527f4f70657261746f722066756e6473206e6f742070616964000000000000000000604482015290519081900360640190fd5b600054604080517f63726f776473616c652e73746172740000000000000000000000000000000000602080830191909152600160a060020a038e8116606060020a02602f84015283518084036023018152604390930193849052825194169363e2b202bf93918291908401908083835b602083106130785780518252601f199092019160209182019101613059565b5181516020939093036101000a60001901801990911692169190911790526040805191909301819003812063ffffffff871660e060020a0282526004820152915160248084019550600094509092839003019050818387803b1580156130dd57600080fd5b505af11580156130f1573d6000803e3d6000fd5b505050506000809054906101000a9004600160a060020a0316600160a060020a03166304f49a3a8b6040516020018080600080516020613f53833981519152815250600d0182600160a060020a0316600160a060020a0316606060020a0281526014019150506040516020818303038152906040526040518082805190602001908083835b602083106131955780518252601f199092019160209182019101613176565b51815160209384036101000a60001901801990921691161790526040805192909401829003822063ffffffff881660e060020a0283526004830152925160248083019650939450929083900301905081600087803b1580156131f657600080fd5b505af115801561320a573d6000803e3d6000fd5b505050506040513d602081101561322057600080fd5b5051600054604080517f6d616e616765722e617373657473000000000000000000000000000000000000602080830191909152600160a060020a03808616606060020a02602e8401528351808403602201815260429093019384905282519598509093169363e2a4853a939192918291908401908083835b602083106132b75780518252601f199092019160209182019101613298565b51815160209384036101000a6000190180199092169116179052604080519290940182900382206000547f6d616e616765722e61737365747300000000000000000000000000000000000084840152600160a060020a038d8116606060020a02602e86015286518086036022018152604290950196879052845192985061340a97506001969116945063a855d4ce9392909182918401908083835b602083106133715780518252601f199092019160209182019101613352565b51815160209384036101000a60001901801990921691161790526040805192909401829003822063ffffffff881660e060020a0283526004830152925160248083019650939450929083900301905081600087803b1580156133d257600080fd5b505af11580156133e6573d6000803e3d6000fd5b505050506040513d60208110156133fc57600080fd5b50519063ffffffff613ea916565b6040518363ffffffff1660e060020a02815260040180836000191660001916815260200182815260200192505050600060405180830381600087803b15801561345257600080fd5b505af1158015613466573d6000803e3d6000fd5b5050600154604080517f42b425aa000000000000000000000000000000000000000000000000000000008152600160a060020a038f811660248301528c81166044830152606482018b905260006084830181905260a06004840152600c60a48401527f4173736574207061796f7574000000000000000000000000000000000000000060c48401529251931694506342b425aa935060e4808201939182900301818387803b15801561351757600080fd5b505af115801561352b573d6000803e3d6000fd5b5060019d9c50505050505050505050505050565b60008054604080517f7061757365640000000000000000000000000000000000000000000000000000602080830191909152606060020a300260268301528251601a818403018152603a90920192839052815185948594600160a060020a0390911693633b7bfda093909282918401908083835b602083106135d25780518252601f1990920191602091820191016135b3565b51815160209384036101000a60001901801990921691161790526040805192909401829003822063ffffffff881660e060020a0283526004830152925160248083019650939450929083900301905081600087803b15801561363357600080fd5b505af1158015613647573d6000803e3d6000fd5b505050506040513d602081101561365d57600080fd5b5051156136b4576040805160e560020a62461bcd02815260206004820152600f60248201527f436f6e7472616374207061757365640000000000000000000000000000000000604482015290519081900360640190fd5b6000805460408051600080516020613f53833981519152602080830191909152600160a060020a03898116606060020a02602d8401528351808403602101815260419093019384905282518a969591909116936304f49a3a9392909182918401908083835b602083106137385780518252601f199092019160209182019101613719565b51815160209384036101000a60001901801990921691161790526040805192909401829003822063ffffffff881660e060020a0283526004830152925160248083019650939450929083900301905081600087803b15801561379957600080fd5b505af11580156137ad573d6000803e3d6000fd5b505050506040513d60208110156137c357600080fd5b5051600160a060020a03161415613824576040805160e560020a62461bcd02815260206004820152600d60248201527f496e76616c696420617373657400000000000000000000000000000000000000604482015290519081900360640190fd5b60005460408051600080516020613f93833981519152602080830191909152600160a060020a03898116606060020a0260328401528351808403602601815260469093019384905282518a95919091169363a855d4ce9392909182918401908083835b602083106138a65780518252601f199092019160209182019101613887565b51815160209384036101000a60001901801990921691161790526040805192909401829003822063ffffffff881660e060020a0283526004830152925160248083019650939450929083900301905081600087803b15801561390757600080fd5b505af115801561391b573d6000803e3d6000fd5b505050506040513d602081101561393157600080fd5b50514211613989576040805160e560020a62461bcd02815260206004820152600f60248201527f4265666f726520646561646c696e650000000000000000000000000000000000604482015290519081900360640190fd5b60005460408051600080516020613f33833981519152602080830191909152600160a060020a038a8116606060020a0260338401528351808403602701815260479093019384905282518b959190911693633b7bfda09392909182918401908083835b60208310613a0b5780518252601f1990920191602091820191016139ec565b51815160209384036101000a60001901801990921691161790526040805192909401829003822063ffffffff881660e060020a0283526004830152925160248083019650939450929083900301905081600087803b158015613a6c57600080fd5b505af1158015613a80573d6000803e3d6000fd5b505050506040513d6020811015613a9657600080fd5b505115613aed576040805160e560020a62461bcd02815260206004820152601360248201527f43726f776473616c652066696e616c697a656400000000000000000000000000604482015290519081900360640190fd5b60005460408051600080516020613f93833981519152602080830191909152600160a060020a038b8116606060020a02603284015283518084036026018152604690930193849052825194169363a855d4ce93918291908401908083835b60208310613b6a5780518252601f199092019160209182019101613b4b565b51815160209384036101000a60001901801990921691161790526040805192909401829003822063ffffffff881660e060020a0283526004830152925160248083019650939450929083900301905081600087803b158015613bcb57600080fd5b505af1158015613bdf573d6000803e3d6000fd5b505050506040513d6020811015613bf557600080fd5b50511515613c0257600080fd5b60005460408051600080516020613f93833981519152602080830191909152600160a060020a038b8116606060020a02603284015283518084036026018152604690930193849052825194169363e2b202bf93918291908401908083835b60208310613c7f5780518252601f199092019160209182019101613c60565b5181516020939093036101000a60001901801990911692169190911790526040805191909301819003812063ffffffff871660e060020a0282526004820152915160248084019550600094509092839003019050818387803b158015613ce457600080fd5b505af1158015613cf8573d6000803e3d6000fd5b50505050869450613dff606461146e613d896000809054906101000a9004600160a060020a0316600160a060020a031663a855d4ce6040516020018080600080516020613f73833981519152815250600c019050604051602081830303815290604052604051808280519060200190808383602083106113c25780518252601f1990920191602091820191016113a3565b88600160a060020a03166318160ddd6040518163ffffffff1660e060020a028152600401602060405180830381600087803b158015613dc757600080fd5b505af1158015613ddb573d6000803e3d6000fd5b505050506040513d6020811015613df157600080fd5b50519063ffffffff613ec316565b600354604080517f785bc786000000000000000000000000000000000000000000000000000000008152600160a060020a038b8116600483015260248201859052915193975091169163785bc786916044808201926020929091908290030181600087803b158015613e7057600080fd5b505af1158015613e84573d6000803e3d6000fd5b505050506040513d6020811015613e9a57600080fd5b50600198975050505050505050565b600082820183811015613eb857fe5b8091505b5092915050565b600080831515613ed65760009150613ebc565b50828202828482811515613ee657fe5b0414613eb857fe5b60008183811515613efb57fe5b049392505050565b600082821115613f0f57fe5b50900390565b6000613f2b613f248484613ec3565b6064613eee565b9392505050560063726f776473616c652e66696e616c697a65640000000000000000000000000061737365742e6d616e6167657200000000000000000000000000000000000000706c6174666f726d2e666565000000000000000000000000000000000000000063726f776473616c652e646561646c696e650000000000000000000000000000a165627a7a723058209f0ec513edf1846e2dedf449c9058397687f001f85f1595feb5922064f206a190029",
  "source": "pragma solidity ^0.4.24;\n\nimport \"../math/SafeMath.sol\";\nimport \"../interfaces/ERC20.sol\";\nimport \"../interfaces/MinterInterface.sol\";\nimport \"../interfaces/CrowdsaleReserveInterface.sol\";\n\ninterface Events {  function transaction(string _message, address _from, address _to, uint _amount, address _token)  external; }\ninterface DB {\n  function addressStorage(bytes32 _key) external view returns (address);\n  function uintStorage(bytes32 _key) external view returns (uint);\n  function setUint(bytes32 _key, uint _value) external;\n  function deleteUint(bytes32 _key) external;\n  function setBool(bytes32 _key, bool _value) external;\n  function boolStorage(bytes32 _key) external view returns (bool);\n}\n\n// @title An asset crowdsale contract, which accepts Ether for funding.\n// @author Kyle Dewhurst & Peter Phillips, MyBit Foundation\n// @notice Starts a new crowdsale and returns asset dividend tokens for Wei received.\n// @dev The AssetManager\ncontract CrowdsaleETH {\n    using SafeMath for uint256;\n\n    DB private database;\n    Events private events;\n    MinterInterface private minter;\n    CrowdsaleReserveInterface private reserve;\n\n    // @notice Constructor: Initiates the database\n    // @param: The address for the database contract\n    constructor(address _database, address _events)\n    public {\n      database = DB(_database);\n      events = Events(_events);\n      minter = MinterInterface(database.addressStorage(keccak256(abi.encodePacked(\"contract\", \"Minter\"))));\n      reserve = CrowdsaleReserveInterface(database.addressStorage(keccak256(abi.encodePacked(\"contract\", \"CrowdsaleReserve\"))));\n    }\n\n\n    // @notice Investors can send Ether here to fund asset, receiving an equivalent number of asset-tokens.\n    // @param (bytes32) _assetAddress = The address of the asset which completed the crowdsale\n    function buyAssetOrderETH(address _assetAddress)\n    external\n    payable\n    requiresEther\n    validAsset(_assetAddress)\n    beforeDeadline(_assetAddress)\n    notFinalized(_assetAddress)\n    returns (bool) {\n      uint fundingRemaining = database.uintStorage(keccak256(abi.encodePacked(\"crowdsale.remaining\", _assetAddress)));\n      uint amount; //The number of tokens that will be minted\n      if (msg.value < fundingRemaining) {\n        amount = msg.value.mul(100).div(uint(100).add(database.uintStorage(keccak256(abi.encodePacked(\"platform.fee\")))));\n        database.setUint(keccak256(abi.encodePacked(\"crowdsale.remaining\", _assetAddress)), fundingRemaining.sub(msg.value));\n        //Mint tokens equal to the msg.value\n        require(minter.mintAssetTokens(_assetAddress, msg.sender, amount), \"Investor minting failed\");\n        reserve.receiveETH.value(msg.value)(msg.sender);\n      } else {\n        amount = fundingRemaining.mul(100).div(uint(100).add(database.uintStorage(keccak256(abi.encodePacked(\"platform.fee\")))));\n        //Funding complete, finalize crowdsale\n        database.setBool(keccak256(abi.encodePacked(\"crowdsale.finalized\", _assetAddress)), true);\n        database.deleteUint(keccak256(abi.encodePacked(\"crowdsale.remaining\", _assetAddress)));\n        //Since investor paid equal to or over the funding remaining, just mint for tokensRemaining\n        require(minter.mintAssetTokens(_assetAddress, msg.sender, amount), \"Investor minting failed\");\n        reserve.receiveETH.value(fundingRemaining)(msg.sender);\n        //Return leftover WEI after cost of tokens calculated and subtracted from msg.value to msg.sender\n        msg.sender.transfer(msg.value.sub(fundingRemaining));\n      }\n      events.transaction('Asset purchased', address(this), msg.sender, amount, _assetAddress);\n\n      return true;\n    }\n\n    // @notice This is called once funding has succeeded. Sends Ether to a distribution contract where receiver & assetManager can withdraw\n    // @dev The contract manager needs to know  the address PlatformDistribution contract\n    // @param (bytes32) _assetAddress = The address of the asset which completed the crowdsale\n    function payoutETH(address _assetAddress)\n    external\n    whenNotPaused\n    finalized(_assetAddress)\n    notPaid(_assetAddress)\n    returns (bool) {\n      //Set paid to true\n      database.setBool(keccak256(abi.encodePacked(\"crowdsale.paid\", _assetAddress)), true);\n      //Setup token\n      //Mint tokens for the asset manager and platform + finish minting\n      address platformAssetsWallet = database.addressStorage(keccak256(abi.encodePacked(\"platform.wallet.assets\")));\n      require(platformAssetsWallet != address(0), \"Platform assets wallet not set\");\n      require(minter.mintAssetTokens(_assetAddress, database.addressStorage(keccak256(abi.encodePacked(\"contract\", \"AssetManagerFunds\"))), database.uintStorage(keccak256(abi.encodePacked(\"asset.managerTokens\", _assetAddress)))), \"Manager minting failed\");\n      require(minter.mintAssetTokens(_assetAddress, platformAssetsWallet, database.uintStorage(keccak256(abi.encodePacked(\"asset.platformTokens\", _assetAddress)))), \"Platform minting failed\");\n      //Get the addresses for the receiver and platform\n      address receiver = database.addressStorage(keccak256(abi.encodePacked(\"asset.manager\", _assetAddress)));\n      address platformFundsWallet = database.addressStorage(keccak256(abi.encodePacked(\"platform.wallet.funds\")));\n      require(receiver != address(0) && platformFundsWallet != address(0), \"Receiver or platform wallet not set\");\n      //Calculate amounts for platform and receiver\n      uint amount = database.uintStorage(keccak256(abi.encodePacked(\"crowdsale.goal\", _assetAddress)));\n      uint platformFee = amount.getFractionalAmount(database.uintStorage(keccak256(abi.encodePacked(\"platform.fee\"))));\n      //Transfer funds to receiver and platform\n      require(reserve.issueETH(platformFundsWallet, platformFee), 'Platform funds not paid');\n      require(reserve.issueETH(receiver, amount), 'Operator funds not paid');\n      //Delete crowdsale start time\n      database.deleteUint(keccak256(abi.encodePacked(\"crowdsale.start\", _assetAddress)));\n      //Increase asset count for manager\n      address manager = database.addressStorage(keccak256(abi.encodePacked(\"asset.manager\", _assetAddress)));\n      database.setUint(keccak256(abi.encodePacked(\"manager.assets\", manager)), database.uintStorage(keccak256(abi.encodePacked(\"manager.assets\", manager))).add(1));\n      //Emit event\n      events.transaction('Asset payout', _assetAddress, receiver, amount, address(0));\n      return true;\n    }\n\n    function cancel(address _assetAddress)\n    external\n    whenNotPaused\n    validAsset(_assetAddress)\n    beforeDeadline(_assetAddress)\n    notFinalized(_assetAddress)\n    returns (bool){\n      require(msg.sender == database.addressStorage(keccak256(abi.encodePacked(\"asset.manager\", _assetAddress))));\n      database.setUint(keccak256(abi.encodePacked(\"crowdsale.deadline\", _assetAddress)), 1);\n      refund(_assetAddress);\n    }\n\n    // @notice Contributors can retrieve their funds here if crowdsale has paased deadline and not reached its goal\n    // @param (bytes32) _assetAddress = The address of the asset which completed the crowdsale\n    function refund(address _assetAddress)\n    public\n    whenNotPaused\n    validAsset(_assetAddress)\n    afterDeadline(_assetAddress)\n    notFinalized(_assetAddress)\n    returns (bool) {\n      require(database.uintStorage(keccak256(abi.encodePacked(\"crowdsale.deadline\", _assetAddress))) != 0);\n      database.deleteUint(keccak256(abi.encodePacked(\"crowdsale.deadline\", _assetAddress)));\n      ERC20 assetToken = ERC20(_assetAddress);\n      uint refundValue = assetToken.totalSupply().mul(uint(100).add(database.uintStorage(keccak256(abi.encodePacked(\"platform.fee\"))))).div(100); //total supply plus platform fees\n      reserve.refundETHAsset(_assetAddress, refundValue);\n      return true;\n    }\n\n    // @notice platform owners can recover tokens here\n    function recoverTokens(address _erc20Token)\n    onlyOwner\n    external {\n      ERC20 thisToken = ERC20(_erc20Token);\n      uint contractBalance = thisToken.balanceOf(address(this));\n      thisToken.transfer(msg.sender, contractBalance);\n    }\n\n    // @notice platform owners can destroy contract here\n    function destroy()\n    onlyOwner\n    external {\n      events.transaction('CrowdsaleETH destroyed', address(this), msg.sender, address(this).balance, address(0));\n      selfdestruct(msg.sender);\n    }\n\n    //------------------------------------------------------------------------------------------------------------------\n    //                                            Modifiers\n    //------------------------------------------------------------------------------------------------------------------\n\n\n    // @notice Requires that Ether is sent with the transaction\n    modifier requiresEther() {\n      require(msg.value > 0);\n      _;\n    }\n\n    // @notice Sender must be a registered owner\n    modifier onlyOwner {\n      require(database.boolStorage(keccak256(abi.encodePacked(\"owner\", msg.sender))), \"Not owner\");\n      _;\n    }\n\n    // @notice function won't run if owners have paused this contract\n    modifier whenNotPaused {\n      require(!database.boolStorage(keccak256(abi.encodePacked(\"paused\", address(this)))), \"Contract paused\");\n      _;\n    }\n\n    // @notice reverts if the asset does not have a token address set in the database\n    modifier validAsset(address _assetAddress) {\n      require(database.addressStorage(keccak256(abi.encodePacked(\"asset.manager\", _assetAddress))) != address(0), \"Invalid asset\");\n      _;\n    }\n\n    // @notice reverts if the funding deadline has not passed\n    modifier beforeDeadline(address _assetAddress) {\n      require(now < database.uintStorage(keccak256(abi.encodePacked(\"crowdsale.deadline\", _assetAddress))), \"Before deadline\");\n      _;\n    }\n\n    // @notice reverts if the funding deadline has already past or crowsale has not started\n    modifier betweenDeadlines(address _assetAddress) {\n      require(now <= database.uintStorage(keccak256(abi.encodePacked(\"crowdsale.deadline\", _assetAddress))), \"Past deadline\");\n      require(now >= database.uintStorage(keccak256(abi.encodePacked(\"crowdsale.start\", _assetAddress))), \"Before start time\");\n      _;\n    }\n\n    // @notice reverts if the funding deadline has already past\n    modifier afterDeadline(address _assetAddress) {\n      require(now > database.uintStorage(keccak256(abi.encodePacked(\"crowdsale.deadline\", _assetAddress))), \"Before deadline\");\n      _;\n    }\n\n    // @notice returns true if crowdsale is finshed\n    modifier finalized(address _assetAddress) {\n      require( database.boolStorage(keccak256(abi.encodePacked(\"crowdsale.finalized\", _assetAddress))), \"Crowdsale not finalized\");\n      _;\n    }\n\n    // @notice returns true if crowdsale is not finshed\n    modifier notFinalized(address _assetAddress) {\n      require( !database.boolStorage(keccak256(abi.encodePacked(\"crowdsale.finalized\", _assetAddress))), \"Crowdsale finalized\");\n      _;\n    }\n\n    // @notice returns true if crowdsale has not paid out\n    modifier notPaid(address _assetAddress) {\n      require( !database.boolStorage(keccak256(abi.encodePacked(\"crowdsale.paid\", _assetAddress))), \"Crowdsale had paid out\");\n      _;\n    }\n\n  }\n",
  "sourcePath": "/home/iamonuwa/Projects/MyBitFoundation/MyBit-Network.tech/contracts/crowdsale/CrowdsaleETH.sol",
  "compiler": {
    "name": "solc",
    "version": "0.4.24+commit.e67f0147.Emscripten.clang"
  },
  "schemaVersion": "3.0.9",
  "updatedAt": "2020-07-27T21:29:53.449Z",
  "devdoc": {
    "methods": {}
  },
  "userdoc": {
    "methods": {}
  }
}