{
  "contractName": "CrowdsaleERC20",
  "abi": [
    {
      "inputs": [
        {
          "name": "_database",
          "type": "address"
        },
        {
          "name": "_events",
          "type": "address"
        },
        {
          "name": "_kyber",
          "type": "address"
        }
      ],
      "payable": false,
      "stateMutability": "nonpayable",
      "type": "constructor"
    },
    {
      "payable": true,
      "stateMutability": "payable",
      "type": "fallback"
    },
    {
      "anonymous": false,
      "inputs": [
        {
          "indexed": false,
          "name": "token",
          "type": "address"
        },
        {
          "indexed": false,
          "name": "change",
          "type": "uint256"
        },
        {
          "indexed": false,
          "name": "investment",
          "type": "uint256"
        }
      ],
      "name": "Convert",
      "type": "event"
    },
    {
      "anonymous": false,
      "inputs": [
        {
          "indexed": false,
          "name": "sender",
          "type": "address"
        },
        {
          "indexed": false,
          "name": "amount",
          "type": "uint256"
        }
      ],
      "name": "EtherReceived",
      "type": "event"
    },
    {
      "constant": false,
      "inputs": [
        {
          "name": "_assetAddress",
          "type": "address"
        },
        {
          "name": "_amount",
          "type": "uint256"
        },
        {
          "name": "_paymentToken",
          "type": "address"
        }
      ],
      "name": "buyAssetOrderERC20",
      "outputs": [
        {
          "name": "",
          "type": "bool"
        }
      ],
      "payable": true,
      "stateMutability": "payable",
      "type": "function"
    },
    {
      "constant": false,
      "inputs": [
        {
          "name": "_assetAddress",
          "type": "address"
        }
      ],
      "name": "payoutERC20",
      "outputs": [
        {
          "name": "",
          "type": "bool"
        }
      ],
      "payable": false,
      "stateMutability": "nonpayable",
      "type": "function"
    },
    {
      "constant": false,
      "inputs": [
        {
          "name": "_assetAddress",
          "type": "address"
        }
      ],
      "name": "cancel",
      "outputs": [
        {
          "name": "",
          "type": "bool"
        }
      ],
      "payable": false,
      "stateMutability": "nonpayable",
      "type": "function"
    },
    {
      "constant": false,
      "inputs": [
        {
          "name": "_assetAddress",
          "type": "address"
        }
      ],
      "name": "refund",
      "outputs": [
        {
          "name": "",
          "type": "bool"
        }
      ],
      "payable": false,
      "stateMutability": "nonpayable",
      "type": "function"
    },
    {
      "constant": false,
      "inputs": [
        {
          "name": "_erc20Token",
          "type": "address"
        }
      ],
      "name": "recoverTokens",
      "outputs": [],
      "payable": false,
      "stateMutability": "nonpayable",
      "type": "function"
    },
    {
      "constant": false,
      "inputs": [],
      "name": "destroy",
      "outputs": [],
      "payable": false,
      "stateMutability": "nonpayable",
      "type": "function"
    }
  ],
  "bytecode": "0x60806040523480156200001157600080fd5b5060405160608062004e4b83398101604081815282516020808501519483015160008054600160a060020a03808616600160a060020a0319928316179283905560018054828b169316929092179091557f636f6e7472616374000000000000000000000000000000000000000000000000848801527f4d696e746572000000000000000000000000000000000000000000000000000060288801528551600e818903018152602e90970195869052865194979692959116936304f49a3a938291908401908083835b60208310620000fa5780518252601f199092019160209182019101620000d9565b51815160209384036101000a60001901801990921691161790526040805192909401829003822063ffffffff88167c01000000000000000000000000000000000000000000000000000000000283526004830152925160248083019650939450929083900301905081600087803b1580156200017557600080fd5b505af11580156200018a573d6000803e3d6000fd5b505050506040513d6020811015620001a157600080fd5b505160028054600160a060020a031916600160a060020a03928316179055600054604080517f636f6e74726163740000000000000000000000000000000000000000000000006020808301919091527f43726f776473616c655265736572766500000000000000000000000000000000602883015282518083036018018152603890920192839052815193909416936304f49a3a9391929182918401908083835b60208310620002635780518252601f19909201916020918201910162000242565b51815160209384036101000a60001901801990921691161790526040805192909401829003822063ffffffff88167c01000000000000000000000000000000000000000000000000000000000283526004830152925160248083019650939450929083900301905081600087803b158015620002de57600080fd5b505af1158015620002f3573d6000803e3d6000fd5b505050506040513d60208110156200030a57600080fd5b505160038054600160a060020a03928316600160a060020a031991821617909155600480549390921692169190911790555050614afe806200034d6000396000f30060806040526004361061005e5763ffffffff60e060020a6000350416630329cf4a811461009a57806316114acd146100cf5780634c33fe94146100f257806383197ef014610113578063a09d38c714610128578063fa89401a14610146575b6040805133815234602082015281517f1e57e3bb474320be3d2c77138f75b7c3941292d647f5f9634e33a8e94e0e069b929181900390910190a1005b3480156100a657600080fd5b506100bb600160a060020a0360043516610167565b604080519115158252519081900360200190f35b3480156100db57600080fd5b506100f0600160a060020a0360043516611a61565b005b3480156100fe57600080fd5b506100bb600160a060020a0360043516611ceb565b34801561011f57600080fd5b506100f061247b565b6100bb600160a060020a0360043581169060243590604435166126b5565b34801561015257600080fd5b506100bb600160a060020a0360043516613788565b60008054604080517f7061757365640000000000000000000000000000000000000000000000000000602080830191909152606060020a300260268301528251601a818403018152603a9092019283905281518594859485948594859485948594600160a060020a0390911693633b7bfda093909282918401908083835b602083106102045780518252601f1990920191602091820191016101e5565b51815160209384036101000a60001901801990921691161790526040805192909401829003822063ffffffff881660e060020a0283526004830152925160248083019650939450929083900301905081600087803b15801561026557600080fd5b505af1158015610279573d6000803e3d6000fd5b505050506040513d602081101561028f57600080fd5b50511561029b57600080fd5b60005460408051600080516020614a53833981519152602080830191909152600160a060020a038d8116606060020a026033840152835180840360270181526047909301938490528251941693633b7bfda093918291908401908083835b602083106103185780518252601f1990920191602091820191016102f9565b51815160209384036101000a60001901801990921691161790526040805192909401829003822063ffffffff881660e060020a0283526004830152925160248083019650939450929083900301905081600087803b15801561037957600080fd5b505af115801561038d573d6000803e3d6000fd5b505050506040513d60208110156103a357600080fd5b505115156103fb576040805160e560020a62461bcd02815260206004820152601760248201527f43726f776473616c65206e6f742066696e616c697a6564000000000000000000604482015290519081900360640190fd5b600054604080517f63726f776473616c652e70616964000000000000000000000000000000000000602080830191909152600160a060020a038d8116606060020a02602e840152835180840360220181526042909301938490528251941693633b7bfda093918291908401908083835b6020831061048a5780518252601f19909201916020918201910161046b565b51815160209384036101000a60001901801990921691161790526040805192909401829003822063ffffffff881660e060020a0283526004830152925160248083019650939450929083900301905081600087803b1580156104eb57600080fd5b505af11580156104ff573d6000803e3d6000fd5b505050506040513d602081101561051557600080fd5b50511561056c576040805160e560020a62461bcd02815260206004820152601660248201527f43726f776473616c65206861732070616964206f757400000000000000000000604482015290519081900360640190fd5b600054604080517f63726f776473616c652e70616964000000000000000000000000000000000000602080830191909152600160a060020a038d8116606060020a02602e84015283518084036022018152604290930193849052825194169363abfdcced93918291908401908083835b602083106105fb5780518252601f1990920191602091820191016105dc565b5181516020939093036101000a60001901801990911692169190911790526040805191909301819003812063ffffffff871660e060020a028252600482015260016024820152915160448084019550600094509092839003019050818387803b15801561066757600080fd5b505af115801561067b573d6000803e3d6000fd5b5050505088600160a060020a0316634ece90a86040518163ffffffff1660e060020a028152600401602060405180830381600087803b1580156106bd57600080fd5b505af11580156106d1573d6000803e3d6000fd5b505050506040513d60208110156106e757600080fd5b5051600054604080517f706c6174666f726d2e77616c6c65742e61737365747300000000000000000000602082810191909152825180830360160181526036909201928390528151949b50600160a060020a03909316936304f49a3a939192918291908401908083835b602083106107705780518252601f199092019160209182019101610751565b51815160209384036101000a60001901801990921691161790526040805192909401829003822063ffffffff881660e060020a0283526004830152925160248083019650939450929083900301905081600087803b1580156107d157600080fd5b505af11580156107e5573d6000803e3d6000fd5b505050506040513d60208110156107fb57600080fd5b50519550600160a060020a038616151561085f576040805160e560020a62461bcd02815260206004820152601e60248201527f506c6174666f726d206173736574732077616c6c6574206e6f74207365740000604482015290519081900360640190fd5b600260009054906101000a9004600160a060020a0316600160a060020a031663d5895a3c8a6000809054906101000a9004600160a060020a0316600160a060020a03166304f49a3a60405160200180807f636f6e7472616374000000000000000000000000000000000000000000000000815250600801807f41737365744d616e6167657246756e647300000000000000000000000000000081525060110190506040516020818303038152906040526040518082805190602001908083835b6020831061093e5780518252601f19909201916020918201910161091f565b51815160209384036101000a60001901801990921691161790526040805192909401829003822063ffffffff881660e060020a0283526004830152925160248083019650939450929083900301905081600087803b15801561099f57600080fd5b505af11580156109b3573d6000803e3d6000fd5b505050506040513d60208110156109c957600080fd5b81019080805190602001909291905050506000809054906101000a9004600160a060020a0316600160a060020a031663a855d4ce8e60405160200180807f61737365742e6d616e61676572546f6b656e730000000000000000000000000081525060130182600160a060020a0316600160a060020a0316606060020a0281526014019150506040516020818303038152906040526040518082805190602001908083835b60208310610a8c5780518252601f199092019160209182019101610a6d565b51815160209384036101000a60001901801990921691161790526040805192909401829003822063ffffffff881660e060020a0283526004830152925160248083019650939450929083900301905081600087803b158015610aed57600080fd5b505af1158015610b01573d6000803e3d6000fd5b505050506040513d6020811015610b1757600080fd5b50516040805160e060020a63ffffffff8716028152600160a060020a0394851660048201529290931660248301526044820152905160648083019260209291908290030181600087803b158015610b6d57600080fd5b505af1158015610b81573d6000803e3d6000fd5b505050506040513d6020811015610b9757600080fd5b50511515610bef576040805160e560020a62461bcd02815260206004820152601660248201527f4d616e61676572206d696e74696e67206661696c656400000000000000000000604482015290519081900360640190fd5b600260009054906101000a9004600160a060020a0316600160a060020a031663d5895a3c8a886000809054906101000a9004600160a060020a0316600160a060020a031663a855d4ce8e60405160200180807f61737365742e706c6174666f726d546f6b656e7300000000000000000000000081525060140182600160a060020a0316600160a060020a0316606060020a0281526014019150506040516020818303038152906040526040518082805190602001908083835b60208310610cc75780518252601f199092019160209182019101610ca8565b51815160209384036101000a60001901801990921691161790526040805192909401829003822063ffffffff881660e060020a0283526004830152925160248083019650939450929083900301905081600087803b158015610d2857600080fd5b505af1158015610d3c573d6000803e3d6000fd5b505050506040513d6020811015610d5257600080fd5b50516040805160e060020a63ffffffff8716028152600160a060020a0394851660048201529290931660248301526044820152905160648083019260209291908290030181600087803b158015610da857600080fd5b505af1158015610dbc573d6000803e3d6000fd5b505050506040513d6020811015610dd257600080fd5b50511515610e2a576040805160e560020a62461bcd02815260206004820152601760248201527f506c6174666f726d206d696e74696e67206661696c6564000000000000000000604482015290519081900360640190fd5b60005460408051600080516020614a73833981519152602080830191909152600160a060020a038d8116606060020a02602d8401528351808403602101815260419093019384905282519416936304f49a3a93918291908401908083835b60208310610ea75780518252601f199092019160209182019101610e88565b51815160209384036101000a60001901801990921691161790526040805192909401829003822063ffffffff881660e060020a0283526004830152925160248083019650939450929083900301905081600087803b158015610f0857600080fd5b505af1158015610f1c573d6000803e3d6000fd5b505050506040513d6020811015610f3257600080fd5b5051600054604080517f706c6174666f726d2e77616c6c65742e66756e64730000000000000000000000602082810191909152825180830360150181526035909201928390528151949950600160a060020a03909316936304f49a3a939192918291908401908083835b60208310610fbb5780518252601f199092019160209182019101610f9c565b51815160209384036101000a60001901801990921691161790526040805192909401829003822063ffffffff881660e060020a0283526004830152925160248083019650939450929083900301905081600087803b15801561101c57600080fd5b505af1158015611030573d6000803e3d6000fd5b505050506040513d602081101561104657600080fd5b50519350600160a060020a0385161580159061106a5750600160a060020a03841615155b15156110e6576040805160e560020a62461bcd02815260206004820152603260248201527f506c6174666f726d2066756e64732077616c6c6c6574206f722072656365697660448201527f65722061646472657373206e6f74207365740000000000000000000000000000606482015290519081900360840190fd5b600054604080517f63726f776473616c652e676f616c000000000000000000000000000000000000602080830191909152600160a060020a038d8116606060020a02602e84015283518084036022018152604290930193849052825194169363a855d4ce93918291908401908083835b602083106111755780518252601f199092019160209182019101611156565b51815160209384036101000a60001901801990921691161790526040805192909401829003822063ffffffff881660e060020a0283526004830152925160248083019650939450929083900301905081600087803b1580156111d657600080fd5b505af11580156111ea573d6000803e3d6000fd5b505050506040513d602081101561120057600080fd5b505160005460408051600080516020614a938339815191526020828101919091528251808303600c018152602c90920192839052815194975061131394600160a060020a039094169363a855d4ce93918291908401908083835b602083106112795780518252601f19909201916020918201910161125a565b51815160209384036101000a60001901801990921691161790526040805192909401829003822063ffffffff881660e060020a0283526004830152925160248083019650939450929083900301905081600087803b1580156112da57600080fd5b505af11580156112ee573d6000803e3d6000fd5b505050506040513d602081101561130457600080fd5b5051849063ffffffff61410f16565b600354604080517f080a771c000000000000000000000000000000000000000000000000000000008152600160a060020a038881166004830152602482018590528b81166044830152915193955091169163080a771c916064808201926020929091908290030181600087803b15801561138c57600080fd5b505af11580156113a0573d6000803e3d6000fd5b505050506040513d60208110156113b657600080fd5b5051151561140e576040805160e560020a62461bcd02815260206004820152601760248201527f506c6174666f726d2066756e6473206e6f742070616964000000000000000000604482015290519081900360640190fd5b600354604080517f080a771c000000000000000000000000000000000000000000000000000000008152600160a060020a038881166004830152602482018790528a811660448301529151919092169163080a771c9160648083019260209291908290030181600087803b15801561148557600080fd5b505af1158015611499573d6000803e3d6000fd5b505050506040513d60208110156114af57600080fd5b50511515611507576040805160e560020a62461bcd02815260206004820152601760248201527f52656365697665722066756e6473206e6f742070616964000000000000000000604482015290519081900360640190fd5b600054604080517f63726f776473616c652e73746172740000000000000000000000000000000000602080830191909152600160a060020a038d8116606060020a02602f84015283518084036023018152604390930193849052825194169363e2b202bf93918291908401908083835b602083106115965780518252601f199092019160209182019101611577565b5181516020939093036101000a60001901801990911692169190911790526040805191909301819003812063ffffffff871660e060020a0282526004820152915160248084019550600094509092839003019050818387803b1580156115fb57600080fd5b505af115801561160f573d6000803e3d6000fd5b505050506000809054906101000a9004600160a060020a0316600160a060020a03166304f49a3a8a6040516020018080600080516020614a73833981519152815250600d0182600160a060020a0316600160a060020a0316606060020a0281526014019150506040516020818303038152906040526040518082805190602001908083835b602083106116b35780518252601f199092019160209182019101611694565b51815160209384036101000a60001901801990921691161790526040805192909401829003822063ffffffff881660e060020a0283526004830152925160248083019650939450929083900301905081600087803b15801561171457600080fd5b505af1158015611728573d6000803e3d6000fd5b505050506040513d602081101561173e57600080fd5b5051600054604080517f6d616e616765722e617373657473000000000000000000000000000000000000602080830191909152600160a060020a03808616606060020a02602e8401528351808403602201815260429093019384905282519596509093169363e2a4853a939192918291908401908083835b602083106117d55780518252601f1990920191602091820191016117b6565b51815160209384036101000a6000190180199092169116179052604080519290940182900382206000547f6d616e616765722e61737365747300000000000000000000000000000000000084840152600160a060020a038b8116606060020a02602e86015286518086036022018152604290950196879052845192985061192897506001969116945063a855d4ce9392909182918401908083835b6020831061188f5780518252601f199092019160209182019101611870565b51815160209384036101000a60001901801990921691161790526040805192909401829003822063ffffffff881660e060020a0283526004830152925160248083019650939450929083900301905081600087803b1580156118f057600080fd5b505af1158015611904573d6000803e3d6000fd5b505050506040513d602081101561191a57600080fd5b50519063ffffffff61412c16565b6040518363ffffffff1660e060020a02815260040180836000191660001916815260200182815260200192505050600060405180830381600087803b15801561197057600080fd5b505af1158015611984573d6000803e3d6000fd5b5050600154604080517f42b425aa000000000000000000000000000000000000000000000000000000008152600160a060020a038e811660248301528a81166044830152606482018990528c8116608483015260a06004830152600c60a48301527f4173736574207061796f7574000000000000000000000000000000000000000060c483015291519190921693506342b425aa925060e480830192600092919082900301818387803b158015611a3a57600080fd5b505af1158015611a4e573d6000803e3d6000fd5b5060019c9b505050505050505050505050565b60008054604080517f6f776e6572000000000000000000000000000000000000000000000000000000602080830191909152606060020a330260258301528251601981840301815260399092019283905281518594600160a060020a031693633b7bfda09392909182918401908083835b60208310611af15780518252601f199092019160209182019101611ad2565b51815160209384036101000a60001901801990921691161790526040805192909401829003822063ffffffff881660e060020a0283526004830152925160248083019650939450929083900301905081600087803b158015611b5257600080fd5b505af1158015611b66573d6000803e3d6000fd5b505050506040513d6020811015611b7c57600080fd5b50511515611bd4576040805160e560020a62461bcd02815260206004820152600960248201527f4e6f74206f776e65720000000000000000000000000000000000000000000000604482015290519081900360640190fd5b6040805160e060020a6370a082310281523060048201529051849350600160a060020a038416916370a082319160248083019260209291908290030181600087803b158015611c2257600080fd5b505af1158015611c36573d6000803e3d6000fd5b505050506040513d6020811015611c4c57600080fd5b5051604080517fa9059cbb000000000000000000000000000000000000000000000000000000008152336004820152602481018390529051919250600160a060020a0384169163a9059cbb916044808201926020929091908290030181600087803b158015611cba57600080fd5b505af1158015611cce573d6000803e3d6000fd5b505050506040513d6020811015611ce457600080fd5b5050505050565b60008054604080517f7061757365640000000000000000000000000000000000000000000000000000602080830191909152606060020a300260268301528251601a818403018152603a909201928390528151600160a060020a0390941693633b7bfda093918291908401908083835b60208310611d7a5780518252601f199092019160209182019101611d5b565b51815160209384036101000a60001901801990921691161790526040805192909401829003822063ffffffff881660e060020a0283526004830152925160248083019650939450929083900301905081600087803b158015611ddb57600080fd5b505af1158015611def573d6000803e3d6000fd5b505050506040513d6020811015611e0557600080fd5b505115611e1157600080fd5b6000805460408051600080516020614a73833981519152602080830191909152600160a060020a03878116606060020a02602d84015283518084036021018152604190930193849052825188969591909116936304f49a3a9392909182918401908083835b60208310611e955780518252601f199092019160209182019101611e76565b51815160209384036101000a60001901801990921691161790526040805192909401829003822063ffffffff881660e060020a0283526004830152925160248083019650939450929083900301905081600087803b158015611ef657600080fd5b505af1158015611f0a573d6000803e3d6000fd5b505050506040513d6020811015611f2057600080fd5b5051600160a060020a03161415611f81576040805160e560020a62461bcd02815260206004820152600d60248201527f496e76616c696420617373657400000000000000000000000000000000000000604482015290519081900360640190fd5b60005460408051600080516020614ab3833981519152602080830191909152600160a060020a03878116606060020a0260328401528351808403602601815260469093019384905282518895919091169363a855d4ce9392909182918401908083835b602083106120035780518252601f199092019160209182019101611fe4565b51815160209384036101000a60001901801990921691161790526040805192909401829003822063ffffffff881660e060020a0283526004830152925160248083019650939450929083900301905081600087803b15801561206457600080fd5b505af1158015612078573d6000803e3d6000fd5b505050506040513d602081101561208e57600080fd5b505142106120e6576040805160e560020a62461bcd02815260206004820152600f60248201527f4265666f726520646561646c696e650000000000000000000000000000000000604482015290519081900360640190fd5b60005460408051600080516020614a53833981519152602080830191909152600160a060020a03888116606060020a02603384015283518084036027018152604790930193849052825189959190911693633b7bfda09392909182918401908083835b602083106121685780518252601f199092019160209182019101612149565b51815160209384036101000a60001901801990921691161790526040805192909401829003822063ffffffff881660e060020a0283526004830152925160248083019650939450929083900301905081600087803b1580156121c957600080fd5b505af11580156121dd573d6000803e3d6000fd5b505050506040513d60208110156121f357600080fd5b50511561224a576040805160e560020a62461bcd02815260206004820152601360248201527f43726f776473616c652066696e616c697a656400000000000000000000000000604482015290519081900360640190fd5b60005460408051600080516020614a73833981519152602080830191909152600160a060020a03898116606060020a02602d8401528351808403602101815260419093019384905282519416936304f49a3a93918291908401908083835b602083106122c75780518252601f1990920191602091820191016122a8565b51815160209384036101000a60001901801990921691161790526040805192909401829003822063ffffffff881660e060020a0283526004830152925160248083019650939450929083900301905081600087803b15801561232857600080fd5b505af115801561233c573d6000803e3d6000fd5b505050506040513d602081101561235257600080fd5b5051600160a060020a0316331461236857600080fd5b60005460408051600080516020614ab3833981519152602080830191909152600160a060020a03898116606060020a02603284015283518084036026018152604690930193849052825194169363e2a4853a93918291908401908083835b602083106123e55780518252601f1990920191602091820191016123c6565b5181516020939093036101000a60001901801990911692169190911790526040805191909301819003812063ffffffff871660e060020a028252600482015260016024820152915160448084019550600094509092839003019050818387803b15801561245157600080fd5b505af1158015612465573d6000803e3d6000fd5b5050505061247285613788565b50505050919050565b600054604080517f6f776e6572000000000000000000000000000000000000000000000000000000602080830191909152606060020a33026025830152825160198184030181526039909201928390528151600160a060020a0390941693633b7bfda093918291908401908083835b602083106125095780518252601f1990920191602091820191016124ea565b51815160209384036101000a60001901801990921691161790526040805192909401829003822063ffffffff881660e060020a0283526004830152925160248083019650939450929083900301905081600087803b15801561256a57600080fd5b505af115801561257e573d6000803e3d6000fd5b505050506040513d602081101561259457600080fd5b505115156125ec576040805160e560020a62461bcd02815260206004820152600960248201527f4e6f74206f776e65720000000000000000000000000000000000000000000000604482015290519081900360640190fd5b600154604080517f42b425aa000000000000000000000000000000000000000000000000000000008152306024820181905233604483015231606482015260006084820181905260a06004830152601860a48301527f43726f776473616c6545524332302064657374726f796564000000000000000060c48301529151600160a060020a03909316926342b425aa9260e48084019391929182900301818387803b15801561269957600080fd5b505af11580156126ad573d6000803e3d6000fd5b503392505050ff5b600080600080600080600160a060020a03166000809054906101000a9004600160a060020a0316600160a060020a03166304f49a3a8a6040516020018080600080516020614a73833981519152815250600d0182600160a060020a0316600160a060020a0316606060020a0281526014019150506040516020818303038152906040526040518082805190602001908083835b602083106127675780518252601f199092019160209182019101612748565b51815160209384036101000a60001901801990921691161790526040805192909401829003822063ffffffff881660e060020a0283526004830152925160248083019650939450929083900301905081600087803b1580156127c857600080fd5b505af11580156127dc573d6000803e3d6000fd5b505050506040513d60208110156127f257600080fd5b5051600160a060020a03161415612853576040805160e560020a62461bcd02815260206004820152600d60248201527f496e76616c696420617373657400000000000000000000000000000000000000604482015290519081900360640190fd5b60005460408051600080516020614ab3833981519152602080830191909152600160a060020a038c8116606060020a02603284015283518084036026018152604690930193849052825194169363a855d4ce93918291908401908083835b602083106128d05780518252601f1990920191602091820191016128b1565b51815160209384036101000a60001901801990921691161790526040805192909401829003822063ffffffff881660e060020a0283526004830152925160248083019650939450929083900301905081600087803b15801561293157600080fd5b505af1158015612945573d6000803e3d6000fd5b505050506040513d602081101561295b57600080fd5b50514211156129b4576040805160e560020a62461bcd02815260206004820152600d60248201527f5061737420646561646c696e6500000000000000000000000000000000000000604482015290519081900360640190fd5b60005460408051600080516020614a53833981519152602080830191909152600160a060020a038c8116606060020a026033840152835180840360270181526047909301938490528251941693633b7bfda093918291908401908083835b60208310612a315780518252601f199092019160209182019101612a12565b51815160209384036101000a60001901801990921691161790526040805192909401829003822063ffffffff881660e060020a0283526004830152925160248083019650939450929083900301905081600087803b158015612a9257600080fd5b505af1158015612aa6573d6000803e3d6000fd5b505050506040513d6020811015612abc57600080fd5b505115612b13576040805160e560020a62461bcd02815260206004820152601360248201527f43726f776473616c652066696e616c697a656400000000000000000000000000604482015290519081900360640190fd5b600160a060020a03861673eeeeeeeeeeeeeeeeeeeeeeeeeeeeeeeeeeeeeeee1415612b9457348714612b8f576040805160e560020a62461bcd02815260206004820152601f60248201527f4d73672e76616c756520646f6573206e6f74206d6174636820616d6f756e7400604482015290519081900360640190fd5b612bea565b3415612bea576040805160e560020a62461bcd02815260206004820152601b60248201527f4d73672e76616c75652073686f756c6420657175616c207a65726f0000000000604482015290519081900360640190fd5b87600160a060020a0316634ece90a86040518163ffffffff1660e060020a028152600401602060405180830381600087803b158015612c2857600080fd5b505af1158015612c3c573d6000803e3d6000fd5b505050506040513d6020811015612c5257600080fd5b5051600054604080517f63726f776473616c652e72656d61696e696e6700000000000000000000000000602080830191909152600160a060020a038d8116606060020a0260338401528351808403602701815260479093019384905282519599509093169363a855d4ce939192918291908401908083835b60208310612ce95780518252601f199092019160209182019101612cca565b51815160209384036101000a60001901801990921691161790526040805192909401829003822063ffffffff881660e060020a0283526004830152925160248083019650939450929083900301905081600087803b158015612d4a57600080fd5b505af1158015612d5e573d6000803e3d6000fd5b505050506040513d6020811015612d7457600080fd5b50519250600160a060020a038681169085161415612d9f57612d9833888587614146565b9150612daf565b612dac33888689876142a6565b91505b60008211612dbc57600080fd5b828210156131cb5760005460408051600080516020614a938339815191526020808301919091528251808303600c018152602c909201928390528151612ef494612ed794600160a060020a039091169363a855d4ce93909282918401908083835b60208310612e3c5780518252601f199092019160209182019101612e1d565b51815160209384036101000a60001901801990921691161790526040805192909401829003822063ffffffff881660e060020a0283526004830152925160248083019650939450929083900301905081600087803b158015612e9d57600080fd5b505af1158015612eb1573d6000803e3d6000fd5b505050506040513d6020811015612ec757600080fd5b505160649063ffffffff61412c16565b612ee884606463ffffffff614a0016565b9063ffffffff614a2b16565b600054604080517f63726f776473616c652e72656d61696e696e6700000000000000000000000000602080830191909152600160a060020a038d8116606060020a0260338401528351808403602701815260479093019384905282519596509093169363e2a4853a939192918291908401908083835b60208310612f895780518252601f199092019160209182019101612f6a565b6001836020036101000a0380198251168184511680821785525050505050509050019150506040518091039020612fc98587614a4090919063ffffffff16565b6040518363ffffffff1660e060020a02815260040180836000191660001916815260200182815260200192505050600060405180830381600087803b15801561301157600080fd5b505af1158015613025573d6000803e3d6000fd5b5050600254604080517fd5895a3c000000000000000000000000000000000000000000000000000000008152600160a060020a038d8116600483015233602483015260448201879052915191909216935063d5895a3c925060648083019260209291908290030181600087803b15801561309e57600080fd5b505af11580156130b2573d6000803e3d6000fd5b505050506040513d60208110156130c857600080fd5b50511515613120576040805160e560020a62461bcd02815260206004820152601760248201527f496e766573746f72206d696e74696e67206661696c6564000000000000000000604482015290519081900360640190fd5b600354604080517fa9059cbb000000000000000000000000000000000000000000000000000000008152600160a060020a0392831660048201526024810185905290519186169163a9059cbb916044808201926020929091908290030181600087803b15801561318f57600080fd5b505af11580156131a3573d6000803e3d6000fd5b505050506040513d60208110156131b957600080fd5b505115156131c657600080fd5b6136b4565b60005460408051600080516020614a938339815191526020808301919091528251808303600c018152602c9092019283905281516132539461324294600160a060020a039091169363a855d4ce939092829184019080838360208310612e3c5780518252601f199092019160209182019101612e1d565b612ee885606463ffffffff614a0016565b60005460408051600080516020614a53833981519152602080830191909152600160a060020a038d8116606060020a0260338401528351808403602701815260479093019384905282519596509093169363abfdcced939192918291908401908083835b602083106132d65780518252601f1990920191602091820191016132b7565b5181516020939093036101000a60001901801990911692169190911790526040805191909301819003812063ffffffff871660e060020a028252600482015260016024820152915160448084019550600094509092839003019050818387803b15801561334257600080fd5b505af1158015613356573d6000803e3d6000fd5b5050600054604080517f63726f776473616c652e72656d61696e696e6700000000000000000000000000602080830191909152600160a060020a038e8116606060020a0260338401528351808403602701815260479093019384905282519416955063e2b202bf9450909282918401908083835b602083106133e95780518252601f1990920191602091820191016133ca565b5181516020939093036101000a60001901801990911692169190911790526040805191909301819003812063ffffffff871660e060020a0282526004820152915160248084019550600094509092839003019050818387803b15801561344e57600080fd5b505af1158015613462573d6000803e3d6000fd5b5050600254604080517fd5895a3c000000000000000000000000000000000000000000000000000000008152600160a060020a038d8116600483015233602483015260448201879052915191909216935063d5895a3c925060648083019260209291908290030181600087803b1580156134db57600080fd5b505af11580156134ef573d6000803e3d6000fd5b505050506040513d602081101561350557600080fd5b5051151561355d576040805160e560020a62461bcd02815260206004820152601760248201527f496e766573746f72206d696e74696e67206661696c6564000000000000000000604482015290519081900360640190fd5b600354604080517fa9059cbb000000000000000000000000000000000000000000000000000000008152600160a060020a0392831660048201526024810186905290519186169163a9059cbb916044808201926020929091908290030181600087803b1580156135cc57600080fd5b505af11580156135e0573d6000803e3d6000fd5b505050506040513d60208110156135f657600080fd5b5051151561360357600080fd5b828211156136b457600160a060020a03841663a9059cbb3361362b858763ffffffff614a4016565b6040518363ffffffff1660e060020a0281526004018083600160a060020a0316600160a060020a0316815260200182815260200192505050602060405180830381600087803b15801561367d57600080fd5b505af1158015613691573d6000803e3d6000fd5b505050506040513d60208110156136a757600080fd5b505115156136b457600080fd5b600154604080517f42b425aa00000000000000000000000000000000000000000000000000000000815230602482015233604482015260648101849052600160a060020a038b8116608483015260a06004830152600f60a48301527f417373657420707572636861736564000000000000000000000000000000000060c4830152915191909216916342b425aa9160e480830192600092919082900301818387803b15801561376257600080fd5b505af1158015613776573d6000803e3d6000fd5b5060019b9a5050505050505050505050565b60008054604080517f7061757365640000000000000000000000000000000000000000000000000000602080830191909152606060020a300260268301528251601a818403018152603a909201928390528151859485948594600160a060020a0390921693633b7bfda09382918401908083835b6020831061381b5780518252601f1990920191602091820191016137fc565b51815160209384036101000a60001901801990921691161790526040805192909401829003822063ffffffff881660e060020a0283526004830152925160248083019650939450929083900301905081600087803b15801561387c57600080fd5b505af1158015613890573d6000803e3d6000fd5b505050506040513d60208110156138a657600080fd5b5051156138b257600080fd5b6000805460408051600080516020614a73833981519152602080830191909152600160a060020a038a8116606060020a02602d8401528351808403602101815260419093019384905282518b969591909116936304f49a3a9392909182918401908083835b602083106139365780518252601f199092019160209182019101613917565b51815160209384036101000a60001901801990921691161790526040805192909401829003822063ffffffff881660e060020a0283526004830152925160248083019650939450929083900301905081600087803b15801561399757600080fd5b505af11580156139ab573d6000803e3d6000fd5b505050506040513d60208110156139c157600080fd5b5051600160a060020a03161415613a22576040805160e560020a62461bcd02815260206004820152600d60248201527f496e76616c696420617373657400000000000000000000000000000000000000604482015290519081900360640190fd5b60005460408051600080516020614ab3833981519152602080830191909152600160a060020a038a8116606060020a0260328401528351808403602601815260469093019384905282518b95919091169363a855d4ce9392909182918401908083835b60208310613aa45780518252601f199092019160209182019101613a85565b51815160209384036101000a60001901801990921691161790526040805192909401829003822063ffffffff881660e060020a0283526004830152925160248083019650939450929083900301905081600087803b158015613b0557600080fd5b505af1158015613b19573d6000803e3d6000fd5b505050506040513d6020811015613b2f57600080fd5b50514211613b87576040805160e560020a62461bcd02815260206004820152600f60248201527f4265666f726520646561646c696e650000000000000000000000000000000000604482015290519081900360640190fd5b60005460408051600080516020614a53833981519152602080830191909152600160a060020a038b8116606060020a0260338401528351808403602701815260479093019384905282518c959190911693633b7bfda09392909182918401908083835b60208310613c095780518252601f199092019160209182019101613bea565b51815160209384036101000a60001901801990921691161790526040805192909401829003822063ffffffff881660e060020a0283526004830152925160248083019650939450929083900301905081600087803b158015613c6a57600080fd5b505af1158015613c7e573d6000803e3d6000fd5b505050506040513d6020811015613c9457600080fd5b505115613ceb576040805160e560020a62461bcd02815260206004820152601360248201527f43726f776473616c652066696e616c697a656400000000000000000000000000604482015290519081900360640190fd5b60005460408051600080516020614ab3833981519152602080830191909152600160a060020a038c8116606060020a02603284015283518084036026018152604690930193849052825194169363a855d4ce93918291908401908083835b60208310613d685780518252601f199092019160209182019101613d49565b51815160209384036101000a60001901801990921691161790526040805192909401829003822063ffffffff881660e060020a0283526004830152925160248083019650939450929083900301905081600087803b158015613dc957600080fd5b505af1158015613ddd573d6000803e3d6000fd5b505050506040513d6020811015613df357600080fd5b50511515613e0057600080fd5b60005460408051600080516020614ab3833981519152602080830191909152600160a060020a038c8116606060020a02603284015283518084036026018152604690930193849052825194169363e2b202bf93918291908401908083835b60208310613e7d5780518252601f199092019160209182019101613e5e565b5181516020939093036101000a60001901801990911692169190911790526040805191909301819003812063ffffffff871660e060020a0282526004820152915160248084019550600094509092839003019050818387803b158015613ee257600080fd5b505af1158015613ef6573d6000803e3d6000fd5b5050505087955085600160a060020a0316634ece90a86040518163ffffffff1660e060020a028152600401602060405180830381600087803b158015613f3b57600080fd5b505af1158015613f4f573d6000803e3d6000fd5b505050506040513d6020811015613f6557600080fd5b505160005460408051600080516020614a938339815191526020828101919091528251808303600c018152602c90920192839052815194995061405c94606494612ee894613fe694600160a060020a039092169363a855d4ce93829184019080838360208310612e3c5780518252601f199092019160209182019101612e1d565b89600160a060020a03166318160ddd6040518163ffffffff1660e060020a028152600401602060405180830381600087803b15801561402457600080fd5b505af1158015614038573d6000803e3d6000fd5b505050506040513d602081101561404e57600080fd5b50519063ffffffff614a0016565b600354604080517fdeca3ea9000000000000000000000000000000000000000000000000000000008152600160a060020a038c81166004830152602482018590528981166044830152915193975091169163deca3ea9916064808201926020929091908290030181600087803b1580156140d557600080fd5b505af11580156140e9573d6000803e3d6000fd5b505050506040513d60208110156140ff57600080fd5b5060019998505050505050505050565b600061412561411e8484614a00565b6064614a2b565b9392505050565b60008282018381101561413b57fe5b8091505b5092915050565b6000828411156141f757604080517f23b872dd000000000000000000000000000000000000000000000000000000008152600160a060020a038781166004830152306024830152604482018690529151918416916323b872dd916064808201926020929091908290030181600087803b1580156141c257600080fd5b505af11580156141d6573d6000803e3d6000fd5b505050506040513d60208110156141ec57600080fd5b5083915061429e9050565b604080517f23b872dd000000000000000000000000000000000000000000000000000000008152600160a060020a038781166004830152306024830152604482018790529151918416916323b872dd916064808201926020929091908290030181600087803b15801561426957600080fd5b505af115801561427d573d6000803e3d6000fd5b505050506040513d602081101561429357600080fd5b5084915061429e9050565b949350505050565b600080808080600160a060020a03871673eeeeeeeeeeeeeeeeeeeeeeeeeeeeeeeeeeeeeeee1415614516576040805160e060020a6370a082310281523060048201819052915191319550600160a060020a038a16916370a08231916024808201926020929091908290030181600087803b15801561432357600080fd5b505af1158015614337573d6000803e3d6000fd5b505050506040513d602081101561434d57600080fd5b505160048054604080517fcb3c28c7000000000000000000000000000000000000000000000000000000008152600160a060020a038c811694820194909452602481018e90528c84166044820152306064820152608481018b9052600060a4820181905260c4820152905193965091169163cb3c28c7918c9160e480830192602092919082900301818588803b1580156143e657600080fd5b505af11580156143fa573d6000803e3d6000fd5b50505050506040513d602081101561441157600080fd5b50614435905061442885303163ffffffff614a4016565b8a9063ffffffff614a4016565b91506144ce8389600160a060020a03166370a08231306040518263ffffffff1660e060020a0281526004018082600160a060020a0316600160a060020a03168152602001915050602060405180830381600087803b15801561449657600080fd5b505af11580156144aa573d6000803e3d6000fd5b505050506040513d60208110156144c057600080fd5b50519063ffffffff614a4016565b9050600082111561451157604051600160a060020a038b169083156108fc029084906000818181858888f1935050505015801561450f573d6000803e3d6000fd5b505b6149aa565b6145228a8a8b8a614146565b5060048054604080517f095ea7b3000000000000000000000000000000000000000000000000000000008152600160a060020a03928316938101939093526000602484018190529051918a169263095ea7b39260448083019360209383900390910190829087803b15801561459657600080fd5b505af11580156145aa573d6000803e3d6000fd5b505050506040513d60208110156145c057600080fd5b505115156145cd57600080fd5b60048054604080517f095ea7b3000000000000000000000000000000000000000000000000000000008152600160a060020a0392831693810193909352602483018c9052519089169163095ea7b39160448083019260209291908290030181600087803b15801561463d57600080fd5b505af1158015614651573d6000803e3d6000fd5b505050506040513d602081101561466757600080fd5b50506040805160e060020a6370a082310281523060048201529051600160a060020a038916916370a082319160248083019260209291908290030181600087803b1580156146b457600080fd5b505af11580156146c8573d6000803e3d6000fd5b505050506040513d60208110156146de57600080fd5b50516040805160e060020a6370a082310281523060048201529051919550600160a060020a038a16916370a08231916024808201926020929091908290030181600087803b15801561472f57600080fd5b505af1158015614743573d6000803e3d6000fd5b505050506040513d602081101561475957600080fd5b505160048054604080517fcb3c28c7000000000000000000000000000000000000000000000000000000008152600160a060020a038c811694820194909452602481018e90528c84166044820152306064820152608481018b9052600060a4820181905260c482018190529151949750929091169263cb3c28c79260e4808201936020939283900390910190829087803b1580156147f657600080fd5b505af115801561480a573d6000803e3d6000fd5b505050506040513d602081101561482057600080fd5b50506040805160e060020a6370a0823102815230600482015290516148ae9161442891600160a060020a038b16916370a082319160248083019260209291908290030181600087803b15801561487557600080fd5b505af1158015614889573d6000803e3d6000fd5b505050506040513d602081101561489f57600080fd5b5051869063ffffffff614a4016565b915061490f8389600160a060020a03166370a08231306040518263ffffffff1660e060020a0281526004018082600160a060020a0316600160a060020a03168152602001915050602060405180830381600087803b15801561449657600080fd5b905060008211156149aa5786600160a060020a031663a9059cbb8b846040518363ffffffff1660e060020a0281526004018083600160a060020a0316600160a060020a0316815260200182815260200192505050602060405180830381600087803b15801561497d57600080fd5b505af1158015614991573d6000803e3d6000fd5b505050506040513d60208110156149a757600080fd5b50505b60408051600160a060020a03891681526020810184905280820183905290517f9018eade4aec2a696b34b0f5459a1a7dc058389bab8e2380d880817a9e22b2139181900360600190a19998505050505050505050565b600080831515614a13576000915061413f565b50828202828482811515614a2357fe5b041461413b57fe5b60008183811515614a3857fe5b049392505050565b600082821115614a4c57fe5b50900390560063726f776473616c652e66696e616c697a65640000000000000000000000000061737365742e6d616e6167657200000000000000000000000000000000000000706c6174666f726d2e666565000000000000000000000000000000000000000063726f776473616c652e646561646c696e650000000000000000000000000000a165627a7a72305820c69930171435fbc85dd4b26f4e48e499ebd84ee73f1392317c45c2dce920d0b60029",
  "source": "pragma solidity ^0.4.24;\n\nimport \"../math/SafeMath.sol\";\nimport \"../interfaces/ERC20.sol\";\nimport \"../interfaces/DividendInterface.sol\";\nimport \"../interfaces/KyberInterface.sol\";\nimport \"../interfaces/MinterInterface.sol\";\nimport \"../interfaces/CrowdsaleReserveInterface.sol\";\n\ninterface Events {  function transaction(string _message, address _from, address _to, uint _amount, address _token)  external; }\ninterface DB {\n  function addressStorage(bytes32 _key) external view returns (address);\n  function uintStorage(bytes32 _key) external view returns (uint);\n  function setUint(bytes32 _key, uint _value) external;\n  function deleteUint(bytes32 _key) external;\n  function setBool(bytes32 _key, bool _value) external;\n  function boolStorage(bytes32 _key) external view returns (bool);\n}\n\n// @title An asset crowdsale contract which accepts funding from ERC20 tokens.\n// @notice Begins a crowdfunding period for a digital asset, minting asset dividend tokens to investors when particular ERC20 token is received\n// @author Kyle Dewhurst, MyBit Foundation\n// @notice creates a dividend token to represent the newly created asset.\ncontract CrowdsaleERC20{\n  using SafeMath for uint256;\n\n  DB private database;\n  Events private events;\n  MinterInterface private minter;\n  CrowdsaleReserveInterface private reserve;\n  KyberInterface private kyber;\n\n  // @notice Constructor: initializes database instance\n  // @param: The address for the platform database\n  constructor(address _database, address _events, address _kyber)\n  public{\n      database = DB(_database);\n      events = Events(_events);\n      minter = MinterInterface(database.addressStorage(keccak256(abi.encodePacked(\"contract\", \"Minter\"))));\n      reserve = CrowdsaleReserveInterface(database.addressStorage(keccak256(abi.encodePacked(\"contract\", \"CrowdsaleReserve\"))));\n      kyber = KyberInterface(_kyber);\n  }\n\n  // @notice Investors can send ERC20 tokens here to fund an asset, receiving an equivalent number of asset-tokens.\n  // @dev investor must approve this contract to transfer tokens\n  // @param (address) _assetAddress = The address of the asset tokens, investor wishes to purchase\n  // @param (uint) _amount = The amount to spend purchasing this asset\n  function buyAssetOrderERC20(address _assetAddress, uint _amount, address _paymentToken)\n  external\n  payable\n  returns (bool) {\n    require(database.addressStorage(keccak256(abi.encodePacked(\"asset.manager\", _assetAddress))) != address(0), \"Invalid asset\");\n    require(now <= database.uintStorage(keccak256(abi.encodePacked(\"crowdsale.deadline\", _assetAddress))), \"Past deadline\");\n    require(!database.boolStorage(keccak256(abi.encodePacked(\"crowdsale.finalized\", _assetAddress))), \"Crowdsale finalized\");\n\n    if(_paymentToken == address(0xEeeeeEeeeEeEeeEeEeEeeEEEeeeeEeeeeeeeEEeE)){\n      require(msg.value == _amount, 'Msg.value does not match amount');\n    } else {\n      require(msg.value == 0, 'Msg.value should equal zero');\n    }\n    ERC20 fundingToken = ERC20(DividendInterface(_assetAddress).getERC20());\n    uint fundingRemaining = database.uintStorage(keccak256(abi.encodePacked(\"crowdsale.remaining\", _assetAddress)));\n    uint collected; //This will be the value received by the contract after any conversions\n    uint amount; //The number of tokens that will be minted\n    //Check if the payment token is the same as the funding token. If not, convert, else just collect the funds\n    if(_paymentToken == address(fundingToken)){\n      collected = collectPayment(msg.sender, _amount, fundingRemaining, fundingToken);\n    } else {\n      collected = convertTokens(msg.sender, _amount, fundingToken, ERC20(_paymentToken), fundingRemaining);\n    }\n    require(collected > 0);\n    if(collected < fundingRemaining){\n      amount = collected.mul(100).div(uint(100).add(database.uintStorage(keccak256(abi.encodePacked(\"platform.fee\")))));\n      database.setUint(keccak256(abi.encodePacked(\"crowdsale.remaining\", _assetAddress)), fundingRemaining.sub(collected));\n      require(minter.mintAssetTokens(_assetAddress, msg.sender, amount), \"Investor minting failed\");\n      require(fundingToken.transfer(address(reserve), collected));\n    } else {\n      amount = fundingRemaining.mul(100).div(uint(100).add(database.uintStorage(keccak256(abi.encodePacked(\"platform.fee\")))));\n      database.setBool(keccak256(abi.encodePacked(\"crowdsale.finalized\", _assetAddress)), true);\n      database.deleteUint(keccak256(abi.encodePacked(\"crowdsale.remaining\", _assetAddress)));\n      require(minter.mintAssetTokens(_assetAddress, msg.sender, amount), \"Investor minting failed\");   // Send remaining asset tokens to investor\n      require(fundingToken.transfer(address(reserve), fundingRemaining));\n      if(collected > fundingRemaining){\n        require(fundingToken.transfer(msg.sender, collected.sub(fundingRemaining)));    // return extra funds\n      }\n    }\n    events.transaction('Asset purchased', address(this), msg.sender, amount, _assetAddress);\n    return true;\n  }\n\n  // @notice This is called once funding has succeeded. Sends Ether to a distribution contract where operator/assetManager can withdraw\n  // @dev The contract manager needs to know  the address PlatformDistribution contract\n  function payoutERC20(address _assetAddress)\n  external\n  whenNotPaused\n  returns (bool) {\n    require(database.boolStorage(keccak256(abi.encodePacked(\"crowdsale.finalized\", _assetAddress))), \"Crowdsale not finalized\");\n    require(!database.boolStorage(keccak256(abi.encodePacked(\"crowdsale.paid\", _assetAddress))), \"Crowdsale has paid out\");\n    //Set paid to true\n    database.setBool(keccak256(abi.encodePacked(\"crowdsale.paid\", _assetAddress)), true);\n    //Setup token\n    address fundingToken = DividendInterface(_assetAddress).getERC20();\n    //Mint tokens for the asset manager and platform\n    address platformAssetsWallet = database.addressStorage(keccak256(abi.encodePacked(\"platform.wallet.assets\")));\n    require(platformAssetsWallet != address(0), \"Platform assets wallet not set\");\n    require(minter.mintAssetTokens(_assetAddress, database.addressStorage(keccak256(abi.encodePacked(\"contract\", \"AssetManagerFunds\"))), database.uintStorage(keccak256(abi.encodePacked(\"asset.managerTokens\", _assetAddress)))), \"Manager minting failed\");\n    require(minter.mintAssetTokens(_assetAddress, platformAssetsWallet, database.uintStorage(keccak256(abi.encodePacked(\"asset.platformTokens\", _assetAddress)))), \"Platform minting failed\");\n    //Get the addresses for the receiver and platform\n    address receiver = database.addressStorage(keccak256(abi.encodePacked(\"asset.manager\", _assetAddress)));\n    address platformFundsWallet = database.addressStorage(keccak256(abi.encodePacked(\"platform.wallet.funds\")));\n    require(receiver != address(0) && platformFundsWallet != address(0), \"Platform funds walllet or receiver address not set\");\n    //Calculate amounts for platform and receiver\n    uint amount = database.uintStorage(keccak256(abi.encodePacked(\"crowdsale.goal\", _assetAddress)));\n    uint platformFee = amount.getFractionalAmount(database.uintStorage(keccak256(abi.encodePacked(\"platform.fee\"))));\n    //Transfer funds to receiver and platform\n    require(reserve.issueERC20(platformFundsWallet, platformFee, fundingToken), 'Platform funds not paid');\n    require(reserve.issueERC20(receiver, amount, fundingToken), 'Receiver funds not paid');\n    //Delete crowdsale start time\n    database.deleteUint(keccak256(abi.encodePacked(\"crowdsale.start\", _assetAddress)));\n    //Increase asset count for manager\n    address manager = database.addressStorage(keccak256(abi.encodePacked(\"asset.manager\", _assetAddress)));\n    database.setUint(keccak256(abi.encodePacked(\"manager.assets\", manager)), database.uintStorage(keccak256(abi.encodePacked(\"manager.assets\", manager))).add(1));\n    //Emit event\n    events.transaction('Asset payout', _assetAddress, receiver, amount, fundingToken);\n    return true;\n  }\n\n  function cancel(address _assetAddress)\n  external\n  whenNotPaused\n  validAsset(_assetAddress)\n  beforeDeadline(_assetAddress)\n  notFinalized(_assetAddress)\n  returns (bool){\n    require(msg.sender == database.addressStorage(keccak256(abi.encodePacked(\"asset.manager\", _assetAddress))));\n    database.setUint(keccak256(abi.encodePacked(\"crowdsale.deadline\", _assetAddress)), 1);\n    refund(_assetAddress);\n  }\n\n  // @notice Contributors can retrieve their funds here if crowdsale has paased deadline\n  // @param (address) _assetAddress =  The address of the asset which didn't reach it's crowdfunding goals\n  function refund(address _assetAddress)\n  public\n  whenNotPaused\n  validAsset(_assetAddress)\n  afterDeadline(_assetAddress)\n  notFinalized(_assetAddress)\n  returns (bool) {\n    require(database.uintStorage(keccak256(abi.encodePacked(\"crowdsale.deadline\", _assetAddress))) != 0);\n    database.deleteUint(keccak256(abi.encodePacked(\"crowdsale.deadline\", _assetAddress)));\n    DividendInterface assetToken = DividendInterface(_assetAddress);\n    address tokenAddress = assetToken.getERC20();\n    uint refundValue = assetToken.totalSupply().mul(uint(100).add(database.uintStorage(keccak256(abi.encodePacked(\"platform.fee\"))))).div(100); //total supply plus platform fees\n    reserve.refundERC20Asset(_assetAddress, refundValue, tokenAddress);\n    return true;\n  }\n\n  //------------------------------------------------------------------------------------------------------------------\n  //                                            Internal Functions\n  //------------------------------------------------------------------------------------------------------------------\n\n  function collectPayment(address user, uint amount, uint max, ERC20 token)\n  private\n  returns (uint){\n    if(amount > max){\n      token.transferFrom(user, address(this), max);\n      return max;\n    } else {\n      token.transferFrom(user, address(this), amount);\n      return amount;\n    }\n  }\n\n  /*\n  function fundBurn(address _investor, uint _amount, bytes4 _sig, ERC20 _burnToken)\n  private\n  returns (uint) {\n    require(_burnToken.transferFrom(_investor, address(this), _amount), \"Transfer failed\"); // transfer investors tokens into contract\n    uint balanceBefore = _burnToken.balanceOf(this);\n    require(burner.burn(address(this), database.uintStorage(keccak256(abi.encodePacked(_sig, address(this)))), address(_burnToken)));\n    uint change = _burnToken.balanceOf(this) - balanceBefore;\n    return change;\n  }\n  */\n\n  function convertTokens(address _investor, uint _amount, /*bytes4 _sig,*/ ERC20 _fundingToken, ERC20 _paymentToken, uint _maxTokens)\n  private\n  returns (uint) {\n    //( , uint minRate) = kyber.getExpectedRate(address(_paymentToken), address(_fundingToken), 0);\n    uint paymentBalanceBefore;\n    uint fundingBalanceBefore;\n    uint change;\n    uint investment;\n    if(address(_paymentToken) == address(0xEeeeeEeeeEeEeeEeEeEeeEEEeeeeEeeeeeeeEEeE)){\n      paymentBalanceBefore = address(this).balance;\n      fundingBalanceBefore = _fundingToken.balanceOf(this);\n      //Convert remaining funds into the funding token\n      kyber.trade.value(_amount)(address(_paymentToken), _amount, address(_fundingToken), address(this), _maxTokens, 0, 0);\n      change = _amount.sub(paymentBalanceBefore.sub(address(this).balance));\n      investment = _fundingToken.balanceOf(this).sub(fundingBalanceBefore);\n      if(change > 0){\n        _investor.transfer(change);\n      }\n    } else {\n      //Collect funds\n      collectPayment(_investor, _amount, _amount, _paymentToken);\n      // Mitigate ERC20 Approve front-running attack, by initially setting\n      // allowance to 0\n      require(_paymentToken.approve(address(kyber), 0));\n      // Approve tokens so network can take them during the swap\n      _paymentToken.approve(address(kyber), _amount);\n      paymentBalanceBefore = _paymentToken.balanceOf(this);\n      fundingBalanceBefore = _fundingToken.balanceOf(this);\n      //Convert remaining funds into the funding token\n      kyber.trade(address(_paymentToken), _amount, address(_fundingToken), address(this), _maxTokens, 0, 0);\n      // Return any remaining source tokens to user\n      change = _amount.sub(paymentBalanceBefore.sub(_paymentToken.balanceOf(this)));\n      investment = _fundingToken.balanceOf(this).sub(fundingBalanceBefore);\n      if(change > 0){\n        _paymentToken.transfer(_investor, change);\n      }\n    }\n\n    emit Convert(address(_paymentToken), change, investment);\n    return investment;\n  }\n\n  // @notice platform owners can recover tokens here\n  function recoverTokens(address _erc20Token)\n  onlyOwner\n  external {\n    ERC20 thisToken = ERC20(_erc20Token);\n    uint contractBalance = thisToken.balanceOf(address(this));\n    thisToken.transfer(msg.sender, contractBalance);\n  }\n\n  // @notice platform owners can destroy contract here\n  function destroy()\n  onlyOwner\n  external {\n    events.transaction('CrowdsaleERC20 destroyed', address(this), msg.sender, address(this).balance, address(0));\n    //emit LogDestruction(address(this).balance, msg.sender);\n    selfdestruct(msg.sender);\n  }\n\n  // @notice fallback function. We need to receive Ether from Kyber Network\n  function ()\n  external\n  payable {\n    emit EtherReceived(msg.sender, msg.value);\n  }\n\n  //------------------------------------------------------------------------------------------------------------------\n  //                                            Modifiers\n  //------------------------------------------------------------------------------------------------------------------\n\n  // @notice Sender must be a registered owner\n  modifier onlyOwner {\n    require(database.boolStorage(keccak256(abi.encodePacked(\"owner\", msg.sender))), \"Not owner\");\n    _;\n  }\n\n  // @notice function won't run if owners have paused this contract\n  modifier whenNotPaused {\n    require(!database.boolStorage(keccak256(abi.encodePacked(\"paused\", address(this)))));\n    _;\n  }\n\n  // @notice reverts if the asset does not have a token address set in the database\n  modifier validAsset(address _assetAddress) {\n    require(database.addressStorage(keccak256(abi.encodePacked(\"asset.manager\", _assetAddress))) != address(0), \"Invalid asset\");\n    _;\n  }\n\n  // @notice reverts if the funding deadline has not passed\n  modifier beforeDeadline(address _assetAddress) {\n    require(now < database.uintStorage(keccak256(abi.encodePacked(\"crowdsale.deadline\", _assetAddress))), \"Before deadline\");\n    _;\n  }\n\n  // @notice reverts if the funding deadline has already past or crowsale has not started\n  modifier betweenDeadlines(address _assetAddress) {\n    require(now <= database.uintStorage(keccak256(abi.encodePacked(\"crowdsale.deadline\", _assetAddress))), \"Past deadline\");\n    require(now >= database.uintStorage(keccak256(abi.encodePacked(\"crowdsale.start\", _assetAddress))), \"Before start time\");\n    _;\n  }\n\n  // @notice reverts if the funding deadline has already past\n  modifier afterDeadline(address _assetAddress) {\n    require(now > database.uintStorage(keccak256(abi.encodePacked(\"crowdsale.deadline\", _assetAddress))), \"Before deadline\");\n    _;\n  }\n\n  // @notice returns true if crowdsale is finshed\n  modifier finalized(address _assetAddress) {\n    require(database.boolStorage(keccak256(abi.encodePacked(\"crowdsale.finalized\", _assetAddress))), \"Crowdsale not finalized\");\n    _;\n  }\n\n  // @notice returns true if crowdsale is not finshed\n  modifier notFinalized(address _assetAddress) {\n    require(!database.boolStorage(keccak256(abi.encodePacked(\"crowdsale.finalized\", _assetAddress))), \"Crowdsale finalized\");\n    _;\n  }\n\n  // @notice returns true if crowdsale has not paid out\n  modifier notPaid(address _assetAddress) {\n    require(!database.boolStorage(keccak256(abi.encodePacked(\"crowdsale.paid\", _assetAddress))), \"Crowdsale has paid out\");\n    _;\n  }\n\n  event Convert(address token, uint change, uint investment);\n  event EtherReceived(address sender, uint amount);\n}\n",
  "sourcePath": "/home/iamonuwa/Projects/MyBitFoundation/MyBit-Network.tech/contracts/crowdsale/CrowdsaleERC20.sol",
  "compiler": {
    "name": "solc",
    "version": "0.4.24+commit.e67f0147.Emscripten.clang"
  },
  "schemaVersion": "3.0.9",
  "updatedAt": "2020-07-27T21:29:53.230Z",
  "devdoc": {
    "methods": {}
  },
  "userdoc": {
    "methods": {}
  }
}