{
  "contractName": "Database",
  "abi": [
    {
      "constant": true,
      "inputs": [
        {
          "name": "",
          "type": "bytes32"
        }
      ],
      "name": "bytes32Storage",
      "outputs": [
        {
          "name": "",
          "type": "bytes32"
        }
      ],
      "payable": false,
      "stateMutability": "view",
      "type": "function"
    },
    {
      "constant": true,
      "inputs": [
        {
          "name": "",
          "type": "bytes32"
        }
      ],
      "name": "addressStorage",
      "outputs": [
        {
          "name": "",
          "type": "address"
        }
      ],
      "payable": false,
      "stateMutability": "view",
      "type": "function"
    },
    {
      "constant": true,
      "inputs": [
        {
          "name": "",
          "type": "bytes32"
        }
      ],
      "name": "stringStorage",
      "outputs": [
        {
          "name": "",
          "type": "string"
        }
      ],
      "payable": false,
      "stateMutability": "view",
      "type": "function"
    },
    {
      "constant": true,
      "inputs": [
        {
          "name": "",
          "type": "bytes32"
        }
      ],
      "name": "boolStorage",
      "outputs": [
        {
          "name": "",
          "type": "bool"
        }
      ],
      "payable": false,
      "stateMutability": "view",
      "type": "function"
    },
    {
      "constant": true,
      "inputs": [
        {
          "name": "",
          "type": "bytes32"
        }
      ],
      "name": "bytesStorage",
      "outputs": [
        {
          "name": "",
          "type": "bytes"
        }
      ],
      "payable": false,
      "stateMutability": "view",
      "type": "function"
    },
    {
      "constant": true,
      "inputs": [
        {
          "name": "",
          "type": "bytes32"
        }
      ],
      "name": "intStorage",
      "outputs": [
        {
          "name": "",
          "type": "int256"
        }
      ],
      "payable": false,
      "stateMutability": "view",
      "type": "function"
    },
    {
      "constant": true,
      "inputs": [
        {
          "name": "",
          "type": "bytes32"
        }
      ],
      "name": "uintStorage",
      "outputs": [
        {
          "name": "",
          "type": "uint256"
        }
      ],
      "payable": false,
      "stateMutability": "view",
      "type": "function"
    },
    {
      "inputs": [
        {
          "name": "_owners",
          "type": "address[]"
        },
        {
          "name": "_upgradeable",
          "type": "bool"
        }
      ],
      "payable": false,
      "stateMutability": "nonpayable",
      "type": "constructor"
    },
    {
      "anonymous": false,
      "inputs": [
        {
          "indexed": false,
          "name": "_owner",
          "type": "address"
        },
        {
          "indexed": false,
          "name": "_upgradeable",
          "type": "bool"
        }
      ],
      "name": "LogInitialized",
      "type": "event"
    },
    {
      "constant": false,
      "inputs": [
        {
          "name": "_contractManager",
          "type": "address"
        }
      ],
      "name": "enableContractManagement",
      "outputs": [
        {
          "name": "",
          "type": "bool"
        }
      ],
      "payable": false,
      "stateMutability": "nonpayable",
      "type": "function"
    },
    {
      "constant": false,
      "inputs": [
        {
          "name": "_key",
          "type": "bytes32"
        },
        {
          "name": "_value",
          "type": "address"
        }
      ],
      "name": "setAddress",
      "outputs": [],
      "payable": false,
      "stateMutability": "nonpayable",
      "type": "function"
    },
    {
      "constant": false,
      "inputs": [
        {
          "name": "_key",
          "type": "bytes32"
        },
        {
          "name": "_value",
          "type": "uint256"
        }
      ],
      "name": "setUint",
      "outputs": [],
      "payable": false,
      "stateMutability": "nonpayable",
      "type": "function"
    },
    {
      "constant": false,
      "inputs": [
        {
          "name": "_key",
          "type": "bytes32"
        },
        {
          "name": "_value",
          "type": "string"
        }
      ],
      "name": "setString",
      "outputs": [],
      "payable": false,
      "stateMutability": "nonpayable",
      "type": "function"
    },
    {
      "constant": false,
      "inputs": [
        {
          "name": "_key",
          "type": "bytes32"
        },
        {
          "name": "_value",
          "type": "bytes"
        }
      ],
      "name": "setBytes",
      "outputs": [],
      "payable": false,
      "stateMutability": "nonpayable",
      "type": "function"
    },
    {
      "constant": false,
      "inputs": [
        {
          "name": "_key",
          "type": "bytes32"
        },
        {
          "name": "_value",
          "type": "bytes32"
        }
      ],
      "name": "setBytes32",
      "outputs": [],
      "payable": false,
      "stateMutability": "nonpayable",
      "type": "function"
    },
    {
      "constant": false,
      "inputs": [
        {
          "name": "_key",
          "type": "bytes32"
        },
        {
          "name": "_value",
          "type": "bool"
        }
      ],
      "name": "setBool",
      "outputs": [],
      "payable": false,
      "stateMutability": "nonpayable",
      "type": "function"
    },
    {
      "constant": false,
      "inputs": [
        {
          "name": "_key",
          "type": "bytes32"
        },
        {
          "name": "_value",
          "type": "int256"
        }
      ],
      "name": "setInt",
      "outputs": [],
      "payable": false,
      "stateMutability": "nonpayable",
      "type": "function"
    },
    {
      "constant": false,
      "inputs": [
        {
          "name": "_key",
          "type": "bytes32"
        }
      ],
      "name": "deleteAddress",
      "outputs": [],
      "payable": false,
      "stateMutability": "nonpayable",
      "type": "function"
    },
    {
      "constant": false,
      "inputs": [
        {
          "name": "_key",
          "type": "bytes32"
        }
      ],
      "name": "deleteUint",
      "outputs": [],
      "payable": false,
      "stateMutability": "nonpayable",
      "type": "function"
    },
    {
      "constant": false,
      "inputs": [
        {
          "name": "_key",
          "type": "bytes32"
        }
      ],
      "name": "deleteString",
      "outputs": [],
      "payable": false,
      "stateMutability": "nonpayable",
      "type": "function"
    },
    {
      "constant": false,
      "inputs": [
        {
          "name": "_key",
          "type": "bytes32"
        }
      ],
      "name": "deleteBytes",
      "outputs": [],
      "payable": false,
      "stateMutability": "nonpayable",
      "type": "function"
    },
    {
      "constant": false,
      "inputs": [
        {
          "name": "_key",
          "type": "bytes32"
        }
      ],
      "name": "deleteBytes32",
      "outputs": [],
      "payable": false,
      "stateMutability": "nonpayable",
      "type": "function"
    },
    {
      "constant": false,
      "inputs": [
        {
          "name": "_key",
          "type": "bytes32"
        }
      ],
      "name": "deleteBool",
      "outputs": [],
      "payable": false,
      "stateMutability": "nonpayable",
      "type": "function"
    },
    {
      "constant": false,
      "inputs": [
        {
          "name": "_key",
          "type": "bytes32"
        }
      ],
      "name": "deleteInt",
      "outputs": [],
      "payable": false,
      "stateMutability": "nonpayable",
      "type": "function"
    }
  ],
  "bytecode": "0x608060405234801561001057600080fd5b50604051620019a3380380620019a3833981016040528051602082015191019060005b825181101561023557825160009084908390811061004d57fe5b60209081029091010151600160a060020a031614156100cd57604080517f08c379a000000000000000000000000000000000000000000000000000000000815260206004820152600d60248201527f456d707479206164647265737300000000000000000000000000000000000000604482015290519081900360640190fd5b60016005600085848151811015156100e157fe5b9060200190602002015160405160200180807f6f776e657200000000000000000000000000000000000000000000000000000081525060050182600160a060020a0316600160a060020a03166c010000000000000000000000000281526014019150506040516020818303038152906040526040518082805190602001908083835b602083106101825780518252601f199092019160209182019101610163565b51815160209384036101000a60001901801990921691161790526040805192909401829003909120865285019590955292909201600020805460ff191694151594909417909355505083517fbe26aef92934d4b8ff14c2822ad9b235e7c1bbd101a447c62366b1bd99e8d19691508490839081106101fc57fe5b602090810290910181015160408051600160a060020a0390921682528515159282019290925281519081900390910190a1600101610033565b811561028457604080517f7570677261646561626c650000000000000000000000000000000000000000008152815190819003600b0190206000908152600560205220805460ff191660011790555b50505061170c80620002976000396000f3006080604052600436106101275763ffffffff7c0100000000000000000000000000000000000000000000000000000000600035041663031578af811461012c57806304f49a3a146101565780630b9adc571461018a5780630e14a376146101a4578063196ce79f146101bc5780632c62ff2d146101f15780632e28d0841461020957806335f7ff631461022d5780633b7bfda0146102ba5780633e49bed0146102d25780634a3270d7146102ed5780634e91db0814610305578063616b59f6146103205780636e89955014610338578063789c617c1461035c5780638c16009514610374578063a855d4ce1461038c578063abfdcced146103a4578063ca446dd9146103c1578063e2a4853a146103e5578063e2b202bf14610400578063f6bb3cc414610418575b600080fd5b34801561013857600080fd5b50610144600435610430565b60408051918252519081900360200190f35b34801561016257600080fd5b5061016e600435610442565b60408051600160a060020a039092168252519081900360200190f35b34801561019657600080fd5b506101a260043561045d565b005b3480156101b057600080fd5b506101a2600435610527565b3480156101c857600080fd5b506101dd600160a060020a036004351661060b565b604080519115158252519081900360200190f35b3480156101fd57600080fd5b506101a2600435610aca565b34801561021557600080fd5b506101a2600480359060248035908101910135610b9b565b34801561023957600080fd5b50610245600435610c73565b6040805160208082528351818301528351919283929083019185019080838360005b8381101561027f578181015183820152602001610267565b50505050905090810190601f1680156102ac5780820380516001836020036101000a031916815260200191505b509250505060405180910390f35b3480156102c657600080fd5b506101dd600435610d0d565b3480156102de57600080fd5b506101a2600435602435610d22565b3480156102f957600080fd5b50610245600435610ded565b34801561031157600080fd5b506101a2600435602435610e55565b34801561032c57600080fd5b506101a2600435610f20565b34801561034457600080fd5b506101a2600480359060248035908101910135610ff3565b34801561036857600080fd5b506101446004356110c5565b34801561038057600080fd5b506101a26004356110d7565b34801561039857600080fd5b506101446004356111a1565b3480156103b057600080fd5b506101a260043560243515156111b3565b3480156103cd57600080fd5b506101a2600435600160a060020a036024351661128c565b3480156103f157600080fd5b506101a2600435602435611380565b34801561040c57600080fd5b506101a260043561144b565b34801561042457600080fd5b506101a2600435611515565b60046020526000908152604090205481565b600260205260009081526040902054600160a060020a031681565b604080516000805160206116c1833981519152602080830191909152606060020a330260288301528251601c818403018152603c90920192839052815160059360009392909182918401908083835b602083106104cb5780518252601f1990920191602091820191016104ac565b51815160209384036101000a600019018019909216911617905260408051929094018290039091208652850195909552929092016000205460ff161515925061051691505057600080fd5b600090815260046020526040812055565b604080516000805160206116c1833981519152602080830191909152606060020a330260288301528251601c818403018152603c90920192839052815160059360009392909182918401908083835b602083106105955780518252601f199092019160209182019101610576565b51815160209384036101000a600019018019909216911617905260408051929094018290039091208652850195909552929092016000205460ff16151592506105e091505057600080fd5b6000908152600260205260409020805473ffffffffffffffffffffffffffffffffffffffff19169055565b6000600160a060020a038216151561068457604080517f08c379a000000000000000000000000000000000000000000000000000000000815260206004820152600d60248201527f456d707479206164647265737300000000000000000000000000000000000000604482015290519081900360640190fd5b604080517f6f776e6572000000000000000000000000000000000000000000000000000000602080830191909152606060020a3302602583015282516019818403018152603990920192839052815160059360009392909182918401908083835b602083106107045780518252601f1990920191602091820191016106e5565b51815160209384036101000a600019018019909216911617905260408051929094018290039091208652850195909552929092016000205460ff16151592506107b191505057604080517f08c379a000000000000000000000000000000000000000000000000000000000815260206004820152600960248201527f4e6f74206f776e65720000000000000000000000000000000000000000000000604482015290519081900360640190fd5b6000600160a060020a03166002600060405160200180806000805160206116c1833981519152815250600801807f436f6e74726163744d616e616765720000000000000000000000000000000000815250600f0190506040516020818303038152906040526040518082805190602001908083835b602083106108455780518252601f199092019160209182019101610826565b51815160209384036101000a6000190180199092169116179052604080519290940182900390912086528501959095529290920160002054600160a060020a031693909314925061092091505057604080517f08c379a000000000000000000000000000000000000000000000000000000000815260206004820152602360248201527f546865726520697320616c7265616479206120636f6e7472616374206d616e6160448201527f6765720000000000000000000000000000000000000000000000000000000000606482015290519081900360840190fd5b816002600060405160200180806000805160206116c1833981519152815250600801807f436f6e74726163744d616e616765720000000000000000000000000000000000815250600f0190506040516020818303038152906040526040518082805190602001908083835b602083106109aa5780518252601f19909201916020918201910161098b565b51815160209384036101000a60001901801990921691161790526040805192909401829003909120865285810196909652509283016000908120805473ffffffffffffffffffffffffffffffffffffffff1916600160a060020a0397881617905583516000805160206116c183398151915281870152958816606060020a0260288701528351808703601c018152603c9096019384905285516001966005969295909450925082918401908083835b60208310610a785780518252601f199092019160209182019101610a59565b51815160209384036101000a60001901801990921691161790526040805192909401829003909120865285019590955292909201600020805460ff191694151594909417909355506001949350505050565b604080516000805160206116c1833981519152602080830191909152606060020a330260288301528251601c818403018152603c90920192839052815160059360009392909182918401908083835b60208310610b385780518252601f199092019160209182019101610b19565b51815160209384036101000a600019018019909216911617905260408051929094018290039091208652850195909552929092016000205460ff1615159250610b8391505057600080fd5b6000908152600560205260409020805460ff19169055565b604080516000805160206116c1833981519152602080830191909152606060020a330260288301528251601c818403018152603c90920192839052815160059360009392909182918401908083835b60208310610c095780518252601f199092019160209182019101610bea565b51815160209384036101000a600019018019909216911617905260408051929094018290039091208652850195909552929092016000205460ff1615159250610c5491505057600080fd5b6000838152600360205260409020610c6d9083836115e5565b50505050565b60016020818152600092835260409283902080548451600294821615610100026000190190911693909304601f8101839004830284018301909452838352919290830182828015610d055780601f10610cda57610100808354040283529160200191610d05565b820191906000526020600020905b815481529060010190602001808311610ce857829003601f168201915b505050505081565b60056020526000908152604090205460ff1681565b604080516000805160206116c1833981519152602080830191909152606060020a330260288301528251601c818403018152603c90920192839052815160059360009392909182918401908083835b60208310610d905780518252601f199092019160209182019101610d71565b51815160209384036101000a600019018019909216911617905260408051929094018290039091208652850195909552929092016000205460ff1615159250610ddb91505057600080fd5b60009182526006602052604090912055565b60036020908152600091825260409182902080548351601f600260001961010060018616150201909316929092049182018490048402810184019094528084529091830182828015610d055780601f10610cda57610100808354040283529160200191610d05565b604080516000805160206116c1833981519152602080830191909152606060020a330260288301528251601c818403018152603c90920192839052815160059360009392909182918401908083835b60208310610ec35780518252601f199092019160209182019101610ea4565b51815160209384036101000a600019018019909216911617905260408051929094018290039091208652850195909552929092016000205460ff1615159250610f0e91505057600080fd5b60009182526004602052604090912055565b604080516000805160206116c1833981519152602080830191909152606060020a330260288301528251601c818403018152603c90920192839052815160059360009392909182918401908083835b60208310610f8e5780518252601f199092019160209182019101610f6f565b51815160209384036101000a600019018019909216911617905260408051929094018290039091208652850195909552929092016000205460ff1615159250610fd991505057600080fd5b6000818152600360205260408120610ff091611663565b50565b604080516000805160206116c1833981519152602080830191909152606060020a330260288301528251601c818403018152603c90920192839052815160059360009392909182918401908083835b602083106110615780518252601f199092019160209182019101611042565b51815160209384036101000a600019018019909216911617905260408051929094018290039091208652850195909552929092016000205460ff16151592506110ac91505057600080fd5b6000838152600160205260409020610c6d9083836115e5565b60066020526000908152604090205481565b604080516000805160206116c1833981519152602080830191909152606060020a330260288301528251601c818403018152603c90920192839052815160059360009392909182918401908083835b602083106111455780518252601f199092019160209182019101611126565b51815160209384036101000a600019018019909216911617905260408051929094018290039091208652850195909552929092016000205460ff161515925061119091505057600080fd5b600090815260066020526040812055565b60006020819052908152604090205481565b604080516000805160206116c1833981519152602080830191909152606060020a330260288301528251601c818403018152603c90920192839052815160059360009392909182918401908083835b602083106112215780518252601f199092019160209182019101611202565b51815160209384036101000a600019018019909216911617905260408051929094018290039091208652850195909552929092016000205460ff161515925061126c91505057600080fd5b600091825260056020526040909120805460ff1916911515919091179055565b604080516000805160206116c1833981519152602080830191909152606060020a330260288301528251601c818403018152603c90920192839052815160059360009392909182918401908083835b602083106112fa5780518252601f1990920191602091820191016112db565b51815160209384036101000a600019018019909216911617905260408051929094018290039091208652850195909552929092016000205460ff161515925061134591505057600080fd5b600091825260026020526040909120805473ffffffffffffffffffffffffffffffffffffffff1916600160a060020a03909216919091179055565b604080516000805160206116c1833981519152602080830191909152606060020a330260288301528251601c818403018152603c90920192839052815160059360009392909182918401908083835b602083106113ee5780518252601f1990920191602091820191016113cf565b51815160209384036101000a600019018019909216911617905260408051929094018290039091208652850195909552929092016000205460ff161515925061143991505057600080fd5b60009182526020829052604090912055565b604080516000805160206116c1833981519152602080830191909152606060020a330260288301528251601c818403018152603c90920192839052815160059360009392909182918401908083835b602083106114b95780518252601f19909201916020918201910161149a565b51815160209384036101000a600019018019909216911617905260408051929094018290039091208652850195909552929092016000205460ff161515925061150491505057600080fd5b600090815260208190526040812055565b604080516000805160206116c1833981519152602080830191909152606060020a330260288301528251601c818403018152603c90920192839052815160059360009392909182918401908083835b602083106115835780518252601f199092019160209182019101611564565b51815160209384036101000a600019018019909216911617905260408051929094018290039091208652850195909552929092016000205460ff16151592506115ce91505057600080fd5b6000818152600160205260408120610ff091611663565b828054600181600116156101000203166002900490600052602060002090601f016020900481019282601f106116265782800160ff19823516178555611653565b82800160010185558215611653579182015b82811115611653578235825591602001919060010190611638565b5061165f9291506116a3565b5090565b50805460018160011615610100020316600290046000825580601f106116895750610ff0565b601f016020900490600052602060002090810190610ff091905b6116bd91905b8082111561165f57600081556001016116a9565b905600636f6e7472616374000000000000000000000000000000000000000000000000a165627a7a7230582018db6674d5f4ef4cd30151d133d17c8a371b8eb2f414ebc80fcd000abb1f4fef0029",
  "source": "pragma solidity ^0.4.24;\n\n\n// @title A shared storage contract for platform contracts to store and retrieve data\n// @notice This contract holds all long-term data for smart-contract systems\n// @dev The bytes32 hashes are derived from keccak256(variableName, uniqueID) => value\n// @dec Can enable upgradeable contracts by setting a contract manager\ncontract Database{\n\n    // Storage Variables\n    mapping(bytes32 => uint) public uintStorage;\n    mapping(bytes32 => string) public stringStorage;\n    mapping(bytes32 => address) public addressStorage;\n    mapping(bytes32 => bytes) public bytesStorage;\n    mapping(bytes32 => bytes32) public bytes32Storage;\n    mapping(bytes32 => bool) public boolStorage;\n    mapping(bytes32 => int) public intStorage;\n\n\n\n    // @notice Constructor: Sets the owners of the platform\n    // @dev Owners must set the contract manager to add more contracts\n    constructor(address[] _owners, bool _upgradeable)\n    public {\n      for(uint i=0; i<_owners.length; i++){\n        require(_owners[i] != address(0), \"Empty address\");\n        boolStorage[keccak256(abi.encodePacked(\"owner\", _owners[i]))] = true;\n        emit LogInitialized(_owners[i], _upgradeable);\n      }\n      if (_upgradeable){\n        boolStorage[keccak256(\"upgradeable\")] = true;\n      }\n    }\n\n    // @notice ContractManager will be the only contract that can add/remove contracts on the platform.\n    // @param (address) _contractManager is the contract which can upgrade/remove contracts to platform\n    function enableContractManagement(address _contractManager)\n    external\n    returns (bool){\n        require(_contractManager != address(0), \"Empty address\");\n        require(boolStorage[keccak256(abi.encodePacked(\"owner\", msg.sender))], \"Not owner\");\n        require(addressStorage[keccak256(abi.encodePacked(\"contract\", \"ContractManager\"))] == address(0), \"There is already a contract manager\");\n        addressStorage[keccak256(abi.encodePacked(\"contract\", \"ContractManager\"))] = _contractManager;\n        boolStorage[keccak256(abi.encodePacked(\"contract\", _contractManager))] = true;\n        return true;\n    }\n\n    // @notice Storage functions\n    function setAddress(bytes32 _key, address _value)\n    onlyApprovedContract\n    external {\n        addressStorage[_key] = _value;\n    }\n\n    function setUint(bytes32 _key, uint _value)\n    onlyApprovedContract\n    external {\n        uintStorage[_key] = _value;\n    }\n\n    function setString(bytes32 _key, string _value)\n    onlyApprovedContract\n    external {\n        stringStorage[_key] = _value;\n    }\n\n    function setBytes(bytes32 _key, bytes _value)\n    onlyApprovedContract\n    external {\n        bytesStorage[_key] = _value;\n    }\n\n    function setBytes32(bytes32 _key, bytes32 _value)\n    onlyApprovedContract\n    external {\n        bytes32Storage[_key] = _value;\n    }\n\n    function setBool(bytes32 _key, bool _value)\n    onlyApprovedContract\n    external {\n        boolStorage[_key] = _value;\n    }\n\n    function setInt(bytes32 _key, int _value)\n    onlyApprovedContract\n    external {\n        intStorage[_key] = _value;\n    }\n\n\n    // Deletion functions: Can alternatively use setter functions and set to null value (ie. uint = 0)\n    function deleteAddress(bytes32 _key)\n    onlyApprovedContract\n    external {\n        delete addressStorage[_key];\n    }\n\n    function deleteUint(bytes32 _key)\n    onlyApprovedContract\n    external {\n        delete uintStorage[_key];\n    }\n\n    function deleteString(bytes32 _key)\n    onlyApprovedContract\n    external {\n        delete stringStorage[_key];\n    }\n\n    function deleteBytes(bytes32 _key)\n    onlyApprovedContract\n    external {\n        delete bytesStorage[_key];\n    }\n\n    function deleteBytes32(bytes32 _key)\n    onlyApprovedContract\n    external {\n        delete bytes32Storage[_key];\n    }\n\n    function deleteBool(bytes32 _key)\n    onlyApprovedContract\n    external {\n        delete boolStorage[_key];\n    }\n\n    function deleteInt(bytes32 _key)\n    onlyApprovedContract\n    external {\n        delete intStorage[_key];\n    }\n\n\n    // --------------------------------------------------------------------------------------\n    //                                     Modifiers\n    // --------------------------------------------------------------------------------------\n\n    // Caller must be registered as a contract through ContractManager.sol\n    modifier onlyApprovedContract() {\n        require(boolStorage[keccak256(abi.encodePacked(\"contract\", msg.sender))]);\n        _;\n    }\n\n    // --------------------------------------------------------------------------------------\n    //                                     Events\n    // --------------------------------------------------------------------------------------\n    event LogInitialized(address _owner, bool _upgradeable);\n}\n",
  "sourcePath": "/home/iamonuwa/Projects/MyBitFoundation/MyBit-Network.tech/contracts/database/Database.sol",
  "compiler": {
    "name": "solc",
    "version": "0.4.24+commit.e67f0147.Emscripten.clang"
  },
  "schemaVersion": "3.0.9",
  "updatedAt": "2020-07-27T21:29:54.209Z",
  "devdoc": {
    "methods": {}
  },
  "userdoc": {
    "methods": {}
  }
}