{
  "contractName": "EqualDistribution",
  "abi": [
    {
      "constant": true,
      "inputs": [
        {
          "name": "",
          "type": "address"
        }
      ],
      "name": "amountRedeemed",
      "outputs": [
        {
          "name": "",
          "type": "uint256"
        }
      ],
      "payable": false,
      "stateMutability": "view",
      "type": "function"
    },
    {
      "constant": true,
      "inputs": [],
      "name": "totalReleased",
      "outputs": [
        {
          "name": "",
          "type": "uint256"
        }
      ],
      "payable": false,
      "stateMutability": "view",
      "type": "function"
    },
    {
      "constant": true,
      "inputs": [
        {
          "name": "",
          "type": "uint256"
        }
      ],
      "name": "beneficiaries",
      "outputs": [
        {
          "name": "",
          "type": "address"
        }
      ],
      "payable": false,
      "stateMutability": "view",
      "type": "function"
    },
    {
      "inputs": [
        {
          "name": "_beneficiaries",
          "type": "address[]"
        }
      ],
      "payable": false,
      "stateMutability": "nonpayable",
      "type": "constructor"
    },
    {
      "payable": true,
      "stateMutability": "payable",
      "type": "fallback"
    },
    {
      "anonymous": false,
      "inputs": [
        {
          "indexed": false,
          "name": "_sender",
          "type": "address"
        },
        {
          "indexed": false,
          "name": "_amount",
          "type": "uint256"
        }
      ],
      "name": "LogPayment",
      "type": "event"
    },
    {
      "anonymous": false,
      "inputs": [
        {
          "indexed": false,
          "name": "_beneficiary",
          "type": "address"
        },
        {
          "indexed": false,
          "name": "_amount",
          "type": "uint256"
        }
      ],
      "name": "LogWithdraw",
      "type": "event"
    },
    {
      "constant": false,
      "inputs": [
        {
          "name": "_contractAddress",
          "type": "address"
        }
      ],
      "name": "getFunds",
      "outputs": [
        {
          "name": "",
          "type": "bool"
        }
      ],
      "payable": false,
      "stateMutability": "nonpayable",
      "type": "function"
    },
    {
      "constant": false,
      "inputs": [],
      "name": "withdraw",
      "outputs": [
        {
          "name": "",
          "type": "bool"
        }
      ],
      "payable": false,
      "stateMutability": "nonpayable",
      "type": "function"
    },
    {
      "constant": true,
      "inputs": [
        {
          "name": "_beneficiary",
          "type": "address"
        }
      ],
      "name": "isBeneficiary",
      "outputs": [
        {
          "name": "",
          "type": "bool"
        }
      ],
      "payable": false,
      "stateMutability": "view",
      "type": "function"
    }
  ],
  "bytecode": "0x608060405234801561001057600080fd5b5060405161051e38038061051e83398101604052805101805160c81161003557600080fd5b805161004890600090602084019061004f565b50506100db565b8280548282559060005260206000209081019282156100a4579160200282015b828111156100a45782518254600160a060020a031916600160a060020a0390911617825560209092019160019091019061006f565b506100b09291506100b4565b5090565b6100d891905b808211156100b0578054600160a060020a03191681556001016100ba565b90565b610434806100ea6000396000f3006080604052600436106100775763ffffffff7c01000000000000000000000000000000000000000000000000000000006000350416633ccfd60b81146100b35780636d9c6605146100dc5780639d19b2261461010f578063decebbce14610130578063e33b7de314610151578063efeb5e5814610166575b6040805133815234602082015281517f27a391d95d67e3626574fb5fbe3532bb7366e9254957b1f0e840953c248b2aa8929181900390910190a1005b3480156100bf57600080fd5b506100c861019a565b604080519115158252519081900360200190f35b3480156100e857600080fd5b506100fd600160a060020a03600435166102a0565b60408051918252519081900360200190f35b34801561011b57600080fd5b506100c8600160a060020a03600435166102b2565b34801561013c57600080fd5b506100c8600160a060020a0360043516610310565b34801561015d57600080fd5b506100fd61039d565b34801561017257600080fd5b5061017e6004356103a3565b60408051600160a060020a039092168252519081900360200190f35b33600090815260026020526040812054815460015483926101e69290916101da91906101ce9030319063ffffffff6103cb16565b9063ffffffff6103e116565b9063ffffffff6103f616565b33600090815260026020526040902054909150610209908263ffffffff6103cb16565b3360009081526002602052604090205560015461022c908263ffffffff6103cb16565b600155604051339082156108fc029083906000818181858888f1935050505015801561025c573d6000803e3d6000fd5b50604080513381526020810183905281517f4ce7033d118120e254016dccf195288400b28fc8936425acd5f17ce2df3ab708929181900390910190a1600191505090565b60026020526000908152604090205481565b6000805b6000548110156103055782600160a060020a03166000828154811015156102d957fe5b600091825260209091200154600160a060020a031614156102fd576001915061030a565b6001016102b6565b600091505b50919050565b600081600160a060020a0316633ccfd60b6040518163ffffffff167c0100000000000000000000000000000000000000000000000000000000028152600401602060405180830381600087803b15801561036957600080fd5b505af115801561037d573d6000803e3d6000fd5b505050506040513d602081101561039357600080fd5b5060019392505050565b60015481565b60008054829081106103b157fe5b600091825260209091200154600160a060020a0316905081565b6000828201838110156103da57fe5b9392505050565b600081838115156103ee57fe5b049392505050565b60008282111561040257fe5b509003905600a165627a7a72305820831d13fe9b7aa0c89712ab21a5d3e23ef8f2d19d261d404f61d2bf916e9be6c20029",
  "source": "pragma solidity ^0.4.24;\n\nimport '../../math/SafeMath.sol';\nimport '../../interfaces/PullPayment.sol';\n\n// @title A contract made to equally distribute payments amongs a list of beneficiaries\n// @author Kyle Dewhurst & Peter Phillips MyBit Foundation\n// @notice This contract allows someone to leave ETH for a beneficiary\n// @dev assumes each beneficiary receives equal amount\ncontract EqualDistribution {\n  using SafeMath for uint;\n\n  address[] public beneficiaries;             // List of chosen beneficiaries\n\n  uint public totalReleased;               // Total WEI so far released to beneficiaries\n\n  mapping (address => uint) public amountRedeemed;    // Amount of WEI this address has already withdrawn from contract\n\n\n  // @notice constructor. Sets the beneficiaries and where the income to be distributed is coming from\n  // @param (address) _beneficiary = The ETH address of who is to receive the income. Could be a distribution contract.\n  constructor(address[] _beneficiaries)\n  public{\n    require(_beneficiaries.length < 200);\n    beneficiaries = _beneficiaries;\n  }\n\n  // @notice allows beneficiaries to withdraw from contracts at different locations to be re-distributed here\n  // @dev can call withdraw() on any address if there are no parameters required. Fallback function will be triggered\n  // @param (address) _contractAddress = The address to call withdraw() on.\n  function getFunds(address _contractAddress)\n  external\n  returns (bool) {\n    PullPayment(_contractAddress).withdraw();\n    return true;\n  }\n\n  // @notice beneficiaries can withdraw their share of the income here\n  function withdraw()\n  external\n  returns (bool) {\n    uint amount = ((address(this).balance.add(totalReleased)).div(beneficiaries.length)).sub(amountRedeemed[msg.sender]);\n    amountRedeemed[msg.sender] = amountRedeemed[msg.sender].add(amount);\n    totalReleased = totalReleased.add(amount);\n    msg.sender.transfer(amount);\n    emit LogWithdraw(msg.sender, amount);\n    return true;\n  }\n\n  // @notice fallback function. Accepts Ether and updates income balance\n  function ()\n  public\n  payable {\n    emit LogPayment(msg.sender, msg.value);\n  }\n\n\n  ////////////////////////////////////////////////////////////////////////////////////////////////////////////////////////////////////////////\n  // Constants\n  ////////////////////////////////////////////////////////////////////////////////////////////////////////////////////////////////////////////\n\n  // @notice check if the address is one of the beneficiaries\n  function isBeneficiary(address _beneficiary)\n  public\n  view\n  returns (bool) {\n    for (uint i = 0; i < beneficiaries.length; i++){\n      if (beneficiaries[i] == _beneficiary) { return true; }\n    }\n    return false;\n  }\n\n  ////////////////////////////////////////////////////////////////////////////////////////////////////////////////////////////////////////////\n  // Events\n  ////////////////////////////////////////////////////////////////////////////////////////////////////////////////////////////////////////////\n\n  event LogPayment(address _sender, uint _amount);\n  event LogWithdraw(address _beneficiary, uint _amount);\n\n}\n",
  "sourcePath": "/home/iamonuwa/Projects/MyBitFoundation/MyBit-Network.tech/contracts/tokens/distribution/EqualDistribution.sol",
  "compiler": {
    "name": "solc",
    "version": "0.4.24+commit.e67f0147.Emscripten.clang"
  },
  "schemaVersion": "3.0.9",
  "updatedAt": "2020-07-27T21:29:57.072Z",
  "devdoc": {
    "methods": {}
  },
  "userdoc": {
    "methods": {
      "isBeneficiary(address)": {
        "notice": "/////////////////////////////////////////////////////////////////////////////////////////////////////////////////////////////////////////"
      }
    }
  }
}