{
  "contractName": "FakeKyber",
  "abi": [
    {
      "constant": true,
      "inputs": [
        {
          "name": "src",
          "type": "address"
        },
        {
          "name": "dest",
          "type": "address"
        },
        {
          "name": "srcQty",
          "type": "uint256"
        }
      ],
      "name": "getExpectedRate",
      "outputs": [
        {
          "name": "expectedRate",
          "type": "uint256"
        },
        {
          "name": "slippageRate",
          "type": "uint256"
        }
      ],
      "payable": false,
      "stateMutability": "view",
      "type": "function"
    },
    {
      "constant": false,
      "inputs": [
        {
          "name": "src",
          "type": "address"
        },
        {
          "name": "srcAmount",
          "type": "uint256"
        },
        {
          "name": "dest",
          "type": "address"
        },
        {
          "name": "destAddress",
          "type": "address"
        },
        {
          "name": "maxDestAmount",
          "type": "uint256"
        },
        {
          "name": "minConversionRate",
          "type": "uint256"
        },
        {
          "name": "walletId",
          "type": "address"
        }
      ],
      "name": "trade",
      "outputs": [
        {
          "name": "",
          "type": "uint256"
        }
      ],
      "payable": true,
      "stateMutability": "payable",
      "type": "function"
    }
  ],
  "bytecode": "0x608060405234801561001057600080fd5b5061013a806100206000396000f30060806040526004361061004b5763ffffffff7c0100000000000000000000000000000000000000000000000000000000600035041663809a9e558114610050578063cb3c28c7146100a0575b600080fd5b34801561005c57600080fd5b5061008773ffffffffffffffffffffffffffffffffffffffff600435811690602435166044356100f1565b6040805192835260208301919091528051918290030190f35b6100df73ffffffffffffffffffffffffffffffffffffffff600435811690602435906044358116906064358116906084359060a4359060c43516610103565b60408051918252519081900360200190f35b670de0b6b3a764000080935093915050565b5093959450505050505600a165627a7a72305820b8c53390bd9830437178a816678976dbe3a2a6427f0f856dffeca5e82dbcf48c0029",
  "source": "pragma solidity ^0.4.24;\n\ncontract FakeKyber {\n  function getExpectedRate(address src, address dest, uint srcQty) external view returns (uint expectedRate, uint slippageRate){\n    return (10**18, 10**18);\n  }\n  function trade(address src, uint srcAmount, address dest, address destAddress, uint maxDestAmount,uint minConversionRate, address walletId) external payable returns(uint){\n    return srcAmount;\n  }\n}\n",
  "sourcePath": "/home/iamonuwa/Projects/MyBitFoundation/MyBit-Network.tech/contracts/test/FakeKyber.sol",
  "compiler": {
    "name": "solc",
    "version": "0.4.24+commit.e67f0147.Emscripten.clang"
  },
  "schemaVersion": "3.0.9",
  "updatedAt": "2020-07-27T21:29:57.016Z",
  "devdoc": {
    "methods": {}
  },
  "userdoc": {
    "methods": {}
  }
}