{
  "contractName": "HashFunctions",
  "abi": [
    {
      "payable": false,
      "stateMutability": "nonpayable",
      "type": "fallback"
    },
    {
      "constant": true,
      "inputs": [
        {
          "name": "x",
          "type": "uint256"
        }
      ],
      "name": "toBytes",
      "outputs": [
        {
          "name": "b",
          "type": "bytes"
        }
      ],
      "payable": false,
      "stateMutability": "pure",
      "type": "function"
    },
    {
      "constant": true,
      "inputs": [
        {
          "name": "_functionString",
          "type": "string"
        }
      ],
      "name": "getMethodID",
      "outputs": [
        {
          "name": "",
          "type": "bytes4"
        }
      ],
      "payable": false,
      "stateMutability": "pure",
      "type": "function"
    },
    {
      "constant": true,
      "inputs": [
        {
          "name": "_assetURI",
          "type": "string"
        },
        {
          "name": "_amountToRaise",
          "type": "uint256"
        },
        {
          "name": "_operatorID",
          "type": "bytes32"
        }
      ],
      "name": "getAssetID",
      "outputs": [
        {
          "name": "",
          "type": "bytes32"
        }
      ],
      "payable": false,
      "stateMutability": "view",
      "type": "function"
    },
    {
      "constant": true,
      "inputs": [
        {
          "name": "_assetID",
          "type": "bytes"
        },
        {
          "name": "_user",
          "type": "address"
        },
        {
          "name": "_amount",
          "type": "uint256"
        },
        {
          "name": "_price",
          "type": "uint256"
        },
        {
          "name": "_buyOrder",
          "type": "bool"
        }
      ],
      "name": "getOrderID",
      "outputs": [
        {
          "name": "",
          "type": "bytes32"
        }
      ],
      "payable": false,
      "stateMutability": "pure",
      "type": "function"
    },
    {
      "constant": true,
      "inputs": [
        {
          "name": "_param1",
          "type": "address"
        },
        {
          "name": "_param2",
          "type": "address"
        },
        {
          "name": "_param3",
          "type": "bytes32"
        }
      ],
      "name": "getFunctionInitiatorHash",
      "outputs": [
        {
          "name": "",
          "type": "bytes32"
        }
      ],
      "payable": false,
      "stateMutability": "pure",
      "type": "function"
    },
    {
      "constant": true,
      "inputs": [
        {
          "name": "_param",
          "type": "uint256"
        }
      ],
      "name": "uintHash",
      "outputs": [
        {
          "name": "",
          "type": "bytes32"
        }
      ],
      "payable": false,
      "stateMutability": "pure",
      "type": "function"
    },
    {
      "constant": true,
      "inputs": [
        {
          "name": "_staker",
          "type": "address"
        },
        {
          "name": "_blockNumber",
          "type": "uint256"
        },
        {
          "name": "_amount",
          "type": "uint256"
        }
      ],
      "name": "getStakingID",
      "outputs": [
        {
          "name": "",
          "type": "bytes32"
        }
      ],
      "payable": false,
      "stateMutability": "pure",
      "type": "function"
    },
    {
      "constant": true,
      "inputs": [
        {
          "name": "_name",
          "type": "string"
        }
      ],
      "name": "stringHash",
      "outputs": [
        {
          "name": "",
          "type": "bytes32"
        }
      ],
      "payable": false,
      "stateMutability": "pure",
      "type": "function"
    },
    {
      "constant": true,
      "inputs": [
        {
          "name": "_param",
          "type": "address"
        }
      ],
      "name": "addressHash",
      "outputs": [
        {
          "name": "",
          "type": "bytes32"
        }
      ],
      "payable": false,
      "stateMutability": "pure",
      "type": "function"
    },
    {
      "constant": true,
      "inputs": [
        {
          "name": "_name",
          "type": "string"
        }
      ],
      "name": "contractHash",
      "outputs": [
        {
          "name": "",
          "type": "bytes32"
        }
      ],
      "payable": false,
      "stateMutability": "pure",
      "type": "function"
    },
    {
      "constant": true,
      "inputs": [
        {
          "name": "_param",
          "type": "string"
        },
        {
          "name": "_paramTwo",
          "type": "address"
        }
      ],
      "name": "stringAddress",
      "outputs": [
        {
          "name": "",
          "type": "bytes32"
        }
      ],
      "payable": false,
      "stateMutability": "pure",
      "type": "function"
    },
    {
      "constant": true,
      "inputs": [
        {
          "name": "_param",
          "type": "string"
        },
        {
          "name": "_paramTwo",
          "type": "string"
        }
      ],
      "name": "stringString",
      "outputs": [
        {
          "name": "",
          "type": "bytes32"
        }
      ],
      "payable": false,
      "stateMutability": "pure",
      "type": "function"
    },
    {
      "constant": true,
      "inputs": [
        {
          "name": "_param",
          "type": "string"
        },
        {
          "name": "_paramTwo",
          "type": "bytes32"
        }
      ],
      "name": "stringBytes",
      "outputs": [
        {
          "name": "",
          "type": "bytes32"
        }
      ],
      "payable": false,
      "stateMutability": "pure",
      "type": "function"
    },
    {
      "constant": true,
      "inputs": [
        {
          "name": "_param",
          "type": "string"
        },
        {
          "name": "_paramTwo",
          "type": "uint256"
        }
      ],
      "name": "stringUint",
      "outputs": [
        {
          "name": "",
          "type": "bytes32"
        }
      ],
      "payable": false,
      "stateMutability": "pure",
      "type": "function"
    },
    {
      "constant": true,
      "inputs": [
        {
          "name": "_param",
          "type": "string"
        },
        {
          "name": "_paramTwo",
          "type": "address"
        },
        {
          "name": "_paramThree",
          "type": "address"
        }
      ],
      "name": "stringAddressAddress",
      "outputs": [
        {
          "name": "",
          "type": "bytes32"
        }
      ],
      "payable": false,
      "stateMutability": "pure",
      "type": "function"
    },
    {
      "constant": true,
      "inputs": [
        {
          "name": "_param",
          "type": "string"
        },
        {
          "name": "_paramTwo",
          "type": "bytes32"
        },
        {
          "name": "_paramThree",
          "type": "address"
        }
      ],
      "name": "stringBytesAddress",
      "outputs": [
        {
          "name": "",
          "type": "bytes32"
        }
      ],
      "payable": false,
      "stateMutability": "pure",
      "type": "function"
    },
    {
      "constant": true,
      "inputs": [
        {
          "name": "_param",
          "type": "address"
        },
        {
          "name": "_paramTwo",
          "type": "uint256"
        },
        {
          "name": "_paramThree",
          "type": "uint256"
        }
      ],
      "name": "addressUintUint",
      "outputs": [
        {
          "name": "",
          "type": "bytes32"
        }
      ],
      "payable": false,
      "stateMutability": "pure",
      "type": "function"
    },
    {
      "constant": true,
      "inputs": [
        {
          "name": "_contractAddress",
          "type": "address"
        },
        {
          "name": "_owner",
          "type": "address"
        },
        {
          "name": "_fnName",
          "type": "string"
        },
        {
          "name": "_recipient",
          "type": "bytes32"
        }
      ],
      "name": "getAuthorizeHash",
      "outputs": [
        {
          "name": "",
          "type": "bytes32"
        }
      ],
      "payable": false,
      "stateMutability": "pure",
      "type": "function"
    },
    {
      "constant": true,
      "inputs": [
        {
          "name": "_paramOne",
          "type": "uint256"
        },
        {
          "name": "_paramTwo",
          "type": "uint256"
        }
      ],
      "name": "uintUint",
      "outputs": [
        {
          "name": "",
          "type": "bytes32"
        }
      ],
      "payable": false,
      "stateMutability": "pure",
      "type": "function"
    },
    {
      "constant": true,
      "inputs": [
        {
          "name": "_paramOne",
          "type": "uint256"
        },
        {
          "name": "_paramTwo",
          "type": "uint256"
        },
        {
          "name": "_paramThree",
          "type": "uint256"
        }
      ],
      "name": "uintUintUint",
      "outputs": [
        {
          "name": "",
          "type": "bytes32"
        }
      ],
      "payable": false,
      "stateMutability": "pure",
      "type": "function"
    },
    {
      "constant": true,
      "inputs": [],
      "name": "currentTime",
      "outputs": [
        {
          "name": "",
          "type": "uint256"
        }
      ],
      "payable": false,
      "stateMutability": "view",
      "type": "function"
    },
    {
      "constant": true,
      "inputs": [],
      "name": "nullBytes",
      "outputs": [
        {
          "name": "",
          "type": "bytes32"
        }
      ],
      "payable": false,
      "stateMutability": "pure",
      "type": "function"
    },
    {
      "constant": true,
      "inputs": [],
      "name": "nullAddress",
      "outputs": [
        {
          "name": "",
          "type": "address"
        }
      ],
      "payable": false,
      "stateMutability": "pure",
      "type": "function"
    }
  ],
  "bytecode": "0x608060405234801561001057600080fd5b50610ffd806100206000396000f3006080604052600436106101315763ffffffff7c0100000000000000000000000000000000000000000000000000000000600035041662adc38281146101435780630b0e7f15146101765780630d155a781461019657806314c44600146101c25780632a382d96146101dd5780633bf90895146102165780633e2eecd014610246578063424f33a81461027a578063433f99db14610308578063547b82cd14610320578063551edf901461034457806368f68fb3146103755780636b64b7e31461039c578063775a8f5e146103fe5780637b4937b21461048b578063812146a914610375578063924b7b96146104af578063d18e81b3146104dd578063e77172c3146104f2578063f07b2e7e14610507578063f5b8c4c014610527578063f8797c6e14610545578063fe10c7d21461056f575b34801561013d57600080fd5b50600080fd5b34801561014f57600080fd5b50610164600160a060020a03600435166105a7565b60408051918252519081900360200190f35b34801561018257600080fd5b506101646004803560248101910135610642565b3480156101a257600080fd5b5061016460246004803582810192908201359181359182019101356106cd565b3480156101ce57600080fd5b50610164600435602435610769565b3480156101e957600080fd5b506101646024600480358281019291013590600160a060020a0390351660443560643560843515156107c1565b34801561022257600080fd5b50610164602460048035828101929101359035600160a060020a03604435166108ae565b34801561025257600080fd5b506101646024600480358281019291013590600160a060020a03903581169060443516610927565b34801561028657600080fd5b506040805160206004803580820135601f81018490048402850184019095528484526102d39436949293602493928401919081908401838280828437509497506109be9650505050505050565b604080517fffffffff000000000000000000000000000000000000000000000000000000009092168252519081900360200190f35b34801561031457600080fd5b50610164600435610a55565b34801561032c57600080fd5b50610164602460048035828101929101359035610aa5565b34801561035057600080fd5b50610359610b39565b60408051600160a060020a039092168252519081900360200190f35b34801561038157600080fd5b50610164600160a060020a0360043516602435604435610b3e565b3480156103a857600080fd5b506040805160206004803580820135601f8101849004840285018401909552848452610164943694929360249392840191908190840183828082843750949750508435955050506020909201359150610bb69050565b34801561040a57600080fd5b50610416600435610c85565b6040805160208082528351818301528351919283929083019185019080838360005b83811015610450578181015183820152602001610438565b50505050905090810190601f16801561047d5780820380516001836020036101000a031916815260200191505b509250505060405180910390f35b34801561049757600080fd5b50610164602460048035828101929101359035610cb0565b3480156104bb57600080fd5b506101646024600480358281019291013590600160a060020a03903516610d0b565b3480156104e957600080fd5b50610164610d82565b3480156104fe57600080fd5b50610164610b39565b34801561051357600080fd5b506101646004803560248101910135610d86565b34801561053357600080fd5b50610164600435602435604435610e05565b34801561055157600080fd5b50610164600160a060020a0360043581169060243516604435610e65565b34801561057b57600080fd5b50610164600160a060020a03600480358216916024803590911691604435918201910135606435610efe565b6000816040516020018082600160a060020a0316600160a060020a0316606060020a0281526014019150506040516020818303038152906040526040518082805190602001908083835b602083106106105780518252601f1990920191602091820191016105f1565b5181516020939093036101000a6000190180199091169216919091179052604051920182900390912095945050505050565b60008282604051602001808383808284378201915050925050506040516020818303038152906040526040518082805190602001908083835b6020831061069a5780518252601f19909201916020918201910161067b565b5181516020939093036101000a600019018019909116921691909117905260405192018290039091209695505050505050565b60008484848460405160200180858580828437820191505083838082843782019150509450505050506040516020818303038152906040526040518082805190602001908083835b602083106107345780518252601f199092019160209182019101610715565b5181516020939093036101000a6000190180199091169216919091179052604051920182900390912098975050505050505050565b6000828260405160200180838152602001828152602001925050506040516020818303038152906040526040518082805190602001908083836020831061069a5780518252601f19909201916020918201910161067b565b600086868686868660405160200180878780828437820191505085600160a060020a0316600160a060020a0316606060020a02815260140184815260200183815260200182151515157f010000000000000000000000000000000000000000000000000000000000000002815260010196505050505050506040516020818303038152906040526040518082805190602001908083835b602083106108775780518252601f199092019160209182019101610858565b5181516020939093036101000a600019018019909116921691909117905260405192018290039091209a9950505050505050505050565b600084848484604051602001808585808284379091019384525050606060020a600160a060020a039091160260208083019190915260408051808403601401815260349093019081905282519294509250829190840190808383602083106107345780518252601f199092019160209182019101610715565b60008484848460405160200180858580828437820191505083600160a060020a0316600160a060020a0316606060020a02815260140182600160a060020a0316600160a060020a0316606060020a028152601401945050505050604051602081830303815290604052604051808280519060200190808383602083106107345780518252601f199092019160209182019101610715565b6000816040516020018082805190602001908083835b602083106109f35780518252601f1990920191602091820191016109d4565b6001836020036101000a038019825116818451168082178552505050505050905001915050604051602081830303815290604052604051808280519060200190808383602083106106105780518252601f1990920191602091820191016105f1565b60008160405160200180828152602001915050604051602081830303815290604052604051808280519060200190808383602083106106105780518252601f1990920191602091820191016105f1565b600083838360405160200180848480828437820191505082815260200193505050506040516020818303038152906040526040518082805190602001908083835b60208310610b055780518252601f199092019160209182019101610ae6565b5181516020939093036101000a60001901801990911692169190911790526040519201829003909120979650505050505050565b600090565b60008383836040516020018084600160a060020a0316600160a060020a0316606060020a028152601401838152602001828152602001935050505060405160208183030381529060405260405180828051906020019080838360208310610b055780518252601f199092019160209182019101610ae6565b6000338383866040516020018085600160a060020a0316600160a060020a0316606060020a028152601401848152602001836000191660001916815260200182805190602001908083835b60208310610c205780518252601f199092019160209182019101610c01565b6001836020036101000a03801982511681845116808217855250505050505090500194505050505060405160208183030381529060405260405180828051906020019080838360208310610b055780518252601f199092019160209182019101610ae6565b6040805160208082528183019092526060918082016104008038833950505060208101929092525090565b60008383836040516020018084848082843790910192835250506040805180830381526020928301918290528051909450909250829184019080838360208310610b055780518252601f199092019160209182019101610ae6565b600083838360405160200180848480828437820191505082600160a060020a0316600160a060020a0316606060020a028152601401935050505060405160208183030381529060405260405180828051906020019080838360208310610b055780518252601f199092019160209182019101610ae6565b4290565b6000828260405160200180807f636f6e74726163740000000000000000000000000000000000000000000000008152506008018383808284378201915050925050506040516020818303038152906040526040518082805190602001908083836020831061069a5780518252601f19909201916020918201910161067b565b600083838360405160200180848152602001838152602001828152602001935050505060405160208183030381529060405260405180828051906020019080838360208310610b055780518252601f199092019160209182019101610ae6565b60408051606060020a600160a060020a03808716820260208085019190915290861690910260348301527f64657374726f79000000000000000000000000000000000000000000000000006048830152604f80830185905283518084039091018152606f9092019283905281516000939182919084019080838360208310610b055780518252601f199092019160209182019101610ae6565b600085858585856040516020018086600160a060020a0316600160a060020a0316606060020a02815260140185600160a060020a0316600160a060020a0316606060020a0281526014018484808284379091019283525050604080518083038152602092830191829052805190965090945084935090850191508083835b60208310610f9b5780518252601f199092019160209182019101610f7c565b5181516020939093036101000a6000190180199091169216919091179052604051920182900390912099985050505050505050505600a165627a7a72305820501047fb7b0dc994b19fcd9400d23a8c02c5f0ba633a402bbc55a21923802f110029",
  "source": "pragma solidity ^0.4.24;\n\ncontract HashFunctions {\n\n  function toBytes(uint x)\n  external\n  pure\n  returns (bytes b) {\n    b = new bytes(32);\n    assembly { mstore(add(b, 32), x) }\n  }\n\n  function getMethodID(string _functionString)\n  public\n  pure\n  returns (bytes4) {\n    return bytes4(keccak256(abi.encodePacked(_functionString)));\n  }\n\n  function getAssetID(string _assetURI, uint _amountToRaise, bytes32 _operatorID)\n  public\n  view\n  returns(bytes32) {\n    return keccak256(abi.encodePacked(msg.sender, _amountToRaise, _operatorID, _assetURI));\n  }\n\n  function getOrderID(bytes _assetID, address _user, uint _amount, uint _price, bool _buyOrder)\n  external\n  pure\n  returns(bytes32) {\n    return keccak256(abi.encodePacked(_assetID, _user, _amount, _price, _buyOrder));\n  }\n\n  function getFunctionInitiatorHash(address _param1, address _param2, bytes32 _param3)\n  external\n  pure\n  returns(bytes32) {\n    return keccak256(abi.encodePacked(_param1, _param2, \"destroy\", _param3));\n  }\n\n  function uintHash(uint _param)\n  external\n  pure\n  returns (bytes32) {\n    return keccak256(abi.encodePacked(_param));\n  }\n\n  function getStakingID(address _staker, uint256 _blockNumber, uint256 _amount)\n  external\n  pure\n  returns (bytes32) {\n    return keccak256(abi.encodePacked(_staker, _blockNumber, _amount));\n  }\n\n  function stringHash(string _name)\n  external\n  pure\n  returns (bytes32){\n    return keccak256(abi.encodePacked(_name));\n  }\n\n  function addressHash(address _param)\n  external\n  pure\n  returns (bytes32) {\n    return keccak256(abi.encodePacked(_param));\n  }\n\n\n  function contractHash(string _name)\n  external\n  pure\n  returns (bytes32) {\n    return keccak256(abi.encodePacked(\"contract\", _name));\n  }\n\n  function stringAddress(string _param, address _paramTwo)\n  external\n  pure\n  returns (bytes32) {\n    return keccak256(abi.encodePacked(_param, _paramTwo));\n  }\n\n  function stringString(string _param, string _paramTwo)\n  external\n  pure\n  returns (bytes32) {\n    return (keccak256(abi.encodePacked(_param, _paramTwo)));\n  }\n\n  function stringBytes(string _param, bytes32 _paramTwo)\n  external\n  pure\n  returns (bytes32) {\n    return keccak256(abi.encodePacked(_param, _paramTwo));\n  }\n\n  function stringUint(string _param, uint _paramTwo)\n  external\n  pure\n  returns (bytes32) {\n    return keccak256(abi.encodePacked(_param, _paramTwo));\n  }\n\n  function stringAddressAddress(string _param, address _paramTwo, address _paramThree)\n  external\n  pure\n  returns (bytes32) {\n    return keccak256(abi.encodePacked(_param, _paramTwo, _paramThree));\n  }\n\n  function stringBytesAddress(string _param, bytes32 _paramTwo, address _paramThree)\n  external\n  pure\n  returns (bytes32) {\n    return keccak256(abi.encodePacked(_param, _paramTwo, _paramThree));\n  }\n\n  function addressUintUint(address _param, uint _paramTwo, uint _paramThree)\n  external\n  pure\n  returns (bytes32) {\n    return keccak256(abi.encodePacked(_param, _paramTwo, _paramThree));\n  }\n\n\n  function getAuthorizeHash(address _contractAddress, address _owner, string _fnName, bytes32 _recipient)\n  external\n  pure\n  returns (bytes32) {\n    return keccak256(abi.encodePacked(_contractAddress, _owner, _fnName, _recipient));\n  }\n\n  function uintUint(uint _paramOne, uint _paramTwo)\n  external\n  pure\n  returns (bytes32) {\n    return keccak256(abi.encodePacked(_paramOne, _paramTwo));\n  }\n\n\n  function uintUintUint(uint _paramOne, uint _paramTwo, uint _paramThree)\n  external\n  pure\n  returns (bytes32) {\n    return keccak256(abi.encodePacked(_paramOne, _paramTwo, _paramThree));\n  }\n\n  function currentTime()\n  external\n  view\n  returns (uint) {\n    return now;\n  }\n\n  function nullBytes()\n  external\n  pure\n  returns (bytes32) {\n    return bytes32(0);\n  }\n\n  function nullAddress()\n  external\n  pure\n  returns (address) {\n    return address(0);\n  }\n\nfunction ()\npublic {\n  revert();\n}\n\n\n\n\n\n}\n",
  "sourcePath": "/home/iamonuwa/Projects/MyBitFoundation/MyBit-Network.tech/contracts/test/HashFunctions.sol",
  "compiler": {
    "name": "solc",
    "version": "0.4.24+commit.e67f0147.Emscripten.clang"
  },
  "schemaVersion": "3.0.9",
  "updatedAt": "2020-07-27T21:29:57.036Z",
  "devdoc": {
    "methods": {}
  },
  "userdoc": {
    "methods": {}
  }
}