{
  "contractName": "MiniMeToken",
  "abi": [
    {
      "constant": true,
      "inputs": [],
      "name": "name",
      "outputs": [
        {
          "name": "",
          "type": "string"
        }
      ],
      "payable": false,
      "stateMutability": "view",
      "type": "function"
    },
    {
      "constant": true,
      "inputs": [],
      "name": "creationBlock",
      "outputs": [
        {
          "name": "",
          "type": "uint256"
        }
      ],
      "payable": false,
      "stateMutability": "view",
      "type": "function"
    },
    {
      "constant": true,
      "inputs": [],
      "name": "assetIncome",
      "outputs": [
        {
          "name": "",
          "type": "uint256"
        }
      ],
      "payable": false,
      "stateMutability": "view",
      "type": "function"
    },
    {
      "constant": true,
      "inputs": [],
      "name": "assetIncomeIssued",
      "outputs": [
        {
          "name": "",
          "type": "uint256"
        }
      ],
      "payable": false,
      "stateMutability": "view",
      "type": "function"
    },
    {
      "constant": true,
      "inputs": [],
      "name": "decimals",
      "outputs": [
        {
          "name": "",
          "type": "uint8"
        }
      ],
      "payable": false,
      "stateMutability": "view",
      "type": "function"
    },
    {
      "constant": false,
      "inputs": [
        {
          "name": "_newController",
          "type": "address"
        }
      ],
      "name": "changeController",
      "outputs": [],
      "payable": false,
      "stateMutability": "nonpayable",
      "type": "function"
    },
    {
      "constant": true,
      "inputs": [],
      "name": "version",
      "outputs": [
        {
          "name": "",
          "type": "string"
        }
      ],
      "payable": false,
      "stateMutability": "view",
      "type": "function"
    },
    {
      "constant": true,
      "inputs": [],
      "name": "erc20",
      "outputs": [
        {
          "name": "",
          "type": "address"
        }
      ],
      "payable": false,
      "stateMutability": "view",
      "type": "function"
    },
    {
      "constant": true,
      "inputs": [],
      "name": "parentToken",
      "outputs": [
        {
          "name": "",
          "type": "address"
        }
      ],
      "payable": false,
      "stateMutability": "view",
      "type": "function"
    },
    {
      "constant": true,
      "inputs": [],
      "name": "symbol",
      "outputs": [
        {
          "name": "",
          "type": "string"
        }
      ],
      "payable": false,
      "stateMutability": "view",
      "type": "function"
    },
    {
      "constant": true,
      "inputs": [],
      "name": "valuePerToken",
      "outputs": [
        {
          "name": "",
          "type": "uint256"
        }
      ],
      "payable": false,
      "stateMutability": "view",
      "type": "function"
    },
    {
      "constant": true,
      "inputs": [
        {
          "name": "",
          "type": "address"
        }
      ],
      "name": "incomeOwed",
      "outputs": [
        {
          "name": "",
          "type": "uint256"
        }
      ],
      "payable": false,
      "stateMutability": "view",
      "type": "function"
    },
    {
      "constant": true,
      "inputs": [],
      "name": "transfersEnabled",
      "outputs": [
        {
          "name": "",
          "type": "bool"
        }
      ],
      "payable": false,
      "stateMutability": "view",
      "type": "function"
    },
    {
      "constant": true,
      "inputs": [],
      "name": "parentSnapShotBlock",
      "outputs": [
        {
          "name": "",
          "type": "uint256"
        }
      ],
      "payable": false,
      "stateMutability": "view",
      "type": "function"
    },
    {
      "constant": true,
      "inputs": [],
      "name": "tokenFactory",
      "outputs": [
        {
          "name": "",
          "type": "address"
        }
      ],
      "payable": false,
      "stateMutability": "view",
      "type": "function"
    },
    {
      "constant": true,
      "inputs": [
        {
          "name": "",
          "type": "address"
        }
      ],
      "name": "previousValuePerToken",
      "outputs": [
        {
          "name": "",
          "type": "uint256"
        }
      ],
      "payable": false,
      "stateMutability": "view",
      "type": "function"
    },
    {
      "constant": true,
      "inputs": [],
      "name": "controller",
      "outputs": [
        {
          "name": "",
          "type": "address"
        }
      ],
      "payable": false,
      "stateMutability": "view",
      "type": "function"
    },
    {
      "inputs": [
        {
          "name": "_tokenFactory",
          "type": "address"
        },
        {
          "name": "_parentToken",
          "type": "address"
        },
        {
          "name": "_parentSnapShotBlock",
          "type": "uint256"
        },
        {
          "name": "_tokenName",
          "type": "string"
        },
        {
          "name": "_decimalUnits",
          "type": "uint8"
        },
        {
          "name": "_tokenSymbol",
          "type": "string"
        },
        {
          "name": "_transfersEnabled",
          "type": "bool"
        },
        {
          "name": "_erc20Address",
          "type": "address"
        }
      ],
      "payable": false,
      "stateMutability": "nonpayable",
      "type": "constructor"
    },
    {
      "payable": true,
      "stateMutability": "payable",
      "type": "fallback"
    },
    {
      "anonymous": false,
      "inputs": [
        {
          "indexed": true,
          "name": "_sender",
          "type": "address"
        },
        {
          "indexed": false,
          "name": "_paymentAmount",
          "type": "uint256"
        }
      ],
      "name": "LogIncomeReceived",
      "type": "event"
    },
    {
      "anonymous": false,
      "inputs": [
        {
          "indexed": false,
          "name": "_address",
          "type": "address"
        },
        {
          "indexed": false,
          "name": "_amount",
          "type": "uint256"
        }
      ],
      "name": "LogIncomeCollected",
      "type": "event"
    },
    {
      "anonymous": false,
      "inputs": [
        {
          "indexed": false,
          "name": "_difference",
          "type": "uint256"
        }
      ],
      "name": "LogCheckBalance",
      "type": "event"
    },
    {
      "anonymous": false,
      "inputs": [
        {
          "indexed": true,
          "name": "_token",
          "type": "address"
        },
        {
          "indexed": true,
          "name": "_controller",
          "type": "address"
        },
        {
          "indexed": false,
          "name": "_amount",
          "type": "uint256"
        }
      ],
      "name": "ClaimedTokens",
      "type": "event"
    },
    {
      "anonymous": false,
      "inputs": [
        {
          "indexed": true,
          "name": "_from",
          "type": "address"
        },
        {
          "indexed": true,
          "name": "_to",
          "type": "address"
        },
        {
          "indexed": false,
          "name": "_amount",
          "type": "uint256"
        }
      ],
      "name": "Transfer",
      "type": "event"
    },
    {
      "anonymous": false,
      "inputs": [
        {
          "indexed": true,
          "name": "_cloneToken",
          "type": "address"
        },
        {
          "indexed": false,
          "name": "_snapshotBlock",
          "type": "uint256"
        }
      ],
      "name": "NewCloneToken",
      "type": "event"
    },
    {
      "anonymous": false,
      "inputs": [
        {
          "indexed": true,
          "name": "_owner",
          "type": "address"
        },
        {
          "indexed": true,
          "name": "_spender",
          "type": "address"
        },
        {
          "indexed": false,
          "name": "_amount",
          "type": "uint256"
        }
      ],
      "name": "Approval",
      "type": "event"
    },
    {
      "constant": false,
      "inputs": [
        {
          "name": "_to",
          "type": "address"
        },
        {
          "name": "_amount",
          "type": "uint256"
        }
      ],
      "name": "transfer",
      "outputs": [
        {
          "name": "success",
          "type": "bool"
        }
      ],
      "payable": false,
      "stateMutability": "nonpayable",
      "type": "function"
    },
    {
      "constant": false,
      "inputs": [
        {
          "name": "_from",
          "type": "address"
        },
        {
          "name": "_to",
          "type": "address"
        },
        {
          "name": "_amount",
          "type": "uint256"
        }
      ],
      "name": "transferFrom",
      "outputs": [
        {
          "name": "success",
          "type": "bool"
        }
      ],
      "payable": false,
      "stateMutability": "nonpayable",
      "type": "function"
    },
    {
      "constant": true,
      "inputs": [
        {
          "name": "_owner",
          "type": "address"
        }
      ],
      "name": "balanceOf",
      "outputs": [
        {
          "name": "balance",
          "type": "uint256"
        }
      ],
      "payable": false,
      "stateMutability": "view",
      "type": "function"
    },
    {
      "constant": false,
      "inputs": [
        {
          "name": "_spender",
          "type": "address"
        },
        {
          "name": "_amount",
          "type": "uint256"
        }
      ],
      "name": "approve",
      "outputs": [
        {
          "name": "success",
          "type": "bool"
        }
      ],
      "payable": false,
      "stateMutability": "nonpayable",
      "type": "function"
    },
    {
      "constant": true,
      "inputs": [
        {
          "name": "_owner",
          "type": "address"
        },
        {
          "name": "_spender",
          "type": "address"
        }
      ],
      "name": "allowance",
      "outputs": [
        {
          "name": "remaining",
          "type": "uint256"
        }
      ],
      "payable": false,
      "stateMutability": "view",
      "type": "function"
    },
    {
      "constant": false,
      "inputs": [
        {
          "name": "_spender",
          "type": "address"
        },
        {
          "name": "_amount",
          "type": "uint256"
        },
        {
          "name": "_extraData",
          "type": "bytes"
        }
      ],
      "name": "approveAndCall",
      "outputs": [
        {
          "name": "success",
          "type": "bool"
        }
      ],
      "payable": false,
      "stateMutability": "nonpayable",
      "type": "function"
    },
    {
      "constant": true,
      "inputs": [],
      "name": "totalSupply",
      "outputs": [
        {
          "name": "",
          "type": "uint256"
        }
      ],
      "payable": false,
      "stateMutability": "view",
      "type": "function"
    },
    {
      "constant": false,
      "inputs": [],
      "name": "withdraw",
      "outputs": [
        {
          "name": "",
          "type": "bool"
        }
      ],
      "payable": false,
      "stateMutability": "nonpayable",
      "type": "function"
    },
    {
      "constant": false,
      "inputs": [
        {
          "name": "_amount",
          "type": "uint256"
        }
      ],
      "name": "issueDividends",
      "outputs": [
        {
          "name": "",
          "type": "bool"
        }
      ],
      "payable": true,
      "stateMutability": "payable",
      "type": "function"
    },
    {
      "constant": false,
      "inputs": [],
      "name": "checkForTransfers",
      "outputs": [],
      "payable": false,
      "stateMutability": "nonpayable",
      "type": "function"
    },
    {
      "constant": true,
      "inputs": [
        {
          "name": "_investor",
          "type": "address"
        }
      ],
      "name": "getAmountOwed",
      "outputs": [
        {
          "name": "",
          "type": "uint256"
        }
      ],
      "payable": false,
      "stateMutability": "view",
      "type": "function"
    },
    {
      "constant": true,
      "inputs": [],
      "name": "getERC20",
      "outputs": [
        {
          "name": "",
          "type": "address"
        }
      ],
      "payable": false,
      "stateMutability": "view",
      "type": "function"
    },
    {
      "constant": true,
      "inputs": [
        {
          "name": "_owner",
          "type": "address"
        },
        {
          "name": "_blockNumber",
          "type": "uint256"
        }
      ],
      "name": "balanceOfAt",
      "outputs": [
        {
          "name": "",
          "type": "uint256"
        }
      ],
      "payable": false,
      "stateMutability": "view",
      "type": "function"
    },
    {
      "constant": true,
      "inputs": [
        {
          "name": "_blockNumber",
          "type": "uint256"
        }
      ],
      "name": "totalSupplyAt",
      "outputs": [
        {
          "name": "",
          "type": "uint256"
        }
      ],
      "payable": false,
      "stateMutability": "view",
      "type": "function"
    },
    {
      "constant": false,
      "inputs": [
        {
          "name": "_cloneTokenName",
          "type": "string"
        },
        {
          "name": "_cloneDecimalUnits",
          "type": "uint8"
        },
        {
          "name": "_cloneTokenSymbol",
          "type": "string"
        },
        {
          "name": "_snapshotBlock",
          "type": "uint256"
        },
        {
          "name": "_transfersEnabled",
          "type": "bool"
        },
        {
          "name": "_erc20Address",
          "type": "address"
        }
      ],
      "name": "createCloneToken",
      "outputs": [
        {
          "name": "",
          "type": "address"
        }
      ],
      "payable": false,
      "stateMutability": "nonpayable",
      "type": "function"
    },
    {
      "constant": false,
      "inputs": [
        {
          "name": "_owner",
          "type": "address"
        },
        {
          "name": "_amount",
          "type": "uint256"
        }
      ],
      "name": "generateTokens",
      "outputs": [
        {
          "name": "",
          "type": "bool"
        }
      ],
      "payable": false,
      "stateMutability": "nonpayable",
      "type": "function"
    },
    {
      "constant": false,
      "inputs": [
        {
          "name": "_transfersEnabled",
          "type": "bool"
        }
      ],
      "name": "enableTransfers",
      "outputs": [],
      "payable": false,
      "stateMutability": "nonpayable",
      "type": "function"
    },
    {
      "constant": false,
      "inputs": [
        {
          "name": "_token",
          "type": "address"
        }
      ],
      "name": "claimTokens",
      "outputs": [],
      "payable": false,
      "stateMutability": "nonpayable",
      "type": "function"
    }
  ],
  "bytecode": "0x60c0604052600760808190527f4d4d545f302e310000000000000000000000000000000000000000000000000060a090815262000040916004919062000176565b503480156200004e57600080fd5b506040516200250f3803806200250f8339810160409081528151602080840151928401516060850151608086015160a087015160c088015160e089015160008054600160a060020a0319163317905560118054600160a060020a038a166101000261010060a860020a031990911617905593890180519799959790969395929092019390929091620000e7916001919088019062000176565b506002805460ff191660ff861617905582516200010c90600390602086019062000176565b50600b8054600160a060020a031916600160a060020a0389811691909117909155600c8790556011805460ff191684151517905543600d55811615620001685760058054600160a060020a031916600160a060020a0383161790555b50505050505050506200021b565b828054600181600116156101000203166002900490600052602060002090601f016020900481019282601f10620001b957805160ff1916838001178555620001e9565b82800160010185558215620001e9579182015b82811115620001e9578251825591602001919060010190620001cc565b50620001f7929150620001fb565b5090565b6200021891905b80821115620001f7576000815560010162000202565b90565b6122e4806200022b6000396000f30060806040526004361061019d5763ffffffff60e060020a60003504166306fdde03811461024b578063095ea7b3146102d5578063176345141461030d57806318160ddd1461033457806323b872dd146103495780632ba1b3a1146103735780632da208e51461038857806330d0e75f1461039d578063313ce567146103b45780633bdfa920146103df5780633ccfd60b146104005780633cebb82314610415578063444581da146104365780634ece90a8146105085780634ee2cd7e1461051d57806352ff7fa91461054157806354fd4d501461054c57806370a0823114610561578063785e9e861461058257806380a5400114610597578063827f32c0146105ac57806395d89b41146105d0578063981b24d0146105e5578063a8fa8e52146105fd578063a9059cbb14610612578063b5a83d4314610636578063bef97c8714610657578063c5bcc4f11461066c578063cae9ca5114610681578063dd62ed3e146106ea578063df8de3e714610711578063e77772fe14610732578063efcb5dea14610747578063f41e60c514610768578063f77c479114610782575b600554600160a060020a0316156101b357600080fd5b6007546101c6903463ffffffff61079716565b6007556102106102016101d76107b1565b6101f5346d04ee2d6d415b85acef810000000063ffffffff6107c216565b9063ffffffff6107ed16565b6006549063ffffffff61079716565b60065560408051348152905133917fe3166012cb87b3dec8e117fe0e096a47387f94ea2ec12086ed8ae24ff8c237fe919081900360200190a2005b34801561025757600080fd5b50610260610804565b6040805160208082528351818301528351919283929083019185019080838360005b8381101561029a578181015183820152602001610282565b50505050905090810190601f1680156102c75780820380516001836020036101000a031916815260200191505b509250505060405180910390f35b3480156102e157600080fd5b506102f9600160a060020a0360043516602435610891565b604080519115158252519081900360200190f35b34801561031957600080fd5b50610322610a11565b60408051918252519081900360200190f35b34801561034057600080fd5b506103226107b1565b34801561035557600080fd5b506102f9600160a060020a0360043581169060243516604435610a17565b34801561037f57600080fd5b50610322610b42565b34801561039457600080fd5b50610322610b48565b3480156103a957600080fd5b506103b2610b4e565b005b3480156103c057600080fd5b506103c9610cb6565b6040805160ff9092168252519081900360200190f35b3480156103eb57600080fd5b50610322600160a060020a0360043516610cbf565b34801561040c57600080fd5b506102f9610d0d565b34801561042157600080fd5b506103b2600160a060020a0360043516610ec1565b34801561044257600080fd5b506040805160206004803580820135601f81018490048402850184019095528484526104ec94369492936024939284019190819084018382808284375050604080516020601f818a01358b0180359182018390048302840183018552818452989b60ff8b35169b909a909994019750919550918201935091508190840183828082843750949750508435955050505050602081013515159060400135600160a060020a0316610f07565b60408051600160a060020a039092168252519081900360200190f35b34801561051457600080fd5b506104ec61119a565b34801561052957600080fd5b50610322600160a060020a03600435166024356111a9565b6102f96004356112f6565b34801561055857600080fd5b50610260611523565b34801561056d57600080fd5b50610322600160a060020a036004351661157e565b34801561058e57600080fd5b506104ec61158a565b3480156105a357600080fd5b506104ec611599565b3480156105b857600080fd5b506102f9600160a060020a03600435166024356115a8565b3480156105dc57600080fd5b506102606116de565b3480156105f157600080fd5b50610322600435611739565b34801561060957600080fd5b5061032261182d565b34801561061e57600080fd5b506102f9600160a060020a0360043516602435611833565b34801561064257600080fd5b50610322600160a060020a03600435166118ca565b34801561066357600080fd5b506102f96118dc565b34801561067857600080fd5b506103226118e5565b34801561068d57600080fd5b50604080516020600460443581810135601f81018490048402850184019095528484526102f9948235600160a060020a03169460248035953695946064949201919081908401838280828437509497506118eb9650505050505050565b3480156106f657600080fd5b50610322600160a060020a0360043581169060243516611a78565b34801561071d57600080fd5b506103b2600160a060020a0360043516611aa3565b34801561073e57600080fd5b506104ec611ca5565b34801561075357600080fd5b50610322600160a060020a0360043516611cb9565b34801561077457600080fd5b506103b26004351515611ccb565b34801561078e57600080fd5b506104ec611cf5565b6000828201838110156107a657fe5b8091505b5092915050565b60006107bc43611739565b90505b90565b6000808315156107d557600091506107aa565b508282028284828115156107e557fe5b04146107a657fe5b600081838115156107fa57fe5b0490505b92915050565b60018054604080516020600284861615610100026000190190941693909304601f810184900484028201840190925281815292918301828280156108895780601f1061085e57610100808354040283529160200191610889565b820191906000526020600020905b81548152906001019060200180831161086c57829003601f168201915b505050505081565b60115460009060ff1615156108a557600080fd5b8115806108d35750336000908152600f60209081526040808320600160a060020a0387168452909152902054155b15156108de57600080fd5b6000546108f390600160a060020a0316611d04565b156109aa5760008054604080517fda682aeb000000000000000000000000000000000000000000000000000000008152336004820152600160a060020a038781166024830152604482018790529151919092169263da682aeb92606480820193602093909283900390910190829087803b15801561097057600080fd5b505af1158015610984573d6000803e3d6000fd5b505050506040513d602081101561099a57600080fd5b505115156001146109aa57600080fd5b336000818152600f60209081526040808320600160a060020a03881680855290835292819020869055805186815290519293927f8c5be1e5ebec7d5bd14f71427d1e84f3dd0314c0f7b2291e5b200ac8c7c3b925929181900390910190a350600192915050565b600d5481565b600083610a4b610a2682611d31565b600160a060020a0383166000908152600960205260409020549063ffffffff61079716565b600160a060020a038216600090815260096020908152604080832093909355600654600a9091529190205583610a83610a2682611d31565b600160a060020a03828116600090815260096020908152604080832094909455600654600a909152928120929092559054163314610b2b5760115460ff161515610acc57600080fd5b600160a060020a0386166000908152600f60209081526040808320338452909152902054841115610b005760009250610b39565b600160a060020a0386166000908152600f602090815260408083203384529091529020805485900390555b610b36868686611d81565b92505b50509392505050565b60075481565b60085481565b6000806000610b6a600854600754611f8990919063ffffffff16565b600554909350600160a060020a03161515610b885730319150610c1d565b600554604080517f70a082310000000000000000000000000000000000000000000000000000000081523060048201529051600160a060020a03909216916370a08231916024808201926020929091908290030181600087803b158015610bee57600080fd5b505af1158015610c02573d6000803e3d6000fd5b505050506040513d6020811015610c1857600080fd5b505191505b610c2d828463ffffffff611f8916565b90506000811115610c7e57610c64610201610c466107b1565b6101f5846d04ee2d6d415b85acef810000000063ffffffff6107c216565b600655600754610c7a908263ffffffff61079716565b6007555b6040805182815290517f0d7ab7150531466ac81cc2479d86788246bab0e9cc606a06ec6af5c8ab0d6f8e9181900360200190a1505050565b60025460ff1681565b600160a060020a038116600090815260096020526040812054610d05906d04ee2d6d415b85acef8100000000906101f590610cf986611d31565b9063ffffffff61079716565b90505b919050565b60008033610d1d610a2682611d31565b600160a060020a038216600090815260096020818152604080842094909455600654600a825284842055338352522054610d6b906d04ee2d6d415b85acef810000000063ffffffff6107ed16565b33600090815260096020526040812055600854909250610d91908363ffffffff61079716565b600855600554600160a060020a03161515610dd957604051339083156108fc029084906000818181858888f19350505050158015610dd3573d6000803e3d6000fd5b50610e7d565b600554604080517fa9059cbb000000000000000000000000000000000000000000000000000000008152336004820152602481018590529051600160a060020a039092169163a9059cbb916044808201926020929091908290030181600087803b158015610e4657600080fd5b505af1158015610e5a573d6000803e3d6000fd5b505050506040513d6020811015610e7057600080fd5b50511515610e7d57600080fd5b604080513381526020810184905281517ff5b510c554f6c572235f7e531ec8f287b350b15c212250b993180473a6aeb7d1929181900390910190a160019250505090565b600054600160a060020a03163314610ed857600080fd5b6000805473ffffffffffffffffffffffffffffffffffffffff1916600160a060020a0392909216919091179055565b600080808515610f175785610f28565b610f2843600163ffffffff611f8916565b9150601160019054906101000a9004600160a060020a0316600160a060020a031663c818acf730848c8c8c8b8b6040518863ffffffff1660e060020a0281526004018088600160a060020a0316600160a060020a03168152602001878152602001806020018660ff1660ff168152602001806020018515151515815260200184600160a060020a0316600160a060020a03168152602001838103835288818151815260200191508051906020019080838360005b83811015610ff4578181015183820152602001610fdc565b50505050905090810190601f1680156110215780820380516001836020036101000a031916815260200191505b50838103825286518152865160209182019188019080838360005b8381101561105457818101518382015260200161103c565b50505050905090810190601f1680156110815780820380516001836020036101000a031916815260200191505b509950505050505050505050602060405180830381600087803b1580156110a757600080fd5b505af11580156110bb573d6000803e3d6000fd5b505050506040513d60208110156110d157600080fd5b5051604080517f3cebb8230000000000000000000000000000000000000000000000000000000081523360048201529051919250600160a060020a03831691633cebb8239160248082019260009290919082900301818387803b15801561113757600080fd5b505af115801561114b573d6000803e3d6000fd5b5050604080518581529051600160a060020a03851693507f086c875b377f900b07ce03575813022f05dd10ed7640b5282cf6d3c3fc352ade92509081900360200190a298975050505050505050565b600554600160a060020a031690565b600160a060020a0382166000908152600e602052604081205415806112055750600160a060020a0383166000908152600e60205260408120805484929081106111ee57fe5b6000918252602090912001546001608060020a0316115b156112cd57600b54600160a060020a0316156112c557600b54600c54600160a060020a0390911690634ee2cd7e908590611240908690611f9b565b6040518363ffffffff1660e060020a0281526004018083600160a060020a0316600160a060020a0316815260200182815260200192505050602060405180830381600087803b15801561129257600080fd5b505af11580156112a6573d6000803e3d6000fd5b505050506040513d60208110156112bc57600080fd5b505190506107fe565b5060006107fe565b600160a060020a0383166000908152600e602052604090206112ef9083611fb1565b90506107fe565b600080821161136657604080517f08c379a000000000000000000000000000000000000000000000000000000000815260206004820152601060248201527f43616e6e6f742073656e64207a65726f00000000000000000000000000000000604482015290519081900360640190fd5b600554600160a060020a031615156113895734821461138457600080fd5b6114a0565b341561139457600080fd5b600554604080517f23b872dd000000000000000000000000000000000000000000000000000000008152336004820152306024820152604481018590529051600160a060020a03909216916323b872dd916064808201926020929091908290030181600087803b15801561140757600080fd5b505af115801561141b573d6000803e3d6000fd5b505050506040513d602081101561143157600080fd5b505115156114a057604080517f08c379a000000000000000000000000000000000000000000000000000000000815260206004820152600f60248201527f5472616e73666572206661696c65640000000000000000000000000000000000604482015290519081900360640190fd5b6007546114b3908363ffffffff61079716565b6007556114e26102016114c46107b1565b6101f5856d04ee2d6d415b85acef810000000063ffffffff6107c216565b60065560408051838152905133917fe3166012cb87b3dec8e117fe0e096a47387f94ea2ec12086ed8ae24ff8c237fe919081900360200190a2506001919050565b6004805460408051602060026001851615610100026000190190941693909304601f810184900484028201840190925281815292918301828280156108895780601f1061085e57610100808354040283529160200191610889565b6000610d0582436111a9565b600554600160a060020a031681565b600b54600160a060020a031681565b6000805481908190600160a060020a031633146115c457600080fd5b846115d1610a2682611d31565b600160a060020a038216600090815260096020908152604080832093909355600654600a909152919020556116046107b1565b925082611617818763ffffffff61079716565b101561162257600080fd5b61162b8661157e565b91508161163e818763ffffffff61079716565b101561164957600080fd5b611663601061165e858863ffffffff61079716565b61216b565b600160a060020a0386166000908152600e6020526040902061168f9061165e848863ffffffff61079716565b604080518681529051600160a060020a038816916000917fddf252ad1be2c89b69c2b068fc378daa952ba7f163c4a11628f55a4df523b3ef9181900360200190a3600193505b50505092915050565b6003805460408051602060026001851615610100026000190190941693909304601f810184900484028201840190925281815292918301828280156108895780601f1061085e57610100808354040283529160200191610889565b601054600090158061176e5750816010600081548110151561175757fe5b6000918252602090912001546001608060020a0316115b1561181b57600b54600160a060020a03161561181357600b54600c54600160a060020a039091169063981b24d0906117a7908590611f9b565b6040518263ffffffff1660e060020a02815260040180828152602001915050602060405180830381600087803b1580156117e057600080fd5b505af11580156117f4573d6000803e3d6000fd5b505050506040513d602081101561180a57600080fd5b50519050610d08565b506000610d08565b611826601083611fb1565b9050610d08565b60065481565b600033611842610a2682611d31565b600160a060020a038216600090815260096020908152604080832093909355600654600a909152919020558361187a610a2682611d31565b600160a060020a038216600090815260096020908152604080832093909355600654600a9091529190205560115460ff1615156118b657600080fd5b6118c1338686611d81565b95945050505050565b60096020526000908152604090205481565b60115460ff1681565b600c5481565b6000336118fa610a2682611d31565b600160a060020a038216600090815260096020908152604080832093909355600654600a9091529190205584611932610a2682611d31565b600160a060020a038216600090815260096020908152604080832093909355600654600a909152919020556119678686610891565b151561197257600080fd5b6040517f8f4ffcb10000000000000000000000000000000000000000000000000000000081523360048201818152602483018890523060448401819052608060648501908152885160848601528851600160a060020a038c1695638f4ffcb195948c94938c939192909160a490910190602085019080838360005b83811015611a055781810151838201526020016119ed565b50505050905090810190601f168015611a325780820380516001836020036101000a031916815260200191505b5095505050505050600060405180830381600087803b158015611a5457600080fd5b505af1158015611a68573d6000803e3d6000fd5b5060019998505050505050505050565b600160a060020a039182166000908152600f6020908152604080832093909416825291909152205490565b600080548190600160a060020a03163314611abd57600080fd5b600554600160a060020a0384811691161415611ad857600080fd5b600160a060020a0383161515611b295760008054604051600160a060020a0390911691303180156108fc02929091818181858888f19350505050158015611b23573d6000803e3d6000fd5b50611ca0565b604080517f70a082310000000000000000000000000000000000000000000000000000000081523060048201529051849350600160a060020a038416916370a082319160248083019260209291908290030181600087803b158015611b8d57600080fd5b505af1158015611ba1573d6000803e3d6000fd5b505050506040513d6020811015611bb757600080fd5b505160008054604080517fa9059cbb000000000000000000000000000000000000000000000000000000008152600160a060020a0392831660048201526024810185905290519394509085169263a9059cbb92604480840193602093929083900390910190829087803b158015611c2d57600080fd5b505af1158015611c41573d6000803e3d6000fd5b505050506040513d6020811015611c5757600080fd5b5050600054604080518381529051600160a060020a03928316928616917ff931edb47c50b4b4104c187b5814a9aef5f709e17e2ecf9617e860cacade929c919081900360200190a35b505050565b6011546101009004600160a060020a031681565b600a6020526000908152604090205481565b600054600160a060020a03163314611ce257600080fd5b6011805460ff1916911515919091179055565b600054600160a060020a031681565b600080600160a060020a0383161515611d205760009150611d2b565b823b90506000811191505b50919050565b600160a060020a0381166000908152600a60205260408120546006548291611d5f919063ffffffff611f8916565b9050611d7a611d6d8461157e565b829063ffffffff6107c216565b9392505050565b60008080831515611d955760019250610b39565b600c544311611da357600080fd5b600160a060020a03851615801590611dc45750600160a060020a0385163014155b1515611dcf57600080fd5b611dd986436111a9565b915083821015611dec5760009250610b39565b600054611e0190600160a060020a0316611d04565b15611eba5760008054604080517f4a393149000000000000000000000000000000000000000000000000000000008152600160a060020a038a8116600483015289811660248301526044820189905291519190921692634a39314992606480820193602093909283900390910190829087803b158015611e8057600080fd5b505af1158015611e94573d6000803e3d6000fd5b505050506040513d6020811015611eaa57600080fd5b50511515600114611eba57600080fd5b600160a060020a0386166000908152600e60205260409020611ede9085840361216b565b611ee885436111a9565b905080611efb818663ffffffff61079716565b1015611f0657600080fd5b600160a060020a0385166000908152600e60205260409020611f329061165e838763ffffffff61079716565b84600160a060020a031686600160a060020a03167fddf252ad1be2c89b69c2b068fc378daa952ba7f163c4a11628f55a4df523b3ef866040518082815260200191505060405180910390a350600195945050505050565b600082821115611f9557fe5b50900390565b6000818310611faa5781611d7a565b5090919050565b600080600080858054905060001415611fcd57600093506116d5565b85548690611fe290600163ffffffff611f8916565b81548110611fec57fe5b6000918252602090912001546001608060020a03168510612056578554869061201c90600163ffffffff611f8916565b8154811061202657fe5b60009182526020909120015470010000000000000000000000000000000090046001608060020a031693506116d5565b85600081548110151561206557fe5b6000918252602090912001546001608060020a031685101561208a57600093506116d5565b8554600093506120a190600163ffffffff611f8916565b91505b8282111561212a576120de60026120d26120c586600163ffffffff61079716565b859063ffffffff61079716565b9063ffffffff611f8916565b90508486828154811015156120ef57fe5b6000918252602090912001546001608060020a03161161211157809250612125565b61212281600163ffffffff611f8916565b91505b6120a4565b858381548110151561213857fe5b60009182526020909120015470010000000000000000000000000000000090046001608060020a03169695505050505050565b8154600090819015806121b1575083544390859061219090600163ffffffff611f8916565b8154811061219a57fe5b6000918252602090912001546001608060020a0316105b1561222357835484906121c7826001830161227b565b815481106121d157fe5b600091825260209091200180546001608060020a03858116700100000000000000000000000000000000024382166fffffffffffffffffffffffffffffffff1990931692909217161781559150612275565b8354849061223890600163ffffffff611f8916565b8154811061224257fe5b600091825260209091200180546001608060020a0380861670010000000000000000000000000000000002911617815590505b50505050565b815481835581811115611ca057600083815260209020611ca09181019083016107bf91905b808211156122b457600081556001016122a0565b50905600a165627a7a7230582046b96adebca60719996ff7ff130c7a8f4ef0c8f41d650047b8166faa8cd385700029",
  "source": "pragma solidity ^0.4.24;\n\n/*\n    Copyright 2016, Jordi Baylina\n    This program is free software: you can redistribute it and/or modify\n    it under the terms of the GNU General Public License as published by\n    the Free Software Foundation, either version 3 of the License, or\n    (at your option) any later version.\n    This program is distributed in the hope that it will be useful,\n    but WITHOUT ANY WARRANTY; without even the implied warranty of\n    MERCHANTABILITY or FITNESS FOR A PARTICULAR PURPOSE.  See the\n    GNU General Public License for more details.\n    You should have received a copy of the GNU General Public License\n    along with this program.  If not, see <http://www.gnu.org/licenses/>.\n */\n\n/// @title MiniMeToken Contract\n/// @author Jordi Baylina (with modifications by Peter Phillips)\n/// @dev This token contract's goal is to make it easy for anyone to clone this\n///  token using the token distribution at a given block, this will allow DAO's\n///  and DApps to upgrade their features in a decentralized manner without\n///  affecting the original token\n/// @dev It is ERC20 compliant, but still needs to under go further testing.\n\nimport '../../math/SafeMath.sol';\nimport \"../../interfaces/ERC20.sol\";\nimport \"../../interfaces/ITokenController.sol\";\n\ncontract Controlled {\n    /// @notice The address of the controller is the only address that can call\n    ///  a function with this modifier\n    modifier onlyController {\n        require(msg.sender == controller);\n        _;\n    }\n\n    address public controller;\n\n    constructor()  public { controller = msg.sender;}\n\n    /// @notice Changes the controller of the contract\n    /// @param _newController The new controller of the contract\n    function changeController(address _newController) onlyController public {\n        controller = _newController;\n    }\n}\n\ncontract ApproveAndCallFallBack {\n    function receiveApproval(\n        address from,\n        uint256 _amount,\n        address _token,\n        bytes _data\n    ) public;\n}\n\n/// @dev The actual token contract, the default controller is the msg.sender\n///  that deploys the contract, so usually this token will be deployed by a\n///  token controller contract, which Giveth will call a \"Campaign\"\ncontract MiniMeToken is Controlled {\n    using SafeMath for uint;\n\n    string public name;                //The Token's name: e.g. DigixDAO Tokens\n    uint8 public decimals;             //Number of decimals of the smallest unit\n    string public symbol;              //An identifier: e.g. REP\n    string public version = \"MMT_0.1\"; //An arbitrary versioning scheme\n    ERC20 public erc20;                //The token that is distributed by this contract (0x0 if Ether)\n\n    // @notice Token Income Information\n    uint constant scalingFactor = 1e32;//Value to scale numbers to avoid rounding issues\n    uint public valuePerToken;         //The current value each token has received in funding\n    uint public assetIncome;           //The amount of income this contract has received\n    uint public assetIncomeIssued;     //The amount of income that has been withdrawn\n    mapping (address => uint) public incomeOwed;           //The income owed for each address\n    mapping (address => uint) public previousValuePerToken;//The value of each token last time the address has withdrawn\n\n\n    /// @dev `Checkpoint` is the structure that attaches a block number to a\n    ///  given value, the block number attached is the one that last changed the\n    ///  value\n    struct Checkpoint {\n\n        // `fromBlock` is the block number that the value was generated from\n        uint128 fromBlock;\n\n        // `value` is the amount of tokens at a specific block number\n        uint128 value;\n    }\n\n    // `parentToken` is the Token address that was cloned to produce this token;\n    //  it will be 0x0 for a token that was not cloned\n    MiniMeToken public parentToken;\n\n    // `parentSnapShotBlock` is the block number from the Parent Token that was\n    //  used to determine the initial distribution of the Clone Token\n    uint public parentSnapShotBlock;\n\n    // `creationBlock` is the block number that the Clone Token was created\n    uint public creationBlock;\n\n    // `balances` is the map that tracks the balance of each address, in this\n    //  contract when the balance changes the block number that the change\n    //  occurred is also included in the map\n    mapping (address => Checkpoint[]) balances;\n\n    // `allowed` tracks any extra transfer rights as in all ERC20 tokens\n    mapping (address => mapping (address => uint256)) allowed;\n\n    // Tracks the history of the `totalSupply` of the token\n    Checkpoint[] totalSupplyHistory;\n\n    // Flag that determines if the token is transferable or not.\n    bool public transfersEnabled;\n\n    // The factory used to create new clone tokens\n    MiniMeTokenFactory public tokenFactory;\n\n////////////////\n// Constructor\n////////////////\n\n    /// @notice Constructor to create a MiniMeToken\n    /// @param _tokenFactory The address of the MiniMeTokenFactory contract that\n    ///  will create the Clone token contracts, the token factory needs to be\n    ///  deployed first\n    /// @param _parentToken Address of the parent token, set to 0x0 if it is a\n    ///  new token\n    /// @param _parentSnapShotBlock Block of the parent token that will\n    ///  determine the initial distribution of the clone token, set to 0 if it\n    ///  is a new token\n    /// @param _tokenName Name of the new token\n    /// @param _decimalUnits Number of decimals of the new token\n    /// @param _tokenSymbol Token Symbol for the new token\n    /// @param _transfersEnabled If true, tokens will be able to be transferred\n    constructor(\n        MiniMeTokenFactory _tokenFactory,\n        MiniMeToken _parentToken,\n        uint _parentSnapShotBlock,\n        string _tokenName,\n        uint8 _decimalUnits,\n        string _tokenSymbol,\n        bool _transfersEnabled,\n        address _erc20Address\n    )  public\n    {\n        tokenFactory = _tokenFactory;\n        name = _tokenName;                                 // Set the name\n        decimals = _decimalUnits;                          // Set the decimals\n        symbol = _tokenSymbol;                             // Set the symbol\n        parentToken = _parentToken;\n        parentSnapShotBlock = _parentSnapShotBlock;\n        transfersEnabled = _transfersEnabled;\n        creationBlock = block.number;\n        if(_erc20Address != address(0)){\n          erc20 = ERC20(_erc20Address); //Set the address of the ERC20 token that will be issued as dividends\n        }\n    }\n\n\n///////////////////\n// ERC20 Methods\n///////////////////\n\n    /// @notice Send `_amount` tokens to `_to` from `msg.sender`\n    /// @param _to The address of the recipient\n    /// @param _amount The amount of tokens to be transferred\n    /// @return Whether the transfer was successful or not\n    function transfer(address _to, uint256 _amount)\n    public\n    updateIncomeClaimed(msg.sender)\n    updateIncomeClaimed(_to)\n    returns (bool success) {\n        require(transfersEnabled);\n        return doTransfer(msg.sender, _to, _amount);\n    }\n\n    /// @notice Send `_amount` tokens to `_to` from `_from` on the condition it\n    ///  is approved by `_from`\n    /// @param _from The address holding the tokens being transferred\n    /// @param _to The address of the recipient\n    /// @param _amount The amount of tokens to be transferred\n    /// @return True if the transfer was successful\n    function transferFrom(address _from, address _to, uint256 _amount)\n    public\n    updateIncomeClaimed(_from)\n    updateIncomeClaimed(_to)\n    returns (bool success) {\n\n        // The controller of this contract can move tokens around at will,\n        //  this is important to recognize! Confirm that you trust the\n        //  controller of this contract, which in most situations should be\n        //  another open source smart contract or 0x0\n        if (msg.sender != controller) {\n            require(transfersEnabled);\n\n            // The standard ERC 20 transferFrom functionality\n            if (allowed[_from][msg.sender] < _amount)\n                return false;\n            allowed[_from][msg.sender] -= _amount;\n        }\n        return doTransfer(_from, _to, _amount);\n    }\n\n    /// @dev This is the actual transfer function in the token contract, it can\n    ///  only be called by other functions in this contract.\n    /// @param _from The address holding the tokens being transferred\n    /// @param _to The address of the recipient\n    /// @param _amount The amount of tokens to be transferred\n    /// @return True if the transfer was successful\n    function doTransfer(address _from, address _to, uint _amount) internal returns(bool) {\n        if (_amount == 0) {\n            return true;\n        }\n        require(parentSnapShotBlock < block.number);\n        // Do not allow transfer to 0x0 or the token contract itself\n        require((_to != 0) && (_to != address(this)));\n        // If the amount being transfered is more than the balance of the\n        //  account the transfer returns false\n        uint256 previousBalanceFrom = balanceOfAt(_from, block.number);\n        if (previousBalanceFrom < _amount) {\n            return false;\n        }\n        // Alerts the token controller of the transfer\n        if (isContract(controller)) {\n            // Adding the ` == true` makes the linter shut up so...\n            require(ITokenController(controller).onTransfer(_from, _to, _amount) == true);\n        }\n        // First update the balance array with the new value for the address\n        //  sending the tokens\n        updateValueAtNow(balances[_from], previousBalanceFrom - _amount);\n        // Then update the balance array with the new value for the address\n        //  receiving the tokens\n        uint256 previousBalanceTo = balanceOfAt(_to, block.number);\n        require(previousBalanceTo.add(_amount) >= previousBalanceTo); // Check for overflow\n        updateValueAtNow(balances[_to], previousBalanceTo.add(_amount));\n        // An event to make the transfer easy to find on the blockchain\n        emit Transfer(_from, _to, _amount);\n        return true;\n    }\n\n    /// @param _owner The address that's balance is being requested\n    /// @return The balance of `_owner` at the current block\n    function balanceOf(address _owner) public constant returns (uint256 balance) {\n        return balanceOfAt(_owner, block.number);\n    }\n\n    /// @notice `msg.sender` approves `_spender` to spend `_amount` tokens on\n    ///  its behalf. This is a modified version of the ERC20 approve function\n    ///  to be a little bit safer\n    /// @param _spender The address of the account able to transfer the tokens\n    /// @param _amount The amount of tokens to be approved for transfer\n    /// @return True if the approval was successful\n    function approve(address _spender, uint256 _amount) public returns (bool success) {\n        require(transfersEnabled);\n\n        // To change the approve amount you first have to reduce the addresses`\n        //  allowance to zero by calling `approve(_spender,0)` if it is not\n        //  already 0 to mitigate the race condition described here:\n        //  https://github.com/ethereum/EIPs/issues/20#issuecomment-263524729\n        require((_amount == 0) || (allowed[msg.sender][_spender] == 0));\n\n        // Alerts the token controller of the approve function call\n        if (isContract(controller)) {\n            // Adding the ` == true` makes the linter shut up so...\n            require(ITokenController(controller).onApprove(msg.sender, _spender, _amount) == true);\n        }\n\n        allowed[msg.sender][_spender] = _amount;\n        emit Approval(msg.sender, _spender, _amount);\n        return true;\n    }\n\n    /// @dev This function makes it easy to read the `allowed[]` map\n    /// @param _owner The address of the account that owns the token\n    /// @param _spender The address of the account able to transfer the tokens\n    /// @return Amount of remaining tokens of _owner that _spender is allowed\n    ///  to spend\n    function allowance(address _owner, address _spender) public constant returns (uint256 remaining) {\n        return allowed[_owner][_spender];\n    }\n\n    /// @notice `msg.sender` approves `_spender` to send `_amount` tokens on\n    ///  its behalf, and then a function is triggered in the contract that is\n    ///  being approved, `_spender`. This allows users to use their tokens to\n    ///  interact with contracts in one function call instead of two\n    /// @param _spender The address of the contract able to transfer the tokens\n    /// @param _amount The amount of tokens to be approved for transfer\n    /// @return True if the function call was successful\n    function approveAndCall(ApproveAndCallFallBack _spender, uint256 _amount, bytes _extraData)\n    public\n    updateIncomeClaimed(msg.sender)\n    updateIncomeClaimed(_spender)\n    returns (bool success) {\n        require(approve(_spender, _amount));\n\n        _spender.receiveApproval(\n            msg.sender,\n            _amount,\n            this,\n            _extraData\n        );\n\n        return true;\n    }\n\n    /// @dev This function makes it easy to get the total number of tokens\n    /// @return The total number of tokens\n    function totalSupply() public constant returns (uint) {\n        return totalSupplyAt(block.number);\n    }\n\n\n////////////////\n// Distribution methods\n////////////////\n\n    // @notice token holders can withdraw income here\n    function withdraw()\n    external\n    updateIncomeClaimed(msg.sender)\n    returns (bool) {\n        uint amount = incomeOwed[msg.sender].div(scalingFactor);\n        delete incomeOwed[msg.sender];\n        assetIncomeIssued = assetIncomeIssued.add(amount);\n        if(address(erc20) == address(0)){\n          msg.sender.transfer(amount);\n        } else {\n          require(erc20.transfer(msg.sender, amount));\n        }\n        emit LogIncomeCollected(msg.sender, amount);\n        return true;\n    }\n\n    // @notice assets can send their income here to be collected by investors\n    function issueDividends(uint256 _amount)\n    payable\n    external\n    returns (bool) {\n        require(_amount > 0, \"Cannot send zero\");\n        if(address(erc20) == address(0)){\n          require(msg.value == _amount);\n        } else {\n          require(msg.value == 0);\n          require(erc20.transferFrom(msg.sender, address(this), _amount), \"Transfer failed\");\n        }\n        assetIncome = assetIncome.add(_amount);\n        valuePerToken = valuePerToken.add(_amount.mul(scalingFactor).div(totalSupply()));\n        emit LogIncomeReceived(msg.sender, _amount);\n        return true;\n    }\n\n    //In case a investor transferred a token directly to this contract\n    //anyone can run this function to clean up the balances\n    //and distribute the difference to token holders\n    function checkForTransfers()\n    external {\n      uint bookBalance = assetIncome.sub(assetIncomeIssued);\n      uint actualBalance;\n      if(address(erc20) == address(0)){\n        actualBalance = address(this).balance;\n      } else {\n        actualBalance = erc20.balanceOf(this);\n      }\n      uint diffBalance = actualBalance.sub(bookBalance);\n      if(diffBalance > 0){\n        //Update value per token\n        valuePerToken = valuePerToken.add(diffBalance.mul(scalingFactor).div(totalSupply()));\n        assetIncome = assetIncome.add(diffBalance);\n      }\n      emit LogCheckBalance(diffBalance);\n    }\n\n    // ------------------------------------------------------------------------\n    //                           View functions\n    // ------------------------------------------------------------------------\n\n    // @notice Calculates how much more income is owed to investor since last calculation\n    function collectLatestPayments(address _investor)\n    private\n    view\n    returns (uint) {\n        uint valuePerTokenDifference = valuePerToken.sub(previousValuePerToken[_investor]);\n        return valuePerTokenDifference.mul(balanceOf(_investor));\n    }\n\n    // @notice Calculates how much wei investor is owed. (points + incomeOwed) / 10**32\n    function getAmountOwed(address _investor)\n    public\n    view\n    returns (uint) {\n        return (collectLatestPayments(_investor).add(incomeOwed[_investor]).div(scalingFactor));\n    }\n\n    // @notice returns ERC20 token. Returns null if the token uses Ether.\n    function getERC20()\n    external\n    view\n    returns(address){\n      return address(erc20);\n    }\n\n    // ------------------------------------------------------------------------\n    //                            Modifiers\n    // ------------------------------------------------------------------------\n\n    // Updates the amount owed to investor while holding tokenSupply\n    // @dev must be called before transfering tokens\n    modifier updateIncomeClaimed(address _investor) {\n        incomeOwed[_investor] = incomeOwed[_investor].add(collectLatestPayments(_investor));\n        previousValuePerToken[_investor] = valuePerToken;\n        _;\n    }\n\n\n////////////////\n// Query balance and totalSupply in History\n////////////////\n\n    /// @dev Queries the balance of `_owner` at a specific `_blockNumber`\n    /// @param _owner The address from which the balance will be retrieved\n    /// @param _blockNumber The block number when the balance is queried\n    /// @return The balance at `_blockNumber`\n    function balanceOfAt(address _owner, uint _blockNumber) public constant returns (uint) {\n\n        // These next few lines are used when the balance of the token is\n        //  requested before a check point was ever created for this token, it\n        //  requires that the `parentToken.balanceOfAt` be queried at the\n        //  genesis block for that token as this contains initial balance of\n        //  this token\n        if ((balances[_owner].length == 0) || (balances[_owner][0].fromBlock > _blockNumber)) {\n            if (address(parentToken) != 0) {\n                return parentToken.balanceOfAt(_owner, min(_blockNumber, parentSnapShotBlock));\n            } else {\n                // Has no parent\n                return 0;\n            }\n\n        // This will return the expected balance during normal situations\n        } else {\n            return getValueAt(balances[_owner], _blockNumber);\n        }\n    }\n\n    /// @notice Total amount of tokens at a specific `_blockNumber`.\n    /// @param _blockNumber The block number when the totalSupply is queried\n    /// @return The total amount of tokens at `_blockNumber`\n    function totalSupplyAt(uint _blockNumber) public constant returns(uint) {\n\n        // These next few lines are used when the totalSupply of the token is\n        //  requested before a check point was ever created for this token, it\n        //  requires that the `parentToken.totalSupplyAt` be queried at the\n        //  genesis block for this token as that contains totalSupply of this\n        //  token at this block number.\n        if ((totalSupplyHistory.length == 0) || (totalSupplyHistory[0].fromBlock > _blockNumber)) {\n            if (address(parentToken) != 0) {\n                return parentToken.totalSupplyAt(min(_blockNumber, parentSnapShotBlock));\n            } else {\n                return 0;\n            }\n\n        // This will return the expected totalSupply during normal situations\n        } else {\n            return getValueAt(totalSupplyHistory, _blockNumber);\n        }\n    }\n\n////////////////\n// Clone Token Method\n////////////////\n\n    /// @notice Creates a new clone token with the initial distribution being\n    ///  this token at `_snapshotBlock`\n    /// @param _cloneTokenName Name of the clone token\n    /// @param _cloneDecimalUnits Number of decimals of the smallest unit\n    /// @param _cloneTokenSymbol Symbol of the clone token\n    /// @param _snapshotBlock Block when the distribution of the parent token is\n    ///  copied to set the initial distribution of the new clone token;\n    ///  if the block is zero than the actual block, the current block is used\n    /// @param _transfersEnabled True if transfers are allowed in the clone\n    /// @return The address of the new MiniMeToken Contract\n    function createCloneToken(\n        string _cloneTokenName,\n        uint8 _cloneDecimalUnits,\n        string _cloneTokenSymbol,\n        uint _snapshotBlock,\n        bool _transfersEnabled,\n        address _erc20Address\n    ) public returns(MiniMeToken)\n    {\n        uint256 snapshot = _snapshotBlock == 0 ? block.number.sub(1) : _snapshotBlock;\n\n        MiniMeToken cloneToken = tokenFactory.createCloneToken(\n            this,\n            snapshot,\n            _cloneTokenName,\n            _cloneDecimalUnits,\n            _cloneTokenSymbol,\n            _transfersEnabled,\n            _erc20Address\n        );\n\n        cloneToken.changeController(msg.sender);\n\n        // An event to make the token easy to find on the blockchain\n        emit NewCloneToken(address(cloneToken), snapshot);\n        return cloneToken;\n    }\n\n////////////////\n// Generate and destroy tokens\n////////////////\n\n    /// @notice Generates `_amount` tokens that are assigned to `_owner`\n    /// @param _owner The address that will be assigned the new tokens\n    /// @param _amount The quantity of tokens generated\n    /// @return True if the tokens are generated correctly\n    function generateTokens(address _owner, uint _amount)\n    onlyController\n    updateIncomeClaimed(_owner)\n    public\n    returns (bool) {\n        uint curTotalSupply = totalSupply();\n        require(curTotalSupply.add(_amount) >= curTotalSupply); // Check for overflow\n        uint previousBalanceTo = balanceOf(_owner);\n        require(previousBalanceTo.add(_amount) >= previousBalanceTo); // Check for overflow\n        updateValueAtNow(totalSupplyHistory, curTotalSupply.add(_amount));\n        updateValueAtNow(balances[_owner], previousBalanceTo.add(_amount));\n        emit Transfer(0, _owner, _amount);\n        return true;\n    }\n\n    // @notice Removing this function as we don't want to destroy investors' assets\n    /// @notice Burns `_amount` tokens from `_owner`\n    /// @param _owner The address that will lose the tokens\n    /// @param _amount The quantity of tokens to burn\n    /// @return True if the tokens are burned correctly\n    /*\n    function destroyTokens(address _owner, uint _amount)\n    onlyController\n    updateIncomeClaimed(_owner)\n    public\n    returns (bool) {\n        uint curTotalSupply = totalSupply();\n        require(curTotalSupply >= _amount);\n        uint previousBalanceFrom = balanceOf(_owner);\n        require(previousBalanceFrom >= _amount);\n        updateValueAtNow(totalSupplyHistory, curTotalSupply - _amount);\n        updateValueAtNow(balances[_owner], previousBalanceFrom - _amount);\n        emit Transfer(_owner, 0, _amount);\n        return true;\n    }\n    */\n\n////////////////\n// Enable tokens transfers\n////////////////\n\n\n    /// @notice Enables token holders to transfer their tokens freely if true\n    /// @param _transfersEnabled True if transfers are allowed in the clone\n    function enableTransfers(bool _transfersEnabled) onlyController public {\n        transfersEnabled = _transfersEnabled;\n    }\n\n////////////////\n// Internal helper functions to query and set a value in a snapshot array\n////////////////\n\n    /// @dev `getValueAt` retrieves the number of tokens at a given block number\n    /// @param checkpoints The history of values being queried\n    /// @param _block The block number to retrieve the value at\n    /// @return The number of tokens being queried\n    function getValueAt(Checkpoint[] storage checkpoints, uint _block) constant internal returns (uint) {\n        if (checkpoints.length == 0)\n            return 0;\n\n        // Shortcut for the actual value\n        if (_block >= checkpoints[checkpoints.length.sub(1)].fromBlock)\n            return checkpoints[checkpoints.length.sub(1)].value;\n        if (_block < checkpoints[0].fromBlock)\n            return 0;\n\n        // Binary search of the value in the array\n        uint min = 0;\n        uint max = checkpoints.length.sub(1);\n        while (max > min) {\n            uint mid = (max.add(min.add(1))).sub(2);\n            if (checkpoints[mid].fromBlock<=_block) {\n                min = mid;\n            } else {\n                max = mid.sub(1);\n            }\n        }\n        return checkpoints[min].value;\n    }\n\n    /// @dev `updateValueAtNow` used to update the `balances` map and the\n    ///  `totalSupplyHistory`\n    /// @param checkpoints The history of data being updated\n    /// @param _value The new number of tokens\n    function updateValueAtNow(Checkpoint[] storage checkpoints, uint _value) internal {\n        if ((checkpoints.length == 0) || (checkpoints[checkpoints.length.sub(1)].fromBlock < block.number)) {\n            Checkpoint storage newCheckPoint = checkpoints[checkpoints.length++];\n            newCheckPoint.fromBlock = uint128(block.number);\n            newCheckPoint.value = uint128(_value);\n        } else {\n            Checkpoint storage oldCheckPoint = checkpoints[checkpoints.length.sub(1)];\n            oldCheckPoint.value = uint128(_value);\n        }\n    }\n\n    /// @dev Internal function to determine if an address is a contract\n    /// @param _addr The address being queried\n    /// @return True if `_addr` is a contract\n    function isContract(address _addr) constant internal returns(bool) {\n        uint size;\n        if (_addr == 0)\n            return false;\n\n        assembly {\n            size := extcodesize(_addr)\n        }\n\n        return size>0;\n    }\n\n    /// @dev Helper function to return a min betwen the two uints\n    function min(uint a, uint b) pure internal returns (uint) {\n        return a < b ? a : b;\n    }\n\n    // Fallback function: receives Ether and updates income ledger\n    function ()\n    payable\n    external {\n      require(address(erc20) == address(0));\n      assetIncome = assetIncome.add(msg.value);\n      valuePerToken = valuePerToken.add(msg.value.mul(scalingFactor).div(totalSupply()));\n      emit LogIncomeReceived(msg.sender, msg.value);\n    }\n\n//////////\n// Safety Methods\n//////////\n\n    /// @notice This method can be used by the controller to extract mistakenly\n    ///  sent tokens to this contract. (Except the token used for profit distribution)\n    /// @param _token The address of the token contract that you want to recover\n    ///  set to 0 in case you want to extract ether.\n    function claimTokens(address _token) onlyController public {\n        require(_token != address(erc20));\n        if (_token == 0x0) {\n            controller.transfer(address(this).balance);\n            return;\n        }\n\n        MiniMeToken token = MiniMeToken(_token);\n        uint balance = token.balanceOf(this);\n        token.transfer(controller, balance);\n        emit ClaimedTokens(_token, controller, balance);\n    }\n\n////////////////\n// Events\n////////////////\n    event LogIncomeReceived(address indexed _sender, uint _paymentAmount);\n    event LogIncomeCollected(address _address, uint _amount);\n    event LogCheckBalance(uint _difference);\n    event ClaimedTokens(address indexed _token, address indexed _controller, uint _amount);\n    event Transfer(address indexed _from, address indexed _to, uint256 _amount);\n    event NewCloneToken(address indexed _cloneToken, uint _snapshotBlock);\n    event Approval(\n        address indexed _owner,\n        address indexed _spender,\n        uint256 _amount\n        );\n\n}\n\n\n////////////////\n// MiniMeTokenFactory\n////////////////\n\n/// @dev This contract is used to generate clone contracts from a contract.\n///  In solidity this is the way to create a contract from a contract of the\n///  same class\ncontract MiniMeTokenFactory {\n\n    /// @notice Update the DApp by creating a new token with new functionalities\n    ///  the msg.sender becomes the controller of this clone token\n    /// @param _parentToken Address of the token being cloned\n    /// @param _snapshotBlock Block of the parent token that will\n    ///  determine the initial distribution of the clone token\n    /// @param _tokenName Name of the new token\n    /// @param _decimalUnits Number of decimals of the new token\n    /// @param _tokenSymbol Token Symbol for the new token\n    /// @param _transfersEnabled If true, tokens will be able to be transferred\n    /// @return The address of the new token contract\n    function createCloneToken(\n        MiniMeToken _parentToken,\n        uint _snapshotBlock,\n        string _tokenName,\n        uint8 _decimalUnits,\n        string _tokenSymbol,\n        bool _transfersEnabled,\n        address _erc20Address\n    ) public returns (MiniMeToken)\n    {\n        MiniMeToken newToken = new MiniMeToken(\n            this,\n            _parentToken,\n            _snapshotBlock,\n            _tokenName,\n            _decimalUnits,\n            _tokenSymbol,\n            _transfersEnabled,\n            _erc20Address\n        );\n\n        newToken.changeController(msg.sender);\n        emit NewToken(address(newToken), address(_parentToken), _snapshotBlock, _tokenName, _decimalUnits, _tokenSymbol, _transfersEnabled, _erc20Address);\n        return newToken;\n    }\n\n    event NewToken(address token, address parent, uint block, string name, uint decimals, string symbol, bool transfersEnabled, address erc20);\n}\n",
  "sourcePath": "/home/iamonuwa/Projects/MyBitFoundation/MyBit-Network.tech/contracts/tokens/erc20/MiniMeToken.sol",
  "compiler": {
    "name": "solc",
    "version": "0.4.24+commit.e67f0147.Emscripten.clang"
  },
  "schemaVersion": "3.0.9",
  "updatedAt": "2020-07-27T21:29:57.312Z",
  "devdoc": {
    "methods": {
      "allowance(address,address)": {
        "details": "This function makes it easy to read the `allowed[]` map",
        "params": {
          "_owner": "The address of the account that owns the token",
          "_spender": "The address of the account able to transfer the tokens"
        },
        "return": "Amount of remaining tokens of _owner that _spender is allowed  to spend"
      },
      "approve(address,uint256)": {
        "params": {
          "_amount": "The amount of tokens to be approved for transfer",
          "_spender": "The address of the account able to transfer the tokens"
        },
        "return": "True if the approval was successful"
      },
      "approveAndCall(address,uint256,bytes)": {
        "params": {
          "_amount": "The amount of tokens to be approved for transfer",
          "_spender": "The address of the contract able to transfer the tokens"
        },
        "return": "True if the function call was successful"
      },
      "balanceOf(address)": {
        "params": {
          "_owner": "The address that's balance is being requested"
        },
        "return": "The balance of `_owner` at the current block"
      },
      "balanceOfAt(address,uint256)": {
        "details": "Queries the balance of `_owner` at a specific `_blockNumber`",
        "params": {
          "_blockNumber": "The block number when the balance is queried",
          "_owner": "The address from which the balance will be retrieved"
        },
        "return": "The balance at `_blockNumber`"
      },
      "changeController(address)": {
        "params": {
          "_newController": "The new controller of the contract"
        }
      },
      "claimTokens(address)": {
        "params": {
          "_token": "The address of the token contract that you want to recover  set to 0 in case you want to extract ether."
        }
      },
      "createCloneToken(string,uint8,string,uint256,bool,address)": {
        "params": {
          "_cloneDecimalUnits": "Number of decimals of the smallest unit",
          "_cloneTokenName": "Name of the clone token",
          "_cloneTokenSymbol": "Symbol of the clone token",
          "_snapshotBlock": "Block when the distribution of the parent token is  copied to set the initial distribution of the new clone token;  if the block is zero than the actual block, the current block is used",
          "_transfersEnabled": "True if transfers are allowed in the clone"
        },
        "return": "The address of the new MiniMeToken Contract"
      },
      "enableTransfers(bool)": {
        "params": {
          "_transfersEnabled": "True if transfers are allowed in the clone"
        }
      },
      "generateTokens(address,uint256)": {
        "params": {
          "_amount": "The quantity of tokens generated",
          "_owner": "The address that will be assigned the new tokens"
        },
        "return": "True if the tokens are generated correctly"
      },
      "totalSupply()": {
        "details": "This function makes it easy to get the total number of tokens",
        "return": "The total number of tokens"
      },
      "totalSupplyAt(uint256)": {
        "params": {
          "_blockNumber": "The block number when the totalSupply is queried"
        },
        "return": "The total amount of tokens at `_blockNumber`"
      },
      "transfer(address,uint256)": {
        "params": {
          "_amount": "The amount of tokens to be transferred",
          "_to": "The address of the recipient"
        },
        "return": "Whether the transfer was successful or not"
      },
      "transferFrom(address,address,uint256)": {
        "params": {
          "_amount": "The amount of tokens to be transferred",
          "_from": "The address holding the tokens being transferred",
          "_to": "The address of the recipient"
        },
        "return": "True if the transfer was successful"
      }
    }
  },
  "userdoc": {
    "methods": {
      "approve(address,uint256)": {
        "notice": "`msg.sender` approves `_spender` to spend `_amount` tokens on  its behalf. This is a modified version of the ERC20 approve function  to be a little bit safer"
      },
      "approveAndCall(address,uint256,bytes)": {
        "notice": "`msg.sender` approves `_spender` to send `_amount` tokens on  its behalf, and then a function is triggered in the contract that is  being approved, `_spender`. This allows users to use their tokens to  interact with contracts in one function call instead of two"
      },
      "balanceOfAt(address,uint256)": {
        "notice": "/////////////"
      },
      "changeController(address)": {
        "notice": "Changes the controller of the contract"
      },
      "claimTokens(address)": {
        "notice": "///////This method can be used by the controller to extract mistakenly  sent tokens to this contract. (Except the token used for profit distribution)"
      },
      "createCloneToken(string,uint8,string,uint256,bool,address)": {
        "notice": "/////////////Creates a new clone token with the initial distribution being  this token at `_snapshotBlock`"
      },
      "enableTransfers(bool)": {
        "notice": "/////////////Enables token holders to transfer their tokens freely if true"
      },
      "generateTokens(address,uint256)": {
        "notice": "/////////////Generates `_amount` tokens that are assigned to `_owner`"
      },
      "totalSupplyAt(uint256)": {
        "notice": "Total amount of tokens at a specific `_blockNumber`."
      },
      "transfer(address,uint256)": {
        "notice": "////////////////Send `_amount` tokens to `_to` from `msg.sender`"
      },
      "transferFrom(address,address,uint256)": {
        "notice": "Send `_amount` tokens to `_to` from `_from` on the condition it  is approved by `_from`"
      },
      "withdraw()": {
        "notice": "/////////////"
      }
    }
  }
}