{
  "contractName": "Minter",
  "abi": [
    {
      "inputs": [
        {
          "name": "_database",
          "type": "address"
        }
      ],
      "payable": false,
      "stateMutability": "nonpayable",
      "type": "constructor"
    },
    {
      "constant": false,
      "inputs": [
        {
          "name": "_uri",
          "type": "string"
        },
        {
          "name": "_erc20Address",
          "type": "address"
        }
      ],
      "name": "cloneToken",
      "outputs": [
        {
          "name": "asset",
          "type": "address"
        }
      ],
      "payable": false,
      "stateMutability": "nonpayable",
      "type": "function"
    },
    {
      "constant": false,
      "inputs": [
        {
          "name": "_assetAddress",
          "type": "address"
        },
        {
          "name": "_receiver",
          "type": "address"
        },
        {
          "name": "_amount",
          "type": "uint256"
        }
      ],
      "name": "mintAssetTokens",
      "outputs": [
        {
          "name": "",
          "type": "bool"
        }
      ],
      "payable": false,
      "stateMutability": "nonpayable",
      "type": "function"
    },
    {
      "constant": false,
      "inputs": [
        {
          "name": "_assetAddress",
          "type": "address"
        },
        {
          "name": "_newController",
          "type": "address"
        }
      ],
      "name": "changeTokenController",
      "outputs": [
        {
          "name": "",
          "type": "bool"
        }
      ],
      "payable": false,
      "stateMutability": "nonpayable",
      "type": "function"
    }
  ],
  "bytecode": "0x608060405234801561001057600080fd5b50604051602080610d46833981016040525160008054600160a060020a03909216600160a060020a0319909216919091179055610cf4806100526000396000f30060806040526004361061003d5763ffffffff60e060020a600035041663d0212f4c8114610042578063d5895a3c1461007d578063dc111bbf146100a7575b600080fd5b34801561004e57600080fd5b50610069600160a060020a03600435811690602435166100f1565b604080519115158252519081900360200190f35b34801561008957600080fd5b50610069600160a060020a03600435811690602435166044356102a2565b3480156100b357600080fd5b506100d56024600480358281019291013590600160a060020a039035166106ea565b60408051600160a060020a039092168252519081900360200190f35b6000805460408051600080516020610ca98339815191526020808301919091527f44414f4465706c6f7965720000000000000000000000000000000000000000006028830152825160138184030181526033909201928390528151600160a060020a03909416936304f49a3a93918291908401908083835b602083106101885780518252601f199092019160209182019101610169565b51815160209384036101000a60001901801990921691161790526040805192909401829003822063ffffffff881660e060020a0283526004830152925160248083019650939450929083900301905081600087803b1580156101e957600080fd5b505af11580156101fd573d6000803e3d6000fd5b505050506040513d602081101561021357600080fd5b5051600160a060020a0316331461022957600080fd5b82600160a060020a0316633cebb823836040518263ffffffff1660e060020a0281526004018082600160a060020a0316600160a060020a03168152602001915050600060405180830381600087803b15801561028457600080fd5b505af1158015610298573d6000803e3d6000fd5b5050505092915050565b6000805460408051600080516020610ca98339815191526020808301919091527f43726f776473616c6545524332300000000000000000000000000000000000006028830152825160168184030181526036909201928390528151600160a060020a03909416936304f49a3a93918291908401908083835b602083106103395780518252601f19909201916020918201910161031a565b51815160209384036101000a60001901801990921691161790526040805192909401829003822063ffffffff881660e060020a0283526004830152925160248083019650939450929083900301905081600087803b15801561039a57600080fd5b505af11580156103ae573d6000803e3d6000fd5b505050506040513d60208110156103c457600080fd5b5051600160a060020a0316331480610506575060005460408051600080516020610ca98339815191526020808301919091527f43726f776473616c6545544800000000000000000000000000000000000000006028830152825160148184030181526034909201928390528151600160a060020a03909416936304f49a3a93918291908401908083835b6020831061046d5780518252601f19909201916020918201910161044e565b51815160209384036101000a60001901801990921691161790526040805192909401829003822063ffffffff881660e060020a0283526004830152925160248083019650939450929083900301905081600087803b1580156104ce57600080fd5b505af11580156104e2573d6000803e3d6000fd5b505050506040513d60208110156104f857600080fd5b5051600160a060020a031633145b8061063b575060005460408051600080516020610ca98339815191526020808301919091527f417373657447656e657261746f720000000000000000000000000000000000006028830152825160168184030181526036909201928390528151600160a060020a03909416936304f49a3a93918291908401908083835b602083106105a25780518252601f199092019160209182019101610583565b51815160209384036101000a60001901801990921691161790526040805192909401829003822063ffffffff881660e060020a0283526004830152925160248083019650939450929083900301905081600087803b15801561060357600080fd5b505af1158015610617573d6000803e3d6000fd5b505050506040513d602081101561062d57600080fd5b5051600160a060020a031633145b151561064657600080fd5b83600160a060020a031663827f32c084846040518363ffffffff1660e060020a0281526004018083600160a060020a0316600160a060020a0316815260200182815260200192505050602060405180830381600087803b1580156106a957600080fd5b505af11580156106bd573d6000803e3d6000fd5b505050506040513d60208110156106d357600080fd5b505115156106e057600080fd5b5060019392505050565b6000805460408051600080516020610ca98339815191526020808301919091527f43726f776473616c6547656e657261746f72455243323000000000000000000060288301528251601f818403018152603f9092019283905281518594600160a060020a0316936304f49a3a9392909182918401908083835b602083106107825780518252601f199092019160209182019101610763565b51815160209384036101000a60001901801990921691161790526040805192909401829003822063ffffffff881660e060020a0283526004830152925160248083019650939450929083900301905081600087803b1580156107e357600080fd5b505af11580156107f7573d6000803e3d6000fd5b505050506040513d602081101561080d57600080fd5b5051600160a060020a031633148061094f575060005460408051600080516020610ca98339815191526020808301919091527f43726f776473616c6547656e657261746f72455448000000000000000000000060288301528251601d818403018152603d909201928390528151600160a060020a03909416936304f49a3a93918291908401908083835b602083106108b65780518252601f199092019160209182019101610897565b51815160209384036101000a60001901801990921691161790526040805192909401829003822063ffffffff881660e060020a0283526004830152925160248083019650939450929083900301905081600087803b15801561091757600080fd5b505af115801561092b573d6000803e3d6000fd5b505050506040513d602081101561094157600080fd5b5051600160a060020a031633145b80610a84575060005460408051600080516020610ca98339815191526020808301919091527f417373657447656e657261746f720000000000000000000000000000000000006028830152825160168184030181526036909201928390528151600160a060020a03909416936304f49a3a93918291908401908083835b602083106109eb5780518252601f1990920191602091820191016109cc565b51815160209384036101000a60001901801990921691161790526040805192909401829003822063ffffffff881660e060020a0283526004830152925160248083019650939450929083900301905081600087803b158015610a4c57600080fd5b505af1158015610a60573d6000803e3d6000fd5b505050506040513d6020811015610a7657600080fd5b5051600160a060020a031633145b1515610a8f57600080fd5b600054604080517f706c6174666f726d2e746f6b656e466163746f72790000000000000000000000602080830191909152825180830360150181526035909201928390528151600160a060020a03909416936304f49a3a93918291908401908083835b60208310610b115780518252601f199092019160209182019101610af2565b51815160209384036101000a60001901801990921691161790526040805192909401829003822063ffffffff881660e060020a0283526004830152925160248083019650939450929083900301905081600087803b158015610b7257600080fd5b505af1158015610b86573d6000803e3d6000fd5b505050506040513d6020811015610b9c57600080fd5b50516040517fc818acf700000000000000000000000000000000000000000000000000000000815260006004820181815260248301829052601260648401819052600160a48501819052600160a060020a0389811660c487015260e06044870190815260e487018c905296975087169563c818acf79585948d948d949093869386938f9290916084810190610104018787808284379091018481038352878152602001905087878082843782019150509b505050505050505050505050602060405180830381600087803b158015610c7357600080fd5b505af1158015610c87573d6000803e3d6000fd5b505050506040513d6020811015610c9d57600080fd5b5051959450505050505600636f6e7472616374000000000000000000000000000000000000000000000000a165627a7a7230582037e5b966ce63063ad7ea4f6e07d412b9c2fa2cd1971770dc275a5e031dc9bfeb0029",
  "source": "pragma solidity ^0.4.24;\n\ninterface Minter_Database{\n  function addressStorage(bytes32 _key) external view returns (address);\n}\n\ninterface Minter_MiniMeTokenFactory{\n  function createCloneToken(\n      address _parentToken,\n      uint _snapshotBlock,\n      string _tokenName,\n      uint8 _decimalUnits,\n      string _tokenSymbol,\n      bool _transfersEnabled,\n      address _erc20Address\n  ) external returns (address);\n}\n\ninterface Minter_MiniMeToken{\n  function generateTokens(address _owner, uint _amount) external returns (bool);\n  function changeController(address _newController) external;\n}\n\ncontract Minter {\n  Minter_Database private database;\n\n  constructor(address _database) public {\n    database = Minter_Database(_database);\n  }\n\n  function cloneToken(string _uri, address _erc20Address) external returns (address asset) {\n    require(msg.sender == database.addressStorage(keccak256(abi.encodePacked(\"contract\", \"CrowdsaleGeneratorERC20\"))) ||\n            msg.sender == database.addressStorage(keccak256(abi.encodePacked(\"contract\", \"CrowdsaleGeneratorETH\"))) ||\n            msg.sender == database.addressStorage(keccak256(abi.encodePacked(\"contract\", \"AssetGenerator\"))) );\n    Minter_MiniMeTokenFactory factory = Minter_MiniMeTokenFactory(database.addressStorage(keccak256(abi.encodePacked(\"platform.tokenFactory\"))));\n    asset = factory.createCloneToken(address(0), 0, _uri, uint8(18), _uri, true, _erc20Address);\n    return asset;\n  }\n\n  function mintAssetTokens(address _assetAddress, address _receiver, uint256 _amount) external returns (bool){\n    require(msg.sender == database.addressStorage(keccak256(abi.encodePacked(\"contract\", \"CrowdsaleERC20\"))) ||\n            msg.sender == database.addressStorage(keccak256(abi.encodePacked(\"contract\", \"CrowdsaleETH\"))) ||\n            msg.sender == database.addressStorage(keccak256(abi.encodePacked(\"contract\", \"AssetGenerator\"))) );\n    require(Minter_MiniMeToken(_assetAddress).generateTokens(_receiver, _amount));\n    return true;\n  }\n\n  function changeTokenController(address _assetAddress, address _newController) external returns (bool){\n    require(msg.sender == database.addressStorage(keccak256(abi.encodePacked(\"contract\", \"DAODeployer\"))));\n    Minter_MiniMeToken(_assetAddress).changeController(_newController);\n  }\n}\n",
  "sourcePath": "/home/iamonuwa/Projects/MyBitFoundation/MyBit-Network.tech/contracts/database/Minter.sol",
  "compiler": {
    "name": "solc",
    "version": "0.4.24+commit.e67f0147.Emscripten.clang"
  },
  "schemaVersion": "3.0.9",
  "updatedAt": "2020-07-27T21:29:54.256Z",
  "devdoc": {
    "methods": {}
  },
  "userdoc": {
    "methods": {}
  }
}