{
  "contractName": "MockCentralBank",
  "abi": [
    {
      "constant": true,
      "inputs": [
        {
          "name": "",
          "type": "address"
        }
      ],
      "name": "owners",
      "outputs": [
        {
          "name": "",
          "type": "bool"
        }
      ],
      "payable": false,
      "stateMutability": "view",
      "type": "function"
    },
    {
      "inputs": [],
      "payable": false,
      "stateMutability": "nonpayable",
      "type": "constructor"
    },
    {
      "payable": true,
      "stateMutability": "payable",
      "type": "fallback"
    },
    {
      "constant": false,
      "inputs": [
        {
          "name": "amount",
          "type": "uint256"
        }
      ],
      "name": "withdrawEther",
      "outputs": [],
      "payable": false,
      "stateMutability": "nonpayable",
      "type": "function"
    },
    {
      "constant": false,
      "inputs": [
        {
          "name": "token",
          "type": "address"
        },
        {
          "name": "amount",
          "type": "uint256"
        }
      ],
      "name": "withdrawToken",
      "outputs": [],
      "payable": false,
      "stateMutability": "nonpayable",
      "type": "function"
    },
    {
      "constant": false,
      "inputs": [],
      "name": "depositEther",
      "outputs": [],
      "payable": true,
      "stateMutability": "payable",
      "type": "function"
    },
    {
      "constant": false,
      "inputs": [
        {
          "name": "newOwner",
          "type": "address"
        }
      ],
      "name": "addOwner",
      "outputs": [],
      "payable": false,
      "stateMutability": "nonpayable",
      "type": "function"
    }
  ],
  "bytecode": "0x608060405234801561001057600080fd5b50336000908152602081905260409020805460ff191660011790556102d38061003a6000396000f30060806040526004361061006c5763ffffffff7c0100000000000000000000000000000000000000000000000000000000600035041663022914a7811461006e5780633bed33ce146100b05780637065cb48146100c857806398ea5fca146100f65780639e281a98146100fe575b005b34801561007a57600080fd5b5061009c73ffffffffffffffffffffffffffffffffffffffff6004351661012f565b604080519115158252519081900360200190f35b3480156100bc57600080fd5b5061006c600435610144565b3480156100d457600080fd5b5061006c73ffffffffffffffffffffffffffffffffffffffff60043516610193565b61006c6101e2565b34801561010a57600080fd5b5061006c73ffffffffffffffffffffffffffffffffffffffff600435166024356101e4565b60006020819052908152604090205460ff1681565b3260009081526020819052604090205460ff16151561016257600080fd5b604051339082156108fc029083906000818181858888f1935050505015801561018f573d6000803e3d6000fd5b5050565b3260009081526020819052604090205460ff1615156101b157600080fd5b73ffffffffffffffffffffffffffffffffffffffff166000908152602081905260409020805460ff19166001179055565b565b3260009081526020819052604090205460ff16151561020257600080fd5b604080517fa9059cbb00000000000000000000000000000000000000000000000000000000815233600482015260248101839052905173ffffffffffffffffffffffffffffffffffffffff84169163a9059cbb9160448083019260209291908290030181600087803b15801561027757600080fd5b505af115801561028b573d6000803e3d6000fd5b505050506040513d60208110156102a157600080fd5b505050505600a165627a7a7230582036487c6805cbe556118a05855c8d6232cc10e448476b8164310b5468f670e69e0029",
  "source": "pragma solidity ^0.4.24;\n\nimport \"../interfaces/ERC20.sol\";\n\n\n/// @title Mock Central Bank\n/// @author Yaron Velner\n/// @dev a dummy contract that simulates a bank that holds tokens and ether. centralized exchanges can convert tokens here.\n\n\ncontract MockCentralBank {\n    mapping(address=>bool) public owners;\n\n    constructor() public {\n        owners[msg.sender] = true;\n    }\n\n    function() payable public { }\n\n    function withdrawEther(uint amount) public {\n        if (! owners[tx.origin]) revert();\n\n        msg.sender.transfer(amount);\n    }\n\n    function withdrawToken(ERC20 token, uint amount) public {\n        if (!owners[tx.origin]) revert();\n\n        token.transfer(msg.sender,amount);\n    }\n\n    function depositEther() public payable {\n        // just to simplify interaction with testrpc\n    }\n\n    function addOwner(address newOwner) public {\n      if ( ! owners[tx.origin] ) revert();\n      owners[newOwner] = true;\n    }\n}\n",
  "sourcePath": "/home/iamonuwa/Projects/MyBitFoundation/MyBit-Network.tech/contracts/kyber/MockCentralBank.sol",
  "compiler": {
    "name": "solc",
    "version": "0.4.24+commit.e67f0147.Emscripten.clang"
  },
  "schemaVersion": "3.0.9",
  "updatedAt": "2020-07-27T21:29:55.432Z",
  "devdoc": {
    "author": "Yaron Velner",
    "methods": {},
    "title": "Mock Central Bank"
  },
  "userdoc": {
    "methods": {}
  }
}