{
  "contractName": "MultiOwned",
  "abi": [
    {
      "constant": true,
      "inputs": [],
      "name": "database",
      "outputs": [
        {
          "name": "",
          "type": "address"
        }
      ],
      "payable": false,
      "stateMutability": "view",
      "type": "function"
    },
    {
      "constant": true,
      "inputs": [],
      "name": "events",
      "outputs": [
        {
          "name": "",
          "type": "address"
        }
      ],
      "payable": false,
      "stateMutability": "view",
      "type": "function"
    },
    {
      "inputs": [
        {
          "name": "_database",
          "type": "address"
        },
        {
          "name": "_events",
          "type": "address"
        }
      ],
      "payable": false,
      "stateMutability": "nonpayable",
      "type": "constructor"
    },
    {
      "constant": false,
      "inputs": [
        {
          "name": "_newOwner",
          "type": "address"
        }
      ],
      "name": "changeOwner",
      "outputs": [],
      "payable": false,
      "stateMutability": "nonpayable",
      "type": "function"
    },
    {
      "constant": false,
      "inputs": [
        {
          "name": "_newOwner",
          "type": "address"
        }
      ],
      "name": "addOwner",
      "outputs": [],
      "payable": false,
      "stateMutability": "nonpayable",
      "type": "function"
    },
    {
      "constant": false,
      "inputs": [
        {
          "name": "_currentOwner",
          "type": "address"
        }
      ],
      "name": "removeOwner",
      "outputs": [],
      "payable": false,
      "stateMutability": "nonpayable",
      "type": "function"
    },
    {
      "constant": false,
      "inputs": [],
      "name": "destroy",
      "outputs": [],
      "payable": false,
      "stateMutability": "nonpayable",
      "type": "function"
    }
  ],
  "bytecode": "0x608060405234801561001057600080fd5b50604051604080610e5883398101604052805160209091015160008054600160a060020a03938416600160a060020a03199182161790915560018054939092169216919091179055610df1806100676000396000f30060806040526004361061005e5763ffffffff60e060020a600035041663173825d981146100635780637065cb4814610086578063713b563f146100a757806383197ef0146100d8578063a6f9dae1146100ed578063b5f8558c1461010e575b600080fd5b34801561006f57600080fd5b50610084600160a060020a0360043516610123565b005b34801561009257600080fd5b50610084600160a060020a0360043516610470565b3480156100b357600080fd5b506100bc6107a0565b60408051600160a060020a039092168252519081900360200190f35b3480156100e457600080fd5b506100846107af565b3480156100f957600080fd5b50610084600160a060020a036004351661097f565b34801561011a57600080fd5b506100bc610db6565b6000546040805160d960020a6437bbb732b9026020808301919091526c0100000000000000000000000033026025830152825160198184030181526039909201928390528151600160a060020a0390941693633b7bfda093918291908401908083835b602083106101a55780518252601f199092019160209182019101610186565b51815160209384036101000a60001901801990921691161790526040805192909401829003822063ffffffff881660e060020a0283526004830152925160248083019650939450929083900301905081600087803b15801561020657600080fd5b505af115801561021a573d6000803e3d6000fd5b505050506040513d602081101561023057600080fd5b5051151560011461024057600080fd5b600160a060020a0381163314156102b857604080517f08c379a000000000000000000000000000000000000000000000000000000000815260206004820152601e60248201527f4f776e65722063616e6e6f742072656d6f7665207468656d73656c7665730000604482015290519081900360640190fd5b6000546040805160d960020a6437bbb732b902602080830191909152600160a060020a038581166c0100000000000000000000000002602584015283518084036019018152603990930193849052825194169363abfdcced93918291908401908083835b6020831061033b5780518252601f19909201916020918201910161031c565b5181516020939093036101000a60001901801990911692169190911790526040805191909301819003812063ffffffff871660e060020a02825260048201526000602482018190529251604480830196509394509290839003019050818387803b1580156103a857600080fd5b505af11580156103bc573d6000803e3d6000fd5b50506001546040805160e160020a63215a12d5028152336024820152600160a060020a0386811660448301526000606483018190526084830181905260a06004840152600d60a48401527f4f776e65722072656d6f7665640000000000000000000000000000000000000060c48401529251931694506342b425aa935060e4808201939182900301818387803b15801561045557600080fd5b505af1158015610469573d6000803e3d6000fd5b5050505050565b6000546040805160d960020a6437bbb732b9026020808301919091526c0100000000000000000000000033026025830152825160198184030181526039909201928390528151600160a060020a0390941693633b7bfda093918291908401908083835b602083106104f25780518252601f1990920191602091820191016104d3565b51815160209384036101000a60001901801990921691161790526040805192909401829003822063ffffffff881660e060020a0283526004830152925160248083019650939450929083900301905081600087803b15801561055357600080fd5b505af1158015610567573d6000803e3d6000fd5b505050506040513d602081101561057d57600080fd5b5051151560011461058d57600080fd5b600160a060020a038116151561060457604080517f08c379a000000000000000000000000000000000000000000000000000000000815260206004820152601860248201527f43616e6e6e6f7420616464206e756c6c20616464726573730000000000000000604482015290519081900360640190fd5b6000546040805160d960020a6437bbb732b902602080830191909152600160a060020a038581166c0100000000000000000000000002602584015283518084036019018152603990930193849052825194169363abfdcced93918291908401908083835b602083106106875780518252601f199092019160209182019101610668565b5181516020939093036101000a60001901801990911692169190911790526040805191909301819003812063ffffffff871660e060020a028252600482015260016024820152915160448084019550600094509092839003019050818387803b1580156106f357600080fd5b505af1158015610707573d6000803e3d6000fd5b50506001546040805160e160020a63215a12d5028152336024820152600160a060020a0386811660448301526000606483018190526084830181905260a06004840152600b60a48401527f4f776e657220616464656400000000000000000000000000000000000000000060c48401529251931694506342b425aa935060e4808201939182900301818387803b15801561045557600080fd5b600054600160a060020a031681565b6000546040805160d960020a6437bbb732b9026020808301919091526c0100000000000000000000000033026025830152825160198184030181526039909201928390528151600160a060020a0390941693633b7bfda093918291908401908083835b602083106108315780518252601f199092019160209182019101610812565b51815160209384036101000a60001901801990921691161790526040805192909401829003822063ffffffff881660e060020a0283526004830152925160248083019650939450929083900301905081600087803b15801561089257600080fd5b505af11580156108a6573d6000803e3d6000fd5b505050506040513d60208110156108bc57600080fd5b505115156001146108cc57600080fd5b6001546040805160e160020a63215a12d5028152306024820181905233604483015231606482015260006084820181905260a06004830152601460a48301527f4d756c74694f776e65642064657374726f79656400000000000000000000000060c48301529151600160a060020a03909316926342b425aa9260e48084019391929182900301818387803b15801561096357600080fd5b505af1158015610977573d6000803e3d6000fd5b503392505050ff5b6000546040805160d960020a6437bbb732b9026020808301919091526c0100000000000000000000000033026025830152825160198184030181526039909201928390528151600160a060020a0390941693633b7bfda093918291908401908083835b60208310610a015780518252601f1990920191602091820191016109e2565b51815160209384036101000a60001901801990921691161790526040805192909401829003822063ffffffff881660e060020a0283526004830152925160248083019650939450929083900301905081600087803b158015610a6257600080fd5b505af1158015610a76573d6000803e3d6000fd5b505050506040513d6020811015610a8c57600080fd5b50511515600114610a9c57600080fd5b600160a060020a0381161515610b1357604080517f08c379a000000000000000000000000000000000000000000000000000000000815260206004820152601860248201527f43616e6e6e6f7420616464206e756c6c20616464726573730000000000000000604482015290519081900360640190fd5b6000546040805160d960020a6437bbb732b902602080830191909152600160a060020a038581166c0100000000000000000000000002602584015283518084036019018152603990930193849052825194169363abfdcced93918291908401908083835b60208310610b965780518252601f199092019160209182019101610b77565b5181516020939093036101000a60001901801990911692169190911790526040805191909301819003812063ffffffff871660e060020a028252600482015260016024820152915160448084019550600094509092839003019050818387803b158015610c0257600080fd5b505af1158015610c16573d6000803e3d6000fd5b50506000546040805160d960020a6437bbb732b9026020808301919091526c0100000000000000000000000033026025830152825160198184030181526039909201928390528151600160a060020a03909416955063abfdcced9450909282918401908083835b60208310610c9c5780518252601f199092019160209182019101610c7d565b5181516020939093036101000a60001901801990911692169190911790526040805191909301819003812063ffffffff871660e060020a02825260048201526000602482018190529251604480830196509394509290839003019050818387803b158015610d0957600080fd5b505af1158015610d1d573d6000803e3d6000fd5b50506001546040805160e160020a63215a12d5028152336024820152600160a060020a0386811660448301526000606483018190526084830181905260a06004840152601560a48401527f4f776e657273686970207472616e73666572726564000000000000000000000060c48401529251931694506342b425aa935060e4808201939182900301818387803b15801561045557600080fd5b600154600160a060020a0316815600a165627a7a72305820124a06fa0785103db6d996a4aa3341d0d6c7099daaf6c724f5c6a5581b4309480029",
  "source": "pragma solidity ^0.4.24;\n\nimport '../database/Database.sol';\nimport '../database/Events.sol';\n\n// @title A contract for managing multiple platform owners\n// @dev Multi owned platforms store owner as an address. Each owner has full privileges\n// @author Peter Phillips, MyBit Foundation\ncontract MultiOwned {\n\n  Database public database;\n  Events public events;\n\n  // @notice constructor: initiate database instance\n  constructor(address _database, address _events) public {\n    database = Database(_database);\n    events = Events(_events);\n  }\n\n  // @notice Transfer ownership to to a new owner\n  function changeOwner(address _newOwner)\n  public\n  onlyOwner {\n    require(_newOwner != address(0), \"Cannnot add null address\");\n    database.setBool(keccak256(abi.encodePacked(\"owner\", _newOwner)), true);\n    database.setBool(keccak256(abi.encodePacked(\"owner\", msg.sender)), false);\n    events.transaction('Ownership transferred', msg.sender, _newOwner, 0, address(0));\n  }\n\n  function addOwner(address _newOwner)\n  public\n  onlyOwner {\n    require(_newOwner != address(0), \"Cannnot add null address\");\n    database.setBool(keccak256(abi.encodePacked(\"owner\", _newOwner)), true);\n    events.transaction('Owner added', msg.sender, _newOwner, 0, address(0));\n  }\n\n  function removeOwner(address _currentOwner)\n  public\n  onlyOwner {\n    require(_currentOwner != msg.sender, \"Owner cannot remove themselves\");\n    database.setBool(keccak256(abi.encodePacked(\"owner\", _currentOwner)), false);\n    events.transaction('Owner removed', msg.sender, _currentOwner, 0, address(0));\n  }\n\n  // @notice platform owners can destroy contract here\n  function destroy()\n  onlyOwner\n  external {\n    events.transaction('MultiOwned destroyed', address(this), msg.sender, address(this).balance, address(0));\n    selfdestruct(msg.sender);\n  }\n\n  // @notice reverts if caller is not the owner\n  modifier onlyOwner() {\n    require(database.boolStorage(keccak256(abi.encodePacked(\"owner\", msg.sender))) == true);\n    _;\n  }\n\n  //event OwnershipTransferred(address indexed owner, address indexed pendingOwner);\n}\n",
  "sourcePath": "/home/iamonuwa/Projects/MyBitFoundation/MyBit-Network.tech/contracts/ownership/MultiOwned.sol",
  "compiler": {
    "name": "solc",
    "version": "0.4.24+commit.e67f0147.Emscripten.clang"
  },
  "schemaVersion": "3.0.9",
  "updatedAt": "2020-07-27T21:29:56.579Z",
  "devdoc": {
    "methods": {}
  },
  "userdoc": {
    "methods": {}
  }
}