{
  "contractName": "Operators",
  "abi": [
    {
      "constant": true,
      "inputs": [],
      "name": "database",
      "outputs": [
        {
          "name": "",
          "type": "address"
        }
      ],
      "payable": false,
      "stateMutability": "view",
      "type": "function"
    },
    {
      "constant": true,
      "inputs": [],
      "name": "events",
      "outputs": [
        {
          "name": "",
          "type": "address"
        }
      ],
      "payable": false,
      "stateMutability": "view",
      "type": "function"
    },
    {
      "inputs": [
        {
          "name": "_database",
          "type": "address"
        },
        {
          "name": "_events",
          "type": "address"
        }
      ],
      "payable": false,
      "stateMutability": "nonpayable",
      "type": "constructor"
    },
    {
      "constant": false,
      "inputs": [
        {
          "name": "_operatorAddress",
          "type": "address"
        },
        {
          "name": "_operatorURI",
          "type": "string"
        },
        {
          "name": "_ipfs",
          "type": "string"
        },
        {
          "name": "_referrerAddress",
          "type": "address"
        }
      ],
      "name": "registerOperator",
      "outputs": [],
      "payable": false,
      "stateMutability": "nonpayable",
      "type": "function"
    },
    {
      "constant": false,
      "inputs": [
        {
          "name": "_operatorID",
          "type": "bytes32"
        }
      ],
      "name": "removeOperator",
      "outputs": [],
      "payable": false,
      "stateMutability": "nonpayable",
      "type": "function"
    },
    {
      "constant": false,
      "inputs": [
        {
          "name": "_operatorID",
          "type": "bytes32"
        },
        {
          "name": "_newAddress",
          "type": "address"
        }
      ],
      "name": "changeOperatorAddress",
      "outputs": [],
      "payable": false,
      "stateMutability": "nonpayable",
      "type": "function"
    },
    {
      "constant": false,
      "inputs": [
        {
          "name": "_operatorID",
          "type": "bytes32"
        },
        {
          "name": "_newAddress",
          "type": "address"
        }
      ],
      "name": "changeReferrerAddress",
      "outputs": [],
      "payable": false,
      "stateMutability": "nonpayable",
      "type": "function"
    },
    {
      "constant": false,
      "inputs": [
        {
          "name": "_operatorID",
          "type": "bytes32"
        },
        {
          "name": "_ipfs",
          "type": "string"
        }
      ],
      "name": "updateIPFS",
      "outputs": [
        {
          "name": "",
          "type": "bool"
        }
      ],
      "payable": false,
      "stateMutability": "nonpayable",
      "type": "function"
    },
    {
      "constant": false,
      "inputs": [
        {
          "name": "_operatorID",
          "type": "bytes32"
        },
        {
          "name": "_name",
          "type": "string"
        },
        {
          "name": "_ipfs",
          "type": "string"
        },
        {
          "name": "_acceptCrypto",
          "type": "bool"
        },
        {
          "name": "_payoutCrypto",
          "type": "bool"
        },
        {
          "name": "_token",
          "type": "address"
        }
      ],
      "name": "addAsset",
      "outputs": [
        {
          "name": "",
          "type": "bool"
        }
      ],
      "payable": false,
      "stateMutability": "nonpayable",
      "type": "function"
    },
    {
      "constant": false,
      "inputs": [
        {
          "name": "_modelID",
          "type": "bytes32"
        }
      ],
      "name": "removeAsset",
      "outputs": [
        {
          "name": "",
          "type": "bool"
        }
      ],
      "payable": false,
      "stateMutability": "nonpayable",
      "type": "function"
    },
    {
      "constant": false,
      "inputs": [
        {
          "name": "_modelID",
          "type": "bytes32"
        },
        {
          "name": "_tokenAddress",
          "type": "address"
        },
        {
          "name": "_accept",
          "type": "bool"
        }
      ],
      "name": "acceptToken",
      "outputs": [
        {
          "name": "",
          "type": "bool"
        }
      ],
      "payable": false,
      "stateMutability": "nonpayable",
      "type": "function"
    },
    {
      "constant": false,
      "inputs": [
        {
          "name": "_modelID",
          "type": "bytes32"
        },
        {
          "name": "_tokenAddress",
          "type": "address"
        },
        {
          "name": "_payout",
          "type": "bool"
        }
      ],
      "name": "payoutToken",
      "outputs": [
        {
          "name": "",
          "type": "bool"
        }
      ],
      "payable": false,
      "stateMutability": "nonpayable",
      "type": "function"
    },
    {
      "constant": false,
      "inputs": [],
      "name": "destroy",
      "outputs": [],
      "payable": false,
      "stateMutability": "nonpayable",
      "type": "function"
    }
  ],
  "bytecode": "0x608060405234801561001057600080fd5b5060405160408061389a83398101604052805160209091015160008054600160a060020a03938416600160a060020a03199182161790915560018054939092169216919091179055613833806100676000396000f3006080604052600436106100a05763ffffffff60e060020a60003504166331c3600281146100a557806362e603c9146100cb57806366259e7f146100ef5780636699b2f61461010757806366e6aa7514610147578063713b563f1461017f578063814ba557146101b057806383197ef0146101f6578063837592db1461020b578063954a8e5c1461022357806395bcae8c1461024c578063b5f8558c14610275575b600080fd5b3480156100b157600080fd5b506100c9600435600160a060020a036024351661028a565b005b3480156100d757600080fd5b506100c9600435600160a060020a036024351661088e565b3480156100fb57600080fd5b506100c9600435610c7a565b34801561011357600080fd5b506100c960048035600160a060020a039081169160248035808201939083013592604435928301920135906064351661124f565b34801561015357600080fd5b5061016b600480359060248035908101910135611ca2565b604080519115158252519081900360200190f35b34801561018b57600080fd5b506101946120ed565b60408051600160a060020a039092168252519081900360200190f35b3480156101bc57600080fd5b5061016b60048035906024803580820192908101359160443590810191013560643515156084351515600160a060020a0360a435166120fc565b34801561020257600080fd5b506100c9612860565b34801561021757600080fd5b5061016b600435612a3a565b34801561022f57600080fd5b5061016b600435600160a060020a03602435166044351515612f30565b34801561025857600080fd5b5061016b600435600160a060020a036024351660443515156133ac565b34801561028157600080fd5b50610194613798565b60008054604080516000805160206137a88339815191526020808301919091526028808301889052835180840390910181526048909201928390528151600160a060020a03909416936304f49a3a93918291908401908083835b602083106103035780518252601f1990920191602091820191016102e4565b51815160209384036101000a60001901801990921691161790526040805192909401829003822063ffffffff881660e060020a0283526004830152925160248083019650939450929083900301905081600087803b15801561036457600080fd5b505af1158015610378573d6000803e3d6000fd5b505050506040513d602081101561038e57600080fd5b50519050600160a060020a03811615156103a757600080fd5b33600160a060020a03821614806104c057506000546040805160d960020a6437bbb732b902602080830191909152606060020a33026025830152825160198184030181526039909201928390528151600160a060020a0390941693633b7bfda093918291908401908083835b602083106104325780518252601f199092019160209182019101610413565b51815160209384036101000a60001901801990921691161790526040805192909401829003822063ffffffff881660e060020a0283526004830152925160248083019650939450929083900301905081600087803b15801561049357600080fd5b505af11580156104a7573d6000803e3d6000fd5b505050506040513d60208110156104bd57600080fd5b50515b15156104cb57600080fd5b600054604080516000805160206137a88339815191526020808301919091526028808301889052835180840390910181526048909201928390528151600160a060020a039094169363ca446dd993918291908401908083835b602083106105435780518252601f199092019160209182019101610524565b5181516020939093036101000a60001901801990911692169190911790526040805191909301819003812063ffffffff871660e060020a0282526004820152600160a060020a0389166024820152915160448084019550600094509092839003019050818387803b1580156105b757600080fd5b505af11580156105cb573d6000803e3d6000fd5b5050600054604080516000805160206137a8833981519152602080830191909152600160a060020a03878116606060020a0260288401528351808403601c018152603c90930193849052825194169550630b9adc579450909282918401908083835b6020831061064c5780518252601f19909201916020918201910161062d565b5181516020939093036101000a60001901801990911692169190911790526040805191909301819003812063ffffffff871660e060020a0282526004820152915160248084019550600094509092839003019050818387803b1580156106b157600080fd5b505af11580156106c5573d6000803e3d6000fd5b5050600054604080516000805160206137a8833981519152602080830191909152600160a060020a03888116606060020a0260288401528351808403601c018152603c90930193849052825194169550634e91db089450909282918401908083835b602083106107465780518252601f199092019160209182019101610727565b5181516020939093036101000a60001901801990911692169190911790526040805191909301819003812063ffffffff871660e060020a0282526004820152602481018a9052915160448084019550600094509092839003019050818387803b1580156107b257600080fd5b505af11580156107c6573d6000803e3d6000fd5b50506001546040805160e060020a63e66330d302815260248101889052600160a060020a03878116608483015260a06004830152601860a48301527f4f70657261746f722061646472657373206368616e676564000000000000000060c483015260e06044830152600060e483018190526101206064840152610124830181905292519316945063e66330d39350610164808201939182900301818387803b15801561087157600080fd5b505af1158015610885573d6000803e3d6000fd5b50505050505050565b60008054604080516000805160206137c88339815191526020808301919091526028808301889052835180840390910181526048909201928390528151600160a060020a03909416936304f49a3a93918291908401908083835b602083106109075780518252601f1990920191602091820191016108e8565b51815160209384036101000a60001901801990921691161790526040805192909401829003822063ffffffff881660e060020a0283526004830152925160248083019650939450929083900301905081600087803b15801561096857600080fd5b505af115801561097c573d6000803e3d6000fd5b505050506040513d602081101561099257600080fd5b50519050600160a060020a03811615156109ab57600080fd5b33600160a060020a0382161480610ac457506000546040805160d960020a6437bbb732b902602080830191909152606060020a33026025830152825160198184030181526039909201928390528151600160a060020a0390941693633b7bfda093918291908401908083835b60208310610a365780518252601f199092019160209182019101610a17565b51815160209384036101000a60001901801990921691161790526040805192909401829003822063ffffffff881660e060020a0283526004830152925160248083019650939450929083900301905081600087803b158015610a9757600080fd5b505af1158015610aab573d6000803e3d6000fd5b505050506040513d6020811015610ac157600080fd5b50515b1515610acf57600080fd5b600054604080516000805160206137c88339815191526020808301919091526028808301889052835180840390910181526048909201928390528151600160a060020a039094169363ca446dd993918291908401908083835b60208310610b475780518252601f199092019160209182019101610b28565b5181516020939093036101000a60001901801990911692169190911790526040805191909301819003812063ffffffff871660e060020a0282526004820152600160a060020a0389166024820152915160448084019550600094509092839003019050818387803b158015610bbb57600080fd5b505af1158015610bcf573d6000803e3d6000fd5b50506001546040805160e060020a63e66330d302815260248101889052600160a060020a03878116608483015260a06004830152601860a48301527f52656665727265722061646472657373206368616e676564000000000000000060c483015260e06044830152600060e483018190526101206064840152610124830181905292519316945063e66330d39350610164808201939182900301818387803b15801561087157600080fd5b60008054604080516000805160206137a88339815191526020808301919091526028808301879052835180840390910181526048909201928390528151600160a060020a03909416936304f49a3a93918291908401908083835b60208310610cf35780518252601f199092019160209182019101610cd4565b51815160209384036101000a60001901801990921691161790526040805192909401829003822063ffffffff881660e060020a0283526004830152925160248083019650939450929083900301905081600087803b158015610d5457600080fd5b505af1158015610d68573d6000803e3d6000fd5b505050506040513d6020811015610d7e57600080fd5b50516000546040805160d960020a6437bbb732b902602082810191909152606060020a33026025830152825160198184030181526039909201928390528151949550600160a060020a0390931693633b7bfda0939192918291908401908083835b60208310610dfe5780518252601f199092019160209182019101610ddf565b51815160209384036101000a60001901801990921691161790526040805192909401829003822063ffffffff881660e060020a0283526004830152925160248083019650939450929083900301905081600087803b158015610e5f57600080fd5b505af1158015610e73573d6000803e3d6000fd5b505050506040513d6020811015610e8957600080fd5b505180610e9e575033600160a060020a038216145b1515610ea957600080fd5b600054604080516000805160206137a8833981519152602080830191909152600160a060020a03858116606060020a0260288401528351808403601c018152603c909301938490528251941693630b9adc5793918291908401908083835b60208310610f265780518252601f199092019160209182019101610f07565b5181516020939093036101000a60001901801990911692169190911790526040805191909301819003812063ffffffff871660e060020a0282526004820152915160248084019550600094509092839003019050818387803b158015610f8b57600080fd5b505af1158015610f9f573d6000803e3d6000fd5b5050600054604080516000805160206137a88339815191526020808301919091526028808301899052835180840390910181526048909201928390528151600160a060020a039094169550630e14a3769450909282918401908083835b6020831061101b5780518252601f199092019160209182019101610ffc565b5181516020939093036101000a60001901801990911692169190911790526040805191909301819003812063ffffffff871660e060020a0282526004820152915160248084019550600094509092839003019050818387803b15801561108057600080fd5b505af1158015611094573d6000803e3d6000fd5b5050600054604080516000805160206137c88339815191526020808301919091526028808301899052835180840390910181526048909201928390528151600160a060020a039094169550630e14a3769450909282918401908083835b602083106111105780518252601f1990920191602091820191016110f1565b5181516020939093036101000a60001901801990911692169190911790526040805191909301819003812063ffffffff871660e060020a0282526004820152915160248084019550600094509092839003019050818387803b15801561117557600080fd5b505af1158015611189573d6000803e3d6000fd5b50506001546040805160e060020a63e66330d30281526024810187905233608482015260a06004820152601060a48201527f4f70657261746f722072656d6f7665640000000000000000000000000000000060c482015260e06044820152600060e48201819052610120606483015261012482018190529151600160a060020a03909316945063e66330d39350610164808201939182900301818387803b15801561123357600080fd5b505af1158015611247573d6000803e3d6000fd5b505050505050565b600080546040805160d960020a6437bbb732b902602080830191909152606060020a33026025830152825160198184030181526039909201928390528151600160a060020a0390941693633b7bfda093918291908401908083835b602083106112c95780518252601f1990920191602091820191016112aa565b51815160209384036101000a60001901801990921691161790526040805192909401829003822063ffffffff881660e060020a0283526004830152925160248083019650939450929083900301905081600087803b15801561132a57600080fd5b505af115801561133e573d6000803e3d6000fd5b505050506040513d602081101561135457600080fd5b5051151561136157600080fd5b600160a060020a038716151561137657600080fd5b858560405160200180807f6f70657261746f722e7572690000000000000000000000000000000000000000815250600c018383808284378201915050925050506040516020818303038152906040526040518082805190602001908083835b602083106113f45780518252601f1990920191602091820191016113d5565b51815160209384036101000a600019018019909216911617905260408051929094018290038220600080546000805160206137a8833981519152858501526028808601849052875180870390910181526048909501968790528451929950909750600160a060020a031695506304f49a3a9492935082918401908083835b602083106114915780518252601f199092019160209182019101611472565b51815160209384036101000a60001901801990921691161790526040805192909401829003822063ffffffff881660e060020a0283526004830152925160248083019650939450929083900301905081600087803b1580156114f257600080fd5b505af1158015611506573d6000803e3d6000fd5b505050506040513d602081101561151c57600080fd5b5051600160a060020a03161461153157600080fd5b600054604080516000805160206137a8833981519152602080830191909152600160a060020a038b8116606060020a0260288401528351808403601c018152603c909301938490528251941693634e91db0893918291908401908083835b602083106115ae5780518252601f19909201916020918201910161158f565b5181516020939093036101000a60001901801990911692169190911790526040805191909301819003812063ffffffff871660e060020a028252600482015260248101889052915160448084019550600094509092839003019050818387803b15801561161a57600080fd5b505af115801561162e573d6000803e3d6000fd5b5050600054604080516000805160206137a88339815191526020808301919091526028808301889052835180840390910181526048909201928390528151600160a060020a03909416955063ca446dd99450909282918401908083835b602083106116aa5780518252601f19909201916020918201910161168b565b5181516020939093036101000a60001901801990911692169190911790526040805191909301819003812063ffffffff871660e060020a0282526004820152600160a060020a038e166024820152915160448084019550600094509092839003019050818387803b15801561171e57600080fd5b505af1158015611732573d6000803e3d6000fd5b5050600054604080517f6f70657261746f722e6970667300000000000000000000000000000000000000602080830191909152602d80830188905283518084039091018152604d909201928390528151600160a060020a039094169550636e8995509450909282918401908083835b602083106117c05780518252601f1990920191602091820191016117a1565b5181516020939093036101000a60001901801990911692169190911790526040805191909301819003812063ffffffff871660e060020a0282526004820181815260248301948552604483018c90529095508b94508a93909250906064018484808284378201915050945050505050600060405180830381600087803b15801561184957600080fd5b505af115801561185d573d6000803e3d6000fd5b50505050600160a060020a0382161515611a8257600054604080516000805160206137c88339815191526020808301919091526028808301869052835180840390910181526048909201928390528151600160a060020a039094169363ca446dd993918291908401908083835b602083106118e95780518252601f1990920191602091820191016118ca565b51815160209384036101000a6000190180199092169116179052604080519290940182900382206000547f706c6174666f726d2e77616c6c65742e6173736574730000000000000000000084840152855160168186030181526036909401958690528351919750600160a060020a031695506304f49a3a9492935082918401908083835b6020831061198c5780518252601f19909201916020918201910161196d565b51815160209384036101000a60001901801990921691161790526040805192909401829003822063ffffffff881660e060020a0283526004830152925160248083019650939450929083900301905081600087803b1580156119ed57600080fd5b505af1158015611a01573d6000803e3d6000fd5b505050506040513d6020811015611a1757600080fd5b50516040805160e060020a63ffffffff86160281526004810193909352600160a060020a03909116602483015251604480830192600092919082900301818387803b158015611a6557600080fd5b505af1158015611a79573d6000803e3d6000fd5b50505050611b87565b600054604080516000805160206137c88339815191526020808301919091526028808301869052835180840390910181526048909201928390528151600160a060020a039094169363ca446dd993918291908401908083835b60208310611afa5780518252601f199092019160209182019101611adb565b5181516020939093036101000a60001901801990911692169190911790526040805191909301819003812063ffffffff871660e060020a0282526004820152600160a060020a0389166024820152915160448084019550600094509092839003019050818387803b158015611b6e57600080fd5b505af1158015611b82573d6000803e3d6000fd5b505050505b600160009054906101000a9004600160a060020a0316600160a060020a031663e66330d382888888888d6040518763ffffffff1660e060020a02815260040180806020018860001916600019168152602001806020018060200185600160a060020a0316600160a060020a03168152602001848103845260138152602001807f4f70657261746f7220726567697374657265640000000000000000000000000081525060200184810383528989828181526020019250808284379091018581038352878152602001905087878082843782019150509950505050505050505050600060405180830381600087803b158015611c8157600080fd5b505af1158015611c95573d6000803e3d6000fd5b5050505050505050505050565b60008054604080516000805160206137a8833981519152602080830191909152602880830189905283518084039091018152604890920192839052815188943394600160a060020a03909116936304f49a3a93909282918401908083835b60208310611d1f5780518252601f199092019160209182019101611d00565b51815160209384036101000a60001901801990921691161790526040805192909401829003822063ffffffff881660e060020a0283526004830152925160248083019650939450929083900301905081600087803b158015611d8057600080fd5b505af1158015611d94573d6000803e3d6000fd5b505050506040513d6020811015611daa57600080fd5b5051600160a060020a03161480611ecd5750600054604080516000805160206137e8833981519152602080830191909152602e80830186905283518084039091018152604e9092019283905281513394600160a060020a0316936304f49a3a9392909182918401908083835b60208310611e355780518252601f199092019160209182019101611e16565b51815160209384036101000a60001901801990921691161790526040805192909401829003822063ffffffff881660e060020a0283526004830152925160248083019650939450929083900301905081600087803b158015611e9657600080fd5b505af1158015611eaa573d6000803e3d6000fd5b505050506040513d6020811015611ec057600080fd5b5051600160a060020a0316145b1515611ed857600080fd5b600054604080517f6f70657261746f722e6970667300000000000000000000000000000000000000602080830191909152602d8083018a905283518084039091018152604d909201928390528151600160a060020a0390941693636e89955093918291908401908083835b60208310611f625780518252601f199092019160209182019101611f43565b5181516020939093036101000a60001901801990911692169190911790526040805191909301819003812063ffffffff871660e060020a0282526004820181815260248301948552604483018c90529095508b94508a93909250906064018484808284378201915050945050505050600060405180830381600087803b158015611feb57600080fd5b505af1158015611fff573d6000803e3d6000fd5b505060015460405160e060020a63e66330d302815260248101899052336084820181905260a060048301908152600d60a48401527f4f70657261746f7220697066730000000000000000000000000000000000000060c484015260e060448401908152600060e48501526101206064850190815261012485018b9052600160a060020a03909516965063e66330d395508b948b948b94939283929091610144018787808284378201915050975050505050505050600060405180830381600087803b1580156120cd57600080fd5b505af11580156120e1573d6000803e3d6000fd5b50505050509392505050565b600054600160a060020a031681565b60008054604080516000805160206137a883398151915260208083019190915260288083018e905283518084039091018152604890920192839052815185948e943394600160a060020a03909216936304f49a3a9382918401908083835b602083106121795780518252601f19909201916020918201910161215a565b51815160209384036101000a60001901801990921691161790526040805192909401829003822063ffffffff881660e060020a0283526004830152925160248083019650939450929083900301905081600087803b1580156121da57600080fd5b505af11580156121ee573d6000803e3d6000fd5b505050506040513d602081101561220457600080fd5b5051600160a060020a031614806123275750600054604080516000805160206137e8833981519152602080830191909152602e80830186905283518084039091018152604e9092019283905281513394600160a060020a0316936304f49a3a9392909182918401908083835b6020831061228f5780518252601f199092019160209182019101612270565b51815160209384036101000a60001901801990921691161790526040805192909401829003822063ffffffff881660e060020a0283526004830152925160248083019650939450929083900301905081600087803b1580156122f057600080fd5b505af1158015612304573d6000803e3d6000fd5b505050506040513d602081101561231a57600080fd5b5051600160a060020a0316145b151561233257600080fd5b6040517f6d6f64656c2e696400000000000000000000000000000000000000000000000060208201908152602882018d90528c918c918c91604801838380828437820191505093505050506040516020818303038152906040526040518082805190602001908083835b602083106123bb5780518252601f19909201916020918201910161239c565b51815160209384036101000a600019018019909216911617905260408051929094018290038220600080546000805160206137e883398151915285850152602e80860184905287518087039091018152604e909501968790528451929a50909750600160a060020a031695506304f49a3a9492935082918401908083835b602083106124585780518252601f199092019160209182019101612439565b51815160209384036101000a60001901801990921691161790526040805192909401829003822063ffffffff881660e060020a0283526004830152925160248083019650939450929083900301905081600087803b1580156124b957600080fd5b505af11580156124cd573d6000803e3d6000fd5b505050506040513d60208110156124e357600080fd5b5051600160a060020a0316146124f857600080fd5b600054604080516000805160206137e8833981519152602080830191909152602e80830187905283518084039091018152604e909201928390528151600160a060020a039094169363ca446dd993918291908401908083835b602083106125705780518252601f199092019160209182019101612551565b5181516020939093036101000a60001901801990911692169190911790526040805191909301819003812063ffffffff871660e060020a0282526004820152336024820152915160448084019550600094509092839003019050818387803b1580156125db57600080fd5b505af11580156125ef573d6000803e3d6000fd5b5050600054604080517f6d6f64656c2e6970667300000000000000000000000000000000000000000000602080830191909152602a80830189905283518084039091018152604a909201928390528151600160a060020a039094169550636e8995509450909282918401908083835b6020831061267d5780518252601f19909201916020918201910161265e565b6001836020036101000a03801982511681845116808217855250505050505090500191505060405180910390208a8a6040518463ffffffff1660e060020a0281526004018084600019166000191681526020018060200182810382528484828181526020019250808284378201915050945050505050600060405180830381600087803b15801561270d57600080fd5b505af1158015612721573d6000803e3d6000fd5b50505050612730828588612f30565b5061273c8285876133ac565b50600160009054906101000a9004600160a060020a0316600160a060020a031663e66330d3838c8c8c8c336040518763ffffffff1660e060020a02815260040180806020018860001916600019168152602001806020018060200185600160a060020a0316600160a060020a031681526020018481038452600b8152602001807f417373657420616464656400000000000000000000000000000000000000000081525060200184810383528989828181526020019250808284379091018581038352878152602001905087878082843782019150509950505050505050505050600060405180830381600087803b15801561283757600080fd5b505af115801561284b573d6000803e3d6000fd5b5060019e9d5050505050505050505050505050565b6000546040805160d960020a6437bbb732b902602080830191909152606060020a33026025830152825160198184030181526039909201928390528151600160a060020a0390941693633b7bfda093918291908401908083835b602083106128d95780518252601f1990920191602091820191016128ba565b51815160209384036101000a60001901801990921691161790526040805192909401829003822063ffffffff881660e060020a0283526004830152925160248083019650939450929083900301905081600087803b15801561293a57600080fd5b505af115801561294e573d6000803e3d6000fd5b505050506040513d602081101561296457600080fd5b5051151561297157600080fd5b600154604080517f42b425aa000000000000000000000000000000000000000000000000000000008152306024820181905233604483015231606482015260006084820181905260a06004830152601360a48301527f4f70657261746f72732064657374726f7965640000000000000000000000000060c48301529151600160a060020a03909316926342b425aa9260e48084019391929182900301818387803b158015612a1e57600080fd5b505af1158015612a32573d6000803e3d6000fd5b503392505050ff5b60008054604080516000805160206137a8833981519152602080830191909152602880830187905283518084039091018152604890920192839052815186943394600160a060020a03909116936304f49a3a93909282918401908083835b60208310612ab75780518252601f199092019160209182019101612a98565b51815160209384036101000a60001901801990921691161790526040805192909401829003822063ffffffff881660e060020a0283526004830152925160248083019650939450929083900301905081600087803b158015612b1857600080fd5b505af1158015612b2c573d6000803e3d6000fd5b505050506040513d6020811015612b4257600080fd5b5051600160a060020a03161480612c655750600054604080516000805160206137e8833981519152602080830191909152602e80830186905283518084039091018152604e9092019283905281513394600160a060020a0316936304f49a3a9392909182918401908083835b60208310612bcd5780518252601f199092019160209182019101612bae565b51815160209384036101000a60001901801990921691161790526040805192909401829003822063ffffffff881660e060020a0283526004830152925160248083019650939450929083900301905081600087803b158015612c2e57600080fd5b505af1158015612c42573d6000803e3d6000fd5b505050506040513d6020811015612c5857600080fd5b5051600160a060020a0316145b1515612c7057600080fd5b600054604080516000805160206137e8833981519152602080830191909152602e80830188905283518084039091018152604e909201928390528151600160a060020a0390941693630e14a37693918291908401908083835b60208310612ce85780518252601f199092019160209182019101612cc9565b5181516020939093036101000a60001901801990911692169190911790526040805191909301819003812063ffffffff871660e060020a0282526004820152915160248084019550600094509092839003019050818387803b158015612d4d57600080fd5b505af1158015612d61573d6000803e3d6000fd5b5050600054604080517f6d6f64656c2e6970667300000000000000000000000000000000000000000000602080830191909152602a8083018a905283518084039091018152604a909201928390528151600160a060020a03909416955063f6bb3cc49450909282918401908083835b60208310612def5780518252601f199092019160209182019101612dd0565b5181516020939093036101000a60001901801990911692169190911790526040805191909301819003812063ffffffff871660e060020a0282526004820152915160248084019550600094509092839003019050818387803b158015612e5457600080fd5b505af1158015612e68573d6000803e3d6000fd5b50506001546040805160e060020a63e66330d30281526024810188905233608482015260a06004820152600b60a48201527f417373657420616464656400000000000000000000000000000000000000000060c482015260e06044820152600060e48201819052610120606483015261012482018190529151600160a060020a03909316945063e66330d39350610164808201939182900301818387803b158015612f1257600080fd5b505af1158015612f26573d6000803e3d6000fd5b5050505050919050565b60008054604080516000805160206137a8833981519152602080830191909152602880830189905283518084039091018152604890920192839052815188943394600160a060020a03909116936304f49a3a93909282918401908083835b60208310612fad5780518252601f199092019160209182019101612f8e565b51815160209384036101000a60001901801990921691161790526040805192909401829003822063ffffffff881660e060020a0283526004830152925160248083019650939450929083900301905081600087803b15801561300e57600080fd5b505af1158015613022573d6000803e3d6000fd5b505050506040513d602081101561303857600080fd5b5051600160a060020a0316148061315b5750600054604080516000805160206137e8833981519152602080830191909152602e80830186905283518084039091018152604e9092019283905281513394600160a060020a0316936304f49a3a9392909182918401908083835b602083106130c35780518252601f1990920191602091820191016130a4565b51815160209384036101000a60001901801990921691161790526040805192909401829003822063ffffffff881660e060020a0283526004830152925160248083019650939450929083900301905081600087803b15801561312457600080fd5b505af1158015613138573d6000803e3d6000fd5b505050506040513d602081101561314e57600080fd5b5051600160a060020a0316145b151561316657600080fd5b600160a060020a038416151561328657600054604080517f6d6f64656c2e616363657074734574686572000000000000000000000000000060208083019190915260328083018a9052835180840390910181526052909201928390528151600160a060020a039094169363abfdcced93918291908401908083835b602083106132005780518252601f1990920191602091820191016131e1565b5181516020939093036101000a60001901801990911692169190911790526040805191909301819003812063ffffffff871660e060020a02825260048201528915156024820152915160448084019550600094509092839003019050818387803b15801561326d57600080fd5b505af1158015613281573d6000803e3d6000fd5b505050505b600054604080517f6d6f64656c2e61636365707473546f6b656e000000000000000000000000000060208083019190915260328201899052600160a060020a03888116606060020a02605284015283518084036046018152606690930193849052825194169363abfdcced93918291908401908083835b6020831061331c5780518252601f1990920191602091820191016132fd565b5181516020939093036101000a60001901801990911692169190911790526040805191909301819003812063ffffffff871660e060020a02825260048201528915156024820152915160448084019550600094509092839003019050818387803b15801561338957600080fd5b505af115801561339d573d6000803e3d6000fd5b50600198975050505050505050565b60008054604080516000805160206137a8833981519152602080830191909152602880830189905283518084039091018152604890920192839052815188943394600160a060020a03909116936304f49a3a93909282918401908083835b602083106134295780518252601f19909201916020918201910161340a565b51815160209384036101000a60001901801990921691161790526040805192909401829003822063ffffffff881660e060020a0283526004830152925160248083019650939450929083900301905081600087803b15801561348a57600080fd5b505af115801561349e573d6000803e3d6000fd5b505050506040513d60208110156134b457600080fd5b5051600160a060020a031614806135d75750600054604080516000805160206137e8833981519152602080830191909152602e80830186905283518084039091018152604e9092019283905281513394600160a060020a0316936304f49a3a9392909182918401908083835b6020831061353f5780518252601f199092019160209182019101613520565b51815160209384036101000a60001901801990921691161790526040805192909401829003822063ffffffff881660e060020a0283526004830152925160248083019650939450929083900301905081600087803b1580156135a057600080fd5b505af11580156135b4573d6000803e3d6000fd5b505050506040513d60208110156135ca57600080fd5b5051600160a060020a0316145b15156135e257600080fd5b600160a060020a038416151561370257600054604080517f6d6f64656c2e7061796f7574457468657200000000000000000000000000000060208083019190915260318083018a9052835180840390910181526051909201928390528151600160a060020a039094169363abfdcced93918291908401908083835b6020831061367c5780518252601f19909201916020918201910161365d565b5181516020939093036101000a60001901801990911692169190911790526040805191909301819003812063ffffffff871660e060020a02825260048201528915156024820152915160448084019550600094509092839003019050818387803b1580156136e957600080fd5b505af11580156136fd573d6000803e3d6000fd5b505050505b600054604080517f6d6f64656c2e7061796f7574546f6b656e00000000000000000000000000000060208083019190915260318201899052600160a060020a03888116606060020a02605184015283518084036045018152606590930193849052825194169363abfdcced9391829184820191819084908490831061331c5780518252601f1990920191602091820191016132fd565b600154600160a060020a03168156006f70657261746f7200000000000000000000000000000000000000000000000072656665727265720000000000000000000000000000000000000000000000006d6f64656c2e6f70657261746f72000000000000000000000000000000000000a165627a7a72305820362959064f1f639a3b6aea4afb022c35d57414bcd26539601476a89809b464790029",
  "source": "pragma solidity ^0.4.24;\n\nimport '../database/Database.sol';\nimport '../database/Events.sol';\n\ncontract Operators {\n\n  Database public database;\n  Events public events;\n\n  constructor(address _database, address _events) public {\n    database = Database(_database);\n    events = Events(_events);\n  }\n\n  // @notice allows the platform owners to onboard a new operator.\n  // @notice operators will receive crowdfunding payments and are liable for producing/installing assets.\n  function registerOperator(address _operatorAddress, string _operatorURI, string _ipfs, address _referrerAddress)\n  external\n  onlyOwner {\n    require(_operatorAddress != address(0));\n    bytes32 operatorID = keccak256(abi.encodePacked(\"operator.uri\", _operatorURI));\n    require(database.addressStorage(keccak256(abi.encodePacked(\"operator\", operatorID))) == address(0));\n    database.setBytes32(keccak256(abi.encodePacked(\"operator\", _operatorAddress)), operatorID);\n    database.setAddress(keccak256(abi.encodePacked(\"operator\", operatorID)), _operatorAddress);\n    database.setString(keccak256(abi.encodePacked(\"operator.ipfs\", operatorID)), _ipfs);\n    if(_referrerAddress == address(0)){\n      database.setAddress(keccak256(abi.encodePacked(\"referrer\", operatorID)), database.addressStorage(keccak256(abi.encodePacked(\"platform.wallet.assets\"))));\n    } else {\n      database.setAddress(keccak256(abi.encodePacked(\"referrer\", operatorID)), _referrerAddress);\n    }\n\n    events.operator('Operator registered', operatorID, _operatorURI, _ipfs, _operatorAddress);\n  }\n\n  // @notice owners can remove operators from the platform here\n  function removeOperator(bytes32 _operatorID)\n  external {\n    address operatorAddress = database.addressStorage(keccak256(abi.encodePacked(\"operator\", _operatorID)));\n    require(database.boolStorage(keccak256(abi.encodePacked(\"owner\", msg.sender))) || msg.sender == operatorAddress);\n    database.deleteBytes32(keccak256(abi.encodePacked(\"operator\", operatorAddress)));\n    database.deleteAddress(keccak256(abi.encodePacked(\"operator\", _operatorID)));\n    database.deleteAddress(keccak256(abi.encodePacked(\"referrer\", _operatorID)));\n    events.operator('Operator removed', _operatorID, '', '', msg.sender);\n  }\n\n\n  // @notice operator or owner can change the withdraw address of a registered operator\n  function changeOperatorAddress(bytes32 _operatorID, address _newAddress)\n  external {\n    address oldAddress = database.addressStorage(keccak256(abi.encodePacked(\"operator\", _operatorID)));\n    require(oldAddress != address(0));\n    require(msg.sender == oldAddress || database.boolStorage(keccak256(abi.encodePacked(\"owner\", msg.sender))));\n    database.setAddress(keccak256(abi.encodePacked(\"operator\", _operatorID)), _newAddress);\n    database.deleteBytes32(keccak256(abi.encodePacked(\"operator\", oldAddress)));\n    database.setBytes32(keccak256(abi.encodePacked(\"operator\", _newAddress)), _operatorID);\n    events.operator('Operator address changed', _operatorID, '', '', _newAddress);\n  }\n\n  function changeReferrerAddress(bytes32 _operatorID, address _newAddress)\n  external {\n    address oldAddress = database.addressStorage(keccak256(abi.encodePacked(\"referrer\", _operatorID)));\n    require(oldAddress != address(0));\n    require(msg.sender == oldAddress || database.boolStorage(keccak256(abi.encodePacked(\"owner\", msg.sender))));\n    database.setAddress(keccak256(abi.encodePacked(\"referrer\", _operatorID)), _newAddress);\n    events.operator('Referrer address changed', _operatorID, '', '', _newAddress);\n  }\n\n  function updateIPFS(bytes32 _operatorID, string _ipfs)\n  external\n  onlyOperator(_operatorID)\n  returns(bool){\n    database.setString(keccak256(abi.encodePacked(\"operator.ipfs\", _operatorID)), _ipfs);\n    events.operator('Operator ipfs', _operatorID, '', _ipfs, msg.sender);\n  }\n\n  function addAsset(bytes32 _operatorID, string _name, string _ipfs, bool _acceptCrypto, bool _payoutCrypto, address _token)\n  external\n  onlyOperator(_operatorID)\n  returns (bool) {\n    bytes32 modelID = keccak256(abi.encodePacked('model.id', _operatorID, _name));\n    require(database.addressStorage(keccak256(abi.encodePacked(\"model.operator\", modelID))) == address(0));\n    database.setAddress(keccak256(abi.encodePacked(\"model.operator\", modelID)), msg.sender);\n    database.setString(keccak256(abi.encodePacked('model.ipfs', modelID)), _ipfs);\n    acceptToken(modelID, _token, _acceptCrypto);\n    payoutToken(modelID, _token, _payoutCrypto);\n    events.operator('Asset added', modelID, _name, _ipfs, msg.sender);\n    return true;\n  }\n\n  function removeAsset(bytes32 _modelID)\n  external\n  onlyOperator(_modelID)\n  returns (bool) {\n    database.deleteAddress(keccak256(abi.encodePacked(\"model.operator\", _modelID)));\n    database.deleteString(keccak256(abi.encodePacked('model.ipfs', _modelID)));\n    events.operator('Asset added', _modelID, '', '', msg.sender);\n  }\n\n  // @notice operator can choose which ERC20 tokens he's willing to accept as payment\n  function acceptToken(bytes32 _modelID, address _tokenAddress, bool _accept)\n  public\n  onlyOperator(_modelID)\n  returns (bool) {\n    if(_tokenAddress == address(0)){\n      database.setBool(keccak256(abi.encodePacked(\"model.acceptsEther\", _modelID)), _accept);\n    }\n    database.setBool(keccak256(abi.encodePacked(\"model.acceptsToken\", _modelID, _tokenAddress)), _accept);\n    return true;\n  }\n\n\n  // @notice operator can choose which ERC20 tokens it pays out with\n  function payoutToken(bytes32 _modelID, address _tokenAddress, bool _payout)\n  public\n  onlyOperator(_modelID)\n  returns (bool) {\n    if(_tokenAddress == address(0)){\n      database.setBool(keccak256(abi.encodePacked(\"model.payoutEther\", _modelID)), _payout);\n    }\n    database.setBool(keccak256(abi.encodePacked(\"model.payoutToken\", _modelID, _tokenAddress)), _payout);\n    return true;\n  }\n\n  // @notice platform owners can destroy contract here\n  function destroy()\n  onlyOwner\n  external {\n    events.transaction('Operators destroyed', address(this), msg.sender, address(this).balance, address(0));\n    selfdestruct(msg.sender);\n  }\n\n  //////////////////////////////////////////////////////////////////////////////////////////////////////////////////////////////////\n  //                                                Modifiers                                                                     //\n  //////////////////////////////////////////////////////////////////////////////////////////////////////////////////////////////////\n\n  // @notice Sender must be a registered owner\n  modifier onlyOwner {\n    require(database.boolStorage(keccak256(abi.encodePacked(\"owner\", msg.sender))));\n    _;\n  }\n\n  // @notice Sender must be the operator address for this operatorID or modelID\n  modifier onlyOperator(bytes32 _id) {\n    require(database.addressStorage(keccak256(abi.encodePacked(\"operator\", _id))) == msg.sender || database.addressStorage(keccak256(abi.encodePacked(\"model.operator\", _id))) == msg.sender);\n    _;\n  }\n\n\n  //////////////////////////////////////////////////////////////////////////////////////////////////////////////////////////////////\n  //                                                Events                                                                        //\n  //////////////////////////////////////////////////////////////////////////////////////////////////////////////////////////////////\n  /*\n  event LogOperatorRegistered(bytes32 indexed _operatorID, string _operatorURI);\n  event LogOperatorRemoved(bytes32 indexed _operatorID, address _owner);\n  event LogOperatorAddressChanged(bytes32 indexed _operatorID, address _oldAddress, address _newAddress);\n  event LogOperatorAcceptsToken(bytes32 indexed _operatorID, address _tokenAddress);\n  */\n\n}\n",
  "sourcePath": "/home/iamonuwa/Projects/MyBitFoundation/MyBit-Network.tech/contracts/roles/Operators.sol",
  "compiler": {
    "name": "solc",
    "version": "0.4.24+commit.e67f0147.Emscripten.clang"
  },
  "schemaVersion": "3.0.9",
  "updatedAt": "2020-07-27T21:29:56.988Z",
  "devdoc": {
    "methods": {}
  },
  "userdoc": {
    "methods": {}
  }
}