{
  "contractName": "OrderIdManager",
  "abi": [
    {
      "constant": true,
      "inputs": [],
      "name": "NUM_ORDERS",
      "outputs": [
        {
          "name": "",
          "type": "uint256"
        }
      ],
      "payable": false,
      "stateMutability": "view",
      "type": "function"
    }
  ],
  "bytecode": "0x6080604052348015600f57600080fd5b5060988061001e6000396000f300608060405260043610603e5763ffffffff7c010000000000000000000000000000000000000000000000000000000060003504166304068ae281146043575b600080fd5b348015604e57600080fd5b5060556067565b60408051918252519081900360200190f35b6020815600a165627a7a72305820a9c0c4f7942c6a38b240aada9500ade416e30a56f26c81c7c140bbaca78a304a0029",
  "source": "pragma solidity ^0.4.24;\n\n\ncontract OrderIdManager {\n    struct OrderIdData {\n        uint32 firstOrderId;\n        uint takenBitmap;\n    }\n\n    uint constant public NUM_ORDERS = 32;\n\n    function fetchNewOrderId(OrderIdData storage freeOrders)\n        internal\n        returns(uint32)\n    {\n        uint orderBitmap = freeOrders.takenBitmap;\n        uint bitPointer = 1;\n\n        for (uint i = 0; i < NUM_ORDERS; ++i) {\n\n            if ((orderBitmap & bitPointer) == 0) {\n                freeOrders.takenBitmap = orderBitmap | bitPointer;\n                return(uint32(uint(freeOrders.firstOrderId) + i));\n            }\n\n            bitPointer *= 2;\n        }\n\n        revert();\n    }\n\n    /// @dev mark order as free to use.\n    function releaseOrderId(OrderIdData storage freeOrders, uint32 orderId)\n        internal\n        returns(bool)\n    {\n        require(orderId >= freeOrders.firstOrderId);\n        require(orderId < (freeOrders.firstOrderId + NUM_ORDERS));\n\n        uint orderBitNum = uint(orderId) - uint(freeOrders.firstOrderId);\n        uint bitPointer = uint(1) << orderBitNum;\n\n        require(bitPointer & freeOrders.takenBitmap > 0);\n\n        freeOrders.takenBitmap &= ~bitPointer;\n        return true;\n    }\n\n    function allocateOrderIds(\n        OrderIdData storage makerOrders,\n        uint32 firstAllocatedId\n    )\n        internal\n        returns(bool)\n    {\n        if (makerOrders.firstOrderId > 0) {\n            return false;\n        }\n\n        makerOrders.firstOrderId = firstAllocatedId;\n        makerOrders.takenBitmap = 0;\n\n        return true;\n    }\n\n    function orderAllocationRequired(OrderIdData storage freeOrders) internal view returns (bool) {\n\n        if (freeOrders.firstOrderId == 0) return true;\n        return false;\n    }\n\n    function getNumActiveOrderIds(OrderIdData storage makerOrders) internal view returns (uint numActiveOrders) {\n        for (uint i = 0; i < NUM_ORDERS; ++i) {\n            if ((makerOrders.takenBitmap & (uint(1) << i)) > 0) numActiveOrders++;\n        }\n    }\n}\n",
  "sourcePath": "/home/iamonuwa/Projects/MyBitFoundation/MyBit-Network.tech/contracts/kyber/OrderIdManager.sol",
  "compiler": {
    "name": "solc",
    "version": "0.4.24+commit.e67f0147.Emscripten.clang"
  },
  "schemaVersion": "3.0.9",
  "updatedAt": "2020-07-27T21:29:55.485Z",
  "devdoc": {
    "methods": {}
  },
  "userdoc": {
    "methods": {}
  }
}