{
  "contractName": "Pausible",
  "abi": [
    {
      "constant": true,
      "inputs": [],
      "name": "database",
      "outputs": [
        {
          "name": "",
          "type": "address"
        }
      ],
      "payable": false,
      "stateMutability": "view",
      "type": "function"
    },
    {
      "constant": true,
      "inputs": [],
      "name": "events",
      "outputs": [
        {
          "name": "",
          "type": "address"
        }
      ],
      "payable": false,
      "stateMutability": "view",
      "type": "function"
    },
    {
      "inputs": [
        {
          "name": "_database",
          "type": "address"
        },
        {
          "name": "_events",
          "type": "address"
        }
      ],
      "payable": false,
      "stateMutability": "nonpayable",
      "type": "constructor"
    },
    {
      "constant": false,
      "inputs": [
        {
          "name": "_contract",
          "type": "address"
        }
      ],
      "name": "pause",
      "outputs": [],
      "payable": false,
      "stateMutability": "nonpayable",
      "type": "function"
    },
    {
      "constant": false,
      "inputs": [
        {
          "name": "_contract",
          "type": "address"
        }
      ],
      "name": "unpause",
      "outputs": [],
      "payable": false,
      "stateMutability": "nonpayable",
      "type": "function"
    },
    {
      "constant": false,
      "inputs": [],
      "name": "destroy",
      "outputs": [],
      "payable": false,
      "stateMutability": "nonpayable",
      "type": "function"
    }
  ],
  "bytecode": "0x608060405234801561001057600080fd5b5060405160408061099e83398101604052805160209091015160008054600160a060020a03938416600160a060020a03199182161790915560018054939092169216919091179055610937806100676000396000f3006080604052600436106100535763ffffffff60e060020a60003504166357b001f98114610058578063713b563f1461007b57806376a67a51146100ac57806383197ef0146100cd578063b5f8558c146100e2575b600080fd5b34801561006457600080fd5b50610079600160a060020a03600435166100f7565b005b34801561008757600080fd5b50610090610400565b60408051600160a060020a039092168252519081900360200190f35b3480156100b857600080fd5b50610079600160a060020a036004351661040f565b3480156100d957600080fd5b50610079610704565b3480156100ee57600080fd5b506100906108fc565b600054604080517f6f776e65720000000000000000000000000000000000000000000000000000006020808301919091526c0100000000000000000000000033026025830152825160198184030181526039909201928390528151600160a060020a0390941693633b7bfda093918291908401908083835b6020831061018e5780518252601f19909201916020918201910161016f565b51815160209384036101000a60001901801990921691161790526040805192909401829003822063ffffffff881660e060020a0283526004830152925160248083019650939450929083900301905081600087803b1580156101ef57600080fd5b505af1158015610203573d6000803e3d6000fd5b505050506040513d602081101561021957600080fd5b5051151561022657600080fd5b600054604080517f7061757365640000000000000000000000000000000000000000000000000000602080830191909152600160a060020a038581166c010000000000000000000000000260268401528351808403601a018152603a909301938490528251941693632c62ff2d93918291908401908083835b602083106102be5780518252601f19909201916020918201910161029f565b5181516020939093036101000a60001901801990911692169190911790526040805191909301819003812063ffffffff871660e060020a0282526004820152915160248084019550600094509092839003019050818387803b15801561032357600080fd5b505af1158015610337573d6000803e3d6000fd5b5050600154604080517f42b425aa0000000000000000000000000000000000000000000000000000000081523360248201523060448201526000606482018190526084820181905260a06004830152601160a48301527f436f6e747261637420756e70617573656400000000000000000000000000000060c48301529151600160a060020a0390931694506342b425aa935060e4808201939182900301818387803b1580156103e557600080fd5b505af11580156103f9573d6000803e3d6000fd5b5050505050565b600054600160a060020a031681565b600054604080517f6f776e65720000000000000000000000000000000000000000000000000000006020808301919091526c0100000000000000000000000033026025830152825160198184030181526039909201928390528151600160a060020a0390941693633b7bfda093918291908401908083835b602083106104a65780518252601f199092019160209182019101610487565b51815160209384036101000a60001901801990921691161790526040805192909401829003822063ffffffff881660e060020a0283526004830152925160248083019650939450929083900301905081600087803b15801561050757600080fd5b505af115801561051b573d6000803e3d6000fd5b505050506040513d602081101561053157600080fd5b5051151561053e57600080fd5b600054604080517f7061757365640000000000000000000000000000000000000000000000000000602080830191909152600160a060020a038581166c010000000000000000000000000260268401528351808403601a018152603a90930193849052825194169363abfdcced93918291908401908083835b602083106105d65780518252601f1990920191602091820191016105b7565b5181516020939093036101000a60001901801990911692169190911790526040805191909301819003812063ffffffff871660e060020a028252600482015260016024820152915160448084019550600094509092839003019050818387803b15801561064257600080fd5b505af1158015610656573d6000803e3d6000fd5b5050600154604080517f42b425aa0000000000000000000000000000000000000000000000000000000081523360248201523060448201526000606482018190526084820181905260a06004830152600f60a48301527f436f6e747261637420706175736564000000000000000000000000000000000060c48301529151600160a060020a0390931694506342b425aa935060e4808201939182900301818387803b1580156103e557600080fd5b600054604080517f6f776e65720000000000000000000000000000000000000000000000000000006020808301919091526c0100000000000000000000000033026025830152825160198184030181526039909201928390528151600160a060020a0390941693633b7bfda093918291908401908083835b6020831061079b5780518252601f19909201916020918201910161077c565b51815160209384036101000a60001901801990921691161790526040805192909401829003822063ffffffff881660e060020a0283526004830152925160248083019650939450929083900301905081600087803b1580156107fc57600080fd5b505af1158015610810573d6000803e3d6000fd5b505050506040513d602081101561082657600080fd5b5051151561083357600080fd5b600154604080517f42b425aa000000000000000000000000000000000000000000000000000000008152306024820181905233604483015231606482015260006084820181905260a06004830152601260a48301527f5061757369626c652064657374726f796564000000000000000000000000000060c48301529151600160a060020a03909316926342b425aa9260e48084019391929182900301818387803b1580156108e057600080fd5b505af11580156108f4573d6000803e3d6000fd5b503392505050ff5b600154600160a060020a0316815600a165627a7a72305820dd24a134d7862feedf02f9098dd7f8e9a2407207b9edc2713d09d9e031e80b260029",
  "source": "pragma solidity ^0.4.24;\n\n\nimport '../database/Database.sol';\nimport '../database/Events.sol';\n\n// @title A contract which allows for the freezing of functionality within the platform.\n// @dev only valid with a single owned ownership model\n// @author Kyle Dewhurst, MyBit Foundation\ncontract Pausible {\n\n  Database public database;\n  Events public events;\n\n  // @notice constructor: initialize database instance\n  constructor(address _database, address _events)\n  public {\n    database = Database(_database);\n    events = Events(_events);\n  }\n\n  // @notice This will pause all critical activity for the supplied address\n  // @param: The address of the contract which is to be paused\\\n  function pause(address _contract)\n  onlyOwner\n  public {\n    database.setBool(keccak256(abi.encodePacked(\"paused\", _contract)), true);\n    events.transaction('Contract paused', msg.sender, address(this), 0, address(0));\n    //emit LogPaused(_contract, msg.sender);\n  }\n\n  // @notice This will unpause all critical activity for the supplied address\n  // @param: The address of the contract which is to be unpaused\n  function unpause(address _contract)\n  onlyOwner\n  public {\n    database.deleteBool(keccak256(abi.encodePacked(\"paused\", _contract)));\n    events.transaction('Contract unpaused', msg.sender, address(this), 0, address(0));\n    //emit LogUnpaused(_contract, msg.sender);\n  }\n\n  // @notice platform owners can destroy contract here\n  function destroy()\n  onlyOwner\n  external {\n    events.transaction('Pausible destroyed', address(this), msg.sender, address(this).balance, address(0));\n    selfdestruct(msg.sender);\n  }\n\n  // @notice reverts if caller is not the owner\n  modifier onlyOwner() {\n    require(database.boolStorage(keccak256(abi.encodePacked(\"owner\", msg.sender))));\n    _;\n  }\n  /*\n  event LogPaused(address indexed _contract, address _owner);\n  event LogUnpaused(address indexed _contract, address _owner);\n  */\n}\n",
  "sourcePath": "/home/iamonuwa/Projects/MyBitFoundation/MyBit-Network.tech/contracts/ownership/Pausible.sol",
  "compiler": {
    "name": "solc",
    "version": "0.4.24+commit.e67f0147.Emscripten.clang"
  },
  "schemaVersion": "3.0.9",
  "updatedAt": "2020-07-27T21:29:56.593Z",
  "devdoc": {
    "methods": {}
  },
  "userdoc": {
    "methods": {}
  }
}