{
  "contractName": "PlatformDistribution",
  "abi": [
    {
      "constant": true,
      "inputs": [],
      "name": "foundationWallet",
      "outputs": [
        {
          "name": "",
          "type": "address"
        }
      ],
      "payable": false,
      "stateMutability": "view",
      "type": "function"
    },
    {
      "constant": true,
      "inputs": [],
      "name": "foundationPercent",
      "outputs": [
        {
          "name": "",
          "type": "uint256"
        }
      ],
      "payable": false,
      "stateMutability": "view",
      "type": "function"
    },
    {
      "constant": true,
      "inputs": [],
      "name": "taskmarketWallet",
      "outputs": [
        {
          "name": "",
          "type": "address"
        }
      ],
      "payable": false,
      "stateMutability": "view",
      "type": "function"
    },
    {
      "constant": true,
      "inputs": [],
      "name": "taskmarketPercent",
      "outputs": [
        {
          "name": "",
          "type": "uint256"
        }
      ],
      "payable": false,
      "stateMutability": "view",
      "type": "function"
    },
    {
      "inputs": [
        {
          "name": "_database",
          "type": "address"
        },
        {
          "name": "_kyber",
          "type": "address"
        }
      ],
      "payable": false,
      "stateMutability": "nonpayable",
      "type": "constructor"
    },
    {
      "payable": true,
      "stateMutability": "payable",
      "type": "fallback"
    },
    {
      "anonymous": false,
      "inputs": [
        {
          "indexed": false,
          "name": "sender",
          "type": "address"
        },
        {
          "indexed": false,
          "name": "amount",
          "type": "uint256"
        }
      ],
      "name": "EtherReceived",
      "type": "event"
    },
    {
      "constant": false,
      "inputs": [],
      "name": "distributeETH",
      "outputs": [],
      "payable": false,
      "stateMutability": "nonpayable",
      "type": "function"
    },
    {
      "constant": false,
      "inputs": [
        {
          "name": "_token",
          "type": "address"
        }
      ],
      "name": "distributeERC20",
      "outputs": [],
      "payable": false,
      "stateMutability": "nonpayable",
      "type": "function"
    },
    {
      "constant": false,
      "inputs": [
        {
          "name": "_token",
          "type": "address"
        }
      ],
      "name": "recoverTokens",
      "outputs": [],
      "payable": false,
      "stateMutability": "nonpayable",
      "type": "function"
    },
    {
      "constant": false,
      "inputs": [],
      "name": "destroy",
      "outputs": [],
      "payable": false,
      "stateMutability": "nonpayable",
      "type": "function"
    }
  ],
  "bytecode": "0x608060405234801561001057600080fd5b506040516040806111ab83398101604052805160209091015160008054600160a060020a03938416600160a060020a03199182161790915560018054939092169216919091179055611144806100676000396000f3006080604052600436106100745763ffffffff60e060020a60003504166316114acd81146100b05780636b7ae8dc146100d357806383197ef0146101045780639144a2c514610119578063a9c2674d14610140578063b8b9b54914610155578063bce582691461016a578063f1900d7114610119575b6040805133815234602082015281517f1e57e3bb474320be3d2c77138f75b7c3941292d647f5f9634e33a8e94e0e069b929181900390910190a1005b3480156100bc57600080fd5b506100d1600160a060020a036004351661018b565b005b3480156100df57600080fd5b506100e8610435565b60408051600160a060020a039092168252519081900360200190f35b34801561011057600080fd5b506100d161044d565b34801561012557600080fd5b5061012e6105e1565b60408051918252519081900360200190f35b34801561014c57600080fd5b506100e86105e6565b34801561016157600080fd5b506100d16105fe565b34801561017657600080fd5b506100d1600160a060020a0360043516610a6b565b60008054604080517f6f776e65720000000000000000000000000000000000000000000000000000006020808301919091526c01000000000000000000000000330260258301528251601981840301815260399092019283905281518594600160a060020a031693633b7bfda09392909182918401908083835b602083106102245780518252601f199092019160209182019101610205565b51815160209384036101000a60001901801990921691161790526040805192909401829003822063ffffffff881660e060020a0283526004830152925160248083019650939450929083900301905081600087803b15801561028557600080fd5b505af1158015610299573d6000803e3d6000fd5b505050506040513d60208110156102af57600080fd5b5051151561031e57604080517f08c379a000000000000000000000000000000000000000000000000000000000815260206004820152600960248201527f4e6f74206f776e65720000000000000000000000000000000000000000000000604482015290519081900360640190fd5b6040805160e060020a6370a082310281523060048201529051849350600160a060020a038416916370a082319160248083019260209291908290030181600087803b15801561036c57600080fd5b505af1158015610380573d6000803e3d6000fd5b505050506040513d602081101561039657600080fd5b5051604080517fa9059cbb000000000000000000000000000000000000000000000000000000008152336004820152602481018390529051919250600160a060020a0384169163a9059cbb916044808201926020929091908290030181600087803b15801561040457600080fd5b505af1158015610418573d6000803e3d6000fd5b505050506040513d602081101561042e57600080fd5b5050505050565b73d9d2b28e09921a38ad7ab1b4138357408bda8ebd81565b600054604080517f6f776e65720000000000000000000000000000000000000000000000000000006020808301919091526c0100000000000000000000000033026025830152825160198184030181526039909201928390528151600160a060020a0390941693633b7bfda093918291908401908083835b602083106104e45780518252601f1990920191602091820191016104c5565b51815160209384036101000a60001901801990921691161790526040805192909401829003822063ffffffff881660e060020a0283526004830152925160248083019650939450929083900301905081600087803b15801561054557600080fd5b505af1158015610559573d6000803e3d6000fd5b505050506040513d602081101561056f57600080fd5b505115156105de57604080517f08c379a000000000000000000000000000000000000000000000000000000000815260206004820152600960248201527f4e6f74206f776e65720000000000000000000000000000000000000000000000604482015290519081900360640190fd5b33ff5b602181565b73fd1e4b568bb3bcf706b0bac5960d4b91bacff96f81565b6000806000806000806000809054906101000a9004600160a060020a0316600160a060020a03166304f49a3a60405160200180807f706c6174666f726d2e746f6b656e000000000000000000000000000000000000815250600e0190506040516020818303038152906040526040518082805190602001908083835b602083106106995780518252601f19909201916020918201910161067a565b51815160209384036101000a60001901801990921691161790526040805192909401829003822063ffffffff881660e060020a0283526004830152925160248083019650939450929083900301905081600087803b1580156106fa57600080fd5b505af115801561070e573d6000803e3d6000fd5b505050506040513d602081101561072457600080fd5b505195503031945061073d85602163ffffffff61109e16565b935061075085602163ffffffff61109e16565b925061077283610766878763ffffffff6110bb16565b9063ffffffff6110bb16565b60405190925073d9d2b28e09921a38ad7ab1b4138357408bda8ebd9085156108fc029086906000818181858888f193505050501580156107b6573d6000803e3d6000fd5b5060405173fd1e4b568bb3bcf706b0bac5960d4b91bacff96f9084156108fc029085906000818181858888f193505050501580156107f8573d6000803e3d6000fd5b506040805160e060020a6370a082310281523060048201529051600160a060020a038816916370a082319160248083019260209291908290030181600087803b15801561084457600080fd5b505af1158015610858573d6000803e3d6000fd5b505050506040513d602081101561086e57600080fd5b5051600154604080517fcb3c28c700000000000000000000000000000000000000000000000000000000815273eeeeeeeeeeeeeeeeeeeeeeeeeeeeeeeeeeeeeeee600482015260248101869052600160a060020a038a811660448301523060648301527f80000000000000000000000000000000000000000000000000000000000000006084830152600060a4830181905260c4830152915193945091169163cb3c28c791859160e480830192602092919082900301818588803b15801561093557600080fd5b505af1158015610949573d6000803e3d6000fd5b50505050506040513d602081101561096057600080fd5b50506040805160e060020a6370a082310281523060048201529051600160a060020a038816916342966c68916109f391859185916370a082319160248083019260209291908290030181600087803b1580156109bb57600080fd5b505af11580156109cf573d6000803e3d6000fd5b505050506040513d60208110156109e557600080fd5b50519063ffffffff6110bb16565b6040518263ffffffff1660e060020a02815260040180828152602001915050602060405180830381600087803b158015610a2c57600080fd5b505af1158015610a40573d6000803e3d6000fd5b505050506040513d6020811015610a5657600080fd5b50511515610a6357600080fd5b505050505050565b60008060008060008060008796506000809054906101000a9004600160a060020a0316600160a060020a03166304f49a3a60405160200180807f706c6174666f726d2e746f6b656e000000000000000000000000000000000000815250600e0190506040516020818303038152906040526040518082805190602001908083835b60208310610b0b5780518252601f199092019160209182019101610aec565b51815160209384036101000a60001901801990921691161790526040805192909401829003822063ffffffff881660e060020a0283526004830152925160248083019650939450929083900301905081600087803b158015610b6c57600080fd5b505af1158015610b80573d6000803e3d6000fd5b505050506040513d6020811015610b9657600080fd5b50516040805160e060020a6370a082310281523060048201529051919750600160a060020a038916916370a08231916024808201926020929091908290030181600087803b158015610be757600080fd5b505af1158015610bfb573d6000803e3d6000fd5b505050506040513d6020811015610c1157600080fd5b50519450610c2685602163ffffffff61109e16565b9350610c3985602163ffffffff61109e16565b9250610c4f83610766878763ffffffff6110bb16565b604080517fa9059cbb00000000000000000000000000000000000000000000000000000000815273d9d2b28e09921a38ad7ab1b4138357408bda8ebd6004820152602481018790529051919350600160a060020a0389169163a9059cbb916044808201926020929091908290030181600087803b158015610ccf57600080fd5b505af1158015610ce3573d6000803e3d6000fd5b505050506040513d6020811015610cf957600080fd5b50511515610d0657600080fd5b604080517fa9059cbb00000000000000000000000000000000000000000000000000000000815273fd1e4b568bb3bcf706b0bac5960d4b91bacff96f6004820152602481018590529051600160a060020a0389169163a9059cbb9160448083019260209291908290030181600087803b158015610d8257600080fd5b505af1158015610d96573d6000803e3d6000fd5b505050506040513d6020811015610dac57600080fd5b50511515610db957600080fd5b6040805160e060020a6370a082310281523060048201529051600160a060020a038816916370a082319160248083019260209291908290030181600087803b158015610e0457600080fd5b505af1158015610e18573d6000803e3d6000fd5b505050506040513d6020811015610e2e57600080fd5b50519050600160a060020a0387811690871614610fcb57600154604080517f095ea7b3000000000000000000000000000000000000000000000000000000008152600160a060020a0392831660048201526024810185905290519189169163095ea7b3916044808201926020929091908290030181600087803b158015610eb457600080fd5b505af1158015610ec8573d6000803e3d6000fd5b505050506040513d6020811015610ede57600080fd5b50511515610eeb57600080fd5b600154604080517fcb3c28c7000000000000000000000000000000000000000000000000000000008152600160a060020a038b811660048301526024820186905289811660448301523060648301527f80000000000000000000000000000000000000000000000000000000000000006084830152600060a4830181905260c48301819052925193169263cb3c28c79260e480840193602093929083900390910190829087803b158015610f9e57600080fd5b505af1158015610fb2573d6000803e3d6000fd5b505050506040513d6020811015610fc857600080fd5b50505b6040805160e060020a6370a082310281523060048201529051600160a060020a038816916342966c689161102491859185916370a082319160248083019260209291908290030181600087803b1580156109bb57600080fd5b6040518263ffffffff1660e060020a02815260040180828152602001915050602060405180830381600087803b15801561105d57600080fd5b505af1158015611071573d6000803e3d6000fd5b505050506040513d602081101561108757600080fd5b5051151561109457600080fd5b5050505050505050565b60006110b46110ad84846110cd565b6064611103565b9392505050565b6000828211156110c757fe5b50900390565b6000808315156110e057600091506110fc565b508282028284828115156110f057fe5b04146110f857fe5b8091505b5092915050565b6000818381151561111057fe5b0493925050505600a165627a7a7230582088c89260db6eec099e426f8e4ac91c3ca872cc831b1195b8c3630ef059cee8700029",
  "source": "pragma solidity ^0.4.24;\n\nimport \"../../math/SafeMath.sol\";\nimport '../../interfaces/DBInterface.sol';\nimport \"../../interfaces/KyberInterface.sol\";\nimport \"../../interfaces/ERC20.sol\";\nimport \"../../interfaces/BurnableERC20.sol\";\n\n\ncontract PlatformDistribution {\n  using SafeMath for uint256;\n\n  address public constant foundationWallet = address(0xd9d2B28E09921A38aD7aB1B4138357408bda8EBD);\n  address public constant taskmarketWallet = address(0xFd1E4b568Bb3bcF706b0bac5960d4B91BacFF96F);\n  //Any funds remaining after these percentages are sent, is burned as MYB\n  //Combined value must not exceed 100 or funds sent here will never be retrieved\n  uint256 public constant foundationPercent = 33;\n  uint256 public constant taskmarketPercent = 33;\n\n  DBInterface private database;\n  KyberInterface private kyber;\n\n  constructor(address _database, address _kyber) public {\n    database = DBInterface(_database);\n    kyber = KyberInterface(_kyber);\n  }\n\n  function distributeETH() external{\n    BurnableERC20 platformToken = BurnableERC20(database.addressStorage(keccak256(abi.encodePacked(\"platform.token\"))));\n    uint256 total = address(this).balance;\n    //Setup funding amounts\n    uint256 foundationAmount = total.getFractionalAmount(foundationPercent);\n    uint256 taskmarketAmount = total.getFractionalAmount(taskmarketPercent);\n    uint256 burnAmount = total.sub(foundationAmount).sub(taskmarketAmount);\n    //Transfer funds\n    foundationWallet.transfer(foundationAmount);\n    taskmarketWallet.transfer(taskmarketAmount);\n    //Convert to platform token and burn\n    uint256 platformBalance = platformToken.balanceOf(this);\n    kyber.trade.value(burnAmount)(address(0xEeeeeEeeeEeEeeEeEeEeeEEEeeeeEeeeeeeeEEeE), burnAmount, address(platformToken), address(this), 2**255, 0, 0);\n    require(platformToken.burn(platformToken.balanceOf(this).sub(platformBalance)));\n  }\n\n  function distributeERC20(address _token) external{\n    ERC20 erc20 = ERC20(_token);\n    BurnableERC20 platformToken = BurnableERC20(database.addressStorage(keccak256(abi.encodePacked(\"platform.token\"))));\n    uint256 total = erc20.balanceOf(this);\n    //Setup funding amounts\n    uint256 foundationAmount = total.getFractionalAmount(foundationPercent);\n    uint256 taskmarketAmount = total.getFractionalAmount(taskmarketPercent);\n    uint256 burnAmount = total.sub(foundationAmount).sub(taskmarketAmount);\n    //Transfer funds\n    require(erc20.transfer(foundationWallet, foundationAmount));\n    require(erc20.transfer(taskmarketWallet, taskmarketAmount));\n    //Convert to platform token and burn\n    uint256 platformBalance = platformToken.balanceOf(this);\n    if(address(erc20) != address(platformToken)){\n      require(erc20.approve(address(kyber), burnAmount));\n      kyber.trade(_token, burnAmount, address(platformToken), address(this), 2**255, 0, 0);\n    }\n    require(platformToken.burn(platformToken.balanceOf(this).sub(platformBalance)));\n  }\n\n  // @notice fallback function\n  function ()\n  public\n  payable {\n    emit EtherReceived(msg.sender, msg.value);\n  }\n\n  // @notice platform owners can recover tokens here\n  function recoverTokens(address _token)\n  onlyOwner\n  external {\n    ERC20 erc20 = ERC20(_token);\n    uint contractBalance = erc20.balanceOf(this);\n    erc20.transfer(msg.sender, contractBalance);\n  }\n\n  // @notice platform owners can destroy contract here\n  function destroy()\n  onlyOwner\n  external {\n    selfdestruct(msg.sender);\n  }\n\n  // @notice Sender must be a registered owner\n  modifier onlyOwner {\n    require(database.boolStorage(keccak256(abi.encodePacked(\"owner\", msg.sender))), \"Not owner\");\n    _;\n  }\n\n  event EtherReceived(address sender, uint amount);\n}\n",
  "sourcePath": "/home/iamonuwa/Projects/MyBitFoundation/MyBit-Network.tech/contracts/tokens/distribution/PlatformDistribution.sol",
  "compiler": {
    "name": "solc",
    "version": "0.4.24+commit.e67f0147.Emscripten.clang"
  },
  "schemaVersion": "3.0.9",
  "updatedAt": "2020-07-27T21:29:57.118Z",
  "devdoc": {
    "methods": {}
  },
  "userdoc": {
    "methods": {}
  }
}