{
  "contractName": "Platform",
  "abi": [
    {
      "constant": true,
      "inputs": [],
      "name": "database",
      "outputs": [
        {
          "name": "",
          "type": "address"
        }
      ],
      "payable": false,
      "stateMutability": "view",
      "type": "function"
    },
    {
      "constant": true,
      "inputs": [],
      "name": "events",
      "outputs": [
        {
          "name": "",
          "type": "address"
        }
      ],
      "payable": false,
      "stateMutability": "view",
      "type": "function"
    },
    {
      "inputs": [
        {
          "name": "_database",
          "type": "address"
        },
        {
          "name": "_events",
          "type": "address"
        }
      ],
      "payable": false,
      "stateMutability": "nonpayable",
      "type": "constructor"
    },
    {
      "constant": false,
      "inputs": [
        {
          "name": "_walletAddress",
          "type": "address"
        }
      ],
      "name": "setPlatformFundsWallet",
      "outputs": [],
      "payable": false,
      "stateMutability": "nonpayable",
      "type": "function"
    },
    {
      "constant": false,
      "inputs": [
        {
          "name": "_walletAddress",
          "type": "address"
        }
      ],
      "name": "setPlatformAssetsWallet",
      "outputs": [],
      "payable": false,
      "stateMutability": "nonpayable",
      "type": "function"
    },
    {
      "constant": false,
      "inputs": [
        {
          "name": "_tokenAddress",
          "type": "address"
        }
      ],
      "name": "setPlatformToken",
      "outputs": [],
      "payable": false,
      "stateMutability": "nonpayable",
      "type": "function"
    },
    {
      "constant": false,
      "inputs": [
        {
          "name": "_percent",
          "type": "uint256"
        }
      ],
      "name": "setPlatformFee",
      "outputs": [],
      "payable": false,
      "stateMutability": "nonpayable",
      "type": "function"
    },
    {
      "constant": false,
      "inputs": [
        {
          "name": "_percent",
          "type": "uint256"
        }
      ],
      "name": "setPlatformPercentage",
      "outputs": [],
      "payable": false,
      "stateMutability": "nonpayable",
      "type": "function"
    },
    {
      "constant": false,
      "inputs": [
        {
          "name": "_factory",
          "type": "address"
        }
      ],
      "name": "setTokenFactory",
      "outputs": [],
      "payable": false,
      "stateMutability": "nonpayable",
      "type": "function"
    },
    {
      "constant": false,
      "inputs": [
        {
          "name": "_base",
          "type": "uint256"
        },
        {
          "name": "_low",
          "type": "uint256"
        },
        {
          "name": "_mid",
          "type": "uint256"
        },
        {
          "name": "_high",
          "type": "uint256"
        }
      ],
      "name": "setCollateralLevels",
      "outputs": [],
      "payable": false,
      "stateMutability": "nonpayable",
      "type": "function"
    },
    {
      "constant": false,
      "inputs": [],
      "name": "destroy",
      "outputs": [],
      "payable": false,
      "stateMutability": "nonpayable",
      "type": "function"
    }
  ],
  "bytecode": "0x608060405234801561001057600080fd5b5060405160408061180383398101604052805160209091015160008054600160a060020a03938416600160a060020a0319918216179091556001805493909216921691909117905561179c806100676000396000f30060806040526004361061008a5763ffffffff60e060020a6000350416630255a03b811461008f57806312e8e2c3146100b257806314d39bad146100ca578063257e8dde146100e25780632f73a9f814610103578063713b563f146101245780638219a9581461015557806383197ef014610176578063b5f8558c1461018b578063cb582f95146101a0575b600080fd5b34801561009b57600080fd5b506100b0600160a060020a03600435166101c1565b005b3480156100be57600080fd5b506100b060043561049f565b3480156100d657600080fd5b506100b06004356106a7565b3480156100ee57600080fd5b506100b0600160a060020a0360043516610842565b34801561010f57600080fd5b506100b0600160a060020a0360043516610b05565b34801561013057600080fd5b50610139610d15565b60408051600160a060020a039092168252519081900360200190f35b34801561016157600080fd5b506100b0600160a060020a0360043516610d24565b34801561018257600080fd5b506100b0610fe7565b34801561019757600080fd5b506101396111ca565b3480156101ac57600080fd5b506100b06004356024356044356064356111d9565b6000546040805160d960020a6437bbb732b9026020808301919091526c0100000000000000000000000033026025830152825160198184030181526039909201928390528151600160a060020a0390941693633b7bfda093918291908401908083835b602083106102435780518252601f199092019160209182019101610224565b51815160209384036101000a60001901801990921691161790526040805192909401829003822063ffffffff881660e060020a0283526004830152925160248083019650939450929083900301905081600087803b1580156102a457600080fd5b505af11580156102b8573d6000803e3d6000fd5b505050506040513d60208110156102ce57600080fd5b505115156102db57600080fd5b600054604080517f706c6174666f726d2e746f6b656e0000000000000000000000000000000000006020808301919091528251808303600e018152602e909201928390528151600160a060020a039094169363ca446dd993918291908401908083835b6020831061035d5780518252601f19909201916020918201910161033e565b5181516020939093036101000a60001901801990911692169190911790526040805191909301819003812063ffffffff871660e060020a0282526004820152600160a060020a0388166024820152915160448084019550600094509092839003019050818387803b1580156103d157600080fd5b505af11580156103e5573d6000803e3d6000fd5b5050600154604080517fbb39cc3c000000000000000000000000000000000000000000000000000000008152600160a060020a03868116602483015260048201839052600e60448301527f506c6174666f726d20746f6b656e0000000000000000000000000000000000006064830152915191909216935063bb39cc3c9250608480830192600092919082900301818387803b15801561048457600080fd5b505af1158015610498573d6000803e3d6000fd5b5050505050565b6000546040805160d960020a6437bbb732b9026020808301919091526c0100000000000000000000000033026025830152825160198184030181526039909201928390528151600160a060020a0390941693633b7bfda093918291908401908083835b602083106105215780518252601f199092019160209182019101610502565b51815160209384036101000a60001901801990921691161790526040805192909401829003822063ffffffff881660e060020a0283526004830152925160248083019650939450929083900301905081600087803b15801561058257600080fd5b505af1158015610596573d6000803e3d6000fd5b505050506040513d60208110156105ac57600080fd5b505115156105b957600080fd5b600054604080517f706c6174666f726d2e66656500000000000000000000000000000000000000006020808301919091528251808303600c018152602c909201928390528151600160a060020a039094169363e2a4853a93918291908401908083835b6020831061063b5780518252601f19909201916020918201910161061c565b5181516020939093036101000a60001901801990911692169190911790526040805191909301819003812063ffffffff871660e060020a028252600482015260248101889052915160448084019550600094509092839003019050818387803b15801561048457600080fd5b6000546040805160d960020a6437bbb732b9026020808301919091526c0100000000000000000000000033026025830152825160198184030181526039909201928390528151600160a060020a0390941693633b7bfda093918291908401908083835b602083106107295780518252601f19909201916020918201910161070a565b51815160209384036101000a60001901801990921691161790526040805192909401829003822063ffffffff881660e060020a0283526004830152925160248083019650939450929083900301905081600087803b15801561078a57600080fd5b505af115801561079e573d6000803e3d6000fd5b505050506040513d60208110156107b457600080fd5b505115156107c157600080fd5b600054604080517f706c6174666f726d2e70657263656e7461676500000000000000000000000000602080830191909152825180830360130181526033909201928390528151600160a060020a039094169363e2a4853a93918291908401908083836020831061063b5780518252601f19909201916020918201910161061c565b6000546040805160d960020a6437bbb732b9026020808301919091526c0100000000000000000000000033026025830152825160198184030181526039909201928390528151600160a060020a0390941693633b7bfda093918291908401908083835b602083106108c45780518252601f1990920191602091820191016108a5565b51815160209384036101000a60001901801990921691161790526040805192909401829003822063ffffffff881660e060020a0283526004830152925160248083019650939450929083900301905081600087803b15801561092557600080fd5b505af1158015610939573d6000803e3d6000fd5b505050506040513d602081101561094f57600080fd5b5051151561095c57600080fd5b600054604080517f706c6174666f726d2e77616c6c65742e61737365747300000000000000000000602080830191909152825180830360160181526036909201928390528151600160a060020a039094169363ca446dd993918291908401908083835b602083106109de5780518252601f1990920191602091820191016109bf565b5181516020939093036101000a60001901801990911692169190911790526040805191909301819003812063ffffffff871660e060020a0282526004820152600160a060020a0388166024820152915160448084019550600094509092839003019050818387803b158015610a5257600080fd5b505af1158015610a66573d6000803e3d6000fd5b5050600154604080517fbb39cc3c000000000000000000000000000000000000000000000000000000008152600160a060020a03868116602483015260048201839052601660448301527f506c6174666f726d206173736574732077616c6c6574000000000000000000006064830152915191909216935063bb39cc3c9250608480830192600092919082900301818387803b15801561048457600080fd5b6000546040805160d960020a6437bbb732b9026020808301919091526c0100000000000000000000000033026025830152825160198184030181526039909201928390528151600160a060020a0390941693633b7bfda093918291908401908083835b60208310610b875780518252601f199092019160209182019101610b68565b51815160209384036101000a60001901801990921691161790526040805192909401829003822063ffffffff881660e060020a0283526004830152925160248083019650939450929083900301905081600087803b158015610be857600080fd5b505af1158015610bfc573d6000803e3d6000fd5b505050506040513d6020811015610c1257600080fd5b50511515610c1f57600080fd5b600054604080517f706c6174666f726d2e746f6b656e466163746f72790000000000000000000000602080830191909152825180830360150181526035909201928390528151600160a060020a039094169363ca446dd993918291908401908083835b60208310610ca15780518252601f199092019160209182019101610c82565b5181516020939093036101000a60001901801990911692169190911790526040805191909301819003812063ffffffff871660e060020a0282526004820152600160a060020a0388166024820152915160448084019550600094509092839003019050818387803b15801561048457600080fd5b600054600160a060020a031681565b6000546040805160d960020a6437bbb732b9026020808301919091526c0100000000000000000000000033026025830152825160198184030181526039909201928390528151600160a060020a0390941693633b7bfda093918291908401908083835b60208310610da65780518252601f199092019160209182019101610d87565b51815160209384036101000a60001901801990921691161790526040805192909401829003822063ffffffff881660e060020a0283526004830152925160248083019650939450929083900301905081600087803b158015610e0757600080fd5b505af1158015610e1b573d6000803e3d6000fd5b505050506040513d6020811015610e3157600080fd5b50511515610e3e57600080fd5b600054604080517f706c6174666f726d2e77616c6c65742e66756e64730000000000000000000000602080830191909152825180830360150181526035909201928390528151600160a060020a039094169363ca446dd993918291908401908083835b60208310610ec05780518252601f199092019160209182019101610ea1565b5181516020939093036101000a60001901801990911692169190911790526040805191909301819003812063ffffffff871660e060020a0282526004820152600160a060020a0388166024820152915160448084019550600094509092839003019050818387803b158015610f3457600080fd5b505af1158015610f48573d6000803e3d6000fd5b5050600154604080517fbb39cc3c000000000000000000000000000000000000000000000000000000008152600160a060020a03868116602483015260048201839052601560448301527f506c6174666f726d2066756e64732077616c6c657400000000000000000000006064830152915191909216935063bb39cc3c9250608480830192600092919082900301818387803b15801561048457600080fd5b6000546040805160d960020a6437bbb732b9026020808301919091526c0100000000000000000000000033026025830152825160198184030181526039909201928390528151600160a060020a0390941693633b7bfda093918291908401908083835b602083106110695780518252601f19909201916020918201910161104a565b51815160209384036101000a60001901801990921691161790526040805192909401829003822063ffffffff881660e060020a0283526004830152925160248083019650939450929083900301905081600087803b1580156110ca57600080fd5b505af11580156110de573d6000803e3d6000fd5b505050506040513d60208110156110f457600080fd5b5051151561110157600080fd5b600154604080517f42b425aa000000000000000000000000000000000000000000000000000000008152306024820181905233604483015231606482015260006084820181905260a06004830152601760a48301527f506c6174666f726d46756e64732064657374726f79656400000000000000000060c48301529151600160a060020a03909316926342b425aa9260e48084019391929182900301818387803b1580156111ae57600080fd5b505af11580156111c2573d6000803e3d6000fd5b503392505050ff5b600154600160a060020a031681565b600080546040805160d960020a6437bbb732b9026020808301919091526c0100000000000000000000000033026025830152825160198184030181526039909201928390528151600160a060020a0390941693633b7bfda093918291908401908083835b6020831061125c5780518252601f19909201916020918201910161123d565b51815160209384036101000a60001901801990921691161790526040805192909401829003822063ffffffff881660e060020a0283526004830152925160248083019650939450929083900301905081600087803b1580156112bd57600080fd5b505af11580156112d1573d6000803e3d6000fd5b505050506040513d60208110156112e757600080fd5b505115156112f457600080fd5b600054604080517f636f6c6c61746572616c2e6261736500000000000000000000000000000000006020808301919091528251808303600f018152602f909201928390528151600160a060020a039094169363e2a4853a93918291908401908083835b602083106113765780518252601f199092019160209182019101611357565b5181516020939093036101000a60001901801990911692169190911790526040805191909301819003812063ffffffff871660e060020a0282526004820152602481018c9052915160448084019550600094509092839003019050818387803b1580156113e257600080fd5b505af11580156113f6573d6000803e3d6000fd5b50505050600090505b600581101561152257600054604080517f636f6c6c61746572616c2e6c6576656c000000000000000000000000000000006020808301919091526030808301869052835180840390910181526050909201928390528151600160a060020a039094169363e2a4853a93918291908401908083835b602083106114925780518252601f199092019160209182019101611473565b5181516020939093036101000a60001901801990911692169190911790526040805191909301819003812063ffffffff871660e060020a0282526004820152602481018b9052915160448084019550600094509092839003019050818387803b1580156114fe57600080fd5b505af1158015611512573d6000803e3d6000fd5b5050600190920191506113ff9050565b5060055b600a81101561164957600054604080517f636f6c6c61746572616c2e6c6576656c000000000000000000000000000000006020808301919091526030808301869052835180840390910181526050909201928390528151600160a060020a039094169363e2a4853a93918291908401908083835b602083106115b95780518252601f19909201916020918201910161159a565b5181516020939093036101000a60001901801990911692169190911790526040805191909301819003812063ffffffff871660e060020a0282526004820152602481018a9052915160448084019550600094509092839003019050818387803b15801561162557600080fd5b505af1158015611639573d6000803e3d6000fd5b5050600190920191506115269050565b50600a5b601981101561049857600054604080517f636f6c6c61746572616c2e6c6576656c000000000000000000000000000000006020808301919091526030808301869052835180840390910181526050909201928390528151600160a060020a039094169363e2a4853a93918291908401908083835b602083106116e05780518252601f1990920191602091820191016116c1565b5181516020939093036101000a60001901801990911692169190911790526040805191909301819003812063ffffffff871660e060020a028252600482015260248101899052915160448084019550600094509092839003019050818387803b15801561174c57600080fd5b505af1158015611760573d6000803e3d6000fd5b50506001909201915061164d90505600a165627a7a72305820076bc03d1a527928fb52434119d29e910915ef4b29163a36727673522fd8fc250029",
  "source": "pragma solidity ^0.4.24;\n\nimport '../database/Database.sol';\nimport '../database/Events.sol';\n\ncontract Platform {\n\n  Database public database;\n  Events public events;\n\n  // @notice initialize database\n  constructor(address _database, address _events)\n  public {\n    database = Database(_database);\n    events = Events(_events);\n  }\n\n  // @notice The wallet to receive payments here before initiating crowdsale\n  // @dev will overwrite old wallet address\n  function setPlatformFundsWallet(address _walletAddress)\n  external\n  onlyOwner {\n    database.setAddress(keccak256(abi.encodePacked(\"platform.wallet.funds\")), _walletAddress);\n    //emit LogPlatformWallet(_walletAddress);\n    events.registration('Platform funds wallet', _walletAddress);\n  }\n\n  // @notice The wallet to receive asset tokens here before initiating crowdsale\n  // @dev will overwrite old wallet address\n  function setPlatformAssetsWallet(address _walletAddress)\n  external\n  onlyOwner {\n    database.setAddress(keccak256(abi.encodePacked(\"platform.wallet.assets\")), _walletAddress);\n    //emit LogPlatformWallet(_walletAddress);\n    events.registration('Platform assets wallet', _walletAddress);\n  }\n\n  // @notice The token that the platform uses for holding collateral\n  function setPlatformToken(address _tokenAddress)\n  external\n  onlyOwner {\n    //@dev Set the address for the platform token\n    database.setAddress(keccak256(abi.encodePacked(\"platform.token\")), _tokenAddress);\n    events.registration('Platform token', _tokenAddress);\n  }\n\n  // @notice The percentage of the payment that the platform receives when investors contribute\n  function setPlatformFee(uint _percent)\n  external\n  onlyOwner {\n    database.setUint(keccak256(abi.encodePacked(\"platform.fee\")), _percent);\n  }\n\n  // @notice The percentage of the asset tokens the platform receives from the crowdsale\n  function setPlatformPercentage(uint _percent)\n  external\n  onlyOwner {\n    database.setUint(keccak256(abi.encodePacked(\"platform.percentage\")), _percent);\n  }\n\n  // @notice Set the address of the token factory that clones the asset tokens\n  function setTokenFactory(address _factory)\n  external\n  onlyOwner {\n    database.setAddress(keccak256(abi.encodePacked(\"platform.tokenFactory\")), _factory);\n  }\n\n  // @notice Set the required collateral based on how many assets are managed by a user\n  function setCollateralLevels(uint _base, uint _low, uint _mid, uint _high)\n  external\n  onlyOwner {\n    database.setUint(keccak256(abi.encodePacked(\"collateral.base\")), _base);\n    for(uint i=0; i<5; i++){\n      database.setUint(keccak256(abi.encodePacked(\"collateral.level\", i)), _low);\n    }\n    for(i=5; i<10; i++){\n      database.setUint(keccak256(abi.encodePacked(\"collateral.level\", i)), _mid);\n    }\n    for(i=10; i<25; i++){\n      database.setUint(keccak256(abi.encodePacked(\"collateral.level\", i)), _high);\n    }\n  }\n\n  /*\n  function setBurnrate(uint _percent)\n  external\n  onlyOwner {\n    require(_percent < 100 && _percent >= 0);\n    database.setUint(keccak256(abi.encodePacked(\"platform.burnRate\")), _percent);\n  }\n  */\n\n  // @notice platform owners can destroy contract here\n  function destroy()\n  onlyOwner\n  external {\n    events.transaction('PlatformFunds destroyed', address(this), msg.sender, address(this).balance, address(0));\n    selfdestruct(msg.sender);\n  }\n\n  //////////////////////////////////////////////////////////////////////////////////////////////////////////////////////////////////\n  //                                                Modifiers                                                                     //\n  //////////////////////////////////////////////////////////////////////////////////////////////////////////////////////////////////\n\n  // @notice Sender must be a registered owner\n  modifier onlyOwner {\n    require(database.boolStorage(keccak256(abi.encodePacked(\"owner\", msg.sender))));\n    _;\n  }\n\n\n\n\n\n\n}\n",
  "sourcePath": "/home/iamonuwa/Projects/MyBitFoundation/MyBit-Network.tech/contracts/ecosystem/Platform.sol",
  "compiler": {
    "name": "solc",
    "version": "0.4.24+commit.e67f0147.Emscripten.clang"
  },
  "schemaVersion": "3.0.9",
  "updatedAt": "2020-07-27T21:29:54.382Z",
  "devdoc": {
    "methods": {}
  },
  "userdoc": {
    "methods": {}
  }
}