{
  "contractName": "SafeMathWrapper",
  "abi": [
    {
      "constant": true,
      "inputs": [
        {
          "name": "a",
          "type": "uint256"
        },
        {
          "name": "b",
          "type": "uint256"
        }
      ],
      "name": "multiply",
      "outputs": [
        {
          "name": "",
          "type": "uint256"
        }
      ],
      "payable": false,
      "stateMutability": "pure",
      "type": "function"
    },
    {
      "constant": true,
      "inputs": [
        {
          "name": "a",
          "type": "uint256"
        },
        {
          "name": "b",
          "type": "uint256"
        }
      ],
      "name": "divide",
      "outputs": [
        {
          "name": "",
          "type": "uint256"
        }
      ],
      "payable": false,
      "stateMutability": "pure",
      "type": "function"
    },
    {
      "constant": true,
      "inputs": [
        {
          "name": "a",
          "type": "uint256"
        },
        {
          "name": "b",
          "type": "uint256"
        }
      ],
      "name": "subtract",
      "outputs": [
        {
          "name": "",
          "type": "uint256"
        }
      ],
      "payable": false,
      "stateMutability": "pure",
      "type": "function"
    },
    {
      "constant": true,
      "inputs": [
        {
          "name": "a",
          "type": "uint256"
        },
        {
          "name": "b",
          "type": "uint256"
        }
      ],
      "name": "addto",
      "outputs": [
        {
          "name": "",
          "type": "uint256"
        }
      ],
      "payable": false,
      "stateMutability": "pure",
      "type": "function"
    },
    {
      "constant": true,
      "inputs": [
        {
          "name": "a",
          "type": "uint256"
        },
        {
          "name": "b",
          "type": "uint256"
        }
      ],
      "name": "fraction",
      "outputs": [
        {
          "name": "",
          "type": "uint256"
        }
      ],
      "payable": false,
      "stateMutability": "pure",
      "type": "function"
    }
  ],
  "bytecode": "0x608060405234801561001057600080fd5b50610219806100206000396000f30060806040526004361061006c5763ffffffff7c01000000000000000000000000000000000000000000000000000000006000350416630ec410f381146100715780630f1530e41461009e578063165c4a16146100b95780633ef5e445146100d4578063f88e9fbf146100ef575b600080fd5b34801561007d57600080fd5b5061008c60043560243561010a565b60408051918252519081900360200190f35b3480156100aa57600080fd5b5061008c600435602435610123565b3480156100c557600080fd5b5061008c600435602435610135565b3480156100e057600080fd5b5061008c600435602435610147565b3480156100fb57600080fd5b5061008c600435602435610159565b600061011c838363ffffffff61016b16565b9392505050565b600061011c838363ffffffff61018516565b600061011c838363ffffffff61019b16565b600061011c838363ffffffff6101c616565b600061011c838363ffffffff6101d816565b60008282018381101561017a57fe5b8091505b5092915050565b600061011c610194848461019b565b60646101d8565b6000808315156101ae576000915061017e565b508282028284828115156101be57fe5b041461017a57fe5b6000828211156101d257fe5b50900390565b600081838115156101e557fe5b0493925050505600a165627a7a72305820e07bc1cbd22843bcf76c9c57d6d3b0a63882ec8ba011e50bef51228100646bd10029",
  "source": "pragma solidity ^0.4.24;\n\nimport \"../math/SafeMath.sol\";\n\ncontract SafeMathWrapper {\n  using SafeMath for uint;\n  using SafeMath for bytes;\n\n  function multiply(uint256 a, uint256 b) external pure returns (uint256) {\n    return a.mul(b);\n  }\n\n  function divide(uint256 a, uint256 b) external pure returns (uint256) {\n    return a.div(b);\n  }\n\n  function subtract(uint256 a, uint256 b) external pure returns (uint256) {\n    return a.sub(b);\n  }\n\n  function addto(uint256 a, uint256 b) external pure returns (uint256) {\n    return a.add(b);\n  }\n\n  function fraction(uint256 a, uint256 b) external pure returns (uint256) {\n    return a.getFractionalAmount(b);\n  }\n}\n",
  "sourcePath": "/home/iamonuwa/Projects/MyBitFoundation/MyBit-Network.tech/contracts/test/SafeMathWrapper.sol",
  "compiler": {
    "name": "solc",
    "version": "0.4.24+commit.e67f0147.Emscripten.clang"
  },
  "schemaVersion": "3.0.9",
  "updatedAt": "2020-07-27T21:29:57.053Z",
  "devdoc": {
    "methods": {}
  },
  "userdoc": {
    "methods": {}
  }
}